:10000000D830002021AF0100A5AF010059950100B3
:1000100000000000000000000000000000000000E0
:10002000000000000000000000000000A5AF01007B
:100030000000000000000000A5AF0100A5AF010016
:10004000A5AF0100A5AF0100A5AF0100ED42010081
:10005000C12E0100A5AF0100A5AF01005D6A01003E
:10006000716A0100856A0100996A0100AD6A0100A8
:10007000C16A010029A201003DA2010051A20100B4
:1000800065A2010079A201008DA20100A1A20100D8
:10009000B5A2010045230100A5AF0100A5AF0100F5
:1000A00008B5064B064803331B1A062B00D808BDBB
:1000B000044B002BFBD09847F9E7C046108D020097
:1000C000108D02000000000008B50748074B1B1AFE
:1000D0009B10DA0FD318591000D108BD044A002A2A
:1000E000FBD09047F9E7C046108D0200108D02004A
:1000F0000000000010B5074C2378002B09D1FFF752
:10010000CFFF054B002B02D0044800E000BF0123C5
:10011000237010BD7802002000000000108D020046
:1001200008B5094B002B03D00848094900E000BF7F
:1001300008480368002B03D0074B002B00D09847DA
:10014000FFF7C2FF08BDC04600000000108D02008E
:100150007C020020108D02000000000080B500AF7E
:10016000BFF34F8F024B034ADA60BFF34F8FFEE7B6
:1001700000ED00E00400FA0580B500AF024B1B68FB
:10018000181CBD4680BDC0461404002090B587B041
:1001900002AF021CFB1D1A703B1C0F33FA1D1278B4
:1001A000D2091A703B1C0E33FA1D127852091A70CC
:1001B0001B4BBB603B1C0F331B78002B0ED13B1C31
:1001C0000F331B789B001022D219D318083B1A68F2
:1001D0003B1C0E331B78DB01D3181CE0114B9847F6
:1001E000031C002B0FD00F4B9847011C0E4A6823AD
:1001F000FF330E4800900E480190081C01210D4C61
:10020000A047002307E00C480949074A6823FF3349
:100210000A4CA047FEE7181CBD4605B090BDC0467D
:100220000044004179010000C4400200F440020093
:100230000C4102003D1401001441020075CC010084
:1002400080B500AF014B9847BD4680BD5D01000001
:1002500080B582B000AF021CFB1D1A70FB1D1B781D
:10026000181C034B9847031C181CBD4602B080BDE8
:100270008D01000080B584B000AF021CFB1D1A7018
:10028000FB1D1B78181C0C4B9847031CFB60FB1DC7
:100290001A781F2313400122111C99400B1CBB60CC
:1002A000FB681B69BA6813405A1E9341DBB2181CE5
:1002B000BD4604B080BDC0465102000080B584B088
:1002C00000AFF8607A603B1C0B330A1C1A703B1CB1
:1002D0000B331B78002B08D07B68002B02D1064B18
:1002E000FA685A61054B01221A70FE239B05181CFF
:1002F000BD4604B080BDC046300A002094020020F4
:1003000080B584B000AFF8607A603B1C0B330A1CE8
:100310001A707B68002B0AD13B1C0B331B78002B17
:1003200002D00A4BFA689A61084B9B6909E03B1CB2
:100330000B331B78002B02D0054BFA689A61044BF3
:100340009B69181CBD4604B080BDC04664090020EE
:100350000C09002080B584B000AFF8607A603B1CC7
:100360000B330A1C1A707B68002B0AD13B1C0B3321
:100370001B78002B02D00A4BFA689A62084B9B6AE2
:1003800009E03B1C0B331B78002B02D0054BFA68AD
:100390009A62044B9B6A181CBD4604B080BDC046DF
:1003A000640900200C09002080B584B000AFF8601B
:1003B0007A603B1C0B330A1C1A707B68002B0AD135
:1003C0003B1C0B331B78002B02D00A4BFA68DA6215
:1003D000084BDB6A09E03B1C0B331B78002B02D077
:1003E000054BFA68DA62044BDB6A181CBD4604B0A0
:1003F00080BDC046640900200C09002080B584B08F
:1004000000AFF8607A603B1C0B330A1C1A707B68E3
:10041000002B0AD13B1C0B331B78002B02D00A4B5C
:10042000FA681A63084B1B6B09E03B1C0B331B7803
:10043000002B02D0054BFA681A63044B1B6B181C87
:10044000BD4604B080BDC046640900200C090020F0
:1004500080B584B000AFF8607A603B1C0B330A1C97
:100460001A707B68002B0AD13B1C0B331B78002BC6
:1004700002D00A4BFA685A63084B5B6B09E03B1CDD
:100480000B331B78002B02D0054BFA685A63044BE0
:100490005B6B181CBD4604B080BDC04664090020DB
:1004A0000C09002080B584B000AFF8607A603B1C76
:1004B0000B330A1C1A707B68002B0AD13B1C0B33D0
:1004C0001B78002B02D00A4BFA689A63084B9B6B8F
:1004D00009E03B1C0B331B78002B02D0054BFA685C
:1004E0009A63044B9B6B181CBD4604B080BDC0468C
:1004F000640900200C09002080B584B000AFF860CA
:100500007A603B1C0B330A1C1A707B68002B16D1D7
:100510003B1C0B331B78002B0ED0164BFA681A6469
:10052000154B164A1A60144B04221A71124B012201
:100530005A71134B01221A700E4B1B6C15E03B1CB9
:100540000B331B78002B0ED00E4BFA681A640A4B43
:100550000D4A1A60084B04221A71074B01225A7186
:10056000074B01221A70074B1B6C181CBD4604B0C8
:1005700080BDC04664090020D4080020A4090020E2
:10058000E80200200C0900204C09002080B582B050
:1005900000AF78600A1CFB1C1A70FB1C1B78002B38
:1005A00005D0054B78689847021C044B5A617B685C
:1005B000181CBD4602B080BD050D0200140D0020C0
:1005C00080B582B000AF78600A1CFB1C1A70FB1C5F
:1005D0001B78002B05D0054B78689847021C044B0C
:1005E0005A617B68181CBD4602B080BD050D020033
:1005F000480B002080B582B000AF78600A1CFB1C5D
:100600001A70FB1C1B78002B05D0084B78689847A4
:10061000021C074B5A61064BDA68064B101C9847C0
:10062000031C181CBD4602B080BDC046050D02006B
:10063000040C0020B51A020080B582B000AF7860CB
:100640000A1CFB1C1A70FB1C1B78002B05D0084BE6
:1006500078689847021C074B5A61064BDA68064BCC
:10066000101C9847031C181CBD4602B080BDC04634
:10067000050D0200800A0020B51A020080B584B082
:1006800000AFF8607A603B1C0B330A1C1A707B6861
:10069000002B0AD13B1C0B331B78002B02D00A4BDA
:1006A000FA685A60084B5B6809E03B1C0B331B7807
:1006B000002B02D0054BFA685A60044B5B68181C8B
:1006C000BD4604B080BDC046140D0020480B00207C
:1006D00080B584B000AFF8607A603B1C0B330A1C15
:1006E0001A707B68002B0AD13B1C0B331B78002B44
:1006F00002D00A4BFA689A60084B9B6809E03B1CE1
:100700000B331B78002B02D0054BFA689A60044B20
:100710009B68181CBD4604B080BDC046140D002067
:10072000480B002080B582B000AF78600A1CFB1C2B
:100730001A70054BDA68054B101C9847031C181CEF
:10074000BD4602B080BDC046140D0020B51A02009F
:1007500080B582B000AF78600A1CFB1C1A70054B94
:10076000DA68054B101C9847031C181CBD4602B0E4
:1007700080BDC046480B0020B51A020080B584B089
:1007800000AFF8607A603B1C0B330A1C1A707B6860
:10079000002B0AD13B1C0B331B78002B02D00A4BD9
:1007A000FA685A62084B5B6A09E03B1C0B331B7802
:1007B000002B02D0054BFA685A62044B5B6A181C86
:1007C000BD4604B080BDC046640900200C0900206D
:1007D00080B584B000AFF8607A603B1C0B330A1C14
:1007E0001A707B68002B0AD13B1C0B331B78002B43
:1007F00002D00A4BFA681A62084B1B6A09E03B1CDC
:100800000B331B78002B02D0054BFA681A62044B9D
:100810001B6A181CBD4604B080BDC0466409002098
:100820000C09002080B584B000AFF8607A603B1CF2
:100830000B330A1C1A707B68002B06D1054B5A7CBF
:10084000054B101C9847031C00E00023181CBD46F4
:1008500004B080BD140D0020B51A020080B584B02C
:1008600000AFF8607A603B1C0B330A1C1A703B1C0B
:100870000B331B78002B09D0074BF8689847021CF4
:10088000064B101C9847021C054B1A60044B1B6852
:10089000181CBD4604B080BD050D0200B51A02004B
:1008A0007C00002080B584B000AFF8607A603B1C0B
:1008B0000B330A1C1A70034BDB69181CBD4604B0CD
:1008C00080BDC046300A002080B584B000AFF8601B
:1008D0007A603B1C0B330A1C1A70034B5B6A181CB2
:1008E000BD4604B080BDC046300A002080B584B04B
:1008F00000AFF8607A603B1C0B330A1C1A70034B84
:10090000DB6B181CBD4604B080BDC046300A002019
:1009100080B584B000AFF8607A603B1C0B330A1CD2
:100920001A70034B1B6C181CBD4604B080BDC0463A
:10093000300A002080B584B000AFF8607A603B1CBC
:100940000B330A1C1A70034B5B6C181CBD4604B0B9
:1009500080BDC046300A002080B584B000AFF8608A
:100960007A603B1C0B330A1C1A70034B9B6C181CDF
:10097000BD4604B080BDC046300A002080B584B0BA
:1009800000AFF8607A603B1C0B330A1C1A70034BF3
:10099000DB69181CBD4604B080BDC0464C0C00206D
:1009A00080B584B000AFF8607A603B1C0B330A1C42
:1009B0001A70034B5B6A181CBD4604B080BDC0466C
:1009C0004C0C002090B585B000AFF8607A603B1CFD
:1009D0000B330A1C1A707B68002B17D13B1C0B339E
:1009E0001B78002B0FD0174BFA681A65164B1B7833
:1009F000022B08D1134B196D124B5A6D114B9B6D85
:100A00001048124CA0470F4B1B6D16E03B1C0B33DC
:100A10001B78002B0FD00E4BFA681A650D4B1B7814
:100A2000022B08D10A4B196D094B5A6D084B9B6D6F
:100A30000748064CA047064B1B6D181CBD4605B069
:100A400090BDC046A00C00206409002035A2000023
:100A5000900B00200C09002090B585B000AFF86025
:100A60007A603B1C0B330A1C1A707B68002B17D171
:100A70003B1C0B331B78002B0FD0174BFA685A65C1
:100A8000164B1B78022B08D1134B196D124B5A6D64
:100A9000114B9B6D1048124CA0470F4B5B6D16E03D
:100AA0003B1C0B331B78002B0FD00E4BFA685A659A
:100AB0000D4B1B78022B08D10A4B196D094B5A6D4F
:100AC000084B9B6D0748064CA047064B5B6D181CF6
:100AD000BD4605B090BDC046A00C002064090020B2
:100AE00035A20000900B00200C09002090B585B0C5
:100AF00000AFF8607A603B1C0B330A1C1A707B68ED
:100B0000002B17D13B1C0B331B78002B0FD0174B3E
:100B1000FA689A65164B1B78022B08D1134B196D96
:100B2000124B5A6D114B9B6D1048124CA0470F4B46
:100B30009B6D16E03B1C0B331B78002B0FD00E4B2C
:100B4000FA689A650D4B1B78022B08D10A4B196D78
:100B5000094B5A6D084B9B6D0748064CA047064B46
:100B60009B6D181CBD4605B090BDC046A00C002072
:100B70006409002035A20000900B00200C09002021
:100B800090B585B000AFF8607A603B1C0B330A1C4F
:100B90001A707B68002B17D13B1C0B331B78002B82
:100BA0000FD0174BFA68DA65164B1B78032B08D168
:100BB000134BD96D124B1A6E114B5B6E1048124CD1
:100BC000A0470F4BDB6D16E03B1C0B331B78002B53
:100BD0000FD00E4BFA68DA650D4B1B78032B08D14A
:100BE0000A4BD96D094B1A6E084B5B6E0748064CD1
:100BF000A047064BDB6D181CBD4605B090BDC04636
:100C0000A00C00206409002035A20000900B0020F9
:100C10000C09002090B585B000AFF8607A603B1CED
:100C20000B330A1C1A707B68002B17D13B1C0B334B
:100C30001B78002B0FD0174BFA681A66164B1B78DF
:100C4000032B08D1134BD96D124B1A6E114B5B6EEF
:100C50001048124CA0470F4B1B6E16E03B1C0B3389
:100C60001B78002B0FD00E4BFA681A660D4B1B78C1
:100C7000032B08D10A4BD96D094B1A6E084B5B6EDA
:100C80000748064CA047064B1B6E181CBD4605B016
:100C900090BDC046A00C00206409002035A20000D1
:100CA000900B00200C09002090B585B000AFF860D3
:100CB0007A603B1C0B330A1C1A707B68002B17D11F
:100CC0003B1C0B331B78002B0FD0174BFA685A666E
:100CD000164B1B78032B08D1134BD96D124B1A6E90
:100CE000114B5B6E1048124CA0470F4B5B6E16E029
:100CF0003B1C0B331B78002B0FD00E4BFA685A6647
:100D00000D4B1B78032B08D10A4BD96D094B1A6E7A
:100D1000084B5B6E0748064CA047064B5B6E181CE1
:100D2000BD4605B090BDC046A00C0020640900205F
:100D300035A20000900B00200C09002090B585B072
:100D400000AFF8607A603B1C0B330A1C1A707B689A
:100D5000002B17D13B1C0B331B78002B0FD0174BEC
:100D6000FA689A66164B1B78042B08D1134B996EC0
:100D7000124BDA6E114B1B6F1048124CA0470F4BF1
:100D80009B6E16E03B1C0B331B78002B0FD00E4BD9
:100D9000FA689A660D4B1B78042B08D10A4B996EA2
:100DA000094BDA6E084B1B6F0748064CA047064BF1
:100DB0009B6E181CBD4605B090BDC046A00C00201F
:100DC0006409002035A20000900B00200C090020CF
:100DD00090B585B000AFF8607A603B1C0B330A1CFD
:100DE0001A707B68002B17D13B1C0B331B78002B30
:100DF0000FD0174BFA68DA66164B1B78042B08D114
:100E0000134B996E124BDA6E114B1B6F1048124C3C
:100E1000A0470F4BDB6E16E03B1C0B331B78002BFF
:100E20000FD00E4BFA68DA660D4B1B78042B08D1F5
:100E30000A4B996E094BDA6E084B1B6F0748064C3C
:100E4000A047064BDB6E181CBD4605B090BDC046E2
:100E5000A00C00206409002035A20000900B0020A7
:100E60000C09002090B585B000AFF8607A603B1C9B
:100E70000B330A1C1A707B68002B17D13B1C0B33F9
:100E80001B78002B0FD0174BFA681A67164B1B788C
:100E9000042B08D1134B996E124BDA6E114B1B6F5A
:100EA0001048124CA0470F4B1B6F16E03B1C0B3336
:100EB0001B78002B0FD00E4BFA681A670D4B1B786E
:100EC000042B08D10A4B996E094BDA6E084B1B6F45
:100ED0000748064CA047064B1B6F181CBD4605B0C3
:100EE00090BDC046A00C00206409002035A200007F
:100EF000900B00200C09002080B584B000AFF86092
:100F00007A603B1C0B330A1C1A707B68002B0DD1D6
:100F10003B1C0B331B78002B05D00D4BFA685A6035
:100F20000B4BFA689A600A4B5B680CE03B1C0B3376
:100F30001B78002B05D0074BFA685A60054BFA68FE
:100F40009A60044B5B68181CBD4604B080BDC04667
:100F5000640900200C09002080B584B000AFF8605F
:100F60007A603B1C0B330A1C1A707B68002B0AD179
:100F70003B1C0B331B78002B02D00A4BFA68DA605B
:100F8000084BDB6809E03B1C0B331B78002B02D0BD
:100F9000054BFA68DA60044BDB68181CBD4604B0E8
:100FA00080BDC046640900200C09002080B584B0D3
:100FB00000AFF8607A603B1C0B330A1C1A703B1CB4
:100FC0000B331B78002B0ED00A4BFA685A650A4B7C
:100FD0000A4A1A60084B04221A71074B01225A71FF
:100FE000074B01221A70034B5B6D181CBD4604B001
:100FF00080BDC04664090020D4080020B809002044
:10100000E802002080B584B000AFF8607A603B1C35
:101010000B330A1C1A707B68002B12D13B1C0B335C
:101020001B78002B06D0124BF8689847031CDAB2E5
:10103000104B1A700F4B1A780F4B101C9847031C5B
:1010400011E03B1C0B331B78002B06D0084BF868D3
:101050009847031CDAB2094B1A70084B1A78064BF2
:10106000101C9847031C181CBD4604B080BDC04628
:10107000050D020064090020B51A02000C090020C9
:1010800080B584B000AFF8607A603B1C0B330A1C5B
:101090001A703B1C0B331B78002B02D0044BFA68F0
:1010A0005A61034B5B69181CBD4604B080BDC04645
:1010B000300A002080B584B000AFF8607A603B1C35
:1010C0000B330A1C1A703B1C0B331B78002B02D00D
:1010D000044BFA681A65034B1B6D181CBD4604B01F
:1010E00080BDC0466409002080B584B000AFF860C0
:1010F0007A603B1C0B330A1C1A703B1C0B331B78A9
:10110000002B06D0084BF8689847031C9AB2074B8F
:101110001A80064B1A88064B101C9847031C181C93
:10112000BD4604B080BDC046050D02005C01002034
:10113000B51A020080B584B000AFF8607A603B1C3D
:101140000B330A1C1A703B1C0B331B78002B06D088
:10115000084BF8689847031C9AB2074B1A80064B55
:101160001A88064B101C9847031C181CBD4604B077
:1011700080BDC046050D02002A000020B51A0200FD
:1011800080B584B000AFF8607A603B1C0B330A1C5A
:101190001A703B1C0B331B78002B06D0084BF868E9
:1011A0009847031C9AB2074B1A80064B1A88064BC5
:1011B000101C9847031C181CBD4604B080BDC046D7
:1011C000050D020054000020B51A020080B584B05D
:1011D00000AFF8607A603B1C0B330A1C1A703B1C92
:1011E0000B331B78002B0ED00A4BFA681A600A4B9F
:1011F000084A1A60084B04221A71074B01225A71DF
:10120000064B01221A70034B1B68181CBD4604B024
:1012100080BDC04674010020D4080020E8020020F0
:1012200080B584B000AFF8607A603B1C0B330A1CB9
:101230001A703B1C0B331B78002B0ED00A4BFA683C
:101240001A600A4B084A1A60084B04221A71074BAD
:1012500001225A71064B01221A70034B1B68181C9D
:10126000BD4604B080BDC04678010020D4080020EF
:10127000E802002080B584B000AFF8607A603B1CC3
:101280000B330A1C1A700023181CBD4604B080BD25
:1012900080B584B000AFF8607A603B1C0B330A1C49
:1012A0001A70054B1A88054B101C9847031C181C14
:1012B000BD4604B080BDC04680010020B51A0200C2
:1012C00080B584B000AFF8607A603B1C0B330A1C19
:1012D0001A70054B1A88054B101C9847031C181CE4
:1012E000BD4604B080BDC04682010020B51A020090
:1012F00080B584B000AFF8607A603B1C0B330A1CE9
:101300001A70034B1B6B181CBD4604B080BDC04651
:10131000300A002080B584B000AFF8607A603B1CD2
:101320000B330A1C1A70034B1B6B181CBD4604B010
:1013300080BDC0464C0C0020F0B5474680B4DEB0FE
:1013400004AFA32040003B1800221A704621FF3151
:101350007B1800221A700023B2225200D2191360A7
:101360006420FF303B1800221A70B12149007B181D
:1013700000221A70A2225200BB1800221A70012308
:10138000AE204000C01903600023A0214900C91904
:101390000B604622FF32BB18E34A12781A70E34A08
:1013A000E34B101C191CE34B9847031CB220400070
:1013B000C01903600CE1B2214900C9190B68181C5F
:1013C000DD4B9847031CD9B2B1225200BB18B120A3
:1013D00040003A1812788A181A706421FF317B187D
:1013E0001B78002B22D1B2225200D2191368181C8C
:1013F000D14B9847031C391C2431B2204000C0193E
:101400000268081C111C1A1CCC4B9847B2214900D9
:10141000C9190B68181CC84B9847031CC84AB4204C
:101420004000C01982180021D154A4E06421FF318A
:101430007B181B78012B22D1B2225200D2191368DB
:10144000181CBD4B9847031C391C1C31B2204000AE
:10145000C0190268081C111C1A1CB84B9847B2210D
:101460004900C9190B68181CB34B9847031CB54AAF
:10147000B4204000C01982180021D1547BE06421BF
:10148000FF317B181B78022B4ED1B2225200D219A9
:1014900013681B782B2B0ED10123AE204000C019FE
:1014A0000360B2214900C9190B680133B22252000E
:1014B000D219136015E0B2204000C01903681B78F0
:1014C0002D2B0ED101235B42AE214900C9190B60BF
:1014D000B2225200D21913680133B2204000C01961
:1014E0000360B2214900C9190B68181C924B984738
:1014F000031C391C0C31B2204000C0190268081CC2
:10150000111C1A1C8D4B9847B2214900C9190B6850
:10151000181C894B9847031C8B4AB4204000C01903
:1015200082180021D15426E06421FF317B181B78FA
:10153000032B20D1B2225200D2191368181C7E4B03
:101540009847031C391DB2204000C0190268081CCE
:10155000111C1A1C794B9847B2214900C9190B6814
:10156000181C754B9847031C784AB4204000C019DA
:1015700082180021D154B12149007B181B785A1CD4
:101580004620FF303B181B789A420ADA684B00204D
:10159000191C684B9847031CB2214900C9190B60FC
:1015A00004E00023B2225200D21913606420FF30FD
:1015B0003B186421FF317A18127801321A70B12277
:1015C0005200BB18B12040003A18127801321A704C
:1015D000B2214900C9190B68002B00D0EBE63B1C77
:1015E0002433181C00210A22594B9847031C092B4D
:1015F00001D902F0FCF99A00564BD3181B689F469C
:10160000504BB4225200D219D3181B78303B092B0F
:1016100000D988E39A00504BD3181B689F464A4B69
:10162000B4204000C019C3181A78A22149007B18C1
:10163000303A511E8A411A70484BA22040003A1895
:1016400012781A70454B1B78002B0CD0444A3D236E
:101650000121D154434A3D230121D154424B181C4E
:10166000424B984765E33E4A3D230021D1543D4A11
:101670003D230021D1543E4B181C3E4B984758E364
:10168000314BB4214900C919CB181A78A220400067
:101690003B18303A511E8A411A70374BA22149003B
:1016A0007A1812781A70A2225200BB181B78002BED
:1016B00004D0324B181C2D4B98473AE3304B181C82
:1016C0002A4B984735E33B1C0C33181C00210A2297
:1016D0001F4B9847031C9E204000C01903603B1D10
:1016E000181C00210A221A4B9847031CAC21490000
:1016F000C9190B6000239C225200D21913600023E9
:10170000AA204000C01903609E214900C9190B6836
:10171000092B00D90CE39E225200D21913689A00BB
:10172000184BD3181B689F460C0F00200D0F00208C
:10173000AC41020075D1010065D10100BDC90100B5
:10174000BCFEFFFFB4FEFFFFA4FEFFFF9CFEFFFFF9
:10175000B1D30100D8480200004902007003002004
:10176000640900200C090020B4410200E1CE010010
:10177000D041020075CC010071030020EC41020051
:101780000842020028490200BB4BAC204000C019AF
:1017900002689200D358DBB2181CB84B9847031C60
:1017A0009C214900C9190B60B54A9C204000C01912
:1017B0000368101C191CB34B9847F7E0AC21490093
:1017C000C9190B68172B36DCAC225200D2191368EA
:1017D0000B2B0DDD0123AA204000C0190360AC21B2
:1017E0004900C9190B680C3BAC225200D219136096
:1017F000A54BAC204000C01902689200D3580021CC
:10180000AA204000C0190268081C00219847031C48
:10181000A0214900C9190B609C4BA0225200D2198B
:1018200010689847031C0C1C994A101C1A1C231C96
:1018300094498847BAE0B9E0AC204000C019036879
:101840000B2B22DC934BAC214900C9190A6892008A
:10185000D3580021AA204000C0190268081C0021AA
:101860009847031CA0214900C9190B60874BA0228F
:101870005200D21910689847031C0C1C864A101C91
:101880001A1C231C7F49884790E08FE0AC20400061
:10189000C0190368082B22DC804BAC214900C91910
:1018A0000A689200D3580021AA204000C01902689B
:1018B000081C00219847031CA0214900C9190B608E
:1018C000724BA0225200D21910689847031C0C1CBE
:1018D000734A101C1A1C231C6A49884766E065E09D
:1018E000AC204000C01903680F2B2DDCAC2149004F
:1018F000C9190B68062B04DD0123AA225200D21954
:101900001360684BAC204000C01902689200D358A5
:101910000021AA204000C0190268081C0021984735
:10192000031CA0214900C9190B60584BA02252008A
:10193000D21910689847031C0C1C5B4A101C1A1C17
:10194000231C5049884731E030E0AC204000C019EA
:1019500003680B2B22DC554BAC214900C9190A68DE
:101960009200D3580021AA204000C0190268081C28
:1019700000219847031CA0214900C9190B60434B63
:10198000A0225200D21910689847031C0C1C484A28
:10199000101C1A1C231C3B49884707E006E0454BF6
:1019A000181C454B9847454B9847C046C0E1444BEF
:1019B000B4204000C019C3181A78A22149007B182E
:1019C000303A511E8A411A70A2225200BB181B786D
:1019D000002B07D03B4B01221A703B4B181C364B97
:1019E0009847A6E1374B00221A70384B181C324B2F
:1019F00098479EE1324BB4204000C019C3181A78B2
:101A0000A22149007B18303A511E8A411A70304B8E
:101A100098478EE12A4BB4225200D219D3181A7873
:101A2000A22040003B18303A511E8A411A70294BBF
:101A3000A22149007A1812781A70264B1B78002BC5
:101A40000CD0254A3D230121D154244A3D230121B4
:101A5000D154234B181C184B98476AE11E4A3D236A
:101A60000021D1541D4A3D230021D1541D4B181C87
:101A7000114B98475DE1C046C8480200750200005E
:101A80002442020075CC0100D00600205937020024
:101A900038420200AC050020504202002C06002013
:101AA0006442020050070020784202002C0500200A
:101AB0008C4202009C420200E1CE01007D46000003
:101AC000A4FEFFFF6F030020A0420200B842020004
:101AD00061BC000070030020640900200C09002094
:101AE000D0420200E842020000239A225200D2199A
:101AF00013603420FF303B1800221A703B1C0C335B
:101B0000181C00210A22E44B9847031CAE2149000F
:101B1000C9190A68534396225200D21913603B1D1B
:101B2000181C00210A22DC4B9847031CAE20400001
:101B3000C0190268534394214900C9190B603B1D29
:101B4000181CD64B9847021C3420FF303B181A70E3
:101B5000D34B96214900C919086898478046D04B55
:101B600094225200D21910689847021CCD4B101CC9
:101B70009847051C0E1C3420FF303B181A78CA4BBE
:101B8000101C9847031C0C1CBE4ABD49081C111CA4
:101B90001A1C231CC54CA047031C0C1CC4498C46B2
:101BA000281C311C1A1C231CE047031C0C1CC14AB6
:101BB000181C211C9047021CBF4B4046111C984723
:101BC000031C9A225200D2191360BC4A4C23D35CE6
:101BD00001225340DBB2002B1DD0B84B9A204000AD
:101BE000C01902681A629A214900C9190B68181CA9
:101BF00001210022B24B9847AA4B9A225200D219D7
:101C000010689847031C0C1CAE4A101C1A1C231C9D
:101C1000AD4988478DE08CE0AC4B181C0021AC4BE3
:101C20009847AC4B181CAC4B9847FA239B00181CE8
:101C3000AA4B98477DE03B1C0C33181C00210A225C
:101C4000954B9847031CA8204000C0190360944B93
:101C5000A8214900C91908689847011CA04B1A68B7
:101C6000A04B081C111C9847031C002B0AD09C4B4E
:101C70001A689D4B101C9847031CA8225200D219C9
:101C800013600EE0994B1B781A1CA8204000C01965
:101C900003689A4205DB954B1B78A8214900C919B6
:101CA0000B60934BA8225200D21910689847031C6E
:101CB0000C1C904D181C211C734A744BA847031C24
:101CC0000C1C8D4D724873491A1C231CA847031C19
:101CD0000C1C784A181C211C9047031C92204000C1
:101CE000C0190360794B181C0021844B9847844B22
:101CF00092214900C91908689847031C734A101CAF
:101D0000191C804B98470A20744B984711E07E4B72
:101D10001B781A1C7D4B1B787D49081C111C1A1C52
:101D2000694B984705E07B4B181C6B4B984700E0CC
:101D3000C04601F05BFE002390225200D2191360CE
:101D40002020FF303B1800221A703B1C1C33181C4B
:101D500000210A22504B9847031C8C214900C919C5
:101D60000B603B1C0C33181C00210A224A4B98477D
:101D7000031CAE204000C019026853438A21490069
:101D8000C9190B603B1D181C00210A22424B9847C1
:101D9000031CAE204000C01902685343882149004B
:101DA000C9190B60002386225200D21913603B1D13
:101DB000181C3A4B9847021C2020FF303B181A7021
:101DC000374B8A214900C919086898478046344B27
:101DD00088225200D21910689847021C314B101CFF
:101DE0009847051C0E1C2020FF303B181A782E4BFC
:101DF000101C9847031C0C1C224A2149081C111C6A
:101E00001A1C231C294CA047031C0C1C28498C4677
:101E1000281C311C1A1C231CE047031C0C1C254ADF
:101E2000181C211C9047021C234B4046111C98474C
:101E3000031C90225200D21913608C204000C0195C
:101E400003680B2B17DC344B8C214900C9190A6835
:101E50009200D35890225200D21911688620400077
:101E6000C0190268081C012198472C4B181C1A4BFA
:101E7000984701F0BBFD01F0B9FDC046C046C04621
:101E80000000000000002440EC51B81E05DAA74015
:101E900066666666AEAAF840B1D3010065D101005E
:101EA000FD19020059370200F1360200B9B20100F3
:101EB0009D210200FD370200E50D0200A00C00206C
:101EC000BD0200000443020075CC0100300A00206E
:101ED000F9F9000020430200E1CE010005130100E2
:101EE0007C000020B10C0200BD190200600100203E
:101EF000753602007D2A0200A12F020019F90000A8
:101F0000050D020061F900005C0D00209E0C002010
:101F1000384302005C4302002C0500206C430200A1
:101F2000002384214900C9190B600822FF32BB1825
:101F300000221A703B1C1C33181C00210A22E64B9D
:101F40009847031CA6204000C01903603B1C0C33BB
:101F5000181C00210A22E04B9847031CAE214900BF
:101F6000C9190A6853437A1CFF3213603B1D181CC1
:101F700000210A22D84B9847031CAE204000C0190C
:101F800002685343FC21C9190B600023A4225200AC
:101F9000D21913603B1D181CD04B9847021C082017
:101FA000FF303B181A70CE4B791CFF3108689847F8
:101FB0008046CB4BFC22D21910689847021CC94BB3
:101FC000101C9847051C0E1C0820FF303B181A787F
:101FD000C54B101C9847031C0C1CBE4ABC49081C6E
:101FE000111C1A1C231CC14CA047031C0C1CC0490B
:101FF0008C46281C311C1A1C231CE047031C0C1C9B
:10200000BC4A181C211C9047021CBB4B4046111CAB
:102010009847031C84225200D2191360A620400066
:10202000C0190368172B2BDCA6214900C9190B68BE
:102030000B2B0DDD0123A4225200D2191360A62020
:102040004000C01903680C3BA6214900C9190B6068
:10205000AA4BA6204000C01902689200D3588422DF
:102060005200D2191168A4204000C0190268081C4F
:1020700001219847A24B181CA24B984701F0B6FCCF
:1020800001F0B4FC0023F821C9190B603B1CF733A5
:1020900000221A703B1C1C33181C00210A228E4B94
:1020A0009847031CF022D21913603B1C0C33181CF8
:1020B00000210A22884B9847031CAE204000C0191B
:1020C00002685343EC21C9190B603B1D181C002109
:1020D0000A22814B9847031CAE204000C0190268B9
:1020E0005343E821C9190B600023E422D21913607D
:1020F0003B1D181C794B9847021C3B1CF7331A7088
:10210000774BEC21C919086898478046744BE82240
:10211000D21910689847021C724B101C9847051C76
:102120000E1C3B1CF7331A786F4B101C9847031C8E
:102130000C1C684A6649081C111C1A1C231C6B4C99
:10214000A047031C0C1C6A488446281C311C1A1C1E
:10215000231CE047031C0C1C664A181C211C9047DA
:10216000021C654B4046111C9847031CF821C919F5
:102170000B60F022D21913680B2B14DC624BF02099
:10218000C01902689200D358F822D2191168E420CD
:10219000C0190268081C012198475C4B181C594B58
:1021A000984701F023FC01F021FC0023E021C9192C
:1021B0000B603B1CDF3300221A703B1C1C33181CC5
:1021C00000210A22444B9847031CD822D2191360DD
:1021D0003B1C0C33181C00210A223F4B9847031C60
:1021E000AE204000C01902685343D421C9190B60C6
:1021F0003B1D181C00210A22374B9847031CAE20B8
:102200004000C01902685343D021C9190B60002354
:10221000CC22D21913603B1D181C304B9847021C6E
:102220003B1CDF331A702E4BD421C919086898471C
:1022300080462B4BD022D21910689847021C294B9C
:10224000101C9847051C0E1C3B1CDF331A78264BCC
:10225000101C9847031C0C1C1E4A1D49081C111C0D
:102260001A1C231C214CA047031C0C1C204884462C
:10227000281C311C1A1C231CE047031C0C1C1D4A83
:10228000181C211C9047021C1B4B4046111C9847F0
:10229000031CE021C9190B60D822D2191368082B3E
:1022A00014DC1B4BD820C01902689200D358E022DE
:1022B000D2191168CC20C0190268081C0121984766
:1022C000144B181C0F4B984701F090FB01F08EFB4C
:1022D0000000000000002440B1D3010065D10100DE
:1022E000FD19020059370200F1360200B9B20100AF
:1022F0009D210200FD370200E50D0200D0060020FE
:1023000080430200E1CE0100AC0500209C430200A6
:102310002C060020B04302000023C821C9190B601D
:102320003B1CC73300221A703B1C1C33181C0021B5
:102330000A22B94B9847031CC022D21913603B1CD8
:102340000C33181C00210A22B34B9847031CAE2003
:102350004000C01902685343BC21C9190B603B1DE2
:10236000181C00210A22AC4B9847031CAE204000E9
:10237000C01902685343B821C9190B600023B42265
:10238000D21913603B1D181CA44B9847021C3B1C20
:10239000C7331A70A24BBC21C919086898478046F8
:1023A0009F4BB822D21910689847021C9D4B101CF5
:1023B0009847051C0E1C3B1CC7331A789A4B101CFF
:1023C0009847031C0C1C934A9149081C111C1A1CA9
:1023D000231C964CA047031C0C1C95488446281CC3
:1023E000311C1A1C231CE047031C0C1C914A181CAE
:1023F000211C9047021C904B4046111C9847031C1F
:10240000C821C9190B60C022D21913680F2B14DC24
:102410008A4BC020C01902689200D358C822D21932
:102420001168B420C0190268081C01219847844B28
:10243000181C844B984701F0D9FA01F0D7FA824B67
:10244000B4214900C919CB181B78303B092B00D99E
:1024500094E39A007D4BD3181B689F467C4BB422B3
:102460005200D219D3181A78A22040003B18303AF3
:10247000511E8A411A70A22149007B181B78002B3B
:102480000CD0744A3D230121D154734A3D230121CC
:10249000D154724B181C6B4B984774E36D4A3D2323
:1024A0000021D1546C4A3D230021D1546C4B181C9F
:1024B000644B984767E3664BB4225200D219D31895
:1024C0001A78A22040003B18303A511E8A411A70F7
:1024D000A22149007B181B78002B07D0614B0122F9
:1024E0001A70614B181C574B98474CE35D4B002208
:1024F0001A705E4B181C534B984744E30023B022DC
:10250000D21913603B1CAF3300221A703B1C0C33F2
:10251000181C00210A22404B9847031CAE204000A3
:10252000C01902685343A821C9190B603B1D181C30
:1025300000210A22384B9847031CAE204000C019E6
:1025400002685343A421C9190B603B1D181C334B6F
:102550009847021C3B1CAF331A70314BA822D2198A
:102560001068984780462E4BA421C91908689847DF
:10257000021C2C4B101C9847051C0E1C3B1CAF3337
:102580001A78294B101C9847031C0C1C214A20491F
:10259000081C111C1A1C231C244CA047031C0C1CD7
:1025A000234A9446281C311C1A1C231CE047031C98
:1025B0000C1C204A181C211C9047021C1E4B404634
:1025C000111C9847031CB020C0190360214A3D2309
:1025D000D35C002B1AD0264BB021C9190A681A62A5
:1025E000B022D2191368181C01210022214B9847F0
:1025F0000C4BB021C91908689847031C0C1C1E4AD3
:10260000101C1A1C231C1D498847BCE2BBE2C046B3
:102610000000000000002440B1D3010065D101009A
:10262000FD19020059370200F1360200B9B201006B
:102630009D210200FD370200E50D02005007002039
:10264000C8430200E1CE0100B4FEFFFF5049020082
:10265000A4FEFFFF640900200C090020E0430200F3
:10266000F8430200740300201444020030440200C6
:10267000A00C0020BD0200004C44020075CC0100FB
:102680000023A022D21913603B1C9F3300221A7032
:102690003B1C0C33181C00210A22C14B9847031C19
:1026A000AE204000C019026853439821C9190B603D
:1026B0003B1D181C00210A22B94B9847031CAE2071
:1026C0004000C019026853439421C9190B603B1D97
:1026D000181CB44B9847021C3B1C9F331A70B24B1A
:1026E0009822D219106898478046AF4B9421C91997
:1026F00008689847021CAD4B101C9847051C0E1C1F
:102700003B1C9F331A78AA4B101C9847031C0C1CC7
:10271000A24AA149081C111C1A1C231CA54CA04745
:10272000031C0C1CA44A9446281C311C1A1C231C94
:10273000E047031C0C1CA14A181C211C9047021CDA
:102740009F4B4046111C9847031CA020C0190360F2
:102750009C4BA021C91908689847031C9AB29A4B50
:102760001A80994B1B88994A101C191C984B984742
:10277000984B01221A70984B934A1A60964B02228A
:102780001A71954B01225A71FDE100239022D21952
:1027900013603B1C8F3300221A703B1C0C33181C37
:1027A00000210A227E4B9847031CAE204000C0192E
:1027B000026853438821C9190B603B1D181C002176
:1027C0000A22774B9847031CAE204000C0190268CC
:1027D00053438421C9190B603B1D181C714B98474A
:1027E000021C3B1C8F331A706F4B8822D219106861
:1027F000984780466C4B8421C91908689847021C89
:102800006A4B101C9847051C0E1C3B1C8F331A7812
:10281000674B101C9847031C0C1C604A5E49081C3F
:10282000111C1A1C231C634CA047031C0C1C624A7D
:102830009446281C311C1A1C231CE047031C0C1C4A
:102840005E4A181C211C9047021C5D4B4046111C1F
:102850009847031C9020C01903605A4B9021C91956
:1028600008689847031C9AB25C4B1A805B4B1B8824
:102870005B4A101C191C564B9847564B01221A7084
:10288000554B564A1A60544B02221A71524B012280
:102890005A7178E100238022D21913603B1C7F33E8
:1028A00000221A703B1C0C33181C00210A223C4BDE
:1028B0009847031CAE204000C01902685343BB6711
:1028C0003B1D181C00210A22354B9847031CAE21E2
:1028D0004900C9190A6853437B673B1D181C314BDB
:1028E0009847021C3B1C7F331A702F4BB86F9847D8
:1028F00080462D4B786F9847021C2C4B101C984734
:10290000051C0E1C3B1C7F331A78294B101C984762
:10291000031C0C1C214A2049081C111C1A1C231CD6
:10292000244CA047031C0C1C234A9446281C311C31
:102930001A1C231CE047031C0C1C204A181C211CD9
:102940009047021C1E4B4046111C9847031C8020D8
:10295000C0190360234B1B78002B18D0194B802122
:10296000C91908689847031CDBB21F4A101C191CC0
:102970001E4B9847134B8022D21910689847031CAE
:10298000DBB21B4A101C191C114B9847FBE0194B7A
:10299000181C194B9847F6E0000000000000244086
:1029A000B1D3010065D10100FD19020059370200C1
:1029B000F1360200B9B201009D210200FD3702008C
:1029C000E50D0200050D0200800100206C440200AC
:1029D00075CC0100E8020020D4080020820100200C
:1029E0009044020074030020600D00203D6A000046
:1029F000B4440200D4440200E1CE010000233B674E
:102A00003B1C6F3300221A703B1C0C33181C002136
:102A10000A22E94B9847031CAE204000C019026807
:102A20005343BB663B1D181C00210A22E24B98470A
:102A3000031CAE214900C9190A6853437B663B1D3C
:102A4000181CDE4B9847021C3B1C6F331A70DC4B82
:102A5000B86E98478046DA4B786E9847021CD94B7F
:102A6000101C9847051C0E1C3B1C6F331A78D64B64
:102A7000101C9847031C0C1CCE4ACD49081C111C85
:102A80001A1C231CD14CA047031C0C1CD04A944692
:102A9000281C311C1A1C231CE047031C0C1CCD4AAB
:102AA000181C211C9047021CCB4B4046111C984718
:102AB000031C3B67C94B1B78002B14D0C84B386FE5
:102AC0009847031CDBB2C74A101C191CC64B984719
:102AD000C34B386F9847031CDBB2C44A101C191C47
:102AE000C34B98474FE0C34B181CC34B98474AE071
:102AF000C24BB4204000C019C3181A78A221490063
:102B00007B18303A511E8A411A70A2225200BB181B
:102B10001B78002B07D0BA4B01221A70B94B181C36
:102B2000B54B98472FE0B64B00221A70B64B181CD5
:102B3000B14B984727E0B14BB4204000C019C318EF
:102B40001A78A22149007B18303A511E8A411A7026
:102B5000A2225200BB181B78002B07D0AB4B0122DE
:102B60001A70AB4B181CA44B98470CE0A74B0022E3
:102B70001A70A84B181CA04B984704E09D4B181CDA
:102B80009D4B9847C04600F031FFA34BB420400056
:102B9000C019C3181B78303B092B00D902E29A00F8
:102BA0009E4BD3181B689F46944BB4214900C9190A
:102BB000CB181A78A22040003B18303A511E8A41A7
:102BC0001A70A22149007B181B78002B06D0944B69
:102BD000181C894B9847934B9847E9E1924B181C76
:102BE000854B9847E4E1854BB4225200D219D318A3
:102BF0001A78A22040003B18303A511E8A411A70C0
:102C0000A22149007B181B78002B07D0874B01229B
:102C10001A70874B181C784B9847C9E1834B0022E8
:102C20001A70844B181C744B9847C1E1734BB42243
:102C30005200D219D3181A78A22040003B18303A1B
:102C4000511E8A411A707C4BA22149007A181278D1
:102C50001A70794B1B78002B04D0784B181C664BEC
:102C60009847A5E1764B181C634B9847A0E1754B3C
:102C70001A68544B101C9847031C0C1C724A101CF9
:102C80001A1C231C5A49884792E1704B1B78704AE2
:102C9000101C191C564B98478AE16E4A6E4B101C4B
:102CA000191C534B984783E100233B666B4BB422BE
:102CB0005200D219D31800221A703B1C0C33181C76
:102CC00000210A223C4B9847031CAE204000C0194B
:102CD00002685343BB653B1D181C00210A22364B7A
:102CE0009847031CAE214900C9190A6853437B6504
:102CF0003B1D181C314B9847021C584BB420400018
:102D0000C019C3181A702E4BB86D984780462C4BCB
:102D1000786D9847021C2B4B101C9847051C0E1C05
:102D20004E4BB4214900C919CB181A78264B101CF8
:102D30009847031C0C1C1F4A1D49081C111C1A1C17
:102D4000231C224CA047031C0C1C214A9446281C1F
:102D5000311C1A1C231CE047031C0C1C1D4A181CA8
:102D6000211C9047021C1C4B4046111C9847031C19
:102D70003B663B4B3A6E1A63394B1A6B114B101C76
:102D80009847031C0C1C374A101C1A1C231C18499A
:102D90008847354B01221A70344B354A1A60334B41
:102DA00004221A71314B01225A7101E1C046C0461A
:102DB0000000000000002440B1D3010065D10100F3
:102DC000FD19020059370200F1360200B9B20100C4
:102DD0009D210200FD370200E50D02007403002072
:102DE000050D0200C80A00203D6A0000E044020010
:102DF00075CC0100D4440200E1CE0100A4FEFFFF27
:102E000088000020004502002045020095020020B5
:102E1000404502005C450200B4FEFFFF7849020015
:102E200078450200410200005C430200710300206B
:102E3000EC41020008420200730300208C450200AE
:102E4000A4450200AC030020C0450200340300206A
:102E5000E04502000046020048000020F7FEFFFFA8
:102E6000300A002020460200E8020020D40800209A
:102E7000600A002000233B65CD4BB4204000C01900
:102E8000C31800221A703B1C0C33181C00210A22A4
:102E9000C84B9847031CAE214900C9190A6853431F
:102EA000BB643B1D181C00210A22C24B9847031C1F
:102EB000AE204000C019026853437B643B1D181CC0
:102EC000BD4B9847021CBA4BB4214900C919CB1815
:102ED0001A70BA4BB86C98478046B84B786C9847D4
:102EE000021CB74B101C9847051C0E1CB04BB4229B
:102EF0005200D219D3181A78B24B101C9847031CF1
:102F00000C1CAA4AA849081C111C1A1C231CAE4CF4
:102F1000A047031C0C1CAD488446281C311C1A1CFD
:102F2000231CE047031C0C1CA94A181C211C9047B9
:102F3000021CA84B4046111C9847031C3B65A64B3E
:102F40003A6D1A63A44B1A6B9D4B101C9847031CD7
:102F50000C1CA24A101C1A1C231CA1498847A14B17
:102F600001221A70A04BA14A1A609F4B04221A71C9
:102F70009D4B01225A711BE09D4BB4214900C91998
:102F8000CB189C4A12781A709A4B01221A709A4BED
:102F90009847984B964AB4204000C019821812787E
:102FA0001A7005E0954B181C954B984700E0C046F9
:102FB00000F01CFD3B1C0C33181C00210A227D4B29
:102FC0009847031CFB638F4BB4214900C919CB18E8
:102FD0001B78303B092B01D900F0E1FB9A008A4BAA
:102FE000D3181B689F460023BB63884BB422520052
:102FF000D219D31800221A703B1C0C33181C002164
:103000000A226C4B9847031CAE204000C01902688E
:103010005343FB633B1D181C00210A22654B984754
:10302000031CAE214900C9190A6853433B633B1D89
:10303000181C614B9847021C744BB4204000C01907
:10304000C3181A705D4BF86B984780465B4B386B22
:103050009847021C5A4B101C9847051C0E1C6B4BC2
:10306000B4214900C919CB181A78564B101C98473F
:10307000031C0C1C4D4A4C49081C111C1A1C231C17
:10308000514CA047031C0C1C504A9446281C311C70
:103090001A1C231CE047031C0C1C4D4A181C211C45
:1030A0009047021C4B4B4046111C9847031CBB63C6
:1030B000574BB86B9847031CDAB2564B1A70554BF6
:1030C0001B78554A101C191C454B9847454B01224B
:1030D0001A70454B4F4A1A60434B01221A71424BFA
:1030E00001225A7160E34820FF303B1800221A7019
:1030F000FBE04821FF317B181B785B00474AB42076
:103100004000C0198218D35C2F2B0CD94821FF3105
:103110007B181B785B00414AB4204000C01982181C
:10312000D35C392B19D94821FF317B181B785B0000
:103130003A4AB4204000C0198218D35C402B2CD9E5
:103140004821FF317B181B785B00344AB4204000D3
:10315000C0198218D35C462B1FD84821FF317B1839
:103160001B785B002D4AB4204000C0198218D25C45
:103170002B4BB4214900C919CB181A704822FF32D1
:10318000BB181B785B000133244AB4204000C019EF
:103190008218D35C2F2B47D854E0224B181C184BB5
:1031A000984700F025FCC0460000000000002440C5
:1031B000E7FEFFFFB1D3010065D10100FD19020058
:1031C00059370200F1360200B9B201009D21020018
:1031D000FD370200E50D02004C0C00204C460200B9
:1031E00075CC0100E8020020D40800207C0C0020EF
:1031F000DBFEFFFF950200205D3B00005C43020008
:10320000E1CE0100B4FEFFFFA0490200CFFEFFFFA8
:10321000050D02003C00002078460200A4FEFFFFDE
:1032200098FEFFFF984602004821FF317B181B786B
:103230005B000133BD4AB4204000C0198218D35C42
:10324000392B1BD94821FF317B181B785B000133D8
:10325000B64AB4204000C0198218D35C402B3ED936
:103260004821FF317B181B785B000133AF4AB42043
:103270004000C0198218D35C462B30D84821FF315A
:103280007B181B785B000133A84AB4204000C019AA
:103290008218D25CA64BB4214900C919CB185A70C8
:1032A000A34BB4225200D219D31800229A7048209E
:1032B000FF303B181C783B1C181C002110229D4B32
:1032C0009847031CDAB29C4B1A554821FF317B18F2
:1032D0001A784820FF303B1801321A7005E0974BEE
:1032E000181C974B9847C04682E34821FF317B1852
:1032F0001B78052B00D8FCE6924B0020191C924B42
:1033000098478D4B1A788F4B1A738B4B5A788D4B8D
:103310005A73894B9A788B4B9A73874BDA78894B1F
:10332000DA73854B1A79874B1A74834B5A79854B1C
:103330005A74844B0020191C844B9847844B98473F
:10334000844B181C7E4B9847834B1B6820221A43E2
:10335000814B1A607B4B0020191C7B4B98477E4B9E
:103360001B68DBB2DB43DAB2764BDA747A4B1B684C
:10337000DA43FF231B0213401B0ADAB2714B1A75A2
:10338000754B1B68DA43FF231B0413401B0CDAB296
:103390006C4B5A756B4B0020191C6C4B98476C4B4F
:1033A000984701E2674B0220191C674B98475F4B17
:1033B000B4225200D219D3181A78624B1A705B4BA0
:1033C000B4204000C019C3185A785E4B5A70574B4E
:1033D000B4214900C919CB189A785A4B9A70534BAB
:1033E000B4225200D219D318DA78564BDA704F4B08
:1033F000B4204000C019C3181A79524B1A714B4BB4
:10340000B4214900C919CB185A794E4B5A71474B10
:10341000B4225200D219D3189A794A4B9A71434B6D
:10342000B4204000C019C318DA79464BDA713F4B1B
:10343000B4214900C919CB181A7A424B1A723B4B76
:10344000B4225200D219D3185A7A3E4B5A72374BD3
:10345000B4204000C019C3189A7A3A4B9A72334B81
:10346000B4214900C919CB18DA7A364BDA722F4BDE
:10347000B4225200D219D3181A7B324B1A732B4B39
:10348000B4204000C019C3185A7B2E4B5A73274BE7
:10349000B4214900C919CB189A7B2A4B9A73294B3E
:1034A0000022DA732D4A274B111C1A1C0F23081C0B
:1034B000111C1A1C2A4B9847224B0220191C234B23
:1034C0009847234B9847274B181C1D4B9847224B76
:1034D0001B6840221A43204B1A601A4B0020191C0B
:1034E000194B98471C4B1B68DBB2DB43DAB2154B18
:1034F000DA74194B1B68DA43FF231B0213401B0AC3
:10350000DAB2104B1A75144B1B68DA43FF231B0405
:1035100013401B0CDAB20B4B5A750A4B0020191CD6
:103520000A4B98470A4B98473EE1C046A4FEFFFF6E
:1035300098FEFFFFB1D30100FC080020984602006E
:10354000E1CE0100800800201DAE0100FDAC0100AD
:10355000C5AE0100A8460200EC020020EC080020E5
:10356000BDC90100C4460200D44B0120191CD44B34
:103570009847D44BB4225200D219D3181A78CF4BA3
:103580001A70D04BB4204000C019C3185A78CB4BE6
:103590005A70CC4BB4214900C919CB189A78C74B43
:1035A0009A70C84BB4225200D219D318DA78C34BA0
:1035B000DA70C44BB4204000C019C3181A79BF4B4D
:1035C0001A71C04BB4214900C919CB185A79BB4BA9
:1035D0005A71BC4BB4225200D219D3189A79B74B06
:1035E0009A71B84BB4204000C019C318DA79B34BB4
:1035F000DA71B44BB4214900C919CB181A7AAF4B10
:103600001A72B04BB4225200D219D3185A7AAB4B6B
:103610005A72AC4BB4204000C019C3189A7AA74B19
:103620009A72A84BB4214900C919CB18DA7AA34B76
:10363000DA72A24B00221A73A34AA04B111C1A1C67
:103640000D23081C111C1A1CA04B98479B4B0120F2
:10365000191C9F4B98479F4B98479F4B181C9F4B9B
:1036600098479F4B1B6880221A439D4B1A60934BCF
:103670000020191C924B9847994B1B68DBB2DB4327
:10368000DAB28E4BDA74964B1B68DA43FF231B02C7
:1036900013401B0ADAB2894B1A75914B1B68DA4347
:1036A000FF231B0413401B0CDAB2844B5A75834B67
:1036B0000020191C864B9847864B984774E0894B2D
:1036C0001B78191C874B5B781A1C864B9B788548A6
:1036D000C078061C83480079051C82484079041C88
:1036E0008148009601950294804CA0475CE0804A96
:1036F000804B101C191C7D4B984755E07E4A724B3D
:10370000101C191C794B98474EE000207B4B9847C2
:103710004AE0FB6BDAB201231340DAB2784B1A703D
:10372000664B0020191C664B9847754B1A78634B03
:10373000DA756B4B1B68802292001A43684B1A6043
:10374000674B1B68DBB2DB43DAB25C4BDA74644B69
:103750001B68DA43FF231B0213401B0ADAB2574BE4
:103760001A755F4B1B68DA43FF231B0413401B0CC5
:10377000DAB2524B5A75514B0020191C544B9847E2
:10378000544B98475F4B181C544B98470CE05C4BCC
:103790001B785D4A101C191C544B984704E05B4B86
:1037A000181C4E4B9847C04621E13B1C0C33181C9B
:1037B00000210A22564B9847031CFB62554BB4224A
:1037C0005200D219D3181B78303B092B00D907E1DE
:1037D0009A00514BD3181B689F46FB6A9AB24F4B15
:1037E0001A804E4B1B884E4A101C191C3F4B9847A1
:1037F0004C4B01221A704C4B484A1A604A4B022229
:103800001A71494B01225A71EFE0444B1B88474A19
:10381000101C191C354B9847E7E0FB6ADAB2444BA1
:103820001A70434B1B78434A101C191C2F4B9847A6
:103830003C4B01221A703C4B3D4A1A603A4B012224
:103840001A71394B01225A71CFE0394B1B783A4A31
:10385000101C191C254B9847C7E0FB6ADAB2374B9E
:103860001A70364B1B78364A101C191C1F4B984790
:103870002C4B01221A702C4B304A1A602A4B012221
:103880001A71294B01225A71AFE02C4B1B782D4A3B
:10389000101C191C154B9847A7E02B4B00221A80CF
:1038A0002A4B181C0D4B98479FE00D4B1B68284A6C
:1038B000101C191C0D4B984797E0C046800800204B
:1038C0001DAE0100A4FEFFFFBC080020BDC9010021
:1038D000FDAC0100C5AE0100E4460200E1CE0100EE
:1038E000EC020020FC0800200447020075CC010017
:1038F00028470200EC08002040470200F54900007C
:1039000081000020584702007C4702005C4302000F
:10391000B1D30100B4FEFFFFC84902009C0C002097
:1039200098470200E8020020D4080020B8470200AF
:1039300008090020D4470200F4470200D008002004
:1039400010480200344802003203002054480200AC
:1039500070480200FB6ADAB201231340DAB2274B47
:103960001A70274B0020191C264B9847234B1A78B6
:10397000234B9A75244B1B68802252001A43224B1A
:103980001A60214B1B68DBB2DB43DAB21C4BDA74E2
:103990001D4B1B68DA43FF231B0213401B0ADAB2DC
:1039A000174B1A75184B1B68DA43FF231B0413408F
:1039B0001B0CDAB2124B5A75114B0020191C134B19
:1039C0009847134B9847134B181C134B98470CE020
:1039D0000A4B1B78114A101C191C114B984704E024
:1039E000104B181C0C4B9847C046C046C046C046FA
:1039F000BD465AB004BC9046F0BDC04680000020D1
:103A0000800800201DAE0100EC020020FDAC01008A
:103A1000C5AE010088480200E1CE0100AC480200BA
:103A200075CC01005C43020080B500AF024B1B68FF
:103A3000181CBD4680BDC0461404002090B587B058
:103A400002AF021CFB1D1A703B1C0F33FA1D1278CB
:103A5000D2091A703B1C0E33FA1D127852091A70E3
:103A60001B4BBB603B1C0F331B78002B0ED13B1C48
:103A70000F331B789B001022D219D318083B1A6809
:103A80003B1C0E331B78DB01D3181CE0114B98470D
:103A9000031C002B0FD00F4B9847011C0E4A6823C4
:103AA000FF330E4800900E480190081C01210D4C78
:103AB000A047002307E00C480949074A6823FF3361
:103AC0000A4CA047FEE7181CBD4605B090BDC04695
:103AD00000440041293A0000C84D0200F84D0200A0
:103AE000104E02003D140100184E020075CC01007A
:103AF00080B582B000AF021CFB1D1A70FB1D1B7845
:103B0000181C034B9847031C181CBD4602B080BD0F
:103B10003D3A000080B584B000AF021CFB1D1A7056
:103B2000FB1D1B78181C0C4B9847031CFB60FB1DEE
:103B30001A781F2313400122111C99400B1CBB60F3
:103B4000FB681B69BA6813405A1E9341DBB2181C0C
:103B5000BD4604B080BDC046F13A0000F0B55F46F6
:103B600056464D464446F0B4B3B010AF2D4B181C2A
:103B70002D4B98472D4B1B7801225340DBB2002B75
:103B800003D02B4B181C2B4B9847264BDB881E1C55
:103B9000244B1B791D1C234B9B781C1C214B5B78F1
:103BA0009B46204B1B789A46234B9847031C23487F
:103BB000C0188146224B1B889846224B1B789C4696
:103BC000214B1B78181C214B1B781A1C204B920090
:103BD000D158204B1B781A1C1F4BBB605B460093CF
:103BE000534601934B460293434603936346049323
:103BF000059006910792B868311C2A1C231C174CAB
:103C0000A0470A4B1B7801225340DBB2002B02D0A5
:103C10000A20134B9847134B1B78002B26D0124BCE
:103C200025E0C046E00D0020C140010095020020C3
:103C3000FC4E0200E1CE010025D9000080AEFEFF5F
:103C4000320300205C0D00209E0C0020640900203F
:103C50000000002075030020004F020075CC010019
:103C6000CDCC0100450300204C4F0200EF4BF04A41
:103C70001288151CEF4A1468EF4A1168EF4A009148
:103C8000101C191C2A1C231CED4CA047ED4B1B7863
:103C900001225340DBB2002B02D00A20EA4B9847A6
:103CA000EA4B1A6CEA4B101C9847041C0D1CE94B9C
:103CB0001A6CE74B101C98478022D2191060516093
:103CC000E24B5A6DE24B101C9847B867F967DF4B1F
:103CD0005A6BDF4B101C984738677967DB4B9A6B40
:103CE000DB4B101C984738617961DB498023DB1975
:103CF0001A685B6800920193BA6FFB6F029203939C
:103D00003A6F7B6F049205933A697B690692079339
:103D1000081C221C2B1CCA498847CA4B1B7801224D
:103D20005340DBB2002B02D00A20C74B9847C74B49
:103D30009A69C74B101C9847041C0D1CC74B1A6886
:103D4000C34B101C9847021C0B1CC54900920193E1
:103D5000081C221C2B1CBA498847C24B1A68BC4B52
:103D6000101C9847031C0C1CBF4A101C1A1C231C57
:103D7000B3498847B74B5A68B54B101C9847041C89
:103D80000D1CB24B1A6DB24B101C9847B866F96601
:103D9000AE4BDA68AE4B101C984738617961B34975
:103DA000BA6EFB6E009201933A697B6902920393AB
:103DB000081C221C2B1CA2498847AD4B1A68A44B37
:103DC000101C9847031C0C1CAA4A101C1A1C231C0C
:103DD0009B4988479B4B1B7801225340DBB2002B49
:103DE00002D00A20984B9847A34BDA6B984B101CD3
:103DF0009847041C0D1CA04B5A6C954B101C9847FF
:103E0000386679669C4B1A6C914B101C9847B865C4
:103E1000F965994B9A6C8E4B101C984738657965FB
:103E2000954B5A698A4B101C9847386179619349C0
:103E30003A6E7B6E00920193BA6DFB6D0292039312
:103E40003A6D7B6D049205933A697B6906920793FC
:103E5000081C221C2B1C7A498847874BDA697C4B4B
:103E6000101C9847041C0D1C834B5A6A784B101C7D
:103E70009847B864F964804B1A6A754B101C9847D0
:103E8000386179617E49BA6CFB6C009201933A69A2
:103E90007B6902920393081C221C2B1C68498847EB
:103EA000684B1B7801225340DBB2002B02D00A2062
:103EB000654B9847734B5B7C191C724B5A69714870
:103EC0002C23C35C1C1C6F4BDE686E4B9B7E1D1C41
:103ED0006C4BDB7E181C6C4B009601950290181CF5
:103EE000231C574CA047674B9A6B684B101C984794
:103EF000031C9BB21C1C634B1A6C644B101C984730
:103F0000031C9BB2624A101C211C1A1C4C4B984784
:103F10004C4B1B7801225340DBB2002B02D00A200D
:103F2000494B98475B4B5B7C191C5A4B5A69594863
:103F30002C23C35C1C1C574BDE68564B9B7E1D1C00
:103F4000544BDB7E181C544B009601950290181CB4
:103F5000231C3B4CA0474F4B9A6B4C4B101C984773
:103F6000031C9BB21C1C4B4B1A6C484B101C9847F3
:103F7000031C9BB2494A101C211C1A1C304B984749
:103F8000304B1B7801225340DBB2002B02D00A20B9
:103F90002D4B9847424B5B7C191C414B5A6940485A
:103FA0002C23C35C3E48807E051C3D48C07E041C1B
:103FB0003C4800950194224CA047224B1B780122DB
:103FC0005340DBB2002B02D00A201F4B9847364BE0
:103FD0005B7C9846344B5E69334A2C23D35C1D1CB2
:103FE000314BDC68A346304B9B7E9A462E4BDB7EE2
:103FF00099462E4B1A6A164B101C9847B860F96008
:104000002B4A10682B4A11682B4A5B460093544692
:1040100001944B460293BB68FC6804930594069098
:104020000791101C4146321C2B1C47E0544F0200E4
:10403000600300205C030020040900205C4F0200A4
:1040400075CC010095020020CDCC01006409002050
:10405000593702000C090020904F02007C0100201B
:10406000DC4F020068030020F44F020004500200FD
:10407000AC0300202C500200300A00203C5002000B
:1040800074500200140D002094500200050D02002F
:10409000D4500200480B0020F050020030510200C2
:1040A000040C00204C510200800A0020D40A002099
:1040B000480300204C0300208C510200AF4CA04765
:1040C000AF4B9A6BAF4B101C9847031C9BB21C1C48
:1040D000AB4B1A6CAB4B101C9847031C9BB2AA4A03
:1040E000101C211C1A1CA54B9847A84B1B780122B9
:1040F0005340DBB2002B02D00A20A54B9847A54BBA
:104100009B781A1CA44B9200D658A24B9B78012B8B
:1041100004D9A04A2C23D35C1D1C04E02E209F4B05
:104120009847031C1D1C9B4B1A6B9D4B101C9847FA
:10413000031C0C1C9B4A00930194101C311C2A1C6C
:104140008E4B9847914B1B7801225340DBB2002BDA
:1041500002D00A208E4B9847934B1B7A1D1C924B22
:104160001B7A032B06D1914B9847021C904B1B687E
:10417000D31A00E000238C4A54688E4A1278101C2F
:104180008C4A51688C4A00900191101C291C1A1C01
:10419000231C7A4CA0477D4B1B7801225340DBB295
:1041A000002B02D00A207A4B9847844B1A6B7C4B29
:1041B000101C984738647964804B5A6B784B101CFC
:1041C0009847B863F9637D4B9A6B754B101C984701
:1041D000386379637A4B1A6A714B101C9847B8623E
:1041E000F962764B1A6D6E4B101C984738627962F3
:1041F000724B5A6D6A4B101C9847B861F9616F4B4E
:104200009A6E674B101C9847041C0D1C6B4BDA6EA2
:10421000634B101C9847386079606A4B1B78181CF8
:10422000694BB96BFA6B00910192396B7A6B029111
:104230000392B96AFA6A04910592396A7A6A069118
:104240000792B969FA69089109920A940B9539683D
:104250007A680C910D920E90181C3A6C7B6C474951
:1042600088474A4B1B7801225340DBB2002B02D017
:104270000A20474B9847554B1B88554A101C191C60
:104280003E4B9847414B1B7801225340DBB2002B39
:1042900002D00A203E4B98474E4B1B7B191C4D4BBE
:1042A0001A694C4B9B68002B04D04A4B9B684A4CC4
:1042B0001B1901E0474B9B684648407B041C47485C
:1042C00000942E4CA047314B1B7801225340DBB2A7
:1042D000002B02D00A202E4B9847414B1B7B191C08
:1042E0003F4B1A693E4B9B68002B04D03C4B9B68AC
:1042F00039481B1801E03A4B9B683948407B041C45
:10430000384800941D4CA047204B1B780122534095
:10431000DBB2002B02D00A201D4B9847324B1B7B8F
:10432000191C314B1A69304B9B68002B04D02E4B63
:104330009B68294C1B1901E02B4B9B682A48407B4A
:10434000041C2A4800940D4CA047104B1B780122F6
:104350005340DBB2002B02D00A200D4B9847244B70
:104360001B7B191C224B1A69214B9B68002B41D0E7
:104370001F4B9B6818481B183EE0C04675CC0100D7
:10438000800A0020050D0200EC5102009502002079
:10439000CDCC0100300A00201C000020153B00009D
:1043A0005937020008520200600D002025D9000094
:1043B000BC020020C80A002034520200A00C0020D9
:1043C00064090020620300208C5202009602002043
:1043D000F4520200D007002080AEFEFF045302001A
:1043E0001C0800203853020008080020685302000F
:1043F000F0070020414B9B684048407B041C40482C
:104400000094404CA047404B1B7801225340DBB244
:10441000002B02D00A203D4B98473D4B19683D4B7D
:104420001B881A1C3C4B1C683C4B1E683C4B1D688F
:104430003C4B18683C4B009601950290181C231CBD
:10444000304CA047394B1B78002B01D1384B984793
:104450002D4B1B7801225340DBB2002B02D00A20E7
:104460002A4B9847334A3D23D35C002B03D0324B71
:10447000181C244B9847314B1B78002B03D0304B32
:10448000181C204B98472F4B1B78002B03D02E4B2A
:10449000181C1C4B98472D4B1B78002B03D02C4B22
:1044A000181C184B98472B4B1B78002B03D02A4B1A
:1044B000181C144B9847294B1B7801225340DBB240
:1044C000002B03D0264B181C0E4B9847254B1B780E
:1044D000002B03D0244B181C0A4B98470A4B1B781F
:1044E000002B02D00A20094B9847BD4623B03CBCA4
:1044F00090469946A246AB46F0BDC046F007002064
:104500009C53020075CC010095020020CDCC010027
:10451000F402002078000020FC020020F8020020B5
:104520000403002000030020C85302008000002084
:104530006D4500006409002014540200700300203F
:104540002454020071030020345402007001002042
:1045500044540200730300205854020088000020D5
:10456000685402007403002080540200F0B587B044
:1045700004AF2E4B1B7801225340DBB2002B02D03C
:104580000A202B4B98472B4B1B88191C2A4B1B8846
:104590001A1C2A4B1B882A480088051C29480088B9
:1045A000041C294800950194284CA0471F4B1B78F8
:1045B00001225340DBB2002B02D00A201C4B98474B
:1045C000234B1B88191C234B1B881A1C224B1B884E
:1045D0007B6022480088844621480088061C2148C8
:1045E0000088051C20480088041C2048634600936E
:1045F0000196029503947B68144CA0470B4B1B78E3
:1046000001225340DBB2002B02D00A20084B98470E
:10461000174B1B881A1C174B1B881749081C111CA9
:104620001A1C0A4B9847BD4603B0F0BD9502002006
:10463000CDCC01005C010020540300205603002073
:10464000580300205A0300209454020075CC010046
:104650002A000020B4020020AE020020B602002092
:10466000B0020020B8020020B2020020E454020090
:1046700054000020F002002064550200F0B585B01F
:1046800004AF744B181C744B9847744A4C23D35C8A
:104690001A1C734B9200D358724A101C191C6E4B93
:1046A0009847714B1B68714A101C191C6A4B98473C
:1046B0006F4B1B786F4A101C191C674B98476E4B49
:1046C0001B786E4A101C191C634B98476C4B1B7867
:1046D0006C4A101C191C604B98476B4B1A6C6B4B47
:1046E000101C9847031C0C1C694A101C1A1C231C24
:1046F00059498847644B5A6D644B101C9847031CFA
:104700000C1C644A101C1A1C231C53498847624B1A
:104710001A6C5E4B101C9847031C0C1C5F4A101C43
:104720001A1C231C4C4988475D4B1B885D4A101C92
:10473000191C494B98475C4B1B885C4A101C191C80
:10474000454B9847454B1A6B504B101C9847031C20
:104750000C1C574A101C1A1C231C3F498847554BF8
:104760001A6B4A4B101C9847031C0C1C524A101C15
:104770001A1C231C38498847504B1B78504A101C80
:10478000191C354B98474F4B1B884F4A101C191C5E
:10479000314B98474D4B1B784D4A101C191C2E4B22
:1047A00098474C4B1A68394B101C9847031C0C1C3B
:1047B000494A101C1A1C231C27498847474B1A6872
:1047C000324B101C9847031C0C1C454A101C1A1C29
:1047D000231C21498847434A434B101C191C1E4B7C
:1047E0009847424A424B101C191C1B4B9847414AA0
:1047F000414B101C191C184B9847404B1B78191C37
:104800003E4B5B781A1C3D4B9B783C48C078061C9D
:104810003A480079051C39484079041C384800960C
:10482000019502940C4CA047364B1B68364A101C6D
:10483000191C094B9847354B1B781A1C344B1B78B5
:104840003449081C111C1A1C034B9847BD4601B083
:10485000F0BDC0468855020075CC0100300A00202A
:1048600064010020A4550200EC020020B0550200B3
:1048700080000020C855020081000020E0550200A1
:104880003C000020F855020064090020593702005E
:1048900010560200285602000C0900204056020063
:1048A0008001002058560200820100207456020048
:1048B000905602004C0C0020B0560200080900205F
:1048C000D05602009C0C0020F0560200D0080020B8
:1048D00010570200740100202C57020078010020BC
:1048E0004C5702006C570200BC08002080570200A1
:1048F000EC0800209457020048000020FC0800202B
:10490000A457020004090020CC5702005C0D0020CF
:104910009E0C0020E857020080B500AF214B181C08
:10492000214B9847214B181C1F4B9847204B1B7855
:104930003C2253439BB21F4A101C191C1E4B984724
:104940001E4A1F4B101C191C1B4B9847184B062264
:104950001A701C4B0C221A701B4B00221A801B4B26
:1049600000221A701A4B01221A701A4B9847021C27
:10497000194B1A60174B9847021C184B1A60184BBA
:1049800000221A60174B00221A60174B1A68174B47
:10499000101CFE2189059847031C1A1C144B1A6031
:1049A000BD4680BD1C08002095000100F0070020D6
:1049B00008090020D0070020F1FF000008080020AF
:1049C00060270000D00800209602002098020020F6
:1049D0002800002025D90000A4020020A802002001
:1049E0009C020020A002002074010020D1160200C9
:1049F0000408002090B583B000AF021CFB1D1A70A4
:104A0000FB1D1B78002B38D13E4B01221A703E4B08
:104A1000181C3E4B98473E4B1B783B4A101C191CF8
:104A20003C4B98473C4A3D230121D1543B4B00224B
:104A30005A613B4A4C230021D1543A4B1B88013325
:104A40009AB2384B1A80384B181C384B9847364B63
:104A50009B78191C344B5B781A1C334B1B783448F9
:104A6000344CA047344A304B111C1A1C0A23081C32
:104A7000111C1A1C314B984740E0FB1D1B78012B81
:104A800025D1204B00221A701F4B181C1F4B984732
:104A9000214A3D230021D154214A4C230121D154E4
:104AA000214B181C214B98471F4B9B78191C1E4B00
:104AB0005B781A1C1C4B1B7821481E4CA047194BD5
:104AC0001B88204A101C191C1A4B984716E0FB1D26
:104AD0001B78022B12D10B4B00221A700E4A3D2379
:104AE0000021D1540E4A4C230121D154064B181CED
:104AF000064B9847144B181C0E4B9847BD4603B005
:104B000090BDC046980200201C08002095000100BE
:104B1000D0080020F1FF000064090020300A0020C6
:104B2000A00C002096020020E00D0020C1400100F2
:104B3000B458020075CC0100E4070020BDC9010093
:104B4000D4580200F45802000459020080B500AFA6
:104B5000654B1B78002B00D1C4E0644B5B7B002BC2
:104B600003D0634B1B78002B12D1604B5B7B002B77
:104B70001DD0604B5B7B002B0AD15F4B5B7B002B16
:104B800015D05B4B1B7801225340DBB2002B0ED0BB
:104B900000205A4B9847554B181C594B9847564B79
:104BA000181C574B9847534B181C554B9847554B5F
:104BB0001A68554B101C55499847031C002B1ED0F2
:104BC0004C4B1B7B01225340DBB2002B14D0504BCB
:104BD0001B780133DAB24E4B1A704D4B1B78052B04
:104BE0000DD94B4B00221A70424AB423DB00101C33
:104BF000191C484B984702E0454B00221A70464B5F
:104C00005B7B002B16D001203C4B9847434B1B7815
:104C10003C2253439BB2354A101C191C3D4B98470C
:104C20003F4B1B883C2253439BB2334A101C191C38
:104C3000384B9847334B1A683A4B101C3A499847FF
:104C4000031C002B18D02B4B1B7B002B11D0374B98
:104C50001B780133DAB2354B1A70344B1B78052BB5
:104C60000AD9324B00221A70224B181C244B984749
:104C700002E02E4B00221A702D4B19682D4B1A683A
:104C8000284B081C111C9847031C002B1AD0224BE0
:104C90001B7B002B16D00220184B98471F4B1B780C
:104CA0003C2253439BB2114A101C191C194B9847C4
:104CB0001B4B1B883C2253439BB20F4A101C191CF0
:104CC000144B98470B4B181C1B4B9847074B181C51
:104CD000194B9847084B181C174B98470E4B181C3C
:104CE000154B9847BD4680BD28000020D007002006
:104CF00075030020F007002008080020F549000097
:104D00009500010068030020750C02000000A0C09F
:104D1000AC020020F1FF00001C0800200809002060
:104D20009C0C00209D0C02000000A040AD02002061
:104D30007C010020040800204900010080B500AF7C
:104D4000024B1B68181CBD4680BDC04614040020E1
:104D500090B585B002AF7860184B9847031C002BC4
:104D600011D07B68002B19D1144B9847011C144AB1
:104D7000B423FF331348009013480190081C01210D
:104D8000124CA0470AE07B68002B07D110480E495F
:104D90000B4AB423FF330F4CA047FEE77B68002289
:104DA0001A707B6802225A707B6800229A707B68B6
:104DB0000022DA70BD4603B090BDC0463D4D0000F4
:104DC0001C590200445902005C5902003D140100C4
:104DD0006459020075CC010080B582B000AF084B69
:104DE00098473B1D181C074B98473B1D12229A7091
:104DF0003B1D0020191C044B9847BD4602B080BDE6
:104E000095240100514D0000C524010080B500AF7C
:104E1000024B1B68181CBD4680BDC0461404002010
:104E200090B587B002AF021CFB1D1A703B1C0F33FC
:104E3000FA1D1278D2091A703B1C0E33FA1D127833
:104E400052091A701B4BBB603B1C0F331B78002BA5
:104E50000ED13B1C0F331B789B001022D219D318A4
:104E6000083B1A683B1C0E331B78DB01D3181CE08F
:104E7000114B9847031C002B0FD00F4B9847011C78
:104E80000E4A6823FF330E4800900E480190081C1C
:104E900001210D4CA047002307E00C480949074AAF
:104EA0006823FF330A4CA047FEE7181CBD4605B037
:104EB00090BDC046004400410D4E0000FC59020068
:104EC0002C5A0200445A02003D1401004C5A0200C0
:104ED00075CC010090B585B002AF78601B4B984748
:104EE000031C002B11D07B68002B19D1174B98475E
:104EF000011C174AE8235B001648009016480190F1
:104F0000081C0121154CA0470AE07B68002B07D143
:104F1000134811490E4AE8235B00124CA047FEE7F4
:104F20007B6800221A607B6800225A607B6801223D
:104F30001A727B6801225A727B6800229A727B681F
:104F40000222DA72BD4603B090BDC0460D4E00008D
:104F5000705A02002C5A0200985A02003D140100B7
:104F60004C5A020075CC010080B582B000AF021C23
:104F7000FB1D1A70FB1D1B78181C034B9847031C64
:104F8000181CBD4602B080BD214E000080B584B023
:104F900000AF021CFB1D1A70FB1D1B78181C0C4B6C
:104FA0009847031CFB60FB1D1A781F231340012246
:104FB000111C99400B1CBB60FB681B6ABA6813404C
:104FC0005A1E9341DBB2181CBD4604B080BDC046DA
:104FD000694F000080B582B000AF786001200A4BB5
:104FE00098471B20094B9847031C01225340DBB212
:104FF000002B01D0064B9847064B802212021A6004
:10500000BD4602B080BDC046D91201008D4F0000E0
:1050100075FF00001018004080B58CB000AF3B1C3D
:105020002433181C164B98473B1C24331B221A6050
:105030003B1C243300225A603B1C243300229A720A
:105040003B1C24330222DA723B1C243301225A72A5
:105050003B1C24330F20191C0A4B98470A4B9847D6
:105060000A4B0B4A1A603B1D01229A713B1D01221B
:10507000DA713B1D181C074B9847BD460CB080BD2C
:10508000D54E0000612901008D2801001018004054
:10509000FFFF0000C52A010080B500AF054B181CBA
:1050A0000021054B98470F200021044B9847BD462F
:1050B00080BDC046D54F0000DD2C0100292E010027
:1050C00080B500AF024B1B68181CBD4680BDC046B2
:1050D0001404002090B587B002AF021CFB1D1A70AB
:1050E0003B1C0F33FA1D1278D2091A703B1C0E3389
:1050F000FA1D127852091A701B4BBB603B1C0F3310
:105100001B78002B0ED13B1C0F331B789B00102209
:10511000D219D318083B1A683B1C0E331B78DB01ED
:10512000D3181CE0114B9847031C002B0FD00F4BDA
:105130009847011C0E4A6823FF330E4800900E4822
:105140000190081C01210D4CA047002307E00C48EA
:105150000949074A6823FF330A4CA047FEE7181C99
:10516000BD4605B090BDC04600440041C15000009E
:10517000145B0200445B02005C5B02003D14010012
:10518000645B020075CC010080B582B000AF021CE8
:10519000FB1D1A70FB1D1B78181C034B9847031C42
:1051A000181CBD4602B080BDD550000080B584B04B
:1051B00000AF0A1CFB1D011C1970BB1D1A70FB1DE2
:1051C0001B78181C0D4B9847031CFB60FB1D1A78BD
:1051D0001F2313400122111C99400B1CBB60BB1DF7
:1051E0001B78002B03D0FB68BA689A6102E0FB6869
:1051F000BA685A61BD4604B080BDC04689510000FE
:1052000080B584B000AF3960FB1D011C1970BB1D57
:105210001A70BB1D1B7801225340DBB2002B0ED04D
:105220003B1C0F333A68511E8A411A70FB1D1A78D5
:105230003B1C0F331B78101C191C034B9847012390
:10524000181CBD4604B080BDAD51000080B586B0CD
:1052500000AF021CFB1D1A703B1C173300221A7092
:105260003B1C143300221A803B1C0C332C221A7076
:10527000FB1D1B789AB23B1C0C335A803B1C0C3331
:10528000104A5A600DE03B1C14331B883A1C143240
:10529000591C11800A2B04D13B1C173301221A70B0
:1052A00009E0094A3B1C0C33101C191C074B98479A
:1052B000031C002BE7D13B1C17331B78181CBD4681
:1052C00006B080BD30000020380800209154010055
:1052D00080B586B000AF021CFB1D1A703B1C173353
:1052E00000221A703B1C143300221A803B1C0C3322
:1052F0002C221A70FB1D1B789AB23B1C0C335A806F
:105300003B1C0C33214A5A600DE03B1C14331B88B4
:105310003A1C1432591C11800A2B04D13B1C173340
:1053200001221A7009E01A4A3B1C0C33101C191C8C
:10533000184B9847031C002BE7D13B1C17331B78F5
:10534000002B1CD13B1C143300221A803B1C0C3355
:10535000114A5A6009E03B1C14331B883A1C143272
:10536000591C11800A2B00D109E0094A3B1C0C335F
:10537000101C191C094B9847031C002BEBD13B1C3C
:1053800017331B78181CBD4606B080BD30000020C6
:105390003808002091540100DC0200205152010025
:1053A00080B500AF524B00221A700120514B984734
:1053B0000120504B9847031C002B01D0202394E080
:1053C0004D4B181C4D4B9847031C002B01D020233C
:1053D0008BE04B4B181C494B9847031C002B01D00A
:1053E000202382E0474B181C444B9847031C002B9A
:1053F00001D0202379E0444B181C404B9847031CF4
:10540000002B01D0202370E0394B2A221A70384B30
:105410000B225A700220374B9847031C002B01D0F7
:10542000202362E0324B2B221A70314B0F225A702C
:105430000220304B9847031C002B01D0202354E05E
:105440002B4B51221A702A4B80225A700220294B72
:105450009847031C002B01D0202346E0244B522206
:105460001A70234B0B225A700220224B9847031CC0
:10547000002B01D0202338E01D4B62221A701C4BF8
:105480001B225A7002201B4B9847031C002B01D093
:1054900020232AE0164B33221A70154B68225A70CB
:1054A0000220144B9847031C002B01D020231CE042
:1054B0000F4B43221A700E4B68225A7002200D4B7C
:1054C0009847031C002B01D020230EE0084B6322D9
:1054D0001A70074B68225A700220064B9847031C2B
:1054E000002B01D0202300E00023181CBD4680BD06
:1054F000300000204D520000140D002041580000E3
:10550000480B0020040C0020800A002080B584B0E5
:1055100000AF78600A1CFB1C1A703B1C0F33022280
:105520001A707A681A4B9A4203D11A4B30221A70B9
:1055300016E07A68184B9A4203D1164B40221A7033
:105540000EE07A68154B9A4203D1124B50221A7022
:1055500006E07A68124B9A4202D10E4B60221A7012
:10556000FB1C1A78131C1B029A1A0E4B101C642188
:105570009847031CDAB2074B5A703B1C0F331B7859
:10558000181C094B9847031C181CBD4604B080BD6D
:10559000140D002030000020480B0020040C0020D7
:1055A000800A0020110B02004D52000080B582B02D
:1055B00000AF78607A681E4B9A4207D11D4B1B786A
:1055C000152001211A1C1C4B984722E07A681B4BBE
:1055D0009A4207D1174B1B78142001211A1C164B35
:1055E000984716E07A68164B9A4207D1114B1B7800
:1055F000132001211A1C104B98470AE07A68114BBE
:105600009A4206D10B4B1B782C2001211A1C0A4B05
:1056100098477B685B69DBB27A68101C191C0A4BDF
:1056200098477B6801225A74BD4602B080BDC046CF
:10563000140D00207003002001520000480B0020D0
:10564000040C0020800A00200D55000080B582B0B7
:1056500000AF78607A681C4B9A4207D11B4B1B78CD
:10566000152000211A1C1A4B984722E07A68194B22
:105670009A4207D1154B1B78142000211A1C144B99
:10568000984716E07A68144B9A4207D10F4B1B7863
:10569000132000211A1C0E4B98470AE07A680F4B22
:1056A0009A4206D1094B1B782C2000211A1C084B6A
:1056B00098477B68181C0021094B98477B6800229B
:1056C0005A74BD4602B080BD140D00207003002046
:1056D00001520000480B0020040C0020800A00202A
:1056E0000D55000090B585B000AF78603B1C0F33BE
:1056F00000221A703B1C0E3300221A703B1C0D3323
:1057000000221A703B1C0A3300221A807A68424B2E
:105710009A4203D1414B3E221A7016E07A68404B00
:105720009A4203D13D4B4E221A700EE07A683D4BEF
:105730009A4203D1394B5E221A7006E07A683A4BDE
:105740009A4202D1354B6E221A703C1C0F34012054
:10575000364B9847031C23703B1C0F331B78002BE0
:1057600003D03B1C0F331B7851E03B1C0E33304AF7
:1057700012781A70294B1B780133DAB2274B1A7052
:105780003C1C0F340120294B9847031C23703B1C01
:105790000F331B78002B03D03B1C0F331B7836E0F4
:1057A0003B1C0D33224A12781A703B1C0E331B78B7
:1057B0009BB25B0199B23B1C0D331B78DB08DBB25B
:1057C0001A1C3B1C0A338A181A807B681B7C1A1C23
:1057D000131C1B019B1A5B041A1C164B101C9847C8
:1057E000041C3B1C0A331A88124B101C9847021CDD
:1057F000114B201C111C9847031C1A1C0F4B101C2A
:105800009847021C7B68DA603B1C0F331B78181C1E
:10581000BD4605B090BDC046140D002030000020EC
:10582000480B0020040C0020800A0020D152000008
:10583000DC020020FD190200BD100200050D02006F
:1058400090B585B000AF78603B1C0F3300221A7012
:105850007A681C4B9A4203D11B4B32221A7016E015
:105860007A681A4B9A4203D1174B42221A700EE003
:105870007A68174B9A4203D1134B52221A7006E0F2
:105880007A68144B9A4202D10F4B62221A703C1C68
:105890000F340120104B9847031C23703B1C0F331F
:1058A0001B78002B03D03B1C0F331B7806E00B4BFF
:1058B0001A787B681A763B1C0F331B78181CBD4680
:1058C00005B090BD140D002030000020480B0020D2
:1058D000040C0020800A0020D1520000DC020020CD
:1058E00090B583B000AFFB1D00221A70BB1D0022D3
:1058F0001A702F4B24221A70FC1D01202D4B984743
:10590000031C2370FB1D1B78002B02D0FB1D1B7892
:1059100049E0294B1978BB1D01220A401A70BB1DB2
:105920001B78002B3DD0224B25221A70FC1D012034
:10593000204B9847031C2370FB1D1B78002B02D0C3
:10594000FB1D1B782FE01C4B1B781A1C01231340F6
:105950005A1E9341DAB2194B9A76174B1B785B08A3
:10596000DBB21A1C012313405A1E9341DAB2144BC6
:105970009A76114B1B789B08DBB21A1C012313404B
:105980005A1E9341DAB20F4B9A760B4B1B78DB0809
:10599000DBB21A1C012313405A1E9341DAB20A4BA0
:1059A0009A76FB1D1B78181CBD4603B090BDC046FF
:1059B00030000020D1520000DC020020140D002035
:1059C000480B0020040C0020800A002080B582B023
:1059D00000AF786039603D4B1B7801225340DBB249
:1059E000002B0CD07A683B68101C191C384B984768
:1059F000021C384B101C9847021C7B685A617A685D
:105A0000354B9A4235D1354B1B7801225340DBB2DE
:105A1000002B03D12D4B1B78002B2AD02E4B5B691A
:105A2000002B0BD02C4B5B7C01225340DBB2002BB4
:105A300004D0294B181C2A4B98470BE0264B5B6976
:105A4000002B07D1244B5B7C002B03D0224B181C6E
:105A5000244B9847204B5B69D9B21F4A2C23D15461
:105A60001D4A2C23D35C1C4A101C191C1E4B984742
:105A70001BE07B685B69002B0BD07B685B7C0122A1
:105A80005340DBB2002B04D07B68181C144B9847A2
:105A90000BE07B685B69002B07D17B685B7C002B8C
:105AA00003D07B68181C0F4B98477B685B69D9B2A1
:105AB0007A682C23D1547A682C23D35C7A68101C22
:105AC000191C094B9847BD4602B080BD73030020E6
:105AD000155D0000050D0200800A0020470300202C
