:1000000048320020999701001D980100D17D010020
:1000100000000000000000000000000000000000E0
:100020000000000000000000000000001D9801001A
:1000300000000000000000001D9801001D98010054
:100040001D9801001D9801001D980100652B0100FD
:10005000391701001D9801001D980100D5520100BB
:10006000E9520100FD520100115301002553010026
:1000700039530100A18A0100B58A0100C98A010033
:10008000DD8A0100F18A0100058B0100198B010056
:100090002D8B0100F11501001D9801001D98010034
:1000A00008B5064B064803331B1A062B00D808BDBB
:1000B000044B002BFBD09847F9E7C046C8730200F9
:1000C000C87302000000000008B50748074B1B1A60
:1000D0009B10DA0FD318591000D108BD044A002A2A
:1000E000FBD09047F9E7C046C8730200C87302000E
:1000F0000000000010B5074C2378002B09D1FFF752
:10010000CFFF054B002B02D0044800E000BF0123C5
:10011000237010BD8402002000000000C87302009C
:1001200008B5094B002B03D00848094900E000BF7F
:1001300008480368002B03D0074B002B00D09847DA
:10014000FFF7C2FF08BDC04600000000C8730200F0
:1001500088020020C87302000000000080B500AFD4
:10016000BFF34F8F024B034ADA60BFF34F8FFEE7B6
:1001700000ED00E00400FA0580B500AF024B1B68FB
:10018000181CBD4680BDC0461C04002090B587B039
:1001900002AF021CFB1D1A703B1C0F33FA1D1278B4
:1001A000D2091A703B1C0E33FA1D127852091A70CC
:1001B0001B4BBB603B1C0F331B78002B0ED13B1C31
:1001C0000F331B789B001022D219D318083B1A68F2
:1001D0003B1C0E331B78DB01D3181CE0114B9847F6
:1001E000031C002B0FD00F4B9847011C0E4A6823AD
:1001F000FF330E4800900E480190081C01210D4C61
:10020000A047002307E00C480949074A6823FF3349
:100210000A4CA047FEE7181CBD4605B090BDC0467D
:1002200000440041790100007C2A0200AC2A02004F
:10023000C42A0200E9060100CC2A02002DB6010002
:1002400080B500AF014B9847BD4680BD5D01000001
:1002500080B582B000AF021CFB1D1A70FB1D1B781D
:10026000181C034B9847031C181CBD4602B080BDE8
:100270008D01000080B584B000AF021CFB1D1A7018
:10028000FB1D1B78181C0C4B9847031CFB60FB1DC7
:100290001A781F2313400122111C99400B1CBB60CC
:1002A000FB681B69BA6813405A1E9341DBB2181CE5
:1002B000BD4604B080BDC0465102000080B584B088
:1002C00000AFF8607A603B1C0B330A1C1A703B1CB1
:1002D0000B331B78002B08D07B68002B02D1064B18
:1002E000FA685A61054B01221A70FE239B05181CFF
:1002F000BD4604B080BDC046840A0020A002002094
:1003000080B584B000AFF8607A603B1C0B330A1CE8
:100310001A707B68002B0AD13B1C0B331B78002B17
:1003200002D00A4BFA689A61084B9B6909E03B1CB2
:100330000B331B78002B02D0054BFA689A61044BF3
:100340009B69181CBD4604B080BDC046B80900209A
:100350006009002080B584B000AFF8607A603B1C73
:100360000B330A1C1A707B68002B0AD13B1C0B3321
:100370001B78002B02D00A4BFA689A62084B9B6AE2
:1003800009E03B1C0B331B78002B02D0054BFA68AD
:100390009A62044B9B6A181CBD4604B080BDC046DF
:1003A000B80900206009002080B584B000AFF86073
:1003B0007A603B1C0B330A1C1A707B68002B0AD135
:1003C0003B1C0B331B78002B02D00A4BFA68DA6215
:1003D000084BDB6A09E03B1C0B331B78002B02D077
:1003E000054BFA68DA62044BDB6A181CBD4604B0A0
:1003F00080BDC046B80900206009002080B584B0E7
:1004000000AFF8607A603B1C0B330A1C1A707B68E3
:10041000002B0AD13B1C0B331B78002B02D00A4B5C
:10042000FA681A63084B1B6B09E03B1C0B331B7803
:10043000002B02D0054BFA681A63044B1B6B181C87
:10044000BD4604B080BDC046B80900206009002048
:1004500080B584B000AFF8607A603B1C0B330A1C97
:100460001A707B68002B0AD13B1C0B331B78002BC6
:1004700002D00A4BFA685A63084B5B6B09E03B1CDD
:100480000B331B78002B02D0054BFA685A63044BE0
:100490005B6B181CBD4604B080BDC046B809002087
:1004A0006009002080B584B000AFF8607A603B1C22
:1004B0000B330A1C1A707B68002B0AD13B1C0B33D0
:1004C0001B78002B02D00A4BFA689A63084B9B6B8F
:1004D00009E03B1C0B331B78002B02D0054BFA685C
:1004E0009A63044B9B6B181CBD4604B080BDC0468C
:1004F000B80900206009002080B584B000AFF86022
:100500007A603B1C0B330A1C1A707B68002B16D1D7
:100510003B1C0B331B78002B0ED0164BFA681A6469
:10052000154B164A1A60144B04221A71124B012201
:100530005A71134B01221A700E4B1B6C15E03B1CB9
:100540000B331B78002B0ED00E4BFA681A640A4B43
:100550000D4A1A60084B04221A71074B01225A7186
:10056000074B01221A70074B1B6C181CBD4604B0C8
:1005700080BDC046B8090020DC080020F809002032
:10058000F402002060090020A009002080B582B09C
:1005900000AF78600A1CFB1C1A70FB1C1B78002B38
:1005A00005D0054B78689847021C044B9A617B681C
:1005B000181CBD4602B080BDBDF60100840E0020AF
:1005C00080B582B000AF78600A1CFB1C1A70FB1C5F
:1005D0001B78002B05D0054B78689847021C044B0C
:1005E0009A617B68181CBD4602B080BDBDF6010053
:1005F000580C002080B582B000AF78600A1CFB1C4C
:100600001A70FB1C1B78002B05D0084B78689847A4
:10061000021C074B9A61064B1A69064B101C98473F
:10062000031C181CBD4602B080BDC046BDF60100CB
:10063000180D00206D04020080B582B000AF786014
:100640000A1CFB1C1A70FB1C1B78002B05D0084BE6
:1006500078689847021C074B9A61064B1A69064B4B
:10066000101C9847031C181CBD4602B080BDC04634
:10067000BDF60100DC0A00206D04020080B584B0E4
:1006800000AFF8607A603B1C0B330A1C1A707B6861
:10069000002B0AD13B1C0B331B78002B02D00A4BDA
:1006A000FA689A60084B9B6809E03B1C0B331B7887
:1006B000002B02D0054BFA689A60044B9B68181C0B
:1006C000BD4604B080BDC046840E0020580C0020FA
:1006D00080B584B000AFF8607A603B1C0B330A1C15
:1006E0001A707B68002B0AD13B1C0B331B78002B44
:1006F00002D00A4BFA68DA60084BDB6809E03B1C61
:100700000B331B78002B02D0054BFA68DA60044BE0
:10071000DB68181CBD4604B080BDC046840E0020B6
:10072000580C002080B582B000AF78600A1CFB1C1A
:100730001A70054B1A69054B101C9847031C181CAE
:10074000BD4602B080BDC046840E00206D0402008C
:1007500080B582B000AF78600A1CFB1C1A70054B94
:100760001A69054B101C9847031C181CBD4602B0A3
:1007700080BDC046580C00206D04020080B584B0D6
:1007800000AFF8607A603B1C0B330A1C1A707B6860
:10079000002B0AD13B1C0B331B78002B02D00A4BD9
:1007A000FA685A62084B5B6A09E03B1C0B331B7802
:1007B000002B02D0054BFA685A62044B5B6A181C86
:1007C000BD4604B080BDC046B809002060090020C5
:1007D00080B584B000AFF8607A603B1C0B330A1C14
:1007E0001A707B68002B0AD13B1C0B331B78002B43
:1007F00002D00A4BFA681A62084B1B6A09E03B1CDC
:100800000B331B78002B02D0054BFA681A62044B9D
:100810001B6A181CBD4604B080BDC046B809002044
:100820006009002080B584B000AFF8607A603B1C9E
:100830000B330A1C1A707B68002B06D1054B5A7DBE
:10084000054B101C9847031C00E00023181CBD46F4
:1008500004B080BD840E00206D04020080B584B019
:1008600000AFF8607A603B1C0B330A1C1A703B1C0B
:100870000B331B78002B09D0074BF8689847021CF4
:10088000064B101C9847021C054B1A60044B1B6852
:10089000181CBD4604B080BDBDF601006D04020009
:1008A0008400002080B584B000AFF8607A603B1C03
:1008B0000B330A1C1A70034BDB69181CBD4604B0CD
:1008C00080BDC046840A002080B584B000AFF860C7
:1008D0007A603B1C0B330A1C1A70034B5B6A181CB2
:1008E000BD4604B080BDC046840A002080B584B0F7
:1008F00000AFF8607A603B1C0B330A1C1A70034B84
:10090000DB6B181CBD4604B080BDC046840A0020C5
:1009100080B584B000AFF8607A603B1C0B330A1CD2
:100920001A70034B1B6C181CBD4604B080BDC0463A
:10093000840A002080B584B000AFF8607A603B1C68
:100940000B330A1C1A70034B5B6C181CBD4604B0B9
:1009500080BDC046840A002080B584B000AFF86036
:100960007A603B1C0B330A1C1A70034B9B6C181CDF
:10097000BD4604B080BDC046840A002080B584B066
:1009800000AFF8607A603B1C0B330A1C1A70034BF3
:10099000DB69181CBD4604B080BDC046640D002054
:1009A00080B584B000AFF8607A603B1C0B330A1C42
:1009B0001A70034B5B6A181CBD4604B080BDC0466C
:1009C000640D002090B585B000AFF8607A603B1CE4
:1009D0000B330A1C1A707B68002B17D13B1C0B339E
:1009E0001B78002B0FD0174BFA681A65164B1B7833
:1009F000022B08D1134B196D124B5A6D114B9B6D85
:100A00001048124CA0470F4B1B6D16E03B1C0B33DC
:100A10001B78002B0FD00E4BFA681A650D4B1B7814
:100A2000022B08D10A4B196D094B5A6D084B9B6D6F
:100A30000748064CA047064B1B6D181CBD4605B069
:100A400090BDC046100E0020B809002059A5000036
:100A5000A40C00206009002090B585B000AFF860BC
:100A60007A603B1C0B330A1C1A707B68002B17D171
:100A70003B1C0B331B78002B0FD0174BFA685A65C1
:100A8000164B1B78022B08D1134B196D124B5A6D64
:100A9000114B9B6D1048124CA0470F4B5B6D16E03D
:100AA0003B1C0B331B78002B0FD00E4BFA685A659A
:100AB0000D4B1B78022B08D10A4B196D094B5A6D4F
:100AC000084B9B6D0748064CA047064B5B6D181CF6
:100AD000BD4605B090BDC046100E0020B8090020EC
:100AE00059A50000A40C00206009002090B585B035
:100AF00000AFF8607A603B1C0B330A1C1A707B68ED
:100B0000002B17D13B1C0B331B78002B0FD0174B3E
:100B1000FA689A65164B1B78022B08D1134B196D96
:100B2000124B5A6D114B9B6D1048124CA0470F4B46
:100B30009B6D16E03B1C0B331B78002B0FD00E4B2C
:100B4000FA689A650D4B1B78022B08D10A4B196D78
:100B5000094B5A6D084B9B6D0748064CA047064B46
:100B60009B6D181CBD4605B090BDC046100E002000
:100B7000B809002059A50000A40C0020600900203D
:100B800090B585B000AFF8607A603B1C0B330A1C4F
:100B90001A707B68002B17D13B1C0B331B78002B82
:100BA0000FD0174BFA68DA65164B1B78032B08D168
:100BB000134BD96D124B1A6E114B5B6E1048124CD1
:100BC000A0470F4BDB6D16E03B1C0B331B78002B53
:100BD0000FD00E4BFA68DA650D4B1B78032B08D14A
:100BE0000A4BD96D094B1A6E084B5B6E0748064CD1
:100BF000A047064BDB6D181CBD4605B090BDC04636
:100C0000100E0020B809002059A50000A40C0020F7
:100C10006009002090B585B000AFF8607A603B1C99
:100C20000B330A1C1A707B68002B17D13B1C0B334B
:100C30001B78002B0FD0174BFA681A66164B1B78DF
:100C4000032B08D1134BD96D124B1A6E114B5B6EEF
:100C50001048124CA0470F4B1B6E16E03B1C0B3389
:100C60001B78002B0FD00E4BFA681A660D4B1B78C1
:100C7000032B08D10A4BD96D094B1A6E084B5B6EDA
:100C80000748064CA047064B1B6E181CBD4605B016
:100C900090BDC046100E0020B809002059A50000E4
:100CA000A40C00206009002090B585B000AFF8606A
:100CB0007A603B1C0B330A1C1A707B68002B17D11F
:100CC0003B1C0B331B78002B0FD0174BFA685A666E
:100CD000164B1B78032B08D1134BD96D124B1A6E90
:100CE000114B5B6E1048124CA0470F4B5B6E16E029
:100CF0003B1C0B331B78002B0FD00E4BFA685A6647
:100D00000D4B1B78032B08D10A4BD96D094B1A6E7A
:100D1000084B5B6E0748064CA047064B5B6E181CE1
:100D2000BD4605B090BDC046100E0020B809002099
:100D300059A50000A40C00206009002090B585B0E2
:100D400000AFF8607A603B1C0B330A1C1A707B689A
:100D5000002B17D13B1C0B331B78002B0FD0174BEC
:100D6000FA689A66164B1B78042B08D1134B996EC0
:100D7000124BDA6E114B1B6F1048124CA0470F4BF1
:100D80009B6E16E03B1C0B331B78002B0FD00E4BD9
:100D9000FA689A660D4B1B78042B08D10A4B996EA2
:100DA000094BDA6E084B1B6F0748064CA047064BF1
:100DB0009B6E181CBD4605B090BDC046100E0020AD
:100DC000B809002059A50000A40C002060090020EB
:100DD00090B585B000AFF8607A603B1C0B330A1CFD
:100DE0001A707B68002B17D13B1C0B331B78002B30
:100DF0000FD0174BFA68DA66164B1B78042B08D114
:100E0000134B996E124BDA6E114B1B6F1048124C3C
:100E1000A0470F4BDB6E16E03B1C0B331B78002BFF
:100E20000FD00E4BFA68DA660D4B1B78042B08D1F5
:100E30000A4B996E094BDA6E084B1B6F0748064C3C
:100E4000A047064BDB6E181CBD4605B090BDC046E2
:100E5000100E0020B809002059A50000A40C0020A5
:100E60006009002090B585B000AFF8607A603B1C47
:100E70000B330A1C1A707B68002B17D13B1C0B33F9
:100E80001B78002B0FD0174BFA681A67164B1B788C
:100E9000042B08D1134B996E124BDA6E114B1B6F5A
:100EA0001048124CA0470F4B1B6F16E03B1C0B3336
:100EB0001B78002B0FD00E4BFA681A670D4B1B786E
:100EC000042B08D10A4B996E094BDA6E084B1B6F45
:100ED0000748064CA047064B1B6F181CBD4605B0C3
:100EE00090BDC046100E0020B809002059A5000092
:100EF000A40C00206009002080B584B000AFF86029
:100F00007A603B1C0B330A1C1A707B68002B0DD1D6
:100F10003B1C0B331B78002B05D00D4BFA685A6035
:100F20000B4BFA689A600A4B5B680CE03B1C0B3376
:100F30001B78002B05D0074BFA685A60054BFA68FE
:100F40009A60044B5B68181CBD4604B080BDC04667
:100F5000B80900206009002080B584B000AFF860B7
:100F60007A603B1C0B330A1C1A707B68002B0AD179
:100F70003B1C0B331B78002B02D00A4BFA68DA605B
:100F8000084BDB6809E03B1C0B331B78002B02D0BD
:100F9000054BFA68DA60044BDB68181CBD4604B0E8
:100FA00080BDC046B80900206009002080B584B02B
:100FB00000AFF8607A603B1C0B330A1C1A703B1CB4
:100FC0000B331B78002B0ED00A4BFA685A650A4B7C
:100FD0000A4A1A60084B04221A71074B01225A71FF
:100FE000074B01221A70034B5B6D181CBD4604B001
:100FF00080BDC046B8090020DC0800200C0A002093
:10100000F402002080B584B000AFF8607A603B1C29
:101010000B330A1C1A707B68002B12D13B1C0B335C
:101020001B78002B06D0124BF8689847031CDAB2E5
:10103000104B1A700F4B1A780F4B101C9847031C5B
:1010400011E03B1C0B331B78002B06D0084BF868D3
:101050009847031CDAB2094B1A70084B1A78064BF2
:10106000101C9847031C181CBD4604B080BDC04628
:10107000BDF60100B80900206D04020060090020DF
:1010800090B585B000AFF8607A603B1C0B330A1C4A
:101090001A707B68002B19D13B1C0B331B78002B7B
:1010A0000DD001231C1C184BF86800219847031C25
:1010B000002B01D000231C1CE2B2144B1A70134BFE
:1010C0001A78134B101C9847031C18E03B1C0B3379
:1010D0001B78002B0DD001231C1C0B4BF868002142
:1010E0009847031C002B01D000231C1CE2B2094BC3
:1010F0001A70084B1A78064B101C9847031C181CD2
:10110000BD4605B090BDC04621F601007B01002020
:101110006D0402007C01002080B584B000AFF8604F
:101120007A603B1C0B330A1C1A703B1C0B331B7878
:10113000002B02D0044BFA685A61034B5B69181C00
:10114000BD4604B080BDC046840A002080B584B08E
:1011500000AFF8607A603B1C0B330A1C1A703B1C12
:101160000B331B78002B02D0044BFA681A65034B33
:101170001B6D181CBD4604B080BDC046B8090020D8
:1011800080B584B000AFF8607A603B1C0B330A1C5A
:101190001A703B1C0B331B78002B06D0084BF868E9
:1011A0009847031C9AB2074B1A80064B1A88064BC5
:1011B000101C9847031C181CBD4604B080BDC046D7
:1011C000BDF60100640100206D04020080B584B00A
:1011D00000AFF8607A603B1C0B330A1C1A703B1C92
:1011E0000B331B78002B06D0084BF8689847031C7C
:1011F0009AB2074B1A80064B1A88064B101C984768
:10120000031C181CBD4604B080BDC046BDF60100DD
:101210003A0000206D04020080B584B000AFF86091
:101220007A603B1C0B330A1C1A703B1C0B331B7877
:10123000002B06D0084BF8689847031C9AB2074B5E
:101240001A80064B1A88064B101C9847031C181C62
:10125000BD4604B080BDC046BDF60100640000205C
:101260006D04020080B584B000AFF8607A603B1C6A
:101270000B330A1C1A703B1C0B331B78002B0ED04F
:101280000A4BFA681A600A4B084A1A60084B042293
:101290001A71074B01225A71064B01221A70034B37
:1012A0001B68181CBD4604B080BDC04680010020EC
:1012B000DC080020F402002080B584B000AFF860A4
:1012C0007A603B1C0B330A1C1A703B1C0B331B78D7
:1012D000002B0ED00A4BFA681A600A4B084A1A60B3
:1012E000084B04221A71074B01225A71064B012246
:1012F0001A70034B1B68181CBD4604B080BDC04665
:1013000084010020DC080020F402002080B584B0B5
:1013100000AFF8607A603B1C0B330A1C1A70002384
:10132000181CBD4604B080BD80B584B000AFF86025
:101330007A603B1C0B330A1C1A70054B1A88054B4C
:10134000101C9847031C181CBD4604B080BDC04645
:101350008C0100206D04020080B584B000AFF860FD
:101360007A603B1C0B330A1C1A70054B1A88054B1C
:10137000101C9847031C181CBD4604B080BDC04615
:101380008E0100206D04020080B584B000AFF860CB
:101390007A603B1C0B330A1C1A70034B1B6B181C26
:1013A000BD4604B080BDC046840A002080B584B02C
:1013B00000AFF8607A603B1C0B330A1C1A70034BB9
:1013C0001B6B181CBD4604B080BDC046640D0020D8
:1013D00080B584B000AFF8607A603B1C0B330A1C08
:1013E0001A703B1C0B331B78002B13D00E4BF86884
:1013F0009847031CDBB21A1C0C4B1A800C4B0B4A8F
:101400001A600B4B02221A71094B01225A71094BC7
:1014100001221A70054B1A88074B101C9847031CB1
:10142000181CBD4604B080BDBDF601006601002059
:10143000DC080020F40200206D040200000000001F
:10144000F0B5474680B4DEB004AFA12040003B18A1
:1014500000221A704221FF317B1800221A700023EB
:10146000B2225200D21913606420FF303B180022D0
:101470001A70B12149007B1800221A70A022520074
:10148000BB1800221A700123AE204000C01903606F
:1014900000239E214900C9190B604222FF32BB186C
:1014A000E54A12781A70E54AE54B101C191CE54B09
:1014B0009847031CB2204000C01903600CE1B22120
:1014C0004900C9190B68181CDF4B9847031CD9B297
:1014D000B1225200BB18B12040003A1812788A1885
:1014E0001A706421FF317B181B78002B22D1B222A5
:1014F0005200D2191368181CD34B9847031C391C8F
:101500002431B2204000C0190268081C111C1A1CAA
:10151000CE4B9847B2214900C9190B68181CCA4B19
:101520009847031CCA4AB4204000C0198218002101
:10153000D154A4E06421FF317B181B78012B22D108
:10154000B2225200D2191368181CBF4B9847031CD3
:10155000391C1C31B2204000C0190268081C111C43
:101560001A1CBA4B9847B2214900C9190B68181CBC
:10157000B54B9847031CB74AB4204000C0198218E5
:101580000021D1547BE06421FF317B181B78022BB2
:101590004ED1B2225200D21913681B782B2B0ED1D8
:1015A0000123AE204000C0190360B2214900C919CF
:1015B0000B680133B2225200D219136015E0B22039
:1015C0004000C01903681B782D2B0ED101235B420C
:1015D000AE214900C9190B60B2225200D21913681A
:1015E0000133B2204000C0190360B2214900C9197B
:1015F0000B68181C944B9847031C391C0C31B22003
:101600004000C0190268081C111C1A1C8F4B984717
:10161000B2214900C9190B68181C8B4B9847031C51
:101620008D4AB4204000C01982180021D15426E010
:101630006421FF317B181B78032B20D1B22252008A
:10164000D2191368181C804B9847031C391DB2200F
:101650004000C0190268081C111C1A1C7B4B9847DB
:10166000B2214900C9190B68181C774B9847031C15
:101670007A4AB4204000C01982180021D154B12107
:1016800049007B181B785A1C4220FF303B181B78FE
:101690009A420ADA6A4B0020191C6A4B9847031CCD
:1016A000B2214900C9190B6004E00023B2225200A4
:1016B000D21913606420FF303B186421FF317A187F
:1016C000127801321A70B1225200BB18B1204000CA
:1016D0003A18127801321A70B2214900C9190B6800
:1016E000002B00D0EBE63B1C2433181C00210A22FF
:1016F0005B4B9847031C092B01D902F0ECF99A00C7
:10170000584BD3181B689F46524BB4225200D21933
:10171000D3181B78303B092B00D971E39A00524B48
:10172000D3181B689F464C4BB4204000C019C31807
:101730001A78A02149007B18303A511E8A411A704C
:101740004A4BA02040003A1812781A70474B1B7879
:10175000002B0CD0464A3D230121D154454A3D235C
:101760000121D154444B181C444B98474EE3404A46
:101770003D230021D1543F4A3D230021D154404B09
:10178000181C404B984741E3334BB4214900C91919
:10179000CB181A78A02040003B18303A511E8A41DD
:1017A0001A70394BA02149007A1812781A70374BF9
:1017B00000221A70A0225200BB181B78002B04D004
:1017C000334B181C2D4B984720E3324B181C2B4BE6
:1017D00098471BE33B1C0C33181C00210A22204BAA
:1017E0009847031C9C204000C01903603B1D181C37
:1017F00000210A221A4B9847031CAC214900C91941
:101800000B6000239A225200D21913600023AA20F1
:101810004000C01903609C214900C9190B68092BBD
:1018200000D9F2E29C225200D21913689A001A4B96
:10183000D3181B689F46C0468010002081100020EE
:10184000642B02002DBB01001DBB010075B301001C
:10185000BCFEFFFFB4FEFFFFA4FEFFFF9CFEFFFFE8
:1018600069BD010078320200A0320200720300203C
:10187000B8090020600900206C2B020099B8010013
:10188000882B02002DB6010073030020780300208E
:10189000A42B0200C02B0200C8320200C54BAC20B2
:1018A0004000C01902689200D358DBB2181CC24B2A
:1018B0009847031C9A214900C9190B60BF4A9A2016
:1018C0004000C0190368101C191CBD4B98470BE160
:1018D000AC214900C9190B68172B36DCAC22520029
:1018E000D21913680B2B0DDD0123AA204000C0196B
:1018F0000360AC214900C9190B680C3BAC225200B3
:10190000D2191360AF4BAC204000C019026892009E
:10191000D3580021AA204000C0190268081C0021E9
:101920009847031C9E214900C9190B60A64B9E22B3
:101930005200D21910689847031C0C1CA34A101CB3
:101940001A1C231C9E498847CEE0CDE0AC20400005
:10195000C0190368192B36DCAC214900C9190B6882
:101960000C2B0DDD0123AA225200D2191360AC20EA
:101970004000C01903680D3BAC214900C9190B6038
:10198000934BAC204000C01902689200D35800214C
:10199000AA204000C0190268081C00219847031CB7
:1019A0009E214900C9190B60874B9E225200D21913
:1019B00010689847031C0C1C864A101C1A1C231C18
:1019C0007F49884790E08FE0AC204000C019036851
:1019D000082B22DC804BAC214900C9190A6892000F
:1019E000D3580021AA204000C0190268081C002119
:1019F0009847031C9E214900C9190B60724B9E2217
:101A00005200D21910689847031C0C1C734A101C12
:101A10001A1C231C6A49884766E065E0AC20400038
:101A2000C01903680F2B2DDCAC214900C9190B68C4
:101A3000062B04DD0123AA225200D2191360684B41
:101A4000AC204000C01902689200D3580021AA209F
:101A50004000C0190268081C00219847031C9E2101
:101A60004900C9190B60584B9E225200D2191068C8
:101A70009847031C0C1C5B4A101C1A1C231C504961
:101A8000884731E030E0AC204000C01903680C2BDF
:101A900022DC554BAC214900C9190A689200D35881
:101AA0000021AA204000C0190268081C00219847A4
:101AB000031C9E214900C9190B60434B9E22520012
:101AC000D21910689847031C0C1C484A101C1A1C99
:101AD000231C3B49884707E006E0454B181C454B53
:101AE0009847454B9847C0468FE1444BB42040008F
:101AF000C019C3181A78A02149007B18303A511E2A
:101B00008A411A70A0225200BB181B78002B07D004
:101B10003B4B01221A703B4B181C364B984775E122
:101B2000374B00221A70384B181C324B98476DE126
:101B3000324BB4204000C019C3181A78A0214900C4
:101B40007B18303A511E8A411A70304B98475DE13C
:101B50002A4BB4225200D219D3181A78A020400080
:101B60003B18303A511E8A411A70294BA021490076
:101B70007A1812781A70264B1B78002B0CD0254A45
:101B80003D230121D154244A3D230121D154234B2B
:101B9000181C184B984739E11E4A3D230021D154A7
:101BA0001D4A3D230021D1541D4B181C114B984751
:101BB0002CE1C0466832020075020000DC2B0200F6
:101BC0002DB60100D806002011210200F02B0200E2
:101BD000B4050020082C0200340600201C2C020052
:101BE00058070020302C020034050020442C02004D
:101BF000542C020099B801006D4A0000A4FEFFFFBA
:101C000071030020582C0200702C020021C000003B
:101C100072030020B809002060090020882C02000F
:101C2000A02C0200002398225200D2191360302009
:101C3000FF303B1800221A703B1C0C33181C00218B
:101C40000A22C54B9847031CAE214900C9190A68EE
:101C5000534394225200D21913603B1D181C0021DB
:101C60000A22BD4B9847031CAE204000C0190268F1
:101C7000534392214900C9190B603B1D181CB74BF7
:101C80009847021C3020FF303B181A70B44B942147
:101C90004900C919086898478046B14B9222520002
:101CA000D21910689847021CAE4B101C9847051CAF
:101CB0000E1C3020FF303B181A78AB4B101C984795
:101CC000031C0C1CA34AA249081C111C1A1C231C2F
:101CD000A64CA047031C0C1CA5498C46281C311C93
:101CE0001A1C231CE047031C0C1CA24A181C211CB4
:101CF0009047021CA04B4046111C9847031C982299
:101D00005200D21913609D4A4C23D35C01225340E8
:101D1000DBB2002B1DD0994B98204000C0190268FF
:101D20001A6298214900C9190B68181C0121002268
:101D3000934B98478B4B98225200D21910689847C2
:101D4000031C0C1C8F4A101C1A1C231C8E4988472C
:101D50005CE05BE03B1C0C33181C00210A227E4B2C
:101D60009847031C90204000C0190360902149004F
:101D7000C9190B68002B05DD844B181C6421844BAA
:101D800098470BE090225200D2191368002B05DC13
:101D90007E4B181C00217E4B984737E036E03B1CF9
:101DA0000C33181C00210A226B4B9847031C8E2011
:101DB0004000C01903608E214900C9190B68002B2F
:101DC00005DD744B181C6421714B98470BE08E2283
:101DD0005200D2191368002B05DC6E4B181C002131
:101DE0006B4B984712E011E06B4B1B781A1C6B4B46
:101DF0001B786B49081C111C1A1C634B984705E0A3
:101E0000684B181C684B984700E0C04601F062FE22
:101E100000238C204000C01903601821FF317B187B
:101E200000221A703B1C1C33181C00210A224A4B4A
:101E30009847031C88225200D21913603B1C0C33B4
:101E4000181C00210A22444B9847031CAE20400076
:101E5000C0190268534386214900C9190B603B1D14
:101E6000181C00210A223C4B9847031CAE2040005E
:101E7000C0190268534384214900C9190B6000232B
:101E80007A1DFF3213603B1D181C344B9847021C0F
:101E90001820FF303B181A70314B86214900C919B0
:101EA0000868984780462E4B84225200D219106849
:101EB0009847021C2B4B101C9847051C0E1C182021
:101EC000FF303B181A78284B101C9847031C0C1C39
:101ED000204A1F49081C111C1A1C231C234CA04714
:101EE000031C0C1C22498C46281C311C1A1C231C68
:101EF000E047031C0C1C1F4A181C211C9047021CA5
:101F00001D4B4046111C9847031C8C225200D219CD
:101F1000136088204000C01903680C2B16DC234B8B
:101F200088214900C9190A689200D3588C225200AE
:101F3000D2191168781DFF300268081C01219847EA
:101F40001B4B181C184B984701F0C4FD01F0C2FD53
:101F5000000000000000244069BD01001DBB01001D
:101F6000B503020011210200A9200200719C0100AA
:101F7000550B0200B52102009DF70100100E002054
:101F8000BD020000BC2C02002DB60100280B002071
:101F9000757200004C0C0020D00E00200C0E0020AA
:101FA000D82C0200FC2C020099B801003405002056
:101FB0000C2D02000023791CFF310B603B1CFF330A
:101FC00000221A703B1C1C33181C00210A22F24B01
:101FD0009847031CA8225200D21913603B1C0C33F3
:101FE000181C00210A22EC4B9847031CAE2040002D
:101FF000C01902685343F821C9190B603B1D181C16
:1020000000210A22E44B9847031CAE204000C0196F
:1020100002685343F421C9190B600023A622520021
:10202000D21913603B1D181CDC4B9847021C3B1C4B
:10203000FF331A70DA4BF821C919086898478046AF
:10204000D74BF422D21910689847021CD54B101CAC
:102050009847051C0E1C3B1CFF331A78D24B101CF2
:102060009847031C0C1CCB4AC949081C111C1A1C9C
:10207000231CCE4CA047031C0C1CCD488446281CB6
:10208000311C1A1C231CE047031C0C1CC94A181CD9
:10209000211C9047021CC84B4046111C9847031C4A
:1020A000791CFF310B60A8225200D2191368172B3C
:1020B0002ADCA8204000C01903680B2B0DDD01238A
:1020C000A6214900C9190B60A8225200D219136831
:1020D0000C3BA8204000C0190360B84BA821490060
:1020E000C9190A689200D3587A1CFF321168A620D9
:1020F0004000C0190268081C01219847B04B181C09
:10210000B04B984701F0E6FC01F0E4FC0023F0211D
:10211000C9190B603B1CEF3300221A703B1C1C33A7
:10212000181C00210A229C4B9847031CA422520031
:10213000D21913603B1C0C33181C00210A22964B49
:102140009847031CAE204000C01902685343E821A1
:10215000C9190B603B1D181C00210A228E4B9847A1
:10216000031CAE204000C01902685343E421C91982
:102170000B600023A2225200D21913603B1D181CD1
:10218000864B9847021C3B1CEF331A70844BE821A6
:10219000C919086898478046814BE422D219106813
:1021A0009847021C7F4B101C9847051C0E1C3B1CBB
:1021B000EF331A787C4B101C9847031C0C1C754A93
:1021C0007349081C111C1A1C231C784CA047031CC3
:1021D0000C1C77488446281C311C1A1C231CE04721
:1021E000031C0C1C734A181C211C9047021C724BC8
:1021F0004046111C9847031CF021C9190B60A4220A
:102200005200D2191368192B2ADCA4204000C019EF
:1022100003680C2B0DDD0123A2214900C9190B60B5
:10222000A4225200D21913680D3BA4204000C0190B
:102230000360654BA4214900C9190A689200D3586C
:10224000F022D2191168A2204000C0190268081CAF
:10225000012198475D4B181C5A4B984701F03AFCF6
:1022600001F038FC0023E021C9190B603B1CDF336F
:1022700000221A703B1C1C33181C00210A22464BFA
:102280009847031CD822D21913603B1C0C33181C2E
:1022900000210A22404B9847031CAE204000C01981
:1022A00002685343D421C9190B603B1D181C00213F
:1022B0000A22394B9847031CAE204000C01902681F
:1022C0005343D021C9190B600023CC22D2191360CB
:1022D0003B1D181C314B9847021C3B1CDF331A7006
:1022E0002F4BD421C9190868984780462C4BD0221F
:1022F000D21910689847021C2A4B101C9847051CDD
:102300000E1C3B1CDF331A78274B101C9847031C0C
:102310000C1C204A1E49081C111C1A1C231C234C8F
:10232000A047031C0C1C22488446281C311C1A1C84
:10233000231CE047031C0C1C1E4A181C211C904740
:10234000021C1D4B4046111C9847031CE021C91973
:102350000B60D822D2191368082B14DC1C4BD82030
:10236000C01902689200D358E022D2191168CC201B
:10237000C0190268081C01219847164B181C114B04
:10238000984701F0A7FB01F0A5FBC046C046C04638
:10239000000000000000244069BD01001DBB0100D9
:1023A000B503020011210200A9200200719C010066
:1023B000550B0200B52102009DF70100D806002050
:1023C000202D020099B80100B40500203C2D020028
:1023D00034060020502D02000023C821C9190B60CB
:1023E0003B1CC73300221A703B1C1C33181C0021F5
:1023F0000A22BD4B9847031CC022D21913603B1C14
:102400000C33181C00210A22B74B9847031CAE203E
:102410004000C01902685343BC21C9190B603B1D21
:10242000181C00210A22B04B9847031CAE20400024
:10243000C01902685343B821C9190B600023B422A4
:10244000D21913603B1D181CA84B9847021C3B1C5B
:10245000C7331A70A64BBC21C91908689847804633
:10246000A34BB822D21910689847021CA14B101C2C
:102470009847051C0E1C3B1CC7331A789E4B101C3A
:102480009847031C0C1C974A9549081C111C1A1CE0
:10249000231C9A4CA047031C0C1C99488446281CFA
:1024A000311C1A1C231CE047031C0C1C954A181CE9
:1024B000211C9047021C944B4046111C9847031C5A
:1024C000C821C9190B60C022D21913680F2B14DC64
:1024D0008E4BC020C01902689200D358C822D2196E
:1024E0001168B420C0190268081C01219847884B64
:1024F000181C884B984701F0EDFA01F0EBFA864B77
:10250000B4214900C919CB181B78303B092B00D9DD
:10251000A0E39A00814BD3181B689F46804BB422DE
:102520005200D219D3181A78A02040003B18303A34
:10253000511E8A411A70A02149007B181B78002B7C
:102540000FD0784A3D230121D154774A3D23012100
:10255000D154764B00221A70754B181C6D4B98475E
:102560007DE3704A3D230021D1546F4A3D23002171
:10257000D1546E4B01221A706E4B181C654B984754
:102580006DE3674BB4225200D219D3181A78A020F9
:1025900040003B18303A511E8A411A70A021490070
:1025A0007B181B78002B07D0634B01221A70634BFA
:1025B000181C584B984752E35F4B00221A70604B2F
:1025C000181C544B98474AE30023B022D2191360D9
:1025D0003B1CAF3300221A703B1C0C33181C00212B
:1025E0000A22414B9847031CAE204000C0190268E4
:1025F0005343A821C9190B603B1D181C00210A2256
:10260000394B9847031CAE204000C0190268534361
:10261000A421C9190B603B1D181C344B9847021CA0
:102620003B1CAF331A70324BA822D219106898475E
:1026300080462F4BA421C91908689847021C2D4BCE
:10264000101C9847051C0E1C3B1CAF331A782A4BF4
:10265000101C9847031C0C1C224A2149081C111C01
:102660001A1C231C254CA047031C0C1C244A94460E
:10267000281C311C1A1C231CE047031C0C1C214A7B
:10268000181C211C9047021C1F4B4046111C9847E8
:10269000031CB020C0190360224A3D23D35C002BE9
:1026A0001AD0284BB021C9190A681A62B022D2196F
:1026B0001368181C01210022234B98470D4BB021B1
:1026C000C91908689847031C0C1C204A101C1A1CC6
:1026D000231C1F498847C2E2C1E2C046C046C0462B
:1026E000000000000000244069BD01001DBB010086
:1026F000B503020011210200A9200200719C010013
:10270000550B0200B52102009DF70100580700207B
:10271000682D020099B80100B4FEFFFFF0320200FC
:10272000A4FEFFFFB8090020600900207803002004
:10273000802D0200982D020076030020B42D0200A7
:10274000D02D0200100E0020BD020000EC2D020072
:102750002DB601000023A022D21913603B1C9F3329
:1027600000221A703B1C0C33181C00210A22C24B99
:102770009847031CAE204000C019026853439821BB
:10278000C9190B603B1D181C00210A22BA4B98473F
:10279000031CAE204000C019026853439421C9199C
:1027A0000B603B1D181CB54B9847021C3B1C9F330C
:1027B0001A70B34B9822D219106898478046B04BD4
:1027C0009421C91908689847021CAE4B101C984701
:1027D000051C0E1C3B1C9F331A78AB4B101C9847F2
:1027E000031C0C1CA34AA249081C111C1A1C231C04
:1027F000A64CA047031C0C1CA54A9446281C311C5F
:102800001A1C231CE047031C0C1CA24A181C211C88
:102810009047021CA04B4046111C9847031CA02067
:10282000C01903609D4BA021C91908689847031C73
:102830009AB29B4B1A809A4B1B889A4A101C191CFF
:10284000994B9847994B01221A70994B944A1A60F8
:10285000974B02221A71964B01225A71FFE1002315
:102860009022D21913603B1C8F3300221A703B1C3C
:102870000C33181C00210A227F4B9847031CAE2002
:102880004000C019026853438821C9190B603B1DE1
:10289000181C00210A22784B9847031CAE204000E8
:1028A000C019026853438421C9190B603B1D181CD1
:1028B000724B9847021C3B1C8F331A70704B882256
:1028C000D2191068984780466D4B8421C919086851
:1028D0009847021C6B4B101C9847051C0E1C3B1C98
:1028E0008F331A78684B101C9847031C0C1C614AE4
:1028F0005F49081C111C1A1C231C644CA047031CB4
:102900000C1C634A9446281C311C1A1C231CE047EB
:10291000031C0C1C5F4A181C211C9047021C5E4BB8
:102920004046111C9847031C9020C01903605B4B64
:102930009021C91908689847031C9AB25D4B1A8008
:102940005C4B1B885C4A101C191C574B9847574B13
:1029500001221A70564B574A1A60554B02221A71BF
:10296000534B01225A717AE100238022D21913605D
:102970003B1C7F3300221A703B1C0C33181C0021B7
:102980000A223D4B9847031CAE204000C019026844
:102990005343BB673B1D181C00210A22364B984746
:1029A000031CAE214900C9190A6853437B673B1DCC
:1029B000181C324B9847021C3B1C7F331A70304B5B
:1029C000B86F984780462E4B786F9847021C2D4B66
:1029D000101C9847051C0E1C3B1C7F331A782A4B91
:1029E000101C9847031C0C1C224A2149081C111C6E
:1029F0001A1C231C254CA047031C0C1C244A94467B
:102A0000281C311C1A1C231CE047031C0C1C214AE7
:102A1000181C211C9047021C1F4B4046111C984754
:102A2000031C8020C0190360244B1B78002B18D096
:102A30001A4B8021C91908689847031CDBB2204A49
:102A4000101C191C1F4B9847144B8022D219106878
:102A50009847031CDBB21C4A101C191C124B9847E8
:102A6000FDE01A4B181C1A4B9847F8E0C046C046C8
:102A7000000000000000244069BD01001DBB0100F2
:102A8000B503020011210200A9200200719C01007F
:102A9000550B0200B52102009DF70100BDF60100B3
:102AA0008C0100200C2E02002DB60100F402002043
:102AB000DC0800208E010020302E0200760300206A
:102AC000D40E002075720000542E0200742E0200F5
:102AD00099B8010000233B673B1C6F3300221A703A
:102AE0003B1C0C33181C00210A22EB4B9847031C9B
:102AF000AE204000C01902685343BB663B1D181C42
:102B000000210A22E44B9847031CAE214900C91951
:102B10000A6853437B663B1D181CE04B9847021C18
:102B20003B1C6F331A70DE4BB86E98478046DC4B07
:102B3000786E9847021CDB4B101C9847051C0E1C36
:102B40003B1C6F331A78D84B101C9847031C0C1C85
:102B5000D04ACF49081C111C1A1C231CD34CA04777
:102B6000031C0C1CD24A9446281C311C1A1C231C22
:102B7000E047031C0C1CCF4A181C211C9047021C68
:102B8000CD4B4046111C9847031C3B67CB4B1B7831
:102B9000002B14D0CA4B386F9847031CDBB2C94ACC
:102BA000101C191CC84B9847C54B386F9847031C1D
:102BB000DBB2C64A101C191CC54B98474FE0C54BE9
:102BC000181CC54B98474AE0C44BB4204000C019BC
:102BD000C3181A78A02149007B18303A511E8A4147
:102BE0001A70A0225200BB181B78002B07D0BC4BD8
:102BF00001221A70BB4B181CB74B98472FE0B84BFB
:102C000000221A70B84B181CB34B984727E0B34BFF
:102C1000B4204000C019C3181A78A02149007B18BD
:102C2000303A511E8A411A70A0225200BB181B78FC
:102C3000002B07D0AD4B01221A70AD4B181CA64BD0
:102C400098470CE0A94B00221A70AA4B181CA24B03
:102C5000984704E09F4B181C9F4B9847C04600F0D4
:102C600039FFA54BB4204000C019C3181B78303B76
:102C7000092B00D908E29A00A04BD3181B689F4685
:102C8000964BB4214900C919CB181A78A0204000EE
:102C90003B18303A511E8A411A70A02149007B1816
:102CA0001B78002B06D0964B181C8B4B9847954BE6
:102CB0009847EFE1944B181C874B9847EAE1874B04
:102CC000B4225200D219D3181A78A02040003B1821
:102CD000303A511E8A411A70A02149007B181B7896
:102CE000002B07D0894B01221A70894B181C7A4B94
:102CF0009847CFE1854B00221A70864B181C764B03
:102D00009847C7E1754BB4225200D219D3181A78EC
:102D1000A02040003B18303A511E8A411A707E4B69
:102D2000A02149007A1812781A707B4B1B78002B6F
:102D300007D07A4B00221A70794B181C664B9847C3
:102D4000A8E1764B01221A70764B181C624B98470B
:102D5000A0E1754B1A68534B101C9847031C0C1CC0
:102D6000724A101C1A1C231C5949884792E1704B67
:102D70001B78704A101C191C554B98478AE16E4A03
:102D80006E4B101C191C524B984783E100233B6685
:102D90006B4BB4225200D219D31800221A703B1C7C
:102DA0000C33181C00210A223B4B9847031CAE2011
:102DB0004000C01902685343BB653B1D181C00212D
:102DC0000A22354B9847031CAE214900C9190A68ED
:102DD00053437B653B1D181C304B9847021C584BD6
:102DE000B4204000C019C3181A702D4BB86D984715
:102DF00080462B4B786D9847021C2A4B101C984735
:102E0000051C0E1C4E4BB4214900C919CB181A7869
:102E1000254B101C9847031C0C1C1E4A1C49081CFF
:102E2000111C1A1C231C214CA047031C0C1C204AFB
:102E30009446281C311C1A1C231CE047031C0C1C44
:102E40001C4A181C211C9047021C1B4B4046111C9D
:102E50009847031C3B663B4B3A6E1A63394B1A6B1F
:102E6000104B101C9847031C0C1C374A101C1A1CD2
:102E7000231C17498847354B01221A70344B354AB9
:102E80001A60334B04221A71314B01225A7101E14D
:102E9000000000000000244069BD01001DBB0100CE
:102EA000B503020011210200A9200200719C01005B
:102EB000550B0200B52102009DF7010076030020AA
:102EC000BDF60100340B002075720000802E020058
:102ED0002DB60100742E020099B80100A4FEFFFF78
:102EE00090000020A02E0200C02E0200A1020020AF
:102EF000E02E0200FC2E0200B4FEFFFF1833020099
:102F0000182F020041020000FC2C02007303002075
:102F1000A42B0200C02B02007503002078030020C0
:102F20002C2F0200442F0200B4030020602F020067
:102F300034030020802F0200A02F02005800002040
:102F4000F7FEFFFF840A0020C02F0200F4020020D9
:102F5000DC080020B40A002000233B65CE4BB420DF
:102F60004000C019C31800221A703B1C0C33181CF7
:102F700000210A22C94B9847031CAE214900C919F8
:102F80000A685343BB643B1D181C00210A22C34B33
:102F90009847031CAE204000C019026853437B646D
:102FA0003B1D181CBE4B9847021CBB4BB42149006B
:102FB000C919CB181A70BB4BB86C98478046B94BEF
:102FC000786C9847021CB84B101C9847051C0E1CC7
:102FD000B14BB4225200D219D3181A78B34B101C3B
:102FE0009847031C0C1CAB4AA949081C111C1A1C4D
:102FF000231CAF4CA047031C0C1CAE488446281C65
:10300000311C1A1C231CE047031C0C1CAA4A181C68
:10301000211C9047021CA94B4046111C9847031CD9
:103020003B65A74B3A6D1A63A54B1A6B9E4B101C60
:103030009847031C0C1CA34A101C1A1C231CA249F1
:103040008847A24B01221A70A14BA24A1A60A04BDA
:1030500004221A719E4B01225A711BE09E4BB4212F
:103060004900C919CB189D4A12781A709B4B01224E
:103070001A709B4B9847994B974AB4204000C0194F
:10308000821812781A7005E0964B181C964B9847D8
:1030900000E0C04600F01EFD3B1C0C33181C002154
:1030A0000A227E4B9847031CFB63904BB4214900D6
:1030B000C919CB181B78303B092B01D900F0E3FB71
:1030C0009A008B4BD3181B689F460023BB63894B28
:1030D000B4225200D219D31800221A703B1C0C33B0
:1030E000181C00210A226D4B9847031CAE2040009B
:1030F000C01902685343FB633B1D181C00210A22C0
:10310000664B9847031CAE214900C9190A6853430E
:103110003B633B1D181C624B9847021C754BB42047
:103120004000C019C3181A705E4BF86B9847804670
:103130005C4B386B9847021C5B4B101C9847051C76
:103140000E1C6C4BB4214900C919CB181A78574B87
:10315000101C9847031C0C1C4E4A4D49081C111C9E
:103160001A1C231C524CA047031C0C1C514A9446A9
:10317000281C311C1A1C231CE047031C0C1C4E4A43
:10318000181C211C9047021C4C4B4046111C9847B0
:10319000031CBB63584BB86B9847031CDAB2574B00
:1031A0001A70564B1B78564A101C191C464B9847F0
:1031B000464B01221A70464B504A1A60444B01227A
:1031C0001A71434B01225A7162E34420FF303B18CD
:1031D00000221A70FDE04421FF317B181B785B0050
:1031E000484AB4204000C0198218D35C2F2B0CD958
:1031F0004421FF317B181B785B00424AB420400019
:10320000C0198218D35C392B19D94421FF317B189E
:103210001B785B003B4AB4204000C0198218D35C85
:10322000402B2CD94421FF317B181B785B00354A99
:10323000B4204000C0198218D35C462B1FD844210B
:10324000FF317B181B785B002E4AB4204000C01968
:103250008218D25C2C4BB4214900C919CB181A70C2
:103260004422FF32BB181B785B000133254AB4208F
:103270004000C0198218D35C2F2B49D856E0234B4D
:10328000181C194B984700F027FCC046C046C046A2
:103290000000000000002440E7FEFFFF69BD0100C0
:1032A0001DBB0100B503020011210200A92002008C
:1032B000719C0100550B0200B52102009DF7010031
:1032C000640D0020EC2F02002DB60100F402002056
:1032D000DC080020940D0020DBFEFFFFA10200208F
:1032E000453C0000FC2C020099B80100B4FEFFFF31
:1032F00040330200CFFEFFFFBDF601004C0000206E
:1033000018300200A4FEFFFF98FEFFFF38300200D5
:103310004421FF317B181B785B000133BD4AB42088
:103320004000C0198218D35C392B1BD94421FF31CE
:103330007B181B785B000133B64AB4204000C019EB
:103340008218D35C402B3ED94421FF317B181B7877
:103350005B000133AF4AB4204000C0198218D35C2F
:10336000462B30D84421FF317B181B785B0001339A
:10337000A84AB4204000C0198218D25CA64BB421E0
:103380004900C919CB185A70A34BB4225200D21964
:10339000D31800229A704420FF303B181C783B1C45
:1033A000181C002110229D4B9847031CDAB29C4B3D
:1033B0001A554421FF317B181A784420FF303B18FE
:1033C00001321A7005E0974B181C974B9847C0467E
:1033D00082E34421FF317B181B78052B00D8FAE6E5
:1033E000924B0020191C924B98478D4B1A788F4BAB
:1033F0001A738B4B5A788D4B5A73894B9A788B4B37
:103400009A73874BDA78894BDA73854B1A79874B35
:103410001A74834B5A79854B5A74844B0020191CBB
:10342000844B9847844B9847844B181C7E4B984795
:10343000834B1B6820221A43814B1A607B4B002070
:10344000191C7B4B98477E4B1B68DBB2DB43DAB21F
:10345000764BDA747A4B1B68DA43FF231B02134066
:103460001B0ADAB2714B1A75754B1B68DA43FF23DE
:103470001B0413401B0CDAB26C4B5A756B4B0020CB
:10348000191C6C4B98476C4B984701E2674B022024
:10349000191C674B98475F4BB4225200D219D318BE
:1034A0001A78624B1A705B4BB4204000C019C318E5
:1034B0005A785E4B5A70574BB4214900C919CB1842
:1034C0009A785A4B9A70534BB4225200D219D3189F
:1034D000DA78564BDA704F4BB4204000C019C3184D
:1034E0001A79524B1A714B4BB4214900C919CB18A8
:1034F0005A794E4B5A71474BB4225200D219D31805
:103500009A794A4B9A71434BB4204000C019C318B2
:10351000DA79464BDA713F4BB4214900C919CB180F
:103520001A7A424B1A723B4BB4225200D219D3186A
:103530005A7A3E4B5A72374BB4204000C019C31818
:103540009A7A3A4B9A72334BB4214900C919CB1875
:10355000DA7A364BDA722F4BB4225200D219D318D2
:103560001A7B324B1A732B4BB4204000C019C3187E
:103570005A7B2E4B5A73274BB4214900C919CB18DB
:103580009A7B2A4B9A73294B0022DA732D4A274BD8
:10359000111C1A1C0F23081C111C1A1C2A4B9847BB
:1035A000224B0220191C234B9847234B9847274B4B
:1035B000181C1D4B9847224B1B6840221A43204B76
:1035C0001A601A4B0020191C194B98471C4B1B689A
:1035D000DBB2DB43DAB2154BDA74194B1B68DA4302
:1035E000FF231B0213401B0ADAB2104B1A75144B4F
:1035F0001B68DA43FF231B0413401B0CDAB20B4B8E
:103600005A750A4B0020191C0A4B98470A4B9847D9
:103610003EE1C046A4FEFFFF98FEFFFF69BD01002A
:10362000040900203830020099B801008808002001
:1036300095960100759501003D9701004830020004
:10364000F8020020F408002075B301006430020085
:10365000D44B0120191CD44B9847D44BB4225200B0
:10366000D219D3181A78CF4B1A70D04BB42040001F
:10367000C019C3185A78CB4B5A70CC4BB4214900AF
:10368000C919CB189A78C74B9A70C84BB42252000C
:10369000D219D318DA78C34BDA70C44BB420400087
:1036A000C019C3181A79BF4B1A71C04BB421490015
:1036B000C919CB185A79BB4B5A71BC4BB422520072
:1036C000D219D3189A79B74B9A71B84BB4204000ED
:1036D000C019C318DA79B34BDA71B44BB42149007D
:1036E000C919CB181A7AAF4B1A72B04BB4225200D8
:1036F000D219D3185A7AAB4B5A72AC4BB420400053
:10370000C019C3189A7AA74B9A72A84BB4214900E2
:10371000C919CB18DA7AA34BDA72A24B00221A73BA
:10372000A34AA04B111C1A1C0D23081C111C1A1CA7
:10373000A04B98479B4B0120191C9F4B98479F4BD0
:1037400098479F4B181C9F4B98479F4B1B688022A4
:103750001A439D4B1A60934B0020191C924B9847BB
:10376000994B1B68DBB2DB43DAB28E4BDA74964BB3
:103770001B68DA43FF231B0213401B0ADAB2894B92
:103780001A75914B1B68DA43FF231B0413401B0C73
:10379000DAB2844B5A75834B0020191C864B98472C
:1037A000864B984774E0894B1B78191C874B5B78D4
:1037B0001A1C864B9B788548C078061C8348007984
:1037C000051C82484079041C8148009601950294AA
:1037D000804CA0475CE0804A804B101C191C7D4B3C
:1037E000984755E07E4A724B101C191C794B98473C
:1037F0004EE000207B4B98474AE0FB6BDAB2012396
:103800001340DAB2784B1A70664B0020191C664BD5
:103810009847754B1A78634BDA756B4B1B6880229F
:1038200092001A43684B1A60674B1B68DBB2DB439C
:10383000DAB25C4BDA74644B1B68DA43FF231B0279
:1038400013401B0ADAB2574B1A755F4B1B68DA43F9
:10385000FF231B0413401B0CDAB2524B5A75514B19
:103860000020191C544B9847544B98475F4B181C29
:10387000544B98470CE05C4B1B785D4A101C191C9C
:10388000544B984704E05B4B181C4E4B9847C0467E
:1038900021E13B1C0C33181C00210A22564B98478F
:1038A000031CFB62554BB4225200D219D3181B786B
:1038B000303B092B00D907E19A00514BD3181B6804
:1038C0009F46FB6A9AB24F4B1A804E4B1B884E4A5A
:1038D000101C191C3F4B98474C4B01221A704C4B43
:1038E000484A1A604A4B02221A71494B01225A7106
:1038F000EFE0444B1B88474A101C191C354B984776
:10390000E7E0FB6ADAB2444B1A70434B1B78434A38
:10391000101C191C2F4B98473C4B01221A703C4B32
:103920003D4A1A603A4B01221A71394B01225A71F1
:10393000CFE0394B1B783A4A101C191C254B98478D
:10394000C7E0FB6ADAB2374B1A70364B1B78364A3F
:10395000101C191C1F4B98472C4B01221A702C4B22
:10396000304A1A602A4B01221A71294B01225A71DE
:10397000AFE02C4B1B782D4A101C191C154B984797
:10398000A7E02B4B00221A802A4B181C0D4B98479E
:103990009FE00D4B1B68284A101C191C0D4B9847C3
:1039A00097E0C0468808002095960100A4FEFFFF1E
:1039B000C408002075B30100759501003D97010012
:1039C0008430020099B80100F802002004090020A8
:1039D000A43002002DB60100C8300200F408002017
:1039E000E0300200C54D000089000020F8300200E0
:1039F0001C310200FC2C020069BD0100B4FEFFFF77
:103A000068330200BC0D002038310200F4020020AF
:103A1000DC08002058310200100900207431020037
:103A200094310200D8080020B0310200D4310200E5
:103A300032030020F431020010320200FB6ADAB2D5
:103A400001231340DAB2274B1A70274B0020191CB0
:103A5000264B9847234B1A78234B9A75244B1B68A7
:103A6000802252001A43224B1A60214B1B68DBB2A2
:103A7000DB43DAB21C4BDA741D4B1B68DA43FF23BD
:103A80001B0213401B0ADAB2174B1A75184B1B683E
:103A9000DA43FF231B0413401B0CDAB2124B5A7596
:103AA000114B0020191C134B9847134B9847134B8D
:103AB000181C134B98470CE00A4B1B78114A101C3A
:103AC000191C114B984704E0104B181C0C4B9847DD
:103AD000C046C046C046C046BD465AB004BC90462B
:103AE000F0BDC0468800002088080020959601009F
:103AF000F8020020759501003D9701002832020070
:103B000099B801004C3202002DB60100FC2C0200D5
:103B100080B500AF024B1B68181CBD4680BDC04677
:103B20001C04002090B587B002AF021CFB1D1A7068
:103B30003B1C0F33FA1D1278D2091A703B1C0E334E
:103B4000FA1D127852091A701B4BBB603B1C0F33D5
:103B50001B78002B0ED13B1C0F331B789B001022CF
:103B6000D219D318083B1A683B1C0E331B78DB01B3
:103B7000D3181CE0114B9847031C002B0FD00F4BA0
:103B80009847011C0E4A6823FF330E4800900E48E8
:103B90000190081C01210D4CA047002307E00C48B0
:103BA0000949074A6823FF330A4CA047FEE7181C5F
:103BB000BD4605B090BDC04600440041113B000029
:103BC00088370200B8370200D0370200E90601004A
:103BD000D83702002DB6010080B582B000AF021CBC
:103BE000FB1D1A70FB1D1B78181C034B9847031C08
:103BF000181CBD4602B080BD253B000080B584B0D6
:103C000000AF021CFB1D1A70FB1D1B78181C0C4B0F
:103C10009847031CFB60FB1D1A781F2313400122E9
:103C2000111C99400B1CBB60FB681B69BA681340F0
:103C30005A1E9341DBB2181CBD4604B080BDC0467D
:103C4000D93B0000F0B55F4656464D464446F0B4B9
:103C5000B5B010AF374B181C374B9847374B1B7814
:103C600001225340DBB2002B03D0354B181C354BDF
:103C70009847304BDB8898462E4B1B791E1C2D4BEA
:103C80009B781D1C2B4B5B781C1C2A4B1B788C20B3
:103C9000C01903602C4B9847031C2C4959188822E3
:103CA000D21911602A4B1B889B462A4B1B789A46D7
:103CB000294B1B789946294B1B781A1C284B9200DC
:103CC000D0588446274B1B78181C274B1B78274A53
:103CD0009B009958264B1B78244A9B009A58254BE9
:103CE00000948C24E419246801948824E41924683D
:103CF00002945C460394544604944C4605946446EE
:103D00000694079008910992181C4146321C2B1CFE
:103D1000194CA047094B1B7801225340DBB2002B02
:103D200002D00A20154B9847154B1B78002B2BD03F
:103D3000144B2AE0540F002039290100A102002071
:103D4000E438020099B80100ADDC000080AEFEFF4F
:103D500032030020D00E00200C0E0020B8090020F5
:103D600000000020770300206D0300201C000020CD
:103D70006E030020E83802002DB6010085B6010070
:103D80004503002058390200EF4BF04A1288151CF9
:103D9000EF4A1468EF4A1168EF4A0091101C191C91
:103DA0002A1C231CED4CA047ED4B1B7801225340ED
:103DB000DBB2002B02D00A20EA4B9847EA4B1A6C80
:103DC000EA4B101C9847041C0D1CE94B1A6CE74B7E
:103DD000101C98478022D21910605160E24B5A6D36
:103DE000E24B101C9847B867F967DF4B5A6BDF4B03
:103DF000101C984738677967DB4B9A6BDB4B101CBC
:103E0000984738617961DB498023DB191A685B6860
:103E100000920193BA6FFB6F029203933A6F7B6F2C
:103E2000049205933A697B6906920793081C221C49
:103E30002B1CCA498847CA4B1B7801225340DBB26E
:103E4000002B02D00A20C74B9847C74B9A69C74B33
:103E5000101C9847041C0D1CC74B1A68C34B101C40
:103E60009847021C0B1CC54900920193081C221C98
:103E70002B1CBA498847BC4B5A68BC4B101C98474E
:103E8000031C0C1CBE4A101C1A1C231CB349884777
:103E9000B74B5A68B54B101C9847041C0D1CB24B0D
:103EA0001A6DB24B101C9847B866F966AE4BDA68CB
:103EB000AE4B101C984738617961B249BA6EFB6EFF
:103EC000009201933A697B6902920393081C221CB9
:103ED0002B1CA2498847A64BDA68A44B101C9847B4
:103EE000041C0D1CA84B1A68A04B101C9847021C00
:103EF0000B1CA64900920193081C221C2B1C9749FD
:103F00008847A34B1A68994B101C9847031C0C1C3C
:103F1000A04A101C1A1C231C90498847904B1B7800
:103F200001225340DBB2002B02D00A208D4B984770
:103F3000994BDA6B8D4B101C9847041C0D1C964B4B
:103F40005A6C8A4B101C984738667966924B9A6C6B
:103F5000864B101C9847B865F9658F4B5A69834B9F
:103F6000101C9847386179618C493A6E7B6E0092DB
:103F70000193BA6DFB6D029203933A697B690492D7
:103F80000593081C221C2B1C74498847824BDA6954
:103F9000764B101C9847041C0D1C7F4B5A6A734BC0
:103FA000101C9847386579657B4B1A6A6F4B101C5B
:103FB0009847386179617A493A6D7B6D0092019337
:103FC0003A697B6902920393081C221C2B1C6349EB
:103FD0008847744BDA69654B101C9847041C0D1C0C
:103FE000704B5A6A614B101C9847B864F9646D4B6A
:103FF0001A6A5E4B101C9847386179616A49BA6C3D
:10400000FB6C009201933A697B6902920393081C4E
:10401000221C2B1C51498847514B1B7801225340CD
:10402000DBB2002B02D00A204E4B98475F4B5B7DE2
:1040300098465E4A3023D35C1E1C5C4B1D695B4B6B
:104040009B7F9A46594BDB7F9946594B1A6A474BDF
:10405000101C9847B860F960564A1068564A1168B3
:10406000564A534600934C460194BB68FC68029341
:10407000039404900591101C4146321C2B1C374CB4
:10408000A0474A4BDA6B4E4B101C9847031C9BB25F
:104090001C1C464B5A6C4A4B101C9847031C9BB285
:1040A000484A101C211C1A1C2C4B98472C4B1B787F
:1040B00001225340DBB2002B02D00A20294B984743
:1040C000414B5B7D191C404A3023D35C1A1C3E4B8C
:1040D0001B693D48807F051C3B48C07F041C3B4852
:1040E000009501941D4CA047374BDA6B344B101CE4
:1040F0009847031C9BB21C1C334B5A6C304B101C52
:104100009847031C9BB2324A101C211C1A1C134BEB
:104110009847134B1B7801225340DBB2002B02D08F
:104120000A20104B98472B4B5B7D191C294A3023E2
:10413000D35C1A1C274B1B692648807F051C254829
:10414000C07F041C48E0C0466039020060030020C4
:104150005C0300200C090020683902002DB6010024
:10416000A102002085B60100B8090020112102003B
:10417000600900209C39020088010020E839020013
:10418000003A0200103A020050030020383A0200C0
:10419000B4030020543A0200840A0020643A02006A
:1041A000943A0200640D0020B43A0200840E00200C
:1041B000D80B0020480300204C030020D43A020012
:1041C000BDF60100343B0200580C0020503B0200B9
:1041D000903B02008C0B0020C14800950194C14C1B
:1041E000A047C14BDA6BC14B101C9847031C9BB214
:1041F0001C1CBD4B5A6CBD4B101C9847031C9BB23A
:10420000BB4A101C211C1A1CB64B9847B94B1B7893
:1042100001225340DBB2002B02D00A20B64B984754
:10422000B64B5B7D191CB54A3023D35C1A1CB34BCB
:104230001B69B248807F051CB048C07F041CB04891
:1042400000950194A74CA047AC4BDA6BA74B101C10
:104250009847031C9BB21C1CA84B5A6CA34B101C08
:104260009847031C9BB2A74A101C211C1A1C9D4B8B
:104270009847A04B1B7801225340DBB2002B02D0A1
:104280000A209D4B9847A04B5B7D98469E4A302361
:10429000D35C1E1C9C4B1D699B4B9B7F9A469A4B83
:1042A000DB7F9946994B1A6A994B101C9847B86066
:1042B000F960984A1068984A1168984A54460094E0
:1042C0004B460193BB68FC680293039404900591EC
:1042D000101C4146321C2B1C824CA0478A4BDA6BC7
:1042E000824B101C9847031C9BB21C1C864B5A6CBB
:1042F0007E4B101C9847031C9BB2894A101C211C42
:104300001A1C784B98477B4B1B7801225340DBB239
:10431000002B02D00A20784B9847824B5B7D191CFA
:10432000804A3023D35C1A1C7E4B1B697D48807FFA
:10433000051C7C48C07F041C7B4800950194694C97
:10434000A047784BDA6B694B101C9847031C9BB253
:104350001C1C744B5A6C654B101C9847031C9BB279
:10436000724A101C211C1A1C5E4B9847614B1B782B
:1043700001225340DBB2002B02D00A205E4B98474B
:104380006B4B5B7D191C6A4A3023D35C1A1C684B4B
:104390001B696748807F051C6548C07F041C654811
:1043A000009501944F4CA047614BDA6B4F4B101CAA
:1043B0009847031C9BB21C1C5D4B5A6C4B4B101C4A
:1043C0009847031C9BB25C4A101C211C1A1C454BCD
:1043D0009847484B1B7801225340DBB2002B02D098
:1043E0000A20454B9847554B5B7D191C534A302397
:1043F000D35C1A1C514B1B695048807F051C4F48E9
:10440000C07F041C4E4800950194364CA0474B4B8E
:10441000DA6B364B101C9847031C9BB21C1C474B95
:104420005A6C324B101C9847031C9BB2454A101C17
:10443000211C1A1C2B4B98472E4B1B7801225340F2
:10444000DBB2002B02D00A202B4B98473F203E4B7B
:104450009847031C1E1C23203B4B9847031C1D1C24
:104460000820394B9847031C1C1C0420364B9847E6
:10447000031C1A1C354B0092181C311C2A1C231CCF
:10448000184CA0471B4B1B7801225340DBB2002B7A
:1044900002D00A20184B98472D4B1B781A1C2D4B25
:1044A0001B782D49081C111C1A1C0E4B9847114BE8
:1044B0001B7801225340DBB2002B02D00A200E4BA6
:1044C0009847264B1B7A1D1C244B1B7A032B4BD180
:1044D000234B9847021C234B1B68D31A45E0C04668
:1044E000AC3B02002DB601008C0B0020BDF6010094
:1044F000EC3B0200A102002085B601001409002057
:10450000083C0200483C0200DC0A0020D80B0020D6
:1045100011210200480300204C030020643C0200EB
:10452000C43C0200180D0020E03C0200203D0200C7
:10453000400B00203C3D02007C3D0200C00D0020ED
:10454000983D0200D83D0200FD3B0000F43D020012
:10455000280B00204C0C00202C3E0200D40E002022
:10456000ADDC0000C80200200023C84A5468C84AD5
:104570001278101CC64A5168C64A00900191101C5E
:10458000291C1A1C231CC44CA047C44B1B780122B5
:104590005340DBB2002B02D00A20C14B9847C14BDD
:1045A0001A6BC14B101C984738647964BD4B5A6B29
:1045B000BD4B101C9847B863F963BA4B9A6BBA4B62
:1045C000101C984738637963B84B1A6AB64B101CB5
:1045D0009847B862F962B34B1A6DB34B101C9847F9
:1045E00038627962AF4B5A6DAF4B101C9847B86177
:1045F000F961AC4B9A6EAC4B101C9847041C0D1C17
:10460000A84BDA6EA84B101C984738607960A84B0D
:104610001B78181CA74BB96BFA6B00910192396B90
:104620007A6B02910392B96AFA6A04910592396A27
:104630007A6A06910792B969FA69089109920A940F
:104640000B9539687A680C910D920E90181C3A6C93
:104650007B6C91498847914B1B7801225340DBB218
:10466000002B02D00A208E4B9847934B1B88934A0D
:10467000101C191C884B9847884B1B78012253400B
:10468000DBB2002B02D00A20854B98478C4B1B7B5A
:10469000191C8B4B1A698A4B9B68002B04D0884BE2
:1046A0009B68884C1B1901E0854B9B688448407BC4
:1046B000041C85480094784CA047784B1B78012255
:1046C0005340DBB2002B02D00A20754B98477F4B3A
:1046D0001B7B191C7D4B1A697C4B9B68002B04D0FB
:1046E0007A4B9B6877481B1801E0784B9B687748AA
:1046F000407B041C76480094674CA047674B1B78AE
:1047000001225340DBB2002B02D00A20644B9847B1
:10471000704B1B7B191C6F4B1A696E4B9B68002BEF
:1047200004D06C4B9B68674C1B1901E0694B9B687C
:104730006848407B041C68480094574CA047574B7E
:104740001B7801225340DBB2002B02D00A20544BCD
:104750009847624B1B7B191C604B1A695F4B9B6827
:10476000002B04D05D4B9B6856481B1801E05B4B47
:104770009B685A48407B041C59480094464CA0470B
:10478000464B1B7801225340DBB2002B02D00A209B
:10479000434B9847534B1968534B1B881A1C534B78
:1047A0001C68534B1E68534B1D68534B1868534B82
:1047B000009601950290181C231C374CA047504BC3
:1047C0001B78002B01D14F4B9847344B1B780122AB
:1047D0005340DBB2002B02D00A20314B9847334ABA
:1047E0003D23D35C002B03D0474B181C2A4B984722
:1047F000464B1B78002B03D0454B181C264B984783
:10480000444B1B78002B03D0434B181C224B98477A
:10481000424B1B78002B03D0414B181C1E4B984772
:10482000404B1B78002B03D03F4B181C1A4B98476A
:104830003E4B1B7801225340DBB2002B03D03C4B94
:10484000181C154B98473B4B1B78002B03D03A4B59
:10485000181C114B9847394B1B7801225340DBB28F
:10486000002B03D0364B181C0B4B98470B4B1B7877
:10487000002B02D00A200A4B9847BD4625B03CBC0D
:1048800090469946A246AB46F0BDC046D40E0020E5
:10489000340B00204C3E02002DB60100A102002086
:1048A00085B60100100E002011210200B809002079
:1048B00062030020A43E0200A20200200C3F02007E
:1048C000D807002080AEFEFF1C3F02002408002015
:1048D000503F020010080020803F0200F80700202F
:1048E000B43F0200000300208000002008030020E5
:1048F00004030020100300200C030020E03F02000E
:1049000088000020454900002C400200720300206E
:104910003C400200730300204C400200780100205C
:104920005C400200750300207040020090000020EF
:1049300080400200760300209840020078030020A7
:10494000AC400200F0B587B004AF324B1B780122B7
:104950005340DBB2002B02D00A202F4B98472F4B3D
:104960001B88191C2E4B1B881A1C2E4B1B882E488B
:104970000088051C2D480088041C2D4800950194D2
:104980002C4CA047234B1B7801225340DBB2002B59
:1049900002D00A20204B9847274B1B88191C274B15
:1049A0001B881A1C264B1B887B602648008884467F
:1049B00025480088061C25480088051C24480088D6
:1049C000041C2448634600930196029503947B6877
:1049D000184CA0470F4B1B7801225340DBB2002B31
:1049E00002D00A200C4B98471B4B1B881A1C1B4BF0
:1049F0001B881B49081C111C1A1C0E4B9847194B8D
:104A00001B88194A101C191C0A4B9847BD4603B055
:104A1000F0BDC046A102002085B60100640100205F
:104A20005403002056030020580300205A0300209E
:104A3000C44002002DB601003A000020C002002050
:104A4000BA020020C2020020BC020020C4020020E2
:104A5000BE0200201441020064000020FC0200207D
:104A600094410200FE020020B8410200F0B585B07A
:104A700004AF704B181C704B9847704A4C23D35CA2
:104A80001A1C6F4B9200D3586E4A101C191C6A4BAB
:104A900098476D4B1B686D4A101C191C664B984754
:104AA0006B4B1B786B4A101C191C634B98476A4B65
:104AB0001B786A4A101C191C5F4B9847684B1B787F
:104AC000684A101C191C5C4B9847674B1A6C674B63
:104AD000101C9847031C0C1C654A101C1A1C231C34
:104AE00055498847604B5A6D604B101C9847031C12
:104AF0000C1C604A101C1A1C231C4F4988475E4B33
:104B00001A6C5A4B101C9847031C0C1C5B4A101C57
:104B10001A1C231C48498847594B1B88594A101CAA
:104B2000191C454B9847584B1B88584A101C191C98
:104B3000414B9847414B1A6B4C4B101C9847031C38
:104B40000C1C534A101C1A1C231C3B498847514B10
:104B50001A6B464B101C9847031C0C1C4E4A101C29
:104B60001A1C231C344988474C4B1B784C4A101C98
:104B7000191C314B98474B4B1B784B4A101C191C86
:104B80002D4B9847494B1A68384B101C9847031C0B
:104B90000C1C474A101C1A1C231C27498847454BEC
:104BA0001A68324B101C9847031C0C1C424A101CFC
:104BB0001A1C231C20498847404A414B101C191CD1
:104BC0001D4B98473F4A404B101C191C1A4B9847E5
:104BD0003E4A3F4B101C191C174B98473D4B1B7806
:104BE000191C3C4B5B781A1C3A4B9B783948C078AF
:104BF000061C38480079051C36484079041C3648A4
:104C00000096019502940C4CA047344B1B68344A23
:104C1000101C191C084B9847324B1B781A1C324B3E
:104C20001B783249081C111C1A1C034B9847BD46BF
:104C300001B0F0BDCC4102002DB60100840A002075
:104C40006C010020EC410200F8020020F841020053
:104C50008800002010420200890000202842020043
:104C60004C00002040420200B8090020112102003F
:104C7000584202007042020060090020884202008F
:104C80008C010020A04202008E010020BC420200E4
:104C9000D8420200640D0020F842020010090020F2
:104CA00018430200D8080020304302008001002091
:104CB0004C430200840100206C4302008C4302003C
:104CC000C4080020A0430200F4080020B4430200FE
:104CD0005800002004090020C44302000C090020F1
:104CE000EC430200D00E00200C0E0020084402000D
:104CF00080B500AF204B181C204B9847204B181C48
:104D00001E4B98471F4B1B783C2253439BB21E4AB5
:104D1000101C191C1D4B98471D4B1B883C225343EC
:104D20009BB21C4A101C191C184B98471A4B0022A6
:104D30001A801A4B00221A70194B01221A70194B53
:104D40009847021C184B1A60164B9847021C174BC9
:104D50001A60174B00221A60164B00221A60164B7D
:104D60001A68164B101CFE2189059847031C1A1C53
:104D7000134B1A60BD4680BD24080020B5F2000028
:104D8000F807002010090020D807002011F20000C9
:104D9000BC0D002010080020A2020020A402002068
:104DA00038000020ADDC0000B0020020B40200207A
:104DB000A8020020AC02002080010020890002002F
:104DC0000C08002090B583B000AF021CFB1D1A70C8
:104DD000FB1D1B78002B38D13E4B01221A703E4B35
:104DE000181C3E4B98473E4B1B783B4A101C191C25
:104DF0003C4B98473C4A3D230121D1543B4B002278
:104E00005A613B4A4C230021D1543A4B1B88013351
:104E10009AB2384B1A80384B181C384B9847364B8F
:104E20009B78191C344B5B781A1C334B1B78344825
:104E3000344CA047344A304B111C1A1C0A23081C5E
:104E4000111C1A1C314B984740E0FB1D1B78012BAD
:104E500025D1204B00221A701F4B181C1F4B98475E
:104E6000214A3D230021D154214A4C230121D15410
:104E7000214B181C214B98471F4B9B78191C1E4B2C
:104E80005B781A1C1C4B1B7821481E4CA047194B01
:104E90001B88204A101C191C1A4B984716E0FB1D52
:104EA0001B78022B12D10B4B00221A700E4A3D23A5
:104EB0000021D1540E4A4C230121D154064B181C19
:104EC000064B9847144B181C0E4B9847BD4603B031
:104ED00090BDC046A402002024080020B5F20000C6
:104EE000D808002011F20000B8090020840A002030
:104EF000100E0020A2020020540F002039290100CA
:104F0000D44402002DB60100EC07002075B3010067
:104F1000F4440200144502002445020080B500AFAD
:104F2000644B1B78002B00D1C2E0634B5B7B002BF2
:104F300003D0624B1B78002B12D15F4B5B7B002BA5
:104F40001DD05F4B5B7B002B0AD15E4B5B7B002B44
:104F500015D05A4B1B7801225340DBB2002B0ED0E8
:104F60000020594B9847544B181C584B9847554BA9
:104F7000181C564B9847524B181C544B9847544B8F
:104F80001A68544B101C54499847031C002B1CD022
:104F90004B4B1B7B01225340DBB2002B12D04F4BFB
:104FA0001B780133DAB24D4B1A704C4B1B78052B32
:104FB0000BD94A4B00221A70414B181C0321484B55
:104FC000984702E0454B00221A70464B5B7B002B52
:104FD00016D001203C4B9847434B1B783C2253434F
:104FE0009BB2354A101C191C3D4B98473F4B1B8800
:104FF0003C2253439BB2334A101C191C384B984730
:10500000334B1A683A4B101C3A499847031C002B43
:1050100018D02B4B1B7B002B11D0374B1B78013347
:10502000DAB2354B1A70344B1B78052B0AD9324B48
:1050300000221A70224B181C244B984702E02E4B7A
:1050400000221A702D4B19682D4B1A68284B081C2A
:10505000111C9847031C002B1AD0224B1B7B002BE2
:1050600016D00220184B98471F4B1B783C22534305
:105070009BB2114A101C191C194B98471B4B1B88DB
:105080003C2253439BB20F4A101C191C144B9847E7
:105090000B4B181C1B4B9847074B181C194B984778
:1050A000084B181C174B98470E4B181C154B98476C
:1050B000BD4680BD38000020D807002077030020BF
:1050C000F807002010080020C54D0000B5F20000D0
:1050D000680300202DF601000000A0C0B8020020E7
:1050E00011F200002408002010090020BC0D00204F
:1050F00055F601000000A040B90200208801002000
:105100000C08002069F2000080B500AF024B1B685C
:10511000181CBD4680BDC0461C04002090B587B059
:1051200002AF021CFB1D1A703B1C0F33FA1D1278D4
:10513000D2091A703B1C0E33FA1D127852091A70EC
:105140001B4BBB603B1C0F331B78002B0ED13B1C51
:105150000F331B789B001022D219D318083B1A6812
:105160003B1C0E331B78DB01D3181CE0114B984716
:10517000031C002B0FD00F4B9847011C0E4A6823CD
:10518000FF330E4800900E480190081C01210D4C81
:10519000A047002307E00C480949074A6823FF336A
:1051A0000A4CA047FEE7181CBD4605B090BDC0469E
:1051B00000440041095100003C4502006C450200DA
:1051C00084450200E90601008C4502002DB601006D
:1051D00080B582B000AF021CFB1D1A70FB1D1B784E
:1051E000181C034B9847031C181CBD4602B080BD19
:1051F0001D51000080B584B000AF0A1CFB1D011CCE
:105200001970BB1D1A70FB1D1B78181C0D4B98479D
:10521000031CFB60FB1D1A781F2313400122111C85
:1052200099400B1CBB60BB1D1B78002B03D0FB6897
:10523000BA689A6102E0FB68BA685A61BD4604B078
:1052400080BDC046D151000080B584B000AF396048
:10525000FB1D011C1970BB1D1A70BB1D1B780122A0
:105260005340DBB2002B0ED03B1C0F333A68511E6B
:105270008A411A70FB1D1A783B1C0F331B78101CD7
:10528000191C034B98470123181CBD4604B080BD70
:10529000F551000080B586B000AF0A1CFB1D011C53
:1052A0001970BB1D1A703B1C173300221A703B1C6F
:1052B000143300221A803B1C0C332C221A70FB1D65
:1052C0001B789AB23B1C0C335A803B1C0C33154A9A
:1052D0005A60BB1D1B78022B04D13B1C0C332F22C0
:1052E0001A700EE00DE03B1C14331B883A1C14327C
:1052F000591C11800A2B04D13B1C173301221A7050
:1053000009E0094A3B1C0C33101C191C074B984739
:10531000031C002BE7D13B1C17331B78181CBD4620
:1053200006B080BD4000002040080020093D01007B
:1053300080B586B000AF0A1CFB1D011C1970BB1D97
:105340001A703B1C173300221A703B1C14330022C6
:105350001A803B1C0C332C221A70FB1D1B789AB24E
:105360003B1C0C335A803B1C0C33264A5A60BB1D35
:105370001B78022B04D13B1C0C332F221A700EE039
:105380000DE03B1C14331B883A1C1432591C11804D
:105390000A2B04D13B1C173301221A7009E01A4A68
:1053A0003B1C0C33101C191C184B9847031C002B7A
:1053B000E7D13B1C17331B78002B1CD13B1C14334B
:1053C00000221A803B1C0C33114A5A6009E03B1C36
:1053D00014331B883A1C1432591C11800A2B00D13B
:1053E00009E0094A3B1C0C33101C191C094B984757
:1053F000031C002BEBD13B1C17331B78181CBD463C
:1054000006B080BD4000002040080020093D01009A
:10541000E8020020C93A010080B582B000AF021C4A
:10542000FB1D1A70FB1D1B78012B00D006E1CA4B37
:1054300000221A7001200121C84B98470120012148
:10544000C64B9847031C002B01D0202313E2C44B0A
:10545000181CC44B9847031C002B01D020230AE2E0
:10546000C14B181CBF4B9847031C002B01D02023B5
:1054700001E2BE4B181CBB4B9847031C002B01D00C
:105480002023F8E1BA4B181CB64B9847031C002B9D
:1054900001D02023EFE1B04B2A221A70AE4B092233
:1054A0005A7002200121AD4B9847031C002B01D0FC
:1054B0002023E0E1A84B2B221A70A74B0F225A7031
:1054C00002200121A54B9847031C002B01D020236B
:1054D000D1E1A14B31221A709F4B08225A70022051
:1054E00001219E4B9847031C002B01D02023C2E1D1
:1054F000994B41221A70984B80225A700220012148
:10550000964B9847031C002B01D02023B3E1924B0C
:1055100051221A70904B80225A70022001218F4B29
:105520009847031C002B01D02023A4E18A4B612261
:105530001A70894B08225A7002200121874B984724
:10554000031C002B01D0202395E1834B32221A70DB
:10555000814B0B225A7002200121804B9847031C7B
:10556000002B01D0202386E17B4B42221A707A4B1C
:105570000B225A7002200121784B9847031C002B04
:1055800001D0202377E1744B52221A70724B0B2208
:105590005A7002200121714B9847031C002B01D047
:1055A000202368E16C4B62221A706B4B0B225A70FD
:1055B00002200121694B9847031C002B01D02023B6
:1055C00059E1654B33221A70634B68225A700220EE
:1055D0000121624B9847031C002B01D020234AE194
:1055E0005D4B43221A705C4B68225A7002200121E5
:1055F0005A4B9847031C002B01D020233BE1564B0C
:1056000053221A70544B68225A7002200121534BC6
:105610009847031C002B01D020232CE14E4B632222
:105620001A704D4B68225A70022001214B4B98474B
:10563000031C002B00D11DE120231CE1464B00225E
:105640001A7001200221454B984701200221434B4B
:105650009847031C002B01D020230CE1454B181C5C
:10566000404B9847031C002B01D0202303E1424B01
:10567000181C3C4B9847031C002B01D02023FAE058
:105680003E4B181C374B9847031C002B01D020239E
:10569000F1E03B4B181C334B9847031C002B01D007
:1056A0002023E8E02C4B2A221A702B4B00225A7040
:1056B00002200221294B9847031C002B01D02023F4
:1056C000D9E0254B2B221A70234B0F225A7002204F
:1056D0000221224B9847031C002B01D02023CAE053
:1056E0001D4B31221A701C4B80225A70022002215D
:1056F0001A4B9847031C002B01D02023BBE0164B0C
:1057000041221A70144B80225A7002200221134B3E
:105710009847031C002B01D02023ACE00E4B5122F4
:105720001A700D4B80225A70022002210B4B9847B1
:10573000031C002B01D020239DE0074B61221A702F
:10574000054B80225A7002200221044B9847031C0B
:10575000002B17D020238EE040000020955200003F
:10576000840E0020095E0000580C0020180D002057
:10577000DC0A00208C0B002014090020C00D002042
:10578000400B00203E4B32221A703D4B0B225A70C8
:10579000022002213B4B9847031C002B01D0202301
:1057A00069E0374B42221A70354B0B225A700220A7
:1057B0000221344B9847031C002B01D020235AE0D0
:1057C0002F4B52221A702E4B0B225A7002200221AC
:1057D0002C4B9847031C002B01D020234BE0284B77
:1057E00062221A70264B0B225A7002200221254B8E
:1057F0009847031C002B01D020233CE0204B332290
:105800001A701F4B68225A70022002211D4B9847C4
:10581000031C002B01D020232DE0194B43221A70CA
:10582000174B68225A7002200221164B9847031C1E
:10583000002B01D020231EE0114B53221A70104B75
:1058400068225A70022002210E4B9847031C002B3D
:1058500001D020230FE00A4B63221A70084B682204
:105860005A7002200221074B9847031C002B01D0DD
:10587000202300E00023181CBD4602B080BDC046B6
:10588000400000209552000080B584B000AF7860E1
:105890000A1CFB1C1A703B1C0E3302221A703B1CA4
:1058A0000F3301221A707A683C4B9A4207D13C4B65
:1058B00030221A703B1C0F3301221A7052E07A68B2
:1058C000384B9A4207D1364B40221A703B1C0F339B
:1058D00001221A7046E07A68334B9A4207D1304B66
:1058E00050221A703B1C0F3301221A703AE07A687A
:1058F0002E4B9A4207D12A4B60221A703B1C0F3361
:1059000001221A702EE07A68294B9A4207D1244B63
:1059100030221A703B1C0F3302221A7022E07A6880
:10592000244B9A4207D11E4B40221A703B1C0F3366
:1059300002221A7016E07A681F4B9A4207D1184B60
:1059400050221A703B1C0F3302221A700AE07A6848
:105950001A4B9A4206D1124B60221A703B1C0F332D
:1059600002221A70FB1C1A78131C1B029A1A144B81
:10597000101C64219847031CDAB2094B5A703B1C77
:105980000E331A783B1C0F331B78101C191C0D4B5F
:105990009847031C181CBD4604B080BD840E00202F
:1059A00040000020580C0020180D0020DC0A0020C8
:1059B0008C0B002014090020C00D0020400B00209B
:1059C000C9F401009552000080B582B000AF786044
:1059D0007A68364B9A4207D1354B1B781520012146
:1059E0001A1C344B984752E07A68334B9A4207D1DD
:1059F0002F4B1B78142001211A1C2E4B984746E090
:105A00007A682E4B9A4207D1294B1B78132001212B
:105A10001A1C284B98473AE07A68294B9A4207D1DA
:105A2000234B1B782C2001211A1C224B98472EE077
:105A30007A68244B9A4207D11D4B1B78172001210D
:105A40001A1C1C4B984722E07A681F4B9A4207D1D8
:105A5000174B1B78162001211A1C164B984716E08D
:105A60007A681A4B9A4207D1114B1B780720012103
:105A70001A1C104B98470AE07A68154B9A4206D1D7
:105A80000B4B1B78062001211A1C0A4B98477B6898
:105A90009B69DBB27A68101C191C0E4B98477B6817
:105AA00001225A75BD4602B080BDC046840E00205A
:105AB0007203002049520000580C0020180D0020ED
:105AC000DC0A00208C0B002014090020C00D0020EF
:105AD000400B00208958000080B582B000AF78608C
