:10000000F030002011B4010095B40100499A0100BC
:1000100000000000000000000000000000000000E0
:1000200000000000000000000000000095B4010086
:10003000000000000000000095B4010095B401002C
:1000400095B4010095B4010095B40100DD470100AD
:10005000B133010095B4010095B401004D6F01006A
:10006000616F0100756F0100896F01009D6F0100D4
:10007000B16F010019A701002DA7010041A70100E0
:1000800055A7010069A701007DA7010091A7010004
:10009000A5A701003528010095B4010095B4010021
:1000A00008B5064B064803331B1A062B00D808BDBB
:1000B000044B002BFBD09847F9E7C0469092020012
:1000C000909202000000000008B50748074B1B1A79
:1000D0009B10DA0FD318591000D108BD044A002A2A
:1000E000FBD09047F9E7C046909202009092020040
:1000F0000000000010B5074C2378002B09D1FFF752
:10010000CFFF054B002B02D0044800E000BF0123C5
:10011000237010BD940200200000000090920200A5
:1001200008B5094B002B03D00848094900E000BF7F
:1001300008480368002B03D0074B002B00D09847DA
:10014000FFF7C2FF08BDC046000000009092020009
:1001500098020020909202000000000080B500AFDD
:10016000BFF34F8F024B034ADA60BFF34F8FFEE7B6
:1001700000ED00E00400FA0580B500AF024B1B68FB
:10018000181CBD4680BDC0463004002090B587B025
:1001900002AF021CFB1D1A703B1C0F33FA1D1278B4
:1001A000D2091A703B1C0E33FA1D127852091A70CC
:1001B0001B4BBB603B1C0F331B78002B0ED13B1C31
:1001C0000F331B789B001022D219D318083B1A68F2
:1001D0003B1C0E331B78DB01D3181CE0114B9847F6
:1001E000031C002B0FD00F4B9847011C0E4A6823AD
:1001F000FF330E4800900E480190081C01210D4C61
:10020000A047002307E00C480949074A6823FF3349
:100210000A4CA047FEE7181CBD4605B090BDC0467D
:100220000044004179010000B4450200E4450200A9
:10023000FC4502002D1901000446020065D10100B1
:1002400080B500AF014B9847BD4680BD5D01000001
:1002500080B582B000AF021CFB1D1A70FB1D1B781D
:10026000181C034B9847031C181CBD4602B080BDE8
:100270008D01000080B584B000AF021CFB1D1A7018
:10028000FB1D1B78181C0C4B9847031CFB60FB1DC7
:100290001A781F2313400122111C99400B1CBB60CC
:1002A000FB681B69BA6813405A1E9341DBB2181CE5
:1002B000BD4604B080BDC0465102000080B584B088
:1002C00000AFF8607A603B1C0B330A1C1A703B1CB1
:1002D0000B331B78002B08D07B68002B02D1064B18
:1002E000FA685A61054B01221A70FE239B05181CFF
:1002F000BD4604B080BDC0464C0A0020B0020020BC
:1003000080B584B000AFF8607A603B1C0B330A1CE8
:100310001A707B68002B0AD13B1C0B331B78002B17
:1003200002D00A4BFA689A61084B9B6909E03B1CB2
:100330000B331B78002B02D0054BFA689A61044BF3
:100340009B69181CBD4604B080BDC04680090020D2
:100350002809002080B584B000AFF8607A603B1CAB
:100360000B330A1C1A707B68002B0AD13B1C0B3321
:100370001B78002B02D00A4BFA689A62084B9B6AE2
:1003800009E03B1C0B331B78002B02D0054BFA68AD
:100390009A62044B9B6A181CBD4604B080BDC046DF
:1003A000800900202809002080B584B000AFF860E3
:1003B0007A603B1C0B330A1C1A707B68002B0AD135
:1003C0003B1C0B331B78002B02D00A4BFA68DA6215
:1003D000084BDB6A09E03B1C0B331B78002B02D077
:1003E000054BFA68DA62044BDB6A181CBD4604B0A0
:1003F00080BDC046800900202809002080B584B057
:1004000000AFF8607A603B1C0B330A1C1A707B68E3
:10041000002B0AD13B1C0B331B78002B02D00A4B5C
:10042000FA681A63084B1B6B09E03B1C0B331B7803
:10043000002B02D0054BFA681A63044B1B6B181C87
:10044000BD4604B080BDC0468009002028090020B8
:1004500080B584B000AFF8607A603B1C0B330A1C97
:100460001A707B68002B0AD13B1C0B331B78002BC6
:1004700002D00A4BFA685A63084B5B6B09E03B1CDD
:100480000B331B78002B02D0054BFA685A63044BE0
:100490005B6B181CBD4604B080BDC04680090020BF
:1004A0002809002080B584B000AFF8607A603B1C5A
:1004B0000B330A1C1A707B68002B0AD13B1C0B33D0
:1004C0001B78002B02D00A4BFA689A63084B9B6B8F
:1004D00009E03B1C0B331B78002B02D0054BFA685C
:1004E0009A63044B9B6B181CBD4604B080BDC0468C
:1004F000800900202809002080B584B000AFF86092
:100500007A603B1C0B330A1C1A707B68002B16D1D7
:100510003B1C0B331B78002B0ED0164BFA681A6469
:10052000154B164A1A60144B04221A71124B012201
:100530005A71134B01221A700E4B1B6C15E03B1CB9
:100540000B331B78002B0ED00E4BFA681A640A4B43
:100550000D4A1A60084B04221A71074B01225A7186
:10056000074B01221A70074B1B6C181CBD4604B0C8
:1005700080BDC04680090020F0080020C00900208E
:1005800004030020280900206809002080B582B0FB
:1005900000AF78600A1CFB1C1A70FB1C1B78002B38
:1005A00005D0054B78689847021C044B5A617B685C
:1005B000181CBD4602B080BDF5110200300D0020B0
:1005C00080B582B000AF78600A1CFB1C1A70FB1C5F
:1005D0001B78002B05D0054B78689847021C044B0C
:1005E0005A617B68181CBD4602B080BDF51102003F
:1005F000640B002080B582B000AF78600A1CFB1C41
:100600001A70FB1C1B78002B05D0084B78689847A4
:10061000021C074B5A61064BDA68064B101C9847C0
:10062000031C181CBD4602B080BDC046F511020077
:10063000200C0020A51F020080B582B000AF7860BA
:100640000A1CFB1C1A70FB1C1B78002B05D0084BE6
:1006500078689847021C074B5A61064BDA68064BCC
:10066000101C9847031C181CBD4602B080BDC04634
:10067000F51102009C0A0020A51F020080B584B07D
:1006800000AFF8607A603B1C0B330A1C1A707B6861
:10069000002B0AD13B1C0B331B78002B02D00A4BDA
:1006A000FA685A60084B5B6809E03B1C0B331B7807
:1006B000002B02D0054BFA685A60044B5B68181C8B
:1006C000BD4604B080BDC046300D0020640B002044
:1006D00080B584B000AFF8607A603B1C0B330A1C15
:1006E0001A707B68002B0AD13B1C0B331B78002B44
:1006F00002D00A4BFA689A60084B9B6809E03B1CE1
:100700000B331B78002B02D0054BFA689A60044B20
:100710009B68181CBD4604B080BDC046300D00204B
:10072000640B002080B582B000AF78600A1CFB1C0F
:100730001A70054BDA68054B101C9847031C181CEF
:10074000BD4602B080BDC046300D0020A51F02008E
:1007500080B582B000AF78600A1CFB1C1A70054B94
:10076000DA68054B101C9847031C181CBD4602B0E4
:1007700080BDC046640B0020A51F020080B584B078
:1007800000AFF8607A603B1C0B330A1C1A707B6860
:10079000002B0AD13B1C0B331B78002B02D00A4BD9
:1007A000FA685A62084B5B6A09E03B1C0B331B7802
:1007B000002B02D0054BFA685A62044B5B6A181C86
:1007C000BD4604B080BDC046800900202809002035
:1007D00080B584B000AFF8607A603B1C0B330A1C14
:1007E0001A707B68002B0AD13B1C0B331B78002B43
:1007F00002D00A4BFA681A62084B1B6A09E03B1CDC
:100800000B331B78002B02D0054BFA681A62044B9D
:100810001B6A181CBD4604B080BDC046800900207C
:100820002809002080B584B000AFF8607A603B1CD6
:100830000B330A1C1A707B68002B06D1054B5A7CBF
:10084000054B101C9847031C00E00023181CBD46F4
:1008500004B080BD300D0020A51F020080B584B01B
:1008600000AFF8607A603B1C0B330A1C1A703B1C0B
:100870000B331B78002B09D0074BF8689847021CF4
:10088000064B101C9847021C054B1A60044B1B6852
:10089000181CBD4604B080BDF5110200A51F020062
:1008A0009800002080B584B000AFF8607A603B1CEF
:1008B0000B330A1C1A70034BDB69181CBD4604B0CD
:1008C00080BDC0464C0A002080B584B000AFF860FF
:1008D0007A603B1C0B330A1C1A70034B5B6A181CB2
:1008E000BD4604B080BDC0464C0A002080B584B02F
:1008F00000AFF8607A603B1C0B330A1C1A70034B84
:10090000DB6B181CBD4604B080BDC0464C0A0020FD
:1009100080B584B000AFF8607A603B1C0B330A1CD2
:100920001A70034B1B6C181CBD4604B080BDC0463A
:100930004C0A002080B584B000AFF8607A603B1CA0
:100940000B330A1C1A70034B5B6C181CBD4604B0B9
:1009500080BDC0464C0A002080B584B000AFF8606E
:100960007A603B1C0B330A1C1A70034B9B6C181CDF
:10097000BD4604B080BDC0464C0A002080B584B09E
:1009800000AFF8607A603B1C0B330A1C1A70034BF3
:10099000DB69181CBD4604B080BDC046680C002051
:1009A00080B584B000AFF8607A603B1C0B330A1C42
:1009B0001A70034B5B6A181CBD4604B080BDC0466C
:1009C000680C002090B585B000AFF8607A603B1CE1
:1009D0000B330A1C1A707B68002B17D13B1C0B339E
:1009E0001B78002B0FD0174BFA681A65164B1B7833
:1009F000022B08D1134B196D124B5A6D114B9B6D85
:100A00001048124CA0470F4B1B6D16E03B1C0B33DC
:100A10001B78002B0FD00E4BFA681A650D4B1B7814
:100A2000022B08D10A4B196D094B5A6D084B9B6D6F
:100A30000748064CA047064B1B6D181CBD4605B069
:100A400090BDC046BC0C002080090020ADA3000072
:100A5000AC0B00202809002090B585B000AFF860ED
:100A60007A603B1C0B330A1C1A707B68002B17D171
:100A70003B1C0B331B78002B0FD0174BFA685A65C1
:100A8000164B1B78022B08D1134B196D124B5A6D64
:100A9000114B9B6D1048124CA0470F4B5B6D16E03D
:100AA0003B1C0B331B78002B0FD00E4BFA685A659A
:100AB0000D4B1B78022B08D10A4B196D094B5A6D4F
:100AC000084B9B6D0748064CA047064B5B6D181CF6
:100AD000BD4605B090BDC046BC0C0020800900207A
:100AE000ADA30000AC0B00202809002090B585B014
:100AF00000AFF8607A603B1C0B330A1C1A707B68ED
:100B0000002B17D13B1C0B331B78002B0FD0174B3E
:100B1000FA689A65164B1B78022B08D1134B196D96
:100B2000124B5A6D114B9B6D1048124CA0470F4B46
:100B30009B6D16E03B1C0B331B78002B0FD00E4B2C
:100B4000FA689A650D4B1B78022B08D10A4B196D78
:100B5000094B5A6D084B9B6D0748064CA047064B46
:100B60009B6D181CBD4605B090BDC046BC0C002056
:100B700080090020ADA30000AC0B00202809002054
:100B800090B585B000AFF8607A603B1C0B330A1C4F
:100B90001A707B68002B17D13B1C0B331B78002B82
:100BA0000FD0174BFA68DA65164B1B78032B08D168
:100BB000134BD96D124B1A6E114B5B6E1048124CD1
:100BC000A0470F4BDB6D16E03B1C0B331B78002B53
:100BD0000FD00E4BFA68DA650D4B1B78032B08D14A
:100BE0000A4BD96D094B1A6E084B5B6E0748064CD1
:100BF000A047064BDB6D181CBD4605B090BDC04636
:100C0000BC0C002080090020ADA30000AC0B00202C
:100C10002809002090B585B000AFF8607A603B1CD1
:100C20000B330A1C1A707B68002B17D13B1C0B334B
:100C30001B78002B0FD0174BFA681A66164B1B78DF
:100C4000032B08D1134BD96D124B1A6E114B5B6EEF
:100C50001048124CA0470F4B1B6E16E03B1C0B3389
:100C60001B78002B0FD00E4BFA681A660D4B1B78C1
:100C7000032B08D10A4BD96D094B1A6E084B5B6EDA
:100C80000748064CA047064B1B6E181CBD4605B016
:100C900090BDC046BC0C002080090020ADA3000020
:100CA000AC0B00202809002090B585B000AFF8609B
:100CB0007A603B1C0B330A1C1A707B68002B17D11F
:100CC0003B1C0B331B78002B0FD0174BFA685A666E
:100CD000164B1B78032B08D1134BD96D124B1A6E90
:100CE000114B5B6E1048124CA0470F4B5B6E16E029
:100CF0003B1C0B331B78002B0FD00E4BFA685A6647
:100D00000D4B1B78032B08D10A4BD96D094B1A6E7A
:100D1000084B5B6E0748064CA047064B5B6E181CE1
:100D2000BD4605B090BDC046BC0C00208009002027
:100D3000ADA30000AC0B00202809002090B585B0C1
:100D400000AFF8607A603B1C0B330A1C1A707B689A
:100D5000002B17D13B1C0B331B78002B0FD0174BEC
:100D6000FA689A66164B1B78042B08D1134B996EC0
:100D7000124BDA6E114B1B6F1048124CA0470F4BF1
:100D80009B6E16E03B1C0B331B78002B0FD00E4BD9
:100D9000FA689A660D4B1B78042B08D10A4B996EA2
:100DA000094BDA6E084B1B6F0748064CA047064BF1
:100DB0009B6E181CBD4605B090BDC046BC0C002003
:100DC00080090020ADA30000AC0B00202809002002
:100DD00090B585B000AFF8607A603B1C0B330A1CFD
:100DE0001A707B68002B17D13B1C0B331B78002B30
:100DF0000FD0174BFA68DA66164B1B78042B08D114
:100E0000134B996E124BDA6E114B1B6F1048124C3C
:100E1000A0470F4BDB6E16E03B1C0B331B78002BFF
:100E20000FD00E4BFA68DA660D4B1B78042B08D1F5
:100E30000A4B996E094BDA6E084B1B6F0748064C3C
:100E4000A047064BDB6E181CBD4605B090BDC046E2
:100E5000BC0C002080090020ADA30000AC0B0020DA
:100E60002809002090B585B000AFF8607A603B1C7F
:100E70000B330A1C1A707B68002B17D13B1C0B33F9
:100E80001B78002B0FD0174BFA681A67164B1B788C
:100E9000042B08D1134B996E124BDA6E114B1B6F5A
:100EA0001048124CA0470F4B1B6F16E03B1C0B3336
:100EB0001B78002B0FD00E4BFA681A670D4B1B786E
:100EC000042B08D10A4B996E094BDA6E084B1B6F45
:100ED0000748064CA047064B1B6F181CBD4605B0C3
:100EE00090BDC046BC0C002080090020ADA30000CE
:100EF000AC0B00202809002080B584B000AFF8605A
:100F00007A603B1C0B330A1C1A707B68002B0DD1D6
:100F10003B1C0B331B78002B05D00D4BFA685A6035
:100F20000B4BFA689A600A4B5B680CE03B1C0B3376
:100F30001B78002B05D0074BFA685A60054BFA68FE
:100F40009A60044B5B68181CBD4604B080BDC04667
:100F5000800900202809002080B584B000AFF86027
:100F60007A603B1C0B330A1C1A707B68002B0AD179
:100F70003B1C0B331B78002B02D00A4BFA68DA605B
:100F8000084BDB6809E03B1C0B331B78002B02D0BD
:100F9000054BFA68DA60044BDB68181CBD4604B0E8
:100FA00080BDC046800900202809002080B584B09B
:100FB00000AFF8607A603B1C0B330A1C1A703B1CB4
:100FC0000B331B78002B0ED00A4BFA685A650A4B7C
:100FD0000A4A1A60084B04221A71074B01225A71FF
:100FE000074B01221A70034B5B6D181CBD4604B001
:100FF00080BDC04680090020F0080020D4090020F0
:101000000403002080B584B000AFF8607A603B1C18
:101010000B330A1C1A707B68002B12D13B1C0B335C
:101020001B78002B06D0124BF8689847031CDAB2E5
:10103000104B1A700F4B1A780F4B101C9847031C5B
:1010400011E03B1C0B331B78002B06D0084BF868D3
:101050009847031CDAB2094B1A70084B1A78064BF2
:10106000101C9847031C181CBD4604B080BDC04628
:10107000F511020080090020A51F020028090020A8
:1010800080B584B000AFF8607A603B1C0B330A1C5B
:101090001A703B1C0B331B78002B02D0044BFA68F0
:1010A0005A61034B5B69181CBD4604B080BDC04645
:1010B0004C0A002080B584B000AFF8607A603B1C19
:1010C0000B330A1C1A703B1C0B331B78002B02D00D
:1010D000044BFA681A65034B1B6D181CBD4604B01F
:1010E00080BDC0468009002080B584B000AFF860A4
:1010F0007A603B1C0B330A1C1A703B1C0B331B78A9
:10110000002B06D0084BF8689847031C9AB2074B8F
:101110001A80064B1A88064B101C9847031C181C93
:10112000BD4604B080BDC046F51102007801002024
:10113000A51F020080B584B000AFF8607A603B1C48
:101140000B330A1C1A703B1C0B331B78002B06D088
:10115000084BF8689847031C9AB2074B1A80064B55
:101160001A88064B101C9847031C181CBD4604B077
:1011700080BDC046F511020046000020A51F0200F8
:1011800080B584B000AFF8607A603B1C0B330A1C5A
:101190001A703B1C0B331B78002B06D0084BF868E9
:1011A0009847031C9AB2074B1A80064B1A88064BC5
:1011B000101C9847031C181CBD4604B080BDC046D7
:1011C000F511020070000020A51F020080B584B058
:1011D00000AFF8607A603B1C0B330A1C1A703B1C92
:1011E0000B331B78002B0ED00A4BFA681A600A4B9F
:1011F000084A1A60084B04221A71074B01225A71DF
:10120000064B01221A70034B1B68181CBD4604B024
:1012100080BDC04690010020F0080020040300209B
:1012200080B584B000AFF8607A603B1C0B330A1CB9
:101230001A703B1C0B331B78002B0ED00A4BFA683C
:101240001A600A4B084A1A60084B04221A71074BAD
:1012500001225A71064B01221A70034B1B68181C9D
:10126000BD4604B080BDC04694010020F0080020B7
:101270000403002080B584B000AFF8607A603B1CA6
:101280000B330A1C1A700023181CBD4604B080BD25
:1012900080B584B000AFF8607A603B1C0B330A1C49
:1012A0001A70054B1A88054B101C9847031C181C14
:1012B000BD4604B080BDC0469C010020A51F0200B1
:1012C00080B584B000AFF8607A603B1C0B330A1C19
:1012D0001A70054B1A88054B101C9847031C181CE4
:1012E000BD4604B080BDC0469E010020A51F02007F
:1012F00080B584B000AFF8607A603B1C0B330A1CE9
:101300001A70034B1B6B181CBD4604B080BDC04651
:101310004C0A002080B584B000AFF8607A603B1CB6
:101320000B330A1C1A70034B1B6B181CBD4604B010
:1013300080BDC046680C002080B584B000AFF86066
:101340007A603B1C0B330A1C1A703B1C0B331B7856
:10135000002B13D00E4BF8689847031CDBB21A1C05
:101360000C4B1A800C4B0B4A1A600B4B02221A7161
:10137000094B01225A71094B01221A70054B1A8838
:10138000074B101C9847031C181CBD4604B080BDB9
:10139000F51102007A010020F0080020040300206B
:1013A000A51F020000000000F0B5474680B4DEB083
:1013B00004AFA32040003B1800221A704621FF31E1
:1013C0007B1800221A700023B2225200D219136037
:1013D0006420FF303B1800221A70B12149007B18AD
:1013E00000221A70A2225200BB1800221A70012398
:1013F000AE204000C01903600023A0214900C91994
:101400000B604622FF32BB18E54A12781A70E54A93
:10141000E54B101C191CE54B9847031CB2204000FB
:10142000C01903600CE1B2214900C9190B68181CEE
:10143000DF4B9847031CD9B2B1225200BB18B12030
:1014400040003A1812788A181A706421FF317B180C
:101450001B78002B22D1B2225200D2191368181C1B
:10146000D34B9847031C391C2431B2204000C019CB
:101470000268081C111C1A1CCE4B9847B221490067
:10148000C9190B68181CCA4B9847031CCA4AB420D8
:101490004000C01982180021D154A4E06421FF311A
:1014A0007B181B78012B22D1B2225200D21913686B
:1014B000181CBF4B9847031C391C1C31B22040003C
:1014C000C0190268081C111C1A1CBA4B9847B2219B
:1014D0004900C9190B68181CB54B9847031CB74A3B
:1014E000B4204000C01982180021D1547BE064214F
:1014F000FF317B181B78022B4ED1B2225200D21939
:1015000013681B782B2B0ED10123AE204000C0198D
:101510000360B2214900C9190B680133B22252009D
:10152000D219136015E0B2204000C01903681B787F
:101530002D2B0ED101235B42AE214900C9190B604E
:10154000B2225200D21913680133B2204000C019F0
:101550000360B2214900C9190B68181C944B9847C5
:10156000031C391C0C31B2204000C0190268081C51
:10157000111C1A1C8F4B9847B2214900C9190B68DE
:10158000181C8B4B9847031C8D4AB4204000C0198F
:1015900082180021D15426E06421FF317B181B788A
:1015A000032B20D1B2225200D2191368181C804B91
:1015B0009847031C391DB2204000C0190268081C5E
:1015C000111C1A1C7B4B9847B2214900C9190B68A2
:1015D000181C774B9847031C7A4AB4204000C01966
:1015E00082180021D154B12149007B181B785A1C64
:1015F0004620FF303B181B789A420ADA6A4B0020DB
:10160000191C6A4B9847031CB2214900C9190B6089
:1016100004E00023B2225200D21913606420FF308C
:101620003B186421FF317A18127801321A70B12206
:101630005200BB18B12040003A18127801321A70DB
:10164000B2214900C9190B68002B00D0EBE63B1C06
:101650002433181C00210A225B4B9847031C092BDA
:1016600001D902F014FA9A00584BD3181B689F4610
:10167000524BB4225200D219D3181B78303B092B9D
:1016800000D98EE39A00524BD3181B689F464C4BEF
:10169000B4204000C019C3181A78A22149007B1851
:1016A000303A511E8A411A704A4BA22040003A1823
:1016B00012781A70474B1B78002B0CD0464A3D23FA
:1016C0000121D154454A3D230121D154444B181CDA
:1016D000444B98476BE3404A3D230021D1543F4A95
:1016E0003D230021D154404B181C404B98475EE3EA
:1016F000334BB4214900C919CB181A78A2204000F5
:101700003B18303A511E8A411A70394BA2214900C8
:101710007A1812781A70374B00221A70A2225200DF
:10172000BB181B78002B04D0334B181C2D4B98474B
:101730003DE3324B181C2B4B984738E33B1C0C33D2
:10174000181C00210A22204B9847031C9E204000B1
:10175000C01903603B1D181C00210A221A4B984730
:10176000031CAC214900C9190B6000239C225200C4
:10177000D21913600023AA204000C01903609E21E3
:101780004900C9190B68092B00D90FE39E225200AA
:10179000D21913689A001A4BD3181B689F46C0468B
:1017A000280F0020290F00209C46020065D601006A
:1017B00055D60100ADCE0100BCFEFFFFB4FEFFFF19
:1017C000A4FEFFFF9CFEFFFFA1D80100C84D020050
:1017D000F04D02009003002080090020280900201D
:1017E000A4460200D1D30100C046020065D1010029
:1017F000910300208E010020DC460200F846020022
:10180000184E0200BB4BAC204000C0190268920089
:10181000D358DBB2181CB84B9847031C9C214900D5
:10182000C9190B60B54A9C204000C0190368101C00
:10183000191CB34B9847F7E0AC214900C9190B6854
:10184000172B36DCAC225200D21913680B2B0DDD9E
:101850000123AA204000C0190360AC214900C91926
:101860000B680C3BAC225200D2191360A54BAC2084
:101870004000C01902689200D3580021AA204000FD
:10188000C0190268081C00219847031CA0214900C8
:10189000C9190B609C4BA0225200D21910689847BE
:1018A000031C0C1C994A101C1A1C231C94498847C1
:1018B000BAE0B9E0AC204000C01903680B2B22DC71
:1018C000934BAC214900C9190A689200D3580021F2
:1018D000AA204000C0190268081C00219847031C78
:1018E000A0214900C9190B60874BA0225200D219D0
:1018F00010689847031C0C1C864A101C1A1C231CD9
:101900007F49884790E08FE0AC204000C019036811
:10191000082B22DC804BAC214900C9190A689200CF
:10192000D3580021AA204000C0190268081C0021D9
:101930009847031CA0214900C9190B60724BA022D3
:101940005200D21910689847031C0C1C734A101CD3
:101950001A1C231C6A49884766E065E0AC204000F9
:10196000C01903680F2B2DDCAC214900C9190B6885
:10197000062B04DD0123AA225200D2191360684B02
:10198000AC204000C01902689200D3580021AA2060
:101990004000C0190268081C00219847031CA021C0
:1019A0004900C9190B60584BA0225200D219106887
:1019B0009847031C0C1C5B4A101C1A1C231C504922
:1019C000884731E030E0AC204000C01903680C2BA0
:1019D00022DC554BAC214900C9190A689200D35842
:1019E0000021AA204000C0190268081C0021984765
:1019F000031CA0214900C9190B60434BA0225200CF
:101A0000D21910689847031C0C1C484A101C1A1C59
:101A1000231C3B49884707E006E0454B181C454B13
:101A20009847454B9847C046C0E1444BB42040001E
:101A3000C019C3181A78A22149007B18303A511EE8
:101A40008A411A70A2225200BB181B78002B07D0C3
:101A50003B4B01221A703B4B181C364B9847A6E1B2
:101A6000374B00221A70384B181C324B98479EE1B6
:101A7000324BB4204000C019C3181A78A221490083
:101A80007B18303A511E8A411A70304B98478EE1CC
:101A90002A4BB4225200D219D3181A78A22040003F
:101AA0003B18303A511E8A411A70294BA221490035
:101AB0007A1812781A70264B1B78002B0CD0254A06
:101AC0003D230121D154244A3D230121D154234BEC
:101AD000181C184B98476AE11E4A3D230021D15437
:101AE0001D4A3D230021D1541D4B181C114B984712
:101AF0005DE1C046B84D02007502000014470200C7
:101B000065D10100EC060020493C02002847020094
:101B1000C805002040470200480600205447020044
:101B20006C07002068470200480500207C4702003F
:101B30008C470200D1D301006D470000A4FEFFFFD7
:101B40008F03002090470200A8470200D9BD000083
:101B5000900300208009002028090020C0470200CF
:101B6000D847020000239A225200D2191360342071
:101B7000FF303B1800221A703B1C0C33181C00214C
:101B80000A22E34B9847031CAE214900C9190A6891
:101B9000534396225200D21913603B1D181C00219A
:101BA0000A22DB4B9847031CAE204000C019026894
:101BB000534394214900C9190B603B1D181CD54B98
:101BC0009847021C3420FF303B181A70D24B9621E4
:101BD0004900C919086898478046CF4B94225200A3
:101BE000D21910689847021CCC4B101C9847051C52
:101BF0000E1C3420FF303B181A78C94B101C984734
:101C0000031C0C1CBD4ABC49081C111C1A1C231CBB
:101C1000C44CA047031C0C1CC3498C46281C311C17
:101C20001A1C231CE047031C0C1CC04A181C211C56
:101C30009047021CBE4B4046111C9847031C9A2239
:101C40005200D2191360BB4A4C23D35C012253408B
:101C5000DBB2002B1DD0B74B9A204000C0190268A0
:101C60001A629A214900C9190B68181C0121002227
:101C7000B14B9847A94B9A225200D2191068984745
:101C8000031C0C1CAD4A101C1A1C231CAC498847B1
:101C90008DE08CE0AB4B181C0021AB4B9847AB4B55
:101CA000181CAB4B9847FA239B00181CA94B98476C
:101CB0007DE03B1C0C33181C00210A22944B9847F2
:101CC000031CA8204000C0190360934BA8214900C1
:101CD000C91908689847011C9F4B1A689F4B081C3C
:101CE000111C9847031C002B0AD09B4B1A689C4B75
:101CF000101C9847031CA8225200D21913600EE052
:101D0000984B1B781A1CA8204000C01903689A42FF
:101D100005DB944B1B78A8214900C9190B60924B35
:101D2000A8225200D21910689847031C0C1C8F4D32
:101D3000181C211C724A734BA847031C0C1C8C4DA9
:101D4000714872491A1C231CA847031C0C1C774AB3
:101D5000181C211C9047031C92204000C0190360EE
:101D6000784B181C0021834B9847834B92214900E4
:101D7000C91908689847031C724A101C191C7F4B2C
:101D800098470A20734B984711E07D4B1B781A1C2B
:101D90007C4B1B787C49081C111C1A1C684B98470B
:101DA00005E07A4B181C6A4B984700E0C04601F0EA
:101DB0006DFE002390225200D21913602020FF30C4
:101DC0003B1800221A703B1C1C33181C00210A22ED
:101DD0004F4B9847031C8C214900C9190B603B1CD1
:101DE0000C33181C00210A22494B9847031CAE20D3
:101DF0004000C019026853438A214900C9190B6089
:101E00003B1D181C00210A22414B9847031CAE20A1
:101E10004000C0190268534388214900C9190B606A
:101E2000002386225200D21913603B1D181C394B27
:101E30009847021C2020FF303B181A70364B8A212D
:101E40004900C919086898478046334B88225200D8
:101E5000D21910689847021C304B101C9847051C7B
:101E60000E1C2020FF303B181A782D4B101C984771
:101E7000031C0C1C214A2049081C111C1A1C231C81
:101E8000284CA047031C0C1C27498C46281C311CDD
:101E90001A1C231CE047031C0C1C244A181C211C80
:101EA0009047021C224B4046111C9847031C90226D
:101EB0005200D21913608C204000C01903680C2B0B
:101EC00017DC334B8C214900C9190A689200D3589A
:101ED00090225200D219116886204000C019026871
:101EE000081C012198472B4B181C194B984701F0EF
:101EF000CDFD01F0CBFDC0460000000000002440F5
:101F0000EC51B81E05DAA74066666666AEAAF840D0
:101F1000A1D8010055D60100ED1E0200493C020087
:101F2000E13B0200A9B701008D260200ED3C020052
:101F3000D5120200BC0C0020BD020000F4470200D4
:101F400065D101004C0A002079FB00001048020016
:101F5000D1D30100F517010098000020A111020063
:101F6000AD1E02007C010020653B02006D2F0200C7
:101F70009134020099FA0000F5110200E1FA000024
:101F8000780D0020BA0C0020284802004C480200BE
:101F9000480500205C480200002384214900C9193B
:101FA0000B600822FF32BB1800221A703B1C1C3346
:101FB000181C00210A22E64B9847031CA62040006B
:101FC000C01903603B1C0C33181C00210A22E04B93
:101FD0009847031CAE214900C9190A6853437A1C6B
:101FE000FF3213603B1D181C00210A22D84B984772
:101FF000031CAE204000C01902685343FC21C919DC
:102000000B600023A4225200D21913603B1D181C40
:10201000D04B9847021C0820FF303B181A70CE4B5B
:10202000791CFF31086898478046CB4BFC22D219B7
:1020300010689847021CC94B101C9847051C0E1CC1
:102040000820FF303B181A78C54B101C9847031C1A
:102050000C1CBE4ABC49081C111C1A1C231CC14C78
:10206000A047031C0C1CC0498C46281C311C1A1CA0
:10207000231CE047031C0C1CBC4A181C211C904765
:10208000021CBB4B4046111C9847031C8422520083
:10209000D2191360A6204000C0190368172B2BDC4F
:1020A000A6214900C9190B680B2B0DDD0123A422C1
:1020B0005200D2191360A6204000C01903680C3BDF
:1020C000A6214900C9190B60AA4BA6204000C019DF
:1020D00002689200D35884225200D2191168A420B9
:1020E0004000C0190268081C01219847A24B181C27
:1020F000A24B984701F0CAFC01F0C8FC0023F8216C
:10210000C9190B603B1CF73300221A703B1C1C33AF
:10211000181C00210A228E4B9847031CF022D2196A
:1021200013603B1C0C33181C00210A22884B984773
:10213000031CAE204000C01902685343EC21C919AA
:102140000B603B1D181C00210A22814B9847031C81
:10215000AE204000C01902685343E821C9190B6042
:102160000023E422D21913603B1D181C794B9847B9
:10217000021C3B1CF7331A70774BEC21C919086815
:1021800098478046744BE822D21910689847021C81
:10219000724B101C9847051C0E1C3B1CF7331A7819
:1021A0006F4B101C9847031C0C1C684A6649081C9E
:1021B000111C1A1C231C6B4CA047031C0C1C6A48E6
:1021C0008446281C311C1A1C231CE047031C0C1CD1
:1021D000664A181C211C9047021C654B4046111C86
:1021E0009847031CF821C9190B60F022D219136813
:1021F0000B2B14DC624BF020C01902689200D358FC
:10220000F822D2191168E420C0190268081C0121C3
:1022100098475C4B181C594B984701F037FC01F06C
:1022200035FC0023E021C9190B603B1CDF33002281
:102230001A703B1C1C33181C00210A22444B98477F
:10224000031CD822D21913603B1C0C33181C00212C
:102250000A223F4B9847031CAE204000C019026879
:102260005343D421C9190B603B1D181C00210A22BD
:10227000374B9847031CAE204000C01902685343F7
:10228000D021C9190B600023CC22D21913603B1D49
:10229000181C304B9847021C3B1CDF331A702E4B26
:1022A000D421C9190868984780462B4BD022D219EF
:1022B00010689847021C294B101C9847051C0E1CDF
:1022C0003B1CDF331A78264B101C9847031C0C1C50
:1022D0001E4A1D49081C111C1A1C231C214CA04716
:1022E000031C0C1C20488446281C311C1A1C231C6F
:1022F000E047031C0C1C1D4A181C211C9047021CA3
:102300001B4B4046111C9847031CE021C9190B6068
:10231000D822D2191368082B14DC1B4BD820C01903
:1023200002689200D358E022D2191168CC20C0195B
:102330000268081C01219847144B181C0F4B984742
:1023400001F0A4FB01F0A2FB00000000000024400B
:10235000A1D8010055D60100ED1E0200493C020043
:10236000E13B0200A9B701008D260200ED3C02000E
:10237000D5120200EC06002070480200D1D3010003
:10238000C80500208C48020048060020A048020032
:102390000023C821C9190B603B1CC73300221A70E7
:1023A0003B1C1C33181C00210A22BD4B9847031C00
:1023B000C022D21913603B1C0C33181C00210A22C6
:1023C000B74B9847031CAE204000C0190268534326
:1023D000BC21C9190B603B1D181C00210A22B04BFF
:1023E0009847031CAE204000C01902685343B8212F
:1023F000C9190B600023B422D21913603B1D181CAD
:10240000A84B9847021C3B1CC7331A70A64BBC2133
:10241000C919086898478046A34BB822D21910689A
:102420009847021CA14B101C9847051C0E1C3B1C16
:10243000C7331A789E4B101C9847031C0C1C974AF4
:102440009549081C111C1A1C231C9A4CA047031CFC
:102450000C1C99488446281C311C1A1C231CE0477C
:10246000031C0C1C954A181C211C9047021C944B01
:102470004046111C9847031CC821C9190B60C02293
:10248000D21913680F2B14DC8E4BC020C0190268C0
:102490009200D358C822D2191168B420C01902681A
:1024A000081C01219847884B181C884B984701F05D
:1024B000EDFA01F0EBFA864BB4214900C919CB18AB
:1024C0001B78303B092B00D9A0E39A00814BD3182D
:1024D0001B689F46804BB4225200D219D3181A7839
:1024E000A22040003B18303A511E8A411A70A221A6
:1024F00049007B181B78002B0FD0784A3D2301211F
:10250000D154774A3D230121D154764B00221A70D1
:10251000754B181C6D4B98477DE3704A3D23002195
:10252000D1546F4A3D230021D1546E4B01221A70C1
:102530006E4B181C654B98476DE3674BB4225200F5
:10254000D219D3181A78A22040003B18303A511EF5
:102550008A411A70A22149007B181B78002B07D0F2
:10256000634B01221A70634B181C584B984752E377
:102570005F4B00221A70604B181C544B98474AE37B
:102580000023B022D21913603B1CAF3300221A7013
:102590003B1C0C33181C00210A22414B9847031C9A
:1025A000AE204000C01902685343A821C9190B602E
:1025B0003B1D181C00210A22394B9847031CAE20F2
:1025C0004000C01902685343A421C9190B603B1D88
:1025D000181C344B9847021C3B1CAF331A70324B0B
:1025E000A822D2191068984780462F4BA421C919F8
:1025F00008689847021C2D4B101C9847051C0E1CA0
:102600003B1CAF331A782A4B101C9847031C0C1C38
:10261000224A2149081C111C1A1C231C254CA047C6
:10262000031C0C1C244A9446281C311C1A1C231C15
:10263000E047031C0C1C214A181C211C9047021C5B
:102640001F4B4046111C9847031CB020C019036063
:10265000224A3D23D35C002B1AD0284BB021C91944
:102660000A681A62B022D2191368181C01210022CC
:10267000234B98470D4BB021C91908689847031C94
:102680000C1C204A101C1A1C231C1F498847C2E23C
:10269000C1E2C046C046C046000000000000244021
:1026A000A1D8010055D60100ED1E0200493C0200F0
:1026B000E13B0200A9B701008D260200ED3C0200BB
:1026C000D51202006C070020B8480200D1D30100E7
:1026D000B4FEFFFF404E0200A4FEFFFF8009002071
:1026E000280900208E010020D0480200E84802009E
:1026F000940300200449020020490200BC0C002081
:10270000BD0200003C49020065D101000023A02267
:10271000D21913603B1C9F3300221A703B1C0C33F0
:10272000181C00210A22C24B9847031CAE2040000F
:10273000C019026853439821C9190B603B1D181C2E
:1027400000210A22BA4B9847031CAE204000C01952
:10275000026853439421C9190B603B1D181CB54BEB
:102760009847021C3B1C9F331A70B34B9822D21916
:10277000106898478046B04B9421C919086898475B
:10278000021CAE4B101C9847051C0E1C3B1C9F33B3
:102790001A78AB4B101C9847031C0C1CA34AA24987
:1027A000081C111C1A1C231CA64CA047031C0C1C43
:1027B000A54A9446281C311C1A1C231CE047031C04
:1027C0000C1CA24A181C211C9047021CA04B40461E
:1027D000111C9847031CA020C01903609D4BA02129
:1027E000C91908689847031C9AB29B4B1A809A4BE8
:1027F0001B889A4A101C191C994B9847994B012227
:102800001A70994B944A1A60974B02221A71964B90
:1028100001225A71FFE100239022D21913603B1C60
:102820008F3300221A703B1C0C33181C00210A2223
:102830007F4B9847031CAE204000C01902685343E9
:102840008821C9190B603B1D181C00210A22784BF6
:102850009847031CAE204000C019026853438421EE
:10286000C9190B603B1D181C724B9847021C3B1C7E
:102870008F331A70704B8822D2191068984780469F
:102880006D4B8421C91908689847021C6B4B101CBA
:102890009847051C0E1C3B1C8F331A78684B101C84
:1028A0009847031C0C1C614A5F49081C111C1A1C28
:1028B000231C644CA047031C0C1C634A9446281C30
:1028C000311C1A1C231CE047031C0C1C5F4A181CFB
:1028D000211C9047021C5E4B4046111C9847031C6C
:1028E0009020C01903605B4B9021C9190868984774
:1028F000031C9AB25D4B1A805C4B1B885C4A101C0F
:10290000191C574B9847574B01221A70564B574A80
:102910001A60554B02221A71534B01225A717AE107
:1029200000238022D21913603B1C7F3300221A70CF
:102930003B1C0C33181C00210A223D4B9847031CFA
:10294000AE204000C01902685343BB673B1D181CF2
:1029500000210A22364B9847031CAE214900C919B1
:102960000A6853437B673B1D181C324B9847021C77
:102970003B1C7F331A70304BB86F984780462E4B04
:10298000786F9847021C2D4B101C9847051C0E1C95
:102990003B1C7F331A782A4B101C9847031C0C1CD5
:1029A000224A2149081C111C1A1C231C254CA04733
:1029B000031C0C1C244A9446281C311C1A1C231C82
:1029C000E047031C0C1C214A181C211C9047021CC8
:1029D0001F4B4046111C9847031C8020C019036000
:1029E000244B1B78002B18D01A4B8021C91908687A
:1029F0009847031CDBB2204A101C191C1F4B984738
:102A0000144B8022D21910689847031CDBB21C4A71
:102A1000101C191C124B9847FDE01A4B181C1A4B3E
:102A20009847F8E0C046C04600000000000024407F
:102A3000A1D8010055D60100ED1E0200493C02005C
:102A4000E13B0200A9B701008D260200ED3C020027
:102A5000D5120200F51102009C0100205C49020021
:102A600065D1010004030020F00800209E01002031
:102A700080490200940300207C0D0020256B00009B
:102A8000A4490200C4490200D1D3010000233B67DE
:102A90003B1C6F3300221A703B1C0C33181C0021A6
:102AA0000A22EB4B9847031CAE204000C019026875
:102AB0005343BB663B1D181C00210A22E44B984778
:102AC000031CAE214900C9190A6853437B663B1DAC
:102AD000181CE04B9847021C3B1C6F331A70DE4BEE
:102AE000B86E98478046DC4B786E9847021CDB4BEB
:102AF000101C9847051C0E1C3B1C6F331A78D84BD2
:102B0000101C9847031C0C1CD04ACF49081C111CF0
:102B10001A1C231CD34CA047031C0C1CD24A9446FD
:102B2000281C311C1A1C231CE047031C0C1CCF4A18
:102B3000181C211C9047021CCD4B4046111C984785
:102B4000031C3B67CB4B1B78002B14D0CA4B386F50
:102B50009847031CDBB2C94A101C191CC84B984784
:102B6000C54B386F9847031CDBB2C64A101C191CB2
:102B7000C54B98474FE0C54B181CC54B98474AE0DA
:102B8000C44BB4204000C019C3181A78A2214900D0
:102B90007B18303A511E8A411A70A2225200BB188B
:102BA0001B78002B07D0BC4B01221A70BB4B181CA2
:102BB000B74B98472FE0B84B00221A70B84B181C3F
:102BC000B34B984727E0B34BB4204000C019C3185B
:102BD0001A78A22149007B18303A511E8A411A7096
:102BE000A2225200BB181B78002B07D0AD4B01224C
:102BF0001A70AD4B181CA64B98470CE0A94B00224D
:102C00001A70AA4B181CA24B984704E09F4B181C43
:102C10009F4B9847C04600F039FFA54BB4204000B9
:102C2000C019C3181B78303B092B00D908E29A0061
:102C3000A04BD3181B689F46964BB4214900C91975
:102C4000CB181A78A22040003B18303A511E8A4116
:102C50001A70A22149007B181B78002B06D0964BD6
:102C6000181C8B4B9847954B9847EFE1944B181CD9
:102C7000874B9847EAE1874BB4225200D219D31808
:102C80001A78A22040003B18303A511E8A411A702F
:102C9000A22149007B181B78002B07D0894B012209
:102CA0001A70894B181C7A4B9847CFE1854B00224C
:102CB0001A70864B181C764B9847C7E1754BB422A7
:102CC0005200D219D3181A78A22040003B18303A8B
:102CD000511E8A411A707E4BA22149007A1812783F
:102CE0001A707B4B1B78002B07D07A4B00221A708E
:102CF000794B181C664B9847A8E1764B01221A7055
:102D0000764B181C624B9847A0E1754B1A68534BE1
:102D1000101C9847031C0C1C724A101C1A1C231C04
:102D20005949884792E1704B1B78704A101C191C56
:102D3000554B98478AE16E4A6E4B101C191C524B3A
:102D4000984783E100233B666B4BB4225200D219B3
:102D5000D31800221A703B1C0C33181C00210A22C5
:102D60003B4B9847031CAE204000C01902685343F8
:102D7000BB653B1D181C00210A22354B9847031CDC
:102D8000AE214900C9190A6853437B653B1D181CD5
:102D9000304B9847021C584BB4204000C019C31850
:102DA0001A702D4BB86D984780462B4B786D98471D
:102DB000021C2A4B101C9847051C0E1C4E4BB421BC
:102DC0004900C919CB181A78254B101C9847031CC9
:102DD0000C1C1E4A1C49081C111C1A1C231C214CCB
:102DE000A047031C0C1C204A9446281C311C1A1CAA
:102DF000231CE047031C0C1C1C4A181C211C904778
:102E0000021C1B4B4046111C9847031C3B663B4B66
:102E10003A6E1A63394B1A6B104B101C9847031CFF
:102E20000C1C374A101C1A1C231C17498847354BA9
:102E300001221A70344B354A1A60334B04221A713E
:102E4000314B01225A7101E10000000000002440D2
:102E5000A1D8010055D60100ED1E0200493C020038
:102E6000E13B0200A9B701008D260200ED3C020003
:102E7000D512020094030020F5110200E40A00209C
:102E8000256B0000D049020065D10100C449020051
:102E9000D1D30100A4FEFFFFA4000020F0490200EE
:102EA000104A0200B1020020304A02004C4A0200DF
:102EB000B4FEFFFF684E0200684A020041020000B3
:102EC0004C48020091030020DC460200F846020054
:102ED000930300208E0100207C4A0200944A0200E5
:102EE000C8030020B04A020050030020D04A02006C
:102EF000F04A020064000020F7FEFFFF4C0A0020A9
:102F0000104B020004030020F00800207C0A00207F
:102F100000233B65CE4BB4204000C019C3180022EB
:102F20001A703B1C0C33181C00210A22C94B98470D
:102F3000031CAE214900C9190A685343BB643B1DF9
:102F4000181C00210A22C34B9847031CAE204000E6
:102F5000C019026853437B643B1D181CBE4B984745
:102F6000021CBB4BB4214900C919CB181A70BB4BCA
:102F7000B86C98478046B94B786C9847021CB84BA0
:102F8000101C9847051C0E1CB14BB4225200D219DC
:102F9000D3181A78B34B101C9847031C0C1CAB4A6F
:102FA000A949081C111C1A1C231CAF4CA047031C68
:102FB0000C1CAE488446281C311C1A1C231CE047FC
:102FC000031C0C1CAA4A181C211C9047021CA94B6C
:102FD0004046111C9847031C3B65A74B3A6D1A638A
:102FE000A54B1A6B9E4B101C9847031C0C1CA34A44
:102FF000101C1A1C231CA2498847A24B01221A70DC
:10300000A14BA24A1A60A04B04221A719E4B0122C6
:103010005A711BE09E4BB4214900C919CB189D4A37
:1030200012781A709B4B01221A709B4B9847994B50
:10303000974AB4204000C019821812781A7005E02F
:10304000964B181C964B984700E0C04600F01EFDBA
:103050003B1C0C33181C00210A227E4B9847031C92
:10306000FB63904BB4214900C919CB181B78303B46
:10307000092B01D900F0E3FB9A008B4BD3181B6896
:103080009F460023BB63894BB4225200D219D31848
:1030900000221A703B1C0C33181C00210A226D4BB5
:1030A0009847031CAE204000C01902685343FB63DD
:1030B0003B1D181C00210A22664B9847031CAE21B9
:1030C0004900C9190A6853433B633B1D181C624BF6
:1030D0009847021C754BB4204000C019C3181A70E1
:1030E0005E4BF86B984780465C4B386B9847021CE8
:1030F0005B4B101C9847051C0E1C6C4BB4214900FF
:10310000C919CB181A78574B101C9847031C0C1C74
:103110004E4A4D49081C111C1A1C231C524CA04736
:10312000031C0C1C514A9446281C311C1A1C231CDD
:10313000E047031C0C1C4E4A181C211C9047021C23
:103140004C4B4046111C9847031CBB63584BB86B53
:103150009847031CDAB2574B1A70564B1B78564AE5
:10316000101C191C464B9847464B01221A70464BBF
:10317000504A1A60444B01221A71434B01225A7182
:1031800062E34820FF303B1800221A70FDE048211E
:10319000FF317B181B785B00484AB4204000C019FF
:1031A0008218D35C2F2B0CD94821FF317B181B7858
:1031B0005B00424AB4204000C0198218D35C392B0E
:1031C00019D94821FF317B181B785B003B4AB4209A
:1031D0004000C0198218D35C402B2CD94821FF3104
:1031E0007B181B785B00354AB4204000C019821858
:1031F000D35C462B1FD84821FF317B181B785B001E
:103200002E4AB4204000C0198218D25C2C4BB42145
:103210004900C919CB181A704822FF32BB181B7815
:103220005B000133254AB4204000C0198218D35CEA
:103230002F2B49D856E0234B181C194B984700F008
:1032400027FCC046C046C0460000000000002440E5
:10325000E7FEFFFFA1D8010055D60100ED1E0200D8
:10326000493C0200E13B0200A9B701008D260200A3
:10327000ED3C0200D5120200680C00203C4B02001D
:1032800065D1010004030020F0080020980C002004
:10329000DBFEFFFFB1020020FD3B00004C480200B6
:1032A000D1D30100B4FEFFFF904E0200CFFEFFFF1E
:1032B000F511020058000020684B0200A4FEFFFF39
:1032C00098FEFFFF884B02004821FF317B181B78D6
:1032D0005B000133BD4AB4204000C0198218D35CA2
:1032E000392B1BD94821FF317B181B785B00013338
:1032F000B64AB4204000C0198218D35C402B3ED996
:103300004821FF317B181B785B000133AF4AB420A2
:103310004000C0198218D35C462B30D84821FF31B9
:103320007B181B785B000133A84AB4204000C01909
:103330008218D25CA64BB4214900C919CB185A7027
:10334000A34BB4225200D219D31800229A704820FD
:10335000FF303B181C783B1C181C002110229D4B91
:103360009847031CDAB29C4B1A554821FF317B1851
:103370001A784820FF303B1801321A7005E0974B4D
:10338000181C974B9847C04682E34821FF317B18B1
:103390001B78052B00D8FAE6924B0020191C924BA3
:1033A00098478D4B1A788F4B1A738B4B5A788D4BED
:1033B0005A73894B9A788B4B9A73874BDA78894B7F
:1033C000DA73854B1A79874B1A74834B5A79854B7C
:1033D0005A74844B0020191C844B9847844B98479F
:1033E000844B181C7E4B9847834B1B6820221A4342
:1033F000814B1A607B4B0020191C7B4B98477E4BFE
:103400001B68DBB2DB43DAB2764BDA747A4B1B68AB
:10341000DA43FF231B0213401B0ADAB2714B1A7501
:10342000754B1B68DA43FF231B0413401B0CDAB2F5
:103430006C4B5A756B4B0020191C6C4B98476C4BAE
:10344000984701E2674B0220191C674B98475F4B76
:10345000B4225200D219D3181A78624B1A705B4BFF
:10346000B4204000C019C3185A785E4B5A70574BAD
:10347000B4214900C919CB189A785A4B9A70534B0A
:10348000B4225200D219D318DA78564BDA704F4B67
:10349000B4204000C019C3181A79524B1A714B4B13
:1034A000B4214900C919CB185A794E4B5A71474B70
:1034B000B4225200D219D3189A794A4B9A71434BCD
:1034C000B4204000C019C318DA79464BDA713F4B7B
:1034D000B4214900C919CB181A7A424B1A723B4BD6
:1034E000B4225200D219D3185A7A3E4B5A72374B33
:1034F000B4204000C019C3189A7A3A4B9A72334BE1
:10350000B4214900C919CB18DA7A364BDA722F4B3D
:10351000B4225200D219D3181A7B324B1A732B4B98
:10352000B4204000C019C3185A7B2E4B5A73274B46
:10353000B4214900C919CB189A7B2A4B9A73294B9D
:103540000022DA732D4A274B111C1A1C0F23081C6A
:10355000111C1A1C2A4B9847224B0220191C234B82
:103560009847234B9847274B181C1D4B9847224BD5
:103570001B6840221A43204B1A601A4B0020191C6A
:10358000194B98471C4B1B68DBB2DB43DAB2154B77
:10359000DA74194B1B68DA43FF231B0213401B0A22
:1035A000DAB2104B1A75144B1B68DA43FF231B0465
:1035B00013401B0CDAB20B4B5A750A4B0020191C36
:1035C0000A4B98470A4B98473EE1C046A4FEFFFFCE
:1035D00098FEFFFFA1D8010018090020884B0200C7
:1035E000D1D301009C0800200DB30100EDB1010012
:1035F000B5B30100984B0200080300200809002021
:10360000ADCE0100B44B0200D44B0120191CD44BA9
:103610009847D44BB4225200D219D3181A78CF4B02
:103620001A70D04BB4204000C019C3185A78CB4B45
:103630005A70CC4BB4214900C919CB189A78C74BA2
:103640009A70C84BB4225200D219D318DA78C34BFF
:10365000DA70C44BB4204000C019C3181A79BF4BAC
:103660001A71C04BB4214900C919CB185A79BB4B08
:103670005A71BC4BB4225200D219D3189A79B74B65
:103680009A71B84BB4204000C019C318DA79B34B13
:10369000DA71B44BB4214900C919CB181A7AAF4B6F
:1036A0001A72B04BB4225200D219D3185A7AAB4BCB
:1036B0005A72AC4BB4204000C019C3189A7AA74B79
:1036C0009A72A84BB4214900C919CB18DA7AA34BD6
:1036D000DA72A24B00221A73A34AA04B111C1A1CC7
:1036E0000D23081C111C1A1CA04B98479B4B012052
:1036F000191C9F4B98479F4B98479F4B181C9F4BFB
:1037000098479F4B1B6880221A439D4B1A60934B2E
:103710000020191C924B9847994B1B68DBB2DB4386
:10372000DAB28E4BDA74964B1B68DA43FF231B0226
:1037300013401B0ADAB2894B1A75914B1B68DA43A6
:10374000FF231B0413401B0CDAB2844B5A75834BC6
:103750000020191C864B9847864B984774E0894B8C
:103760001B78191C874B5B781A1C864B9B78854805
:10377000C078061C83480079051C82484079041CE7
:103780008148009601950294804CA0475CE0804AF5
:10379000804B101C191C7D4B984755E07E4A724B9C
:1037A000101C191C794B98474EE000207B4B984722
:1037B0004AE0FB6BDAB201231340DAB2784B1A709D
:1037C000664B0020191C664B9847754B1A78634B63
:1037D000DA756B4B1B68802292001A43684B1A60A3
:1037E000674B1B68DBB2DB43DAB25C4BDA74644BC9
:1037F0001B68DA43FF231B0213401B0ADAB2574B44
:103800001A755F4B1B68DA43FF231B0413401B0C24
:10381000DAB2524B5A75514B0020191C544B984741
:10382000544B98475F4B181C544B98470CE05C4B2B
:103830001B785D4A101C191C544B984704E05B4BE5
:10384000181C4E4B9847C04621E13B1C0C33181CFA
:1038500000210A22564B9847031CFB62554BB422A9
:103860005200D219D3181B78303B092B00D907E13D
:103870009A00514BD3181B689F46FB6A9AB24F4B74
:103880001A804E4B1B884E4A101C191C3F4B984700
:103890004C4B01221A704C4B484A1A604A4B022288
:1038A0001A71494B01225A71EFE0444B1B88474A79
:1038B000101C191C354B9847E7E0FB6ADAB2444B01
:1038C0001A70434B1B78434A101C191C2F4B984706
:1038D0003C4B01221A703C4B3D4A1A603A4B012284
:1038E0001A71394B01225A71CFE0394B1B783A4A91
:1038F000101C191C254B9847C7E0FB6ADAB2374BFE
:103900001A70364B1B78364A101C191C1F4B9847EF
:103910002C4B01221A702C4B304A1A602A4B012280
:103920001A71294B01225A71AFE02C4B1B782D4A9A
:10393000101C191C154B9847A7E02B4B00221A802E
:103940002A4B181C0D4B98479FE00D4B1B68284ACB
:10395000101C191C0D4B984797E0C0469C0800208E
:103960000DB30100A4FEFFFFD8080020ADCE01007A
:10397000EDB10100B5B30100D44B0200D1D3010079
:103980000803002018090020F44B020065D1010053
:10399000184C020008090020304C0200F14A0000D7
:1039A0009D000020484C02006C4C02004C48020074
:1039B000A1D80100B4FEFFFFB84E0200B80C0020F1
:1039C000884C020004030020F0080020A84C0200EC
:1039D00024090020C44C0200E44C0200EC08002042
:1039E000004D0200244D02004E030020444D020011
:1039F000604D0200FB6ADAB201231340DAB2274BB2
:103A00001A70274B0020191C264B9847234B1A7815
:103A1000234B9A75244B1B68802252001A43224B79
:103A20001A60214B1B68DBB2DB43DAB21C4BDA7441
:103A30001D4B1B68DA43FF231B0213401B0ADAB23B
:103A4000174B1A75184B1B68DA43FF231B041340EE
:103A50001B0CDAB2124B5A75114B0020191C134B78
:103A60009847134B9847134B181C134B98470CE07F
:103A70000A4B1B78114A101C191C114B984704E083
:103A8000104B181C0C4B9847C046C046C046C04659
:103A9000BD465AB004BC9046F0BDC0469C00002014
:103AA0009C0800200DB3010008030020EDB10100C7
:103AB000B5B30100784D0200D1D301009C4D020046
:103AC00065D101004C48020080B500AF024B1B6875
:103AD000181CBD4680BDC0463004002090B587B09C
:103AE00002AF021CFB1D1A703B1C0F33FA1D12782B
:103AF000D2091A703B1C0E33FA1D127852091A7043
:103B00001B4BBB603B1C0F331B78002B0ED13B1CA7
:103B10000F331B789B001022D219D318083B1A6868
:103B20003B1C0E331B78DB01D3181CE0114B98476C
:103B3000031C002B0FD00F4B9847011C0E4A682323
:103B4000FF330E4800900E480190081C01210D4CD7
:103B5000A047002307E00C480949074A6823FF33C0
:103B60000A4CA047FEE7181CBD4605B090BDC046F4
:103B700000440041C93A0000B8520200E852020075
:103B8000005302002D1901000853020065D1010005
:103B900080B582B000AF021CFB1D1A70FB1D1B78A4
:103BA000181C034B9847031C181CBD4602B080BD6F
:103BB000DD3A000080B584B000AF021CFB1D1A7016
:103BC000FB1D1B78181C0C4B9847031CFB60FB1D4E
:103BD0001A781F2313400122111C99400B1CBB6053
:103BE000FB681B69BA6813405A1E9341DBB2181C6C
:103BF000BD4604B080BDC046913B0000F0B55F46B5
:103C000056464D464446F0B4B5B010AF374B181C7D
:103C1000374B9847374B1B7801225340DBB2002BC0
:103C200003D0354B181C354B9847304BDB889846F2
:103C30002E4B1B791E1C2D4B9B781D1C2B4B5B7830
:103C40001C1C2A4B1B788C20C01903602C4B9847F6
:103C5000031C2C4959188822D21911602A4B1B8841
:103C60009B462A4B1B789A46294B1B789946294B31
:103C70001B781A1C284B9200D0588446274B1B787F
:103C8000181C274B1B78274A9B009958264B1B78FA
:103C9000244A9B009A58254B00948C24E4192468EC
:103CA00001948824E419246802945C4603945446E1
:103CB00004944C4605946446069407900891099232
:103CC000181C4146321C2B1C194CA047094B1B7871
:103CD00001225340DBB2002B02D00A20154B98473B
:103CE000154B1B78002B2BD0144B2AE0FC0D002029
:103CF000B1450100B102002014540200D1D30100EB
:103D00009DDA000080AEFEFF4E030020780D0020FB
:103D1000BA0C00208009002000000020950300203C
:103D200089030020280000208B0300201854020083
:103D300065D10100BDD1010061030020885402005B
:103D4000EF4BF04A1288151CEF4A1468EF4A1168CD
:103D5000EF4A0091101C191C2A1C231CED4CA04793
:103D6000ED4B1B7801225340DBB2002B02D00A201E
:103D7000EA4B9847EA4B1A6CEA4B101C9847041C14
:103D80000D1CE94B1A6CE74B101C98478022D21986
:103D900010605160E24B5A6DE24B101C9847B867B7
:103DA000F967DF4B5A6BDF4B101C98473867796710
:103DB000DB4B9A6BDB4B101C984738617961DB4910
:103DC0008023DB191A685B6800920193BA6FFB6F5E
:103DD000029203933A6F7B6F049205933A697B6971
:103DE00006920793081C221C2B1CCA498847CA4B01
:103DF0001B7801225340DBB2002B02D00A20C74BB4
:103E00009847C74B9A69C74B101C9847041C0D1C58
:103E1000C74B1A68C34B101C9847021C0B1CC549A2
:103E200000920193081C221C2B1CBA498847C24BE4
:103E30001A68BC4B101C9847031C0C1CBF4A101C72
:103E40001A1C231CB3498847B74B5A68B54B101C42
:103E50009847041C0D1CB24B1A6DB24B101C9847AE
:103E6000B866F966AE4BDA68AE4B101C98473861FD
:103E70007961B349BA6EFB6E009201933A697B692E
:103E800002920393081C221C2B1CA2498847AD4BAD
:103E90001A68A44B101C9847031C0C1CAA4A101C3F
:103EA0001A1C231C9B4988479B4B1B7801225340BB
:103EB000DBB2002B02D00A20984B9847A34BDA6B59
:103EC000984B101C9847041C0D1CA04B5A6C954B2A
:103ED000101C9847386679669C4B1A6C914B101CE5
:103EE0009847B865F965994B9A6C8E4B101C9847AA
:103EF00038657965954B5A698A4B101C984738612B
:103F0000796193493A6E7B6E00920193BA6DFB6DB5
:103F1000029203933A6D7B6D049205933A697B6933
:103F200006920793081C221C2B1C7A498847874B52
:103F3000DA697C4B101C9847041C0D1C834B5A6A91
:103F4000784B101C9847B864F964804B1A6A754B1B
:103F5000101C9847386179617E49BA6CFB6C0092FD
:103F600001933A697B6902920393081C221C2B1C63
:103F700068498847684B1B7801225340DBB2002B0D
:103F800002D00A20654B9847734B5B7C191C724B1F
:103F90005A6971482C23C35C1C1C6F4BDE686E4B46
:103FA0009B7E1D1C6C4BDB7E181C6C4B0096019598
:103FB0000290181C231C574CA047674B9A6B684B08
:103FC000101C9847031C9BB21C1C634B1A6C644B5F
:103FD000101C9847031C9BB2624A101C211C1A1C1F
:103FE0004C4B98474C4B1B7801225340DBB2002BC3
:103FF00002D00A20494B98475B4B5B7C191C5A4BFB
:104000005A6959482C23C35C1C1C574BDE68564B1D
:104010009B7E1D1C544BDB7E181C544B0096019557
:104020000290181C231C3B4CA0474F4B9A6B4C4BE7
:10403000101C9847031C9BB21C1C4B4B1A6C484B22
:10404000101C9847031C9BB2494A101C211C1A1CC7
:10405000304B9847304B1B7801225340DBB2002B8A
:1040600002D00A202D4B9847424B5B7C191C414BD8
:104070005A6940482C23C35C3E48807E051C3D485D
:10408000C07E041C3C4800950194224CA047224B62
:104090001B7801225340DBB2002B02D00A201F4BB9
:1040A0009847364B5B7C9846344B5E69334A2C23E9
:1040B000D35C1D1C314BDC68A346304B9B7E9A467B
:1040C0002E4BDB7E99462E4B1A6A164B101C9847D6
:1040D000B860F9602B4A10682B4A11682B4A5B467E
:1040E0000093544601944B460293BB68FC680493CA
:1040F000059406900791101C4146321C2B1C47E08A
:10410000905402007C030020780300202009002046
:104110009854020065D10100B1020020BDD1010018
:1041200080090020493C020028090020CC540200EC
:104130009801002018550200840300203055020029
:1041400040550200C8030020685502004C0A0020B8
:1041500078550200B0550200300D0020D055020005
:10416000F511020010560200640B00202C560200CC
:104170006C560200200C0020885602009C0A002089
:10418000F00A00206403002068030020C8560200E3
:10419000AF4CA047AF4B9A6BAF4B101C9847031C1A
:1041A0009BB21C1CAB4B1A6CAB4B101C9847031CEE
:1041B0009BB2AA4A101C211C1A1CA54B9847A84B5D
:1041C0001B7801225340DBB2002B02D00A20A54B02
:1041D0009847A54B9B781A1CA44B9200D658A24B2B
:1041E0009B78012B04D9A04A2C23D35C1D1C04E02E
:1041F0002E209F4B9847031C1D1C9B4B1A6B9D4BFD
:10420000101C9847031C0C1C9B4A00930194101C23
:10421000311C2A1C8E4B9847914B1B78012253402E
:10422000DBB2002B02D00A208E4B9847934B1B7AAF
:104230001D1C924B1B7A032B06D1914B9847021CF5
:10424000904B1B68D31A00E000238C4A54688E4AB6
:104250001278101C8C4A51688C4A00900191101CF5
:10426000291C1A1C231C7A4CA0477D4B1B78012269
:104270005340DBB2002B02D00A207A4B9847844B84
:104280001A6B7C4B101C984738647964804B5A6BCE
:10429000784B101C9847B863F9637D4B9A6B754B4C
:1042A000101C9847386379637A4B1A6A714B101C5B
:1042B0009847B862F962764B1A6D6E4B101C98479E
:1042C00038627962724B5A6D6A4B101C9847B8611C
:1042D000F9616F4B9A6E674B101C9847041C0D1CBC
:1042E0006B4BDA6E634B101C9847386079606A4BF1
:1042F0001B78181C694BB96BFA6B00910192396BF2
:104300007A6B02910392B96AFA6A04910592396A4A
:104310007A6A06910792B969FA69089109920A9432
:104320000B9539687A680C910D920E90181C3A6CB6
:104330007B6C474988474A4B1B7801225340DBB2CC
:10434000002B02D00A20474B9847554B1B88554AF3
:10435000101C191C3E4B9847414B1B7801225340BF
:10436000DBB2002B02D00A203E4B98474E4B1B7B02
:10437000191C4D4B1A694C4B9B68002B04D04A4BBF
:104380009B684A4C1B1901E0474B9B684648407BA1
:10439000041C474800942E4CA047314B1B78012247
:1043A0005340DBB2002B02D00A202E4B9847414BE2
:1043B0001B7B191C3F4B1A693E4B9B68002B04D09A
:1043C0003C4B9B6839481B1801E03A4B9B683948C5
:1043D000407B041C384800941D4CA047204B1B78A0
:1043E00001225340DBB2002B02D00A201D4B98471C
:1043F000324B1B7B191C314B1A69304B9B68002BCD
:1044000004D02E4B9B68294C1B1901E02B4B9B6859
:104410002A48407B041C2A4800940D4CA047104BAE
:104420001B7801225340DBB2002B02D00A200D4B37
:104430009847244B1B7B191C224B1A69214B9B6804
:10444000002B41D01F4B9B6818481B183EE0C0460C
:1044500065D101009C0A0020F511020028570200D6
:10446000B1020020BDD101004C0A00201C00002038
:10447000B53B0000493C0200445702007C0D00207F
:104480009DDA0000D8020020E40A002070570200E4
:10449000BC0C0020800900207E030020C8570200C9
:1044A000B202002030580200EC07002080AEFEFF70
:1044B00040580200380800207458020024080020E8
:1044C000A45802000C080020464B9B684548407BDE
:1044D000041C45480094454CA047454B1B780122DD
:1044E0005340DBB2002B02D00A20424B9847424B8C
:1044F0001968424B1B881A1C414B1C68414B1E68B3
:10450000414B1D68414B1868414B00960195029044
:10451000181C231C354CA0473E4B1B78002B01D1A7
:104520003D4B9847324B1B7801225340DBB2002BA6
:1045300002D00A202F4B9847384A3D23D35C002BEA
:1045400003D0374B181C294B9847364B1B78002B50
:1045500003D0354B181C254B9847344B1B78002B48
:1045600003D0334B181C214B9847324B1B78002B40
:1045700003D0314B181C1D4B9847304B1B78002B38
:1045800003D02F4B181C194B98472E4B1B78012238
:104590005340DBB2002B03D02B4B181C134B984716
:1045A0002A4B1B78002B03D0294B181C0F4B984724
:1045B000284B1B7801225340DBB2002B03D0264B43
:1045C000181C0A4B98470A4B1B78002B02D00A2074
:1045D000084B9847BD4625B03CBC90469946A2463C
:1045E000AB46F0BD0C080020D858020065D1010090
:1045F000B1020020BDD10100100300209400002072
:104600001803002014030020200300201C030020B6
:10461000045902009C0000205D4600008009002033
:1046200050590200900300206059020091030020BD
:10463000705902008C010020805902009303002071
:1046400094590200A4000020A45902009403002001
:10465000BC5902008E010020D0590200F0B587B08D
:1046600004AF2E4B1B7801225340DBB2002B02D04B
:104670000A202B4B98472B4B1B88191C2A4B1B8855
:104680001A1C2A4B1B882A480088051C29480088C8
:10469000041C294800950194284CA0471F4B1B7807
:1046A00001225340DBB2002B02D00A201C4B98475A
:1046B000234B1B88191C234B1B881A1C224B1B885D
:1046C0007B6022480088844621480088061C2148D7
:1046D0000088051C20480088041C2048634600937D
:1046E0000196029503947B68144CA0470B4B1B78F2
:1046F00001225340DBB2002B02D00A20084B98471E
:10470000174B1B881A1C174B1B881749081C111CB8
:104710001A1C0A4B9847BD4603B0F0BDB1020020F9
:10472000BDD1010078010020700300207203002039
:104730007403002076030020E859020065D10100CF
:1047400046000020D0020020CA020020D202002031
:10475000CC020020D4020020CE020020385A0200F1
:10476000700000200C030020B85A0200F0B585B09C
:1047700004AF774B181C774B9847774A4C23D35C90
:104780001A1C764B9200D358754A101C191C714B99
:104790009847744B1B68744A101C191C6D4B984742
:1047A000724B1B78724A101C191C6A4B9847714B4C
:1047B0001B78714A101C191C664B98476F4B1B786D
:1047C0006F4A101C191C634B98476E4B1A6C6E4B4A
:1047D000101C9847031C0C1C6C4A101C1A1C231C30
:1047E0005C498847674B5A6D674B101C9847031C00
:1047F0000C1C674A101C1A1C231C56498847654B21
:104800001A6C614B101C9847031C0C1C624A101C4C
:104810001A1C231C4F498847604B1B88604A101C98
:10482000191C4C4B98475F4B1B885F4A101C191C86
:10483000484B9847484B1A6B534B101C9847031C26
:104840000C1C5A4A101C1A1C231C42498847584BFE
:104850001A6B4D4B101C9847031C0C1C554A101C1E
:104860001A1C231C3B498847534B1B88534A101C76
:10487000191C384B9847524B1B78524A101C191C74
:10488000344B9847504B1B88504A101C191C314B15
:1048900098474F4B1B784F4A101C191C2D4B9847BB
:1048A0004D4B1A68384B101C9847031C0C1C4B4A84
:1048B000101C1A1C231C27498847494B1A68324B85
:1048C000101C9847031C0C1C464A101C1A1C231C65
:1048D00020498847444A454B101C191C1D4B9847DA
:1048E000434A444B101C191C1A4B9847424A434BED
:1048F000101C191C174B9847414B1B78191C404B37
:104900005B781A1C3E4B9B783D48C078061C3C489F
:104910000079051C3A484079041C3A4800960195F4
:1049200002940C4CA047384B1B68384A101C191CC9
:10493000084B9847364B1B781A1C364B1B78364968
:10494000081C111C1A1C034B9847BD4601B0F0BD52
:10495000DC5A020065D101004C0A002080010020D1
:10496000F85A020008030020045B02009C000020AB
:104970001C5B02009D000020345B020058000020F8
:104980004C5B020080090020493C0200645B02008D
:104990007C5B020028090020945B02009C0100203F
:1049A000AC5B02009E010020C85B0200E45B0200D9
:1049B000680C0020045C02007A010020245C0200E4
:1049C000240900204C5C0200B80C00206C5C020042
:1049D000EC0800208C5C020090010020A85C020022
:1049E00094010020C85C0200E85C0200D8080020A6
:1049F000FC5C020008090020105D02006400002039
:104A000018090020205D020020090020485D0200F6
:104A1000780D0020BA0C0020645D020080B500AF64
:104A2000204B181C204B9847204B181C1E4B9847B6
:104A30001F4B1B783C2253439BB21E4A101C191C6F
:104A40001D4B98471D4B1B883C2253439BB21C4A6D
:104A5000101C191C184B98471A4B00221A801A4B2D
:104A600000221A70194B01221A70194B9847021C28
:104A7000184B1A60164B9847021C174B1A60174BBD
:104A800000221A60164B00221A60164B1A68164B49
:104A9000101CFE2189059847031C1A1C134B1A6031
:104AA000BD4680BD380800208D0501000C0800209F
:104AB00024090020EC070020E9040100B80C0020C4
:104AC00024080020B2020020B4020020440000208C
:104AD0009DDA0000C0020020C4020020B8020020BD
:104AE000BC02002090010020C11B02002008002011
:104AF00090B583B000AF021CFB1D1A70FB1D1B7824
:104B0000002B38D13E4B01221A703E4B181C3E4BF5
:104B100098473E4B1B783B4A101C191C3C4B98474E
:104B20003C4A3D230121D1543B4B00225A613B4A70
:104B30004C230021D1543A4B1B8801339AB2384B95
:104B40001A80384B181C384B9847364B9B78191CE9
:104B5000344B5B781A1C334B1B783448344CA047D9
:104B6000344A304B111C1A1C0A23081C111C1A1C35
:104B7000314B984740E0FB1D1B78012B25D1204B82
:104B800000221A701F4B181C1F4B9847214A3D23C7
:104B90000021D154214A4C230121D154214B181C0E
:104BA000214B98471F4B9B78191C1E4B5B781A1C96
:104BB0001C4B1B7821481E4CA047194B1B88204AD0
:104BC000101C191C1A4B984716E0FB1D1B78022B72
:104BD00012D10B4B00221A700E4A3D230021D154F2
:104BE0000E4A4C230121D154064B181C064B984702
:104BF000144B181C0E4B9847BD4603B090BDC046E1
:104C0000B4020020380800208D050100EC080020C7
:104C1000E9040100800900204C0A0020BC0C00209F
:104C2000B2020020FC0D0020B1450100305E020000
:104C300065D1010000080020ADCE0100505E0200E9
:104C4000705E0200805E020080B500AF644B1B788E
:104C5000002B00D1C2E0634B5B7B002B03D0624B87
:104C60001B78002B12D15F4B5B7B002B1DD05F4B61
:104C70005B7B002B0AD15E4B5B7B002B15D05A4B24
:104C80001B7801225340DBB2002B0ED00020594B81
:104C90009847544B181C584B9847554B181C564B6B
:104CA0009847524B181C544B9847544B1A68544B16
:104CB000101C54499847031C002B1CD04B4B1B7BEA
:104CC00001225340DBB2002B12D04F4B1B78013333
:104CD000DAB24D4B1A704C4B1B78052B0BD94A4B53
:104CE00000221A70414B181C0321484B984702E0E0
:104CF000454B00221A70464B5B7B002B16D00120DF
:104D00003C4B9847434B1B783C2253439BB2354A5C
:104D1000101C191C3D4B98473F4B1B883C225343AA
:104D20009BB2334A101C191C384B9847334B1A68F6
:104D30003A4B101C3A499847031C002B18D02B4BB8
:104D40001B7B002B11D0374B1B780133DAB2354B6C
:104D50001A70344B1B78052B0AD9324B00221A707B
:104D6000224B181C244B984702E02E4B00221A704D
:104D70002D4B19682D4B1A68284B081C111C98479D
:104D8000031C002B1AD0224B1B7B002B16D00220B9
:104D9000184B98471F4B1B783C2253439BB2114A38
:104DA000101C191C194B98471B4B1B883C22534362
:104DB0009BB20F4A101C191C144B98470B4B181C24
:104DC0001B4B9847074B181C194B9847084B181C4E
:104DD000174B98470E4B181C154B9847BD4680BD86
:104DE00044000020EC070020950300200C08002060
:104DF00024080020F14A00008D05010084030020F2
:104E0000651102000000A0C0C8020020E9040100F2
:104E10003808002024090020B80C00208D11020061
:104E20000000A040C90200209801002020080020B6
:104E30004105010080B500AF024B1B68181CBD4640
:104E400080BDC0463004002090B585B002AF7860C8
:104E5000184B9847031C002B11D07B68002B19D1ED
:104E6000144B9847011C144AB423FF331348009095
:104E700013480190081C0121124CA0470AE07B68EE
:104E8000002B07D110480E490B4AB423FF330F4CB7
:104E9000A047FEE77B6800221A707B6802225A70E6
:104EA0007B6800229A707B680022DA70BD4603B0EE
:104EB00090BDC046354E0000985E0200C05E020004
:104EC000D85E02002D190100E05E020065D10100EC
:104ED00080B582B000AF084B98473B1D181C074BAC
:104EE00098473B1D12229A703B1D0020191C044B51
:104EF0009847BD4602B080BD85290100494E00009B
:104F0000B529010080B500AF024B1B68181CBD46D7
:104F100080BDC0463004002090B587B002AF021CAF
:104F2000FB1D1A703B1C0F33FA1D1278D2091A7040
:104F30003B1C0E33FA1D127852091A701B4BBB60D2
:104F40003B1C0F331B78002B0ED13B1C0F331B78FF
:104F50009B001022D219D318083B1A683B1C0E3351
:104F60001B78DB01D3181CE0114B9847031C002B66
:104F70000FD00F4B9847011C0E4A6823FF330E4891
:104F800000900E480190081C01210D4CA047002301
:104F900007E00C480949074A6823FF330A4CA04739
:104FA000FEE7181CBD4605B090BDC0460044004158
:104FB000054F0000785F0200A85F0200C05F02009A
:104FC0002D190100C85F020065D1010090B585B0C0
:104FD00002AF78601B4B9847031C002B11D07B68F5
:104FE000002B19D1174B9847011C174AE8235B0087
:104FF0001648009016480190081C0121154CA04746
:105000000AE07B68002B07D1134811490E4AE823B8
:105010005B00124CA047FEE77B6800221A607B68A9
:1050200000225A607B6801221A727B6801225A7240
:105030007B6800229A727B680222DA72BD4603B056
:1050400090BDC046054F0000EC5F0200A85F020063
:10505000146002002D190100C85F020065D1010033
:1050600080B582B000AF021CFB1D1A70FB1D1B78BF
:10507000181C034B9847031C181CBD4602B080BD8A
:10508000194F000080B584B000AF021CFB1D1A70E0
:10509000FB1D1B78181C0C4B9847031CFB60FB1D69
:1050A0001A781F2313400122111C99400B1CBB606E
:1050B000FB681B6ABA6813405A1E9341DBB2181C86
:1050C000BD4604B080BDC0466150000080B582B0CE
:1050D00000AF786001200A4B98471B20094B984786
:1050E000031C01225340DBB2002B01D0064B984732
:1050F000064B802212021A60BD4602B080BDC04637
:10510000C9170100855000006D040100101800400F
:1051100080B58CB000AF3B1C2433181C164B98474D
:105120003B1C24331B221A603B1C243300225A6090
:105130003B1C243300229A723B1C24330222DA7275
:105140003B1C243301225A723B1C24330F20191CB0
:105150000A4B98470A4B98470A4B0B4A1A603B1D6B
:1051600001229A713B1D0122DA713B1D181C074B6D
:105170009847BD460CB080BDCD4F0000512E0100B8
:105180007D2D010010180040FFFF0000B52F010029
:1051900080B500AF054B181C0021054B98470F2028
:1051A0000021044B9847BD4680BDC046CD5000004D
:1051B000CD3101001933010080B500AF024B1B68EF
:1051C000181CBD4680BDC0463004002090B587B095
:1051D00002AF021CFB1D1A703B1C0F33FA1D127824
:1051E000D2091A703B1C0E33FA1D127852091A703C
:1051F0001B4BBB603B1C0F331B78002B0ED13B1CA1
:105200000F331B789B001022D219D318083B1A6861
:105210003B1C0E331B78DB01D3181CE0114B984765
:10522000031C002B0FD00F4B9847011C0E4A68231C
:10523000FF330E4800900E480190081C01210D4CD0
:10524000A047002307E00C480949074A6823FF33B9
:105250000A4CA047FEE7181CBD4605B090BDC046ED
:1052600000440041B951000090600200C06002009B
:10527000D86002002D190100E060020065D1010034
:1052800080B582B000AF021CFB1D1A70FB1D1B789D
:10529000181C034B9847031C181CBD4602B080BD68
:1052A000CD51000080B584B000AF0A1CFB1D011C6D
:1052B0001970BB1D1A70FB1D1B78181C0D4B9847ED
:1052C000031CFB60FB1D1A781F2313400122111CD5
:1052D00099400B1CBB60BB1D1B78002B03D0FB68E7
:1052E000BA689A6102E0FB68BA685A61BD4604B0C8
:1052F00080BDC0468152000080B584B000AF3960E7
:10530000FB1D011C1970BB1D1A70BB1D1B780122EF
:105310005340DBB2002B0ED03B1C0F333A68511EBA
:105320008A411A70FB1D1A783B1C0F331B78101C26
:10533000191C034B98470123181CBD4604B080BDBF
:10534000A552000080B586B000AF021CFB1D1A708C
:105350003B1C173300221A703B1C143300221A80A6
:105360003B1C0C332C221A70FB1D1B789AB23B1C81
:105370000C335A803B1C0C33104A5A600DE03B1C26
:1053800014331B883A1C1432591C11800A2B04D187
:105390003B1C173301221A7009E0094A3B1C0C33ED
:1053A000101C191C074B9847031C002BE7D13B1C12
:1053B00017331B78181CBD4606B080BD4C0000207A
:1053C000540800208159010080B586B000AF021C4E
:1053D000FB1D1A703B1C173300221A703B1C143340
:1053E00000221A803B1C0C332C221A70FB1D1B78E8
:1053F0009AB23B1C0C335A803B1C0C33214A5A6036
:105400000DE03B1C14331B883A1C1432591C1180CC
:105410000A2B04D13B1C173301221A7009E01A4AE7
:105420003B1C0C33101C191C184B9847031C002BF9
:10543000E7D13B1C17331B78002B1CD13B1C1433CA
:1054400000221A803B1C0C33114A5A6009E03B1CB5
:1054500014331B883A1C1432591C11800A2B00D1BA
:1054600009E0094A3B1C0C33101C191C094B9847D6
:10547000031C002BEBD13B1C17331B78181CBD46BB
:1054800006B080BD4C000020540800208159010066
:10549000F80200204157010080B500AF524B0022B6
:1054A0001A700120514B98470120504B9847031C1C
:1054B000002B01D0202394E04D4B181C4D4B9847F6
:1054C000031C002B01D020238BE04B4B181C494BB5
:1054D0009847031C002B01D0202382E0474B181C67
:1054E000444B9847031C002B01D0202379E0444B08
:1054F000181C404B9847031C002B01D0202370E060
:10550000394B2A221A70384B0B225A700220374B23
:105510009847031C002B01D0202362E0324B2B2242
:105520001A70314B0F225A700220304B9847031CDF
:10553000002B01D0202354E02B4B51221A702A4B10
:1055400080225A700220294B9847031C002B01D05F
:10555000202346E0244B52221A70234B0B225A7010
:105560000220224B9847031C002B01D0202338E057
:105570001D4B62221A701C4B1B225A7002201B4BBF
:105580009847031C002B01D020232AE0164B33221E
:105590001A70154B68225A700220144B9847031C4E
:1055A000002B01D020231CE00F4B43221A700E4B1E
:1055B00068225A7002200D4B9847031C002B01D023
:1055C00020230EE0084B63221A70074B68225A70A2
:1055D0000220064B9847031C002B01D0202300E03B
:1055E0000023181CBD4680BD4C0000204553000020
:1055F000300D002039590000640B0020200C0020E1
:105600009C0A002080B584B000AF78600A1CFB1CA7
:105610001A703B1C0F3302221A707A681A4B9A4296
:1056200003D11A4B30221A7016E07A68184B9A424E
:1056300003D1164B40221A700EE07A68154B9A423D
:1056400003D1124B50221A7006E07A68124B9A422C
:1056500002D10E4B60221A70FB1C1A78131C1B021D
:105660009A1A0E4B101C64219847031CDAB2074BA0
:105670005A703B1C0F331B78181C094B9847031CAE
:10568000181CBD4604B080BD300D00204C00002029
:10569000640B0020200C00209C0A00200110020056
:1056A0004553000080B582B000AF78607A681E4B29
:1056B0009A4207D11D4B1B78152001211A1C1C4B47
:1056C000984722E07A681B4B9A4207D1174B1B7808
:1056D000142001211A1C164B984716E07A68164BC5
:1056E0009A4207D1114B1B78132001211A1C104B31
:1056F00098470AE07A68114B9A4206D10B4B1B7807
:105700002C2001211A1C0A4B98477B685B69DBB28D
:105710007A68101C191C0A4B98477B6801225A743E
:10572000BD4602B080BDC046300D00209003002071
:10573000F9520000640B0020200C00209C0A00207D
:105740000556000080B582B000AF78607A681C4BC7
:105750009A4207D11B4B1B78152000211A1C1A4BAB
:10576000984722E07A68194B9A4207D1154B1B786B
:10577000142000211A1C144B984716E07A68144B29
:105780009A4207D10F4B1B78132000211A1C0E4B95
:1057900098470AE07A680F4B9A4206D1094B1B786A
:1057A0002C2000211A1C084B98477B68181C0021EC
:1057B000094B98477B6800225A74BD4602B080BDF1
:1057C000300D002090030020F9520000640B0020EF
:1057D000200C00209C0A00200556000090B585B0E2
:1057E00000AF78603B1C0F3300221A703B1C0E3355
:1057F00000221A703B1C0D3300221A703B1C0A3326
:1058000000221A807A68424B9A4203D1414B3E22D1
:105810001A7016E07A68404B9A4203D13D4B4E22F3
:105820001A700EE07A683D4B9A4203D1394B5E22E2
:105830001A7006E07A683A4B9A4202D1354B6E22D2
:105840001A703C1C0F340120364B9847031C237000
:105850003B1C0F331B78002B03D03B1C0F331B78F2
:1058600051E03B1C0E33304A12781A70294B1B78DA
:105870000133DAB2274B1A703C1C0F340120294B3C
:105880009847031C23703B1C0F331B78002B03D05D
:105890003B1C0F331B7836E03B1C0D33224A127839
:1058A0001A703B1C0E331B789BB25B0199B23B1CF8
:1058B0000D331B78DB08DBB21A1C3B1C0A338A1839
:1058C0001A807B681B7C1A1C131C1B019B1A5B042F
:1058D0001A1C164B101C9847041C3B1C0A331A88D0
:1058E000124B101C9847021C114B201C111C98478E
:1058F000031C1A1C0F4B101C9847021C7B68DA60B3
:105900003B1C0F331B78181CBD4605B090BDC0462C
:10591000300D00204C000020640B0020200C0020E3
:105920009C0A0020C9530000F8020020ED1E02006E
:10593000AD150200F511020090B585B000AF78609A
:105940003B1C0F3300221A707A681C4B9A4203D119
:105950001B4B32221A7016E07A681A4B9A4203D116
:10596000174B42221A700EE07A68174B9A4203D105
:10597000134B52221A7006E07A68144B9A4202D1F5
:105980000F4B62221A703C1C0F340120104B9847B9
:10599000031C23703B1C0F331B78002B03D03B1CD4
:1059A0000F331B7806E00B4B1A787B681A763B1C8A
:1059B0000F331B78181CBD4605B090BD300D00207C
:1059C0004C000020640B0020200C00209C0A0020CA
:1059D000C9530000F802002090B583B000AFFB1D52
:1059E00000221A70BB1D00221A702F4B24221A703D
:1059F000FC1D01202D4B9847031C2370FB1D1B78B9
:105A0000002B02D0FB1D1B7849E0294B1978BB1DE8
:105A100001220A401A70BB1D1B78002B3DD0224B7F
:105A200025221A70FC1D0120204B9847031C23706F
:105A3000FB1D1B78002B02D0FB1D1B782FE01C4B9D
:105A40001B781A1C012313405A1E9341DAB2194BDA
:105A50009A76174B1B785B08DBB21A1C01231340A4
:105A60005A1E9341DAB2144B9A76114B1B789B085D
:105A7000DBB21A1C012313405A1E9341DAB20F4BBA
:105A80009A760B4B1B78DB08DBB21A1C0123134000
:105A90005A1E9341DAB20A4B9A76FB1D1B78181CEA
:105AA000BD4603B090BDC0464C000020C953000065
:105AB000F8020020300D0020640B0020200C002094
:105AC0009C0A002080B582B000AF786039603D4B01
:105AD0001B7801225340DBB2002B0CD07A683B6864
