:10000000A830002049A30100CDA30100818901008F
:1000100000000000000000000000000000000000E0
:10002000000000000000000000000000CDA301005F
:100030000000000000000000CDA30100CDA30100DE
:10004000CDA30100CDA30100CDA301001137010014
:10005000E5220100CDA30100CDA30100855E0100D2
:10006000995E0100AD5E0100C15E0100D55E010038
:10007000E95E010051960100659601007996010044
:100080008D960100A1960100B5960100C996010068
:10009000DD96010069170100CDA30100CDA3010089
:1000A00008B5064B064803331B1A062B00D808BDBB
:1000B000044B002BFBD09847F9E7C046E8800200CC
:1000C000E88002000000000008B50748074B1B1A33
:1000D0009B10DA0FD318591000D108BD044A002A2A
:1000E000FBD09047F9E7C046E8800200E8800200B4
:1000F0000000000010B5074C2378002B09D1FFF752
:10010000CFFF054B002B02D0044800E000BF0123C5
:10011000237010BD7002002000000000E880020083
:1001200008B5094B002B03D00848094900E000BF7F
:1001300008480368002B03D0074B002B00D09847DA
:10014000FFF7C2FF08BDC04600000000E8800200C3
:1001500074020020E88002000000000080B500AFBB
:10016000BFF34F8F024B034ADA60BFF34F8FFEE7B6
:1001700000ED00E00400FA0580B500AF024B1B68FB
:10018000181CBD4680BDC046F803002090B587B05E
:1001900002AF021CFB1D1A703B1C0F33FA1D1278B4
:1001A000D2091A703B1C0E33FA1D127852091A70CC
:1001B0001B4BBB603B1C0F331B78002B0ED13B1C31
:1001C0000F331B789B001022D219D318083B1A68F2
:1001D0003B1C0E331B78DB01D3181CE0114B9847F6
:1001E000031C002B0FD00F4B9847011C0E4A6823AD
:1001F000FF330E4800900E480190081C01210D4C61
:10020000A047002307E00C480949074A6823FF3349
:100210000A4CA047FEE7181CBD4605B090BDC0467D
:100220000044004179010000EC3402001C3502005A
:1002300034350200610801003C3502009DC0010018
:1002400080B500AF014B9847BD4680BD5D01000001
:1002500080B582B000AF021CFB1D1A70FB1D1B781D
:10026000181C034B9847031C181CBD4602B080BDE8
:100270008D01000080B584B000AF021CFB1D1A7018
:10028000FB1D1B78181C0C4B9847031CFB60FB1DC7
:100290001A781F2313400122111C99400B1CBB60CC
:1002A000FB681B69BA6813405A1E9341DBB2181CE5
:1002B000BD4604B080BDC0465102000080B584B088
:1002C00000AFF8607A603B1C0B330A1C1A703B1CB1
:1002D0000B331B78002B08D07B68002B02D1064B18
:1002E000FA685A61054B01221A70FE239B05181CFF
:1002F000BD4604B080BDC0460C0A00208C02002020
:1003000080B584B000AFF8607A603B1C0B330A1CE8
:100310001A707B68002B0AD13B1C0B331B78002B17
:1003200002D00A4BFA689A61084B9B6909E03B1CB2
:100330000B331B78002B02D0054BFA689A61044BF3
:100340009B69181CBD4604B080BDC0464009002012
:10035000E808002080B584B000AFF8607A603B1CEC
:100360000B330A1C1A707B68002B0AD13B1C0B3321
:100370001B78002B02D00A4BFA689A62084B9B6AE2
:1003800009E03B1C0B331B78002B02D0054BFA68AD
:100390009A62044B9B6A181CBD4604B080BDC046DF
:1003A00040090020E808002080B584B000AFF86064
:1003B0007A603B1C0B330A1C1A707B68002B0AD135
:1003C0003B1C0B331B78002B02D00A4BFA68DA6215
:1003D000084BDB6A09E03B1C0B331B78002B02D077
:1003E000054BFA68DA62044BDB6A181CBD4604B0A0
:1003F00080BDC04640090020E808002080B584B0D8
:1004000000AFF8607A603B1C0B330A1C1A707B68E3
:10041000002B0AD13B1C0B331B78002B02D00A4B5C
:10042000FA681A63084B1B6B09E03B1C0B331B7803
:10043000002B02D0054BFA681A63044B1B6B181C87
:10044000BD4604B080BDC04640090020E808002039
:1004500080B584B000AFF8607A603B1C0B330A1C97
:100460001A707B68002B0AD13B1C0B331B78002BC6
:1004700002D00A4BFA685A63084B5B6B09E03B1CDD
:100480000B331B78002B02D0054BFA685A63044BE0
:100490005B6B181CBD4604B080BDC04640090020FF
:1004A000E808002080B584B000AFF8607A603B1C9B
:1004B0000B330A1C1A707B68002B0AD13B1C0B33D0
:1004C0001B78002B02D00A4BFA689A63084B9B6B8F
:1004D00009E03B1C0B331B78002B02D0054BFA685C
:1004E0009A63044B9B6B181CBD4604B080BDC0468C
:1004F00040090020E808002080B584B000AFF86013
:100500007A603B1C0B330A1C1A707B68002B16D1D7
:100510003B1C0B331B78002B0ED0164BFA681A6469
:10052000154B164A1A60144B04221A71124B012201
:100530005A71134B01221A700E4B1B6C15E03B1CB9
:100540000B331B78002B0ED00E4BFA681A640A4B43
:100550000D4A1A60084B04221A71074B01225A7186
:10056000074B01221A70074B1B6C181CBD4604B0C8
:1005700080BDC04640090020B80800208009002046
:10058000DC020020E80800202809002080B582B0A5
:1005900000AF78600A1CFB1C1A70FB1C1B78002B38
:1005A00005D0054B78689847021C044B5A617B685C
:1005B000181CBD4602B080BD2D010200E80C0020D1
:1005C00080B582B000AF78600A1CFB1C1A70FB1C5F
:1005D0001B78002B05D0054B78689847021C044B0C
:1005E0005A617B68181CBD4602B080BD2D01020017
:1005F000200B002080B582B000AF78600A1CFB1C85
:100600001A70FB1C1B78002B05D0084B78689847A4
:10061000021C074B5A61064BDA68064B101C9847C0
:10062000031C181CBD4602B080BDC0462D0102004F
:10063000DC0B0020DD0E020080B582B000AF7860D8
:100640000A1CFB1C1A70FB1C1B78002B05D0084BE6
:1006500078689847021C074B5A61064BDA68064BCC
:10066000101C9847031C181CBD4602B080BDC04634
:100670002D010200580A0020DD0E020080B584B072
:1006800000AFF8607A603B1C0B330A1C1A707B6861
:10069000002B0AD13B1C0B331B78002B02D00A4BDA
:1006A000FA685A60084B5B6809E03B1C0B331B7807
:1006B000002B02D0054BFA685A60044B5B68181C8B
:1006C000BD4604B080BDC046E80C0020200B0020D1
:1006D00080B584B000AFF8607A603B1C0B330A1C15
:1006E0001A707B68002B0AD13B1C0B331B78002B44
:1006F00002D00A4BFA689A60084B9B6809E03B1CE1
:100700000B331B78002B02D0054BFA689A60044B20
:100710009B68181CBD4604B080BDC046E80C002094
:10072000200B002080B582B000AF78600A1CFB1C53
:100730001A70054BDA68054B101C9847031C181CEF
:10074000BD4602B080BDC046E80C0020DD0E0200B0
:1007500080B582B000AF78600A1CFB1C1A70054B94
:10076000DA68054B101C9847031C181CBD4602B0E4
:1007700080BDC046200B0020DD0E020080B584B095
:1007800000AFF8607A603B1C0B330A1C1A707B6860
:10079000002B0AD13B1C0B331B78002B02D00A4BD9
:1007A000FA685A62084B5B6A09E03B1C0B331B7802
:1007B000002B02D0054BFA685A62044B5B6A181C86
:1007C000BD4604B080BDC04640090020E8080020B6
:1007D00080B584B000AFF8607A603B1C0B330A1C14
:1007E0001A707B68002B0AD13B1C0B331B78002B43
:1007F00002D00A4BFA681A62084B1B6A09E03B1CDC
:100800000B331B78002B02D0054BFA681A62044B9D
:100810001B6A181CBD4604B080BDC04640090020BC
:10082000E808002080B584B000AFF8607A603B1C17
:100830000B330A1C1A707B68002B06D1054B5A7CBF
:10084000054B101C9847031C00E00023181CBD46F4
:1008500004B080BDE80C0020DD0E020080B584B03D
:1008600000AFF8607A603B1C0B330A1C1A703B1C0B
:100870000B331B78002B09D0074BF8689847021CF4
:10088000064B101C9847021C054B1A60044B1B6852
:10089000181CBD4604B080BD2D010200DD0E020013
:1008A0007400002080B584B000AFF8607A603B1C13
:1008B0000B330A1C1A70034BDB69181CBD4604B0CD
:1008C00080BDC0460C0A002080B584B000AFF8603F
:1008D0007A603B1C0B330A1C1A70034B5B6A181CB2
:1008E000BD4604B080BDC0460C0A002080B584B06F
:1008F00000AFF8607A603B1C0B330A1C1A70034B84
:100900009B6B181CBD4604B080BDC0460C0A00207D
:1009100080B584B000AFF8607A603B1C0B330A1CD2
:100920001A70034BDB6B181CBD4604B080BDC0467B
:100930000C0A002080B584B000AFF8607A603B1CE0
:100940000B330A1C1A70034B1B6C181CBD4604B0F9
:1009500080BDC0460C0A002080B584B000AFF860AE
:100960007A603B1C0B330A1C1A70034B5B6C181C1F
:10097000BD4604B080BDC0460C0A002080B584B0DE
:1009800000AFF8607A603B1C0B330A1C1A70034BF3
:10099000DB69181CBD4604B080BDC046240C002095
:1009A00080B584B000AFF8607A603B1C0B330A1C42
:1009B0001A70034B5B6A181CBD4604B080BDC0466C
:1009C000240C002090B585B000AFF8607A603B1C25
:1009D0000B330A1C1A707B68002B17D13B1C0B339E
:1009E0001B78002B0FD0174BFA681A65164B1B7833
:1009F000022B08D1134B196D124B5A6D114B9B6D85
:100A00001048124CA0470F4B1B6D16E03B1C0B33DC
:100A10001B78002B0FD00E4BFA681A650D4B1B7814
:100A2000022B08D10A4B196D094B5A6D084B9B6D6F
:100A30000748064CA047064B1B6D181CBD4605B069
:100A400090BDC046740C002040090020059F0000A6
:100A5000680B0020E808002090B585B000AFF86072
:100A60007A603B1C0B330A1C1A707B68002B17D171
:100A70003B1C0B331B78002B0FD0174BFA685A65C1
:100A8000164B1B78022B08D1134B196D124B5A6D64
:100A9000114B9B6D1048124CA0470F4B5B6D16E03D
:100AA0003B1C0B331B78002B0FD00E4BFA685A659A
:100AB0000D4B1B78022B08D10A4B196D094B5A6D4F
:100AC000084B9B6D0748064CA047064B5B6D181CF6
:100AD000BD4605B090BDC046740C00204009002002
:100AE000059F0000680B0020E808002090B585B045
:100AF00000AFF8607A603B1C0B330A1C1A707B68ED
:100B0000002B17D13B1C0B331B78002B0FD0174B3E
:100B1000FA689A65164B1B78022B08D1134B196D96
:100B2000124B5A6D114B9B6D1048124CA0470F4B46
:100B30009B6D16E03B1C0B331B78002B0FD00E4B2C
:100B4000FA689A650D4B1B78022B08D10A4B196D78
:100B5000094B5A6D084B9B6D0748064CA047064B46
:100B60009B6D181CBD4605B090BDC046740C00209E
:100B700040090020059F0000680B0020E8080020C5
:100B800090B585B000AFF8607A603B1C0B330A1C4F
:100B90001A707B68002B17D13B1C0B331B78002B82
:100BA0000FD0174BFA68DA65164B1B78032B08D168
:100BB000134BD96D124B1A6E114B5B6E1048124CD1
:100BC000A0470F4BDB6D16E03B1C0B331B78002B53
:100BD0000FD00E4BFA68DA650D4B1B78032B08D14A
:100BE0000A4BD96D094B1A6E084B5B6E0748064CD1
:100BF000A047064BDB6D181CBD4605B090BDC04636
:100C0000740C002040090020059F0000680B0020A4
:100C1000E808002090B585B000AFF8607A603B1C12
:100C20000B330A1C1A707B68002B17D13B1C0B334B
:100C30001B78002B0FD0174BFA681A66164B1B78DF
:100C4000032B08D1134BD96D124B1A6E114B5B6EEF
:100C50001048124CA0470F4B1B6E16E03B1C0B3389
:100C60001B78002B0FD00E4BFA681A660D4B1B78C1
:100C7000032B08D10A4BD96D094B1A6E084B5B6EDA
:100C80000748064CA047064B1B6E181CBD4605B016
:100C900090BDC046740C002040090020059F000054
:100CA000680B0020E808002090B585B000AFF86020
:100CB0007A603B1C0B330A1C1A707B68002B17D11F
:100CC0003B1C0B331B78002B0FD0174BFA685A666E
:100CD000164B1B78032B08D1134BD96D124B1A6E90
:100CE000114B5B6E1048124CA0470F4B5B6E16E029
:100CF0003B1C0B331B78002B0FD00E4BFA685A6647
:100D00000D4B1B78032B08D10A4BD96D094B1A6E7A
:100D1000084B5B6E0748064CA047064B5B6E181CE1
:100D2000BD4605B090BDC046740C002040090020AF
:100D3000059F0000680B0020E808002090B585B0F2
:100D400000AFF8607A603B1C0B330A1C1A707B689A
:100D5000002B17D13B1C0B331B78002B0FD0174BEC
:100D6000FA689A66164B1B78042B08D1134B996EC0
:100D7000124BDA6E114B1B6F1048124CA0470F4BF1
:100D80009B6E16E03B1C0B331B78002B0FD00E4BD9
:100D9000FA689A660D4B1B78042B08D10A4B996EA2
:100DA000094BDA6E084B1B6F0748064CA047064BF1
:100DB0009B6E181CBD4605B090BDC046740C00204B
:100DC00040090020059F0000680B0020E808002073
:100DD00090B585B000AFF8607A603B1C0B330A1CFD
:100DE0001A707B68002B17D13B1C0B331B78002B30
:100DF0000FD0174BFA68DA66164B1B78042B08D114
:100E0000134B996E124BDA6E114B1B6F1048124C3C
:100E1000A0470F4BDB6E16E03B1C0B331B78002BFF
:100E20000FD00E4BFA68DA660D4B1B78042B08D1F5
:100E30000A4B996E094BDA6E084B1B6F0748064C3C
:100E4000A047064BDB6E181CBD4605B090BDC046E2
:100E5000740C002040090020059F0000680B002052
:100E6000E808002090B585B000AFF8607A603B1CC0
:100E70000B330A1C1A707B68002B17D13B1C0B33F9
:100E80001B78002B0FD0174BFA681A67164B1B788C
:100E9000042B08D1134B996E124BDA6E114B1B6F5A
:100EA0001048124CA0470F4B1B6F16E03B1C0B3336
:100EB0001B78002B0FD00E4BFA681A670D4B1B786E
:100EC000042B08D10A4B996E094BDA6E084B1B6F45
:100ED0000748064CA047064B1B6F181CBD4605B0C3
:100EE00090BDC046740C002040090020059F000002
:100EF000680B0020E808002080B584B000AFF860DF
:100F00007A603B1C0B330A1C1A707B68002B0DD1D6
:100F10003B1C0B331B78002B05D00D4BFA685A6035
:100F20000B4BFA689A600A4B5B680CE03B1C0B3376
:100F30001B78002B05D0074BFA685A60054BFA68FE
:100F40009A60044B5B68181CBD4604B080BDC04667
:100F500040090020E808002080B584B000AFF860A8
:100F60007A603B1C0B330A1C1A707B68002B0AD179
:100F70003B1C0B331B78002B02D00A4BFA68DA605B
:100F8000084BDB6809E03B1C0B331B78002B02D0BD
:100F9000054BFA68DA60044BDB68181CBD4604B0E8
:100FA00080BDC04640090020E808002080B584B01C
:100FB00000AFF8607A603B1C0B330A1C1A703B1CB4
:100FC0000B331B78002B0ED00A4BFA685A650A4B7C
:100FD0000A4A1A60084B04221A71074B01225A71FF
:100FE000074B01221A70034B5B6D181CBD4604B001
:100FF00080BDC04640090020B808002094090020A8
:10100000DC02002080B584B000AFF8607A603B1C41
:101010000B330A1C1A707B68002B12D13B1C0B335C
:101020001B78002B06D0124BF8689847031CDAB2E5
:10103000104B1A700F4B1A780F4B101C9847031C5B
:1010400011E03B1C0B331B78002B06D0084BF868D3
:101050009847031CDAB2094B1A70084B1A78064BF2
:10106000101C9847031C181CBD4604B080BDC04628
:101070002D01020040090020DD0E0200E8080020DA
:1010800080B584B000AFF8607A603B1C0B330A1C5B
:101090001A703B1C0B331B78002B02D0044BFA68F0
:1010A0005A61034B5B69181CBD4604B080BDC04645
:1010B0000C0A002080B584B000AFF8607A603B1C59
:1010C0000B330A1C1A703B1C0B331B78002B02D00D
:1010D000044BFA681A65034B1B6D181CBD4604B01F
:1010E00080BDC0464009002080B584B000AFF860E4
:1010F0007A603B1C0B330A1C1A703B1C0B331B78A9
:10110000002B06D0084BF8689847031C9AB2074B8F
:101110001A80064B1A88064B101C9847031C181C93
:10112000BD4604B080BDC0462D0102005401002020
:10113000DD0E020080B584B000AFF8607A603B1C21
:101140000B330A1C1A703B1C0B331B78002B06D088
:10115000084BF8689847031C9AB2074B1A80064B55
:101160001A88064B101C9847031C181CBD4604B077
:1011700080BDC0462D0102002A000020DD0E0200C5
:1011800080B584B000AFF8607A603B1C0B330A1C5A
:101190001A703B1C0B331B78002B06D0084BF868E9
:1011A0009847031C9AB2074B1A80064B1A88064BC5
:1011B000101C9847031C181CBD4604B080BDC046D7
:1011C0002D01020054000020DD0E020080B584B025
:1011D00000AFF8607A603B1C0B330A1C1A703B1C92
:1011E0000B331B78002B0ED00A4BFA681A600A4B9F
:1011F000084A1A60084B04221A71074B01225A71DF
:10120000064B01221A70034B1B68181CBD4604B024
:1012100080BDC0466C010020B8080020DC02002020
:1012200080B584B000AFF8607A603B1C0B330A1CB9
:101230001A703B1C0B331B78002B0ED00A4BFA683C
:101240001A600A4B084A1A60084B04221A71074BAD
:1012500001225A71064B01221A70034B1B68181C9D
:10126000BD4604B080BDC04670010020B808002013
:10127000DC02002080B584B000AFF8607A603B1CCF
:101280000B330A1C1A700023181CBD4604B080BD25
:1012900080B584B000AFF8607A603B1C0B330A1C49
:1012A0001A70054B1A88054B101C9847031C181C14
:1012B000BD4604B080BDC04678010020DD0E0200AE
:1012C00080B584B000AFF8607A603B1C0B330A1C19
:1012D0001A70054B1A88054B101C9847031C181CE4
:1012E000BD4604B080BDC0467A010020DD0E02007C
:1012F00080B584B000AFF8607A603B1C0B330A1CE9
:101300001A70034BDB6A181CBD4604B080BDC04692
:101310000C0A002080B584B000AFF8607A603B1CF6
:101320000B330A1C1A70034BDB6A181CBD4604B051
:1013300080BDC046240C0020F0B5474680B4DEB026
:1013400004AFA32040003B1800221A704621FF3151
:101350007B1800221A700023B2225200D2191360A7
:101360006420FF303B1800221A70B12149007B181D
:1013700000221A70A2225200BB1800221A70012308
:10138000AE204000C01903600023A0214900C91904
:101390000B604622FF32BB18E34A12781A70E34A08
:1013A000E34B101C191CE34B9847031CB220400070
:1013B000C01903600CE1B2214900C9190B68181C5F
:1013C000DD4B9847031CD9B2B1225200BB18B120A3
:1013D00040003A1812788A181A706421FF317B187D
:1013E0001B78002B22D1B2225200D2191368181C8C
:1013F000D14B9847031C391C2431B2204000C0193E
:101400000268081C111C1A1CCC4B9847B2214900D9
:10141000C9190B68181CC84B9847031CC84AB4204C
:101420004000C01982180021D154A4E06421FF318A
:101430007B181B78012B22D1B2225200D2191368DB
:10144000181CBD4B9847031C391C1C31B2204000AE
:10145000C0190268081C111C1A1CB84B9847B2210D
:101460004900C9190B68181CB34B9847031CB54AAF
:10147000B4204000C01982180021D1547BE06421BF
:10148000FF317B181B78022B4ED1B2225200D219A9
:1014900013681B782B2B0ED10123AE204000C019FE
:1014A0000360B2214900C9190B680133B22252000E
:1014B000D219136015E0B2204000C01903681B78F0
:1014C0002D2B0ED101235B42AE214900C9190B60BF
:1014D000B2225200D21913680133B2204000C01961
:1014E0000360B2214900C9190B68181C924B984738
:1014F000031C391C0C31B2204000C0190268081CC2
:10150000111C1A1C8D4B9847B2214900C9190B6850
:10151000181C894B9847031C8B4AB4204000C01903
:1015200082180021D15426E06421FF317B181B78FA
:10153000032B20D1B2225200D2191368181C7E4B03
:101540009847031C391DB2204000C0190268081CCE
:10155000111C1A1C794B9847B2214900C9190B6814
:10156000181C754B9847031C784AB4204000C019DA
:1015700082180021D154B12149007B181B785A1CD4
:101580004620FF303B181B789A420ADA684B00204D
:10159000191C684B9847031CB2214900C9190B60FC
:1015A00004E00023B2225200D21913606420FF30FD
:1015B0003B186421FF317A18127801321A70B12277
:1015C0005200BB18B12040003A18127801321A704C
:1015D000B2214900C9190B68002B00D0EBE63B1C77
:1015E0002433181C00210A22594B9847031C092B4D
:1015F00001D902F0F8F99A00564BD3181B689F46A0
:10160000504BB4225200D219D3181B78303B092B0F
:1016100000D984E39A00504BD3181B689F464A4B6D
:10162000B4204000C019C3181A78A22149007B18C1
:10163000303A511E8A411A70484BA22040003A1895
:1016400012781A70454B1B78002B0CD0444A3D236E
:101650000121D154434A3D230121D154424B181C4E
:10166000424B984761E33E4A3D230021D1543D4A15
:101670003D230021D1543E4B181C3E4B984754E368
:10168000314BB4214900C919CB181A78A220400067
:101690003B18303A511E8A411A70374BA22149003B
:1016A0007A1812781A70A2225200BB181B78002BED
:1016B00004D0324B181C2D4B984736E3304B181C86
:1016C0002A4B984731E33B1C0C33181C00210A229B
:1016D0001F4B9847031C9E204000C01903603B1D10
:1016E000181C00210A221A4B9847031CAC21490000
:1016F000C9190B6000239C225200D21913600023E9
:10170000AA204000C01903609E214900C9190B6836
:10171000092B00D908E39E225200D21913689A00BF
:10172000184BD3181B689F46E00E0020E10E0020E6
:10173000D43502009DC501008DC50100E5BD010045
:10174000BCFEFFFFB4FEFFFFA4FEFFFF9CFEFFFFF9
:10175000D9C70100F83C0200203D02005C030020D4
:1017600040090020E8080020DC35020009C3010020
:10177000F83502009DC001005D0300201436020010
:1017800030360200483D0200BB4BAC204000C0197F
:1017900002689200D358DBB2181CB84B9847031C60
:1017A0009C214900C9190B60B54A9C204000C01912
:1017B0000368101C191CB34B9847F7E0AC21490093
:1017C000C9190B68172B36DCAC225200D2191368EA
:1017D0000B2B0DDD0123AA204000C0190360AC21B2
:1017E0004900C9190B680C3BAC225200D219136096
:1017F000A54BAC204000C01902689200D3580021CC
:10180000AA204000C0190268081C00219847031C48
:10181000A0214900C9190B609C4BA0225200D2198B
:1018200010689847031C0C1C994A101C1A1C231C96
:1018300094498847BAE0B9E0AC204000C019036879
:101840000B2B22DC934BAC214900C9190A6892008A
:10185000D3580021AA204000C0190268081C0021AA
:101860009847031CA0214900C9190B60874BA0228F
:101870005200D21910689847031C0C1C864A101C91
:101880001A1C231C7F49884790E08FE0AC20400061
:10189000C0190368082B22DC804BAC214900C91910
:1018A0000A689200D3580021AA204000C01902689B
:1018B000081C00219847031CA0214900C9190B608E
:1018C000724BA0225200D21910689847031C0C1CBE
:1018D000734A101C1A1C231C6A49884766E065E09D
:1018E000AC204000C01903680F2B2DDCAC2149004F
:1018F000C9190B68062B04DD0123AA225200D21954
:101900001360684BAC204000C01902689200D358A5
:101910000021AA204000C0190268081C0021984735
:10192000031CA0214900C9190B60584BA02252008A
:10193000D21910689847031C0C1C5B4A101C1A1C17
:10194000231C5049884731E030E0AC204000C019EA
:1019500003680B2B22DC554BAC214900C9190A68DE
:101960009200D3580021AA204000C0190268081C28
:1019700000219847031CA0214900C9190B60434B63
:10198000A0225200D21910689847031C0C1C484A28
:10199000101C1A1C231C3B49884707E006E0454BF6
:1019A000181C454B9847454B9847C046BCE1444BF3
:1019B000B4204000C019C3181A78A22149007B182E
:1019C000303A511E8A411A70A2225200BB181B786D
:1019D000002B07D03B4B01221A703B4B181C364B97
:1019E0009847A2E1374B00221A70384B181C324B33
:1019F00098479AE1324BB4204000C019C3181A78B6
:101A0000A22149007B18303A511E8A411A70304B8E
:101A100098478AE12A4BB4225200D219D3181A7877
:101A2000A22040003B18303A511E8A411A70294BBF
:101A3000A22149007A1812781A70264B1B78002BC5
:101A40000CD0254A3D230121D154244A3D230121B4
:101A5000D154234B181C184B984766E11E4A3D236E
:101A60000021D1541D4A3D230021D1541D4B181C87
:101A7000114B984759E1C046E83C0200750200004E
:101A80004C3602009DC00100B4060020812B0200EC
:101A90006036020090050020783602001006002013
:101AA0008C36020034070020A0360200100500200A
:101AB000B4360200C436020009C301000547000025
:101AC000A4FEFFFF5B030020C8360200E0360200E0
:101AD00089B800005C03002040090020E8080020CD
:101AE000F83602001037020000239A225200D21961
:101AF00013603420FF303B1800221A703B1C0C335B
:101B0000181C00210A22E24B9847031CAE21490011
:101B1000C9190A68534396225200D21913603B1D1B
:101B2000181C00210A22DA4B9847031CAE20400003
:101B3000C0190268534394214900C9190B603B1D29
:101B4000181CD44B9847021C3420FF303B181A70E5
:101B5000D14B96214900C919086898478046CE4B59
:101B600094225200D21910689847021CCB4B101CCB
:101B70009847051C0E1C3420FF303B181A78C84BC0
:101B8000101C9847031C0C1CBC4ABB49081C111CA8
:101B90001A1C231CC34CA047031C0C1CC2498C46B6
:101BA000281C311C1A1C231CE047031C0C1CBF4AB8
:101BB000181C211C9047021CBD4B4046111C984725
:101BC000031C9A225200D2191360BA4A4C23D35CE8
:101BD00001225340DBB2002B1DD0B64B9A204000AF
:101BE000C01902681A629A214900C9190B68181CA9
:101BF00001210022B04B9847A84B9A225200D219DB
:101C000010689847031C0C1CAC4A101C1A1C231C9F
:101C1000AB49884789E088E0AA4B181C0021AA4BF1
:101C20009847AA4B181CAA4B9847FA239B00181CEC
:101C3000A84B984779E03B1C0C33181C00210A2262
:101C4000934B9847031CA8204000C0190360924B97
:101C5000A8214900C91908689847011C9E4B1A68B9
:101C60009E4B081C111C9847031C002B0AD09A4B52
:101C70001A689B4B101C9847031CA8225200D219CB
:101C800013600EE0974B1B781A1CA8204000C01967
:101C900003689A4205DB934B1B78A8214900C919B8
:101CA0000B60914BA8225200D21910689847031C70
:101CB0000C1C8E4D181C211C714A724BA847031C2A
:101CC0000C1C8B4D704871491A1C231CA847031C1F
:101CD0000C1C764A181C211C9047031C92204000C3
:101CE000C0190360774B181C0021824B9847824B28
:101CF00092214900C91908689847031C714A101CB1
:101D0000191C7E4B98470A20724B98470DE07C4B7C
:101D10001B787C4A101C191C694B984705E07A4BCC
:101D2000181C6B4B984700E0C04601F05BFE002397
:101D300090225200D21913602020FF303B1800225D
:101D40001A703B1C1C33181C00210A22504B984768
:101D5000031C8C214900C9190B603B1C0C33181C57
:101D600000210A224A4B9847031CAE204000C019AC
:101D7000026853438A214900C9190B603B1D181C96
:101D800000210A22424B9847031CAE204000C01994
:101D90000268534388214900C9190B600023862239
:101DA0005200D21913603B1D181C3A4B9847021C75
:101DB0002020FF303B181A70374B8A214900C9197F
:101DC000086898478046344B88225200D219106820
:101DD0009847021C314B101C9847051C0E1C2020F4
:101DE000FF303B181A782E4B101C9847031C0C1C14
:101DF000224A2149081C111C1A1C231C294CA047EB
:101E0000031C0C1C28498C46281C311C1A1C231C42
:101E1000E047031C0C1C254A181C211C9047021C7F
:101E2000234B4046111C9847031C90225200D219A4
:101E300013608C204000C01903680B2B17DC334B58
:101E40008C214900C9190A689200D3589022520087
:101E5000D219116886204000C0190268081C0121AF
:101E600098472B4B181C1A4B984701F0BBFD01F00B
:101E7000B9FDC046C046C046000000000000244036
:101E8000EC51B81E05DAA74066666666AEAAF84051
:101E9000D9C701008DC50100250E0200812B02006B
:101EA000192B0200E1A60100C5150200252C020035
:101EB0000D020200740C0020BD0200002C3702004D
:101EC0009DC001000C0A002099EF00004837020075
:101ED00009C301002907010074000020D900020095
:101EE000E50D0200560100209D2A0200A51E0200F9
:101EF000C9230200B9EE00002D01020001EF00002D
:101F0000300D0020603702007C37020010050020F1
:101F10008C370200002384214900C9190B60082274
:101F2000FF32BB1800221A703B1C1C33181C002106
:101F30000A22E74B9847031CA6204000C019036003
:101F40003B1C0C33181C00210A22E14B9847031C50
:101F5000AE214900C9190A6853437A1CFF32136045
:101F60003B1D181C00210A22D94B9847031CAE20A8
:101F70004000C01902685343FC21C9190B600023BB
:101F8000A4225200D21913603B1D181CD14B984754
:101F9000021C0820FF303B181A70CF4B791CFF3110
:101FA000086898478046CC4BFC22D21910689847A5
:101FB000021CCA4B101C9847051C0E1C0820FF3041
:101FC0003B181A78C64B101C9847031C0C1CBF4AC0
:101FD000BD49081C111C1A1C231CC24CA047031C21
:101FE0000C1CC1498C46281C311C1A1C231CE047C0
:101FF000031C0C1CBD4A181C211C9047021CBC4B26
:102000004046111C9847031C84225200D2191360C9
:10201000A6204000C0190368172B2BDCA62149001D
:10202000C9190B680B2B0DDD0123A4225200D21914
:102030001360A6204000C01903680C3BA62149008C
:10204000C9190B60AB4BA6204000C0190268920072
:10205000D35884225200D2191168A4204000C0191C
:102060000268081C01219847A34B181CA34B9847F2
:1020700001F0B8FC01F0B6FC0023F821C9190B608F
:102080003B1CF73300221A703B1C1C33181C002128
:102090000A228F4B9847031CF022D21913603B1C75
:1020A0000C33181C00210A22894B9847031CAE20D0
:1020B0004000C01902685343EC21C9190B603B1D55
:1020C000181C00210A22824B9847031CAE204000B6
:1020D000C01902685343E821C9190B600023E422A8
:1020E000D21913603B1D181C7A4B9847021C3B1CED
:1020F000F7331A70784BEC21C91908689847804665
:10210000754BE822D21910689847021C734B101CBB
:102110009847051C0E1C3B1CF7331A78704B101C9B
:102120009847031C0C1C694A6749081C111C1A1C9F
:10213000231C6C4CA047031C0C1C6B488446281CB9
:10214000311C1A1C231CE047031C0C1C674A181C7A
:10215000211C9047021C664B4046111C9847031CEB
:10216000F821C9190B60F022D21913680B2B14DC6B
:10217000634BF020C01902689200D358F822D2199C
:102180001168E420C0190268081C012198475D4BC2
:10219000181C5A4B984701F025FC01F023FC002342
:1021A000E021C9190B603B1CDF3300221A703B1C75
:1021B0001C33181C00210A22454B9847031CD822C7
:1021C000D21913603B1C0C33181C00210A22404B0F
:1021D0009847031CAE204000C01902685343D42125
:1021E000C9190B603B1D181C00210A22384B984767
:1021F000031CAE204000C01902685343D021C91906
:102200000B600023CC22D21913603B1D181C314BEC
:102210009847021C3B1CDF331A702F4BD421C9197D
:102220000868984780462C4BD022D21910689847EE
:10223000021C2A4B101C9847051C0E1C3B1CDF334C
:102240001A78274B101C9847031C0C1C1F4A1E4968
:10225000081C111C1A1C231C224CA047031C0C1C1C
:1022600021488446281C311C1A1C231CE047031CEF
:102270000C1C1E4A181C211C9047021C1C4B40467B
:10228000111C9847031CE021C9190B60D822D219F0
:102290001368082B14DC1C4BD820C019026892006C
:1022A000D358E022D2191168CC20C0190268081C4A
:1022B00001219847154B181C104B984701F092FBD1
:1022C00001F090FBC046C046000000000000244022
:1022D000D9C701008DC50100250E0200812B020027
:1022E000192B0200E1A60100C5150200252C0200F1
:1022F0000D020200B4060020A037020009C301004D
:1023000090050020BC37020010060020D0370200E4
:102310000023C821C9190B603B1CC73300221A7067
:102320003B1C1C33181C00210A22B94B9847031C84
:10233000C022D21913603B1C0C33181C00210A2246
:10234000B34B9847031CAE204000C01902685343AA
:10235000BC21C9190B603B1D181C00210A22AC4B83
:102360009847031CAE204000C01902685343B821AF
:10237000C9190B600023B422D21913603B1D181C2D
:10238000A44B9847021C3B1CC7331A70A24BBC21BC
:10239000C9190868984780469F4BB822D21910681F
:1023A0009847021C9D4B101C9847051C0E1C3B1C9B
:1023B000C7331A789A4B101C9847031C0C1C934A7D
:1023C0009149081C111C1A1C231C964CA047031C85
:1023D0000C1C95488446281C311C1A1C231CE04701
:1023E000031C0C1C914A181C211C9047021C904B8A
:1023F0004046111C9847031CC821C9190B60C02214
:10240000D21913680F2B14DC8A4BC020C019026844
:102410009200D358C822D2191168B420C01902689A
:10242000081C01219847844B181C844B984701F0E5
:10243000D9FA01F0D7FA824BB4214900C919CB1857
:102440001B78303B092B00D994E39A007D4BD318BD
:102450001B689F467C4BB4225200D219D3181A78BD
:10246000A22040003B18303A511E8A411A70A22126
:1024700049007B181B78002B0CD0744A3D230121A6
:10248000D154734A3D230121D154724B181C6B4B1C
:10249000984774E36D4A3D230021D1546C4A3D2393
:1024A0000021D1546C4B181C644B984767E3664B72
:1024B000B4225200D219D3181A78A22040003B1837
:1024C000303A511E8A411A70A22149007B181B78AC
:1024D000002B07D0614B01221A70614B181C574B1F
:1024E00098474CE35D4B00221A705E4B181C534B0F
:1024F000984744E30023B022D21913603B1CAF334A
:1025000000221A703B1C0C33181C00210A22404B7D
:102510009847031CAE204000C01902685343A8210D
:10252000C9190B603B1D181C00210A22384B984723
:10253000031CAE204000C01902685343A421C919EE
:102540000B603B1D181C334B9847021C3B1CAF33E0
:102550001A70314BA822D2191068984780462E4B2A
:10256000A421C91908689847021C2C4B101C9847D5
:10257000051C0E1C3B1CAF331A78294B101C9847C6
:10258000031C0C1C214A2049081C111C1A1C231C6A
:10259000244CA047031C0C1C234A9446281C311CC5
:1025A0001A1C231CE047031C0C1C204A181C211C6D
:1025B0009047021C1E4B4046111C9847031CB0203C
:1025C000C0190360214A3D23D35C002B1AD0264B4F
:1025D000B021C9190A681A62B022D2191368181CEE
:1025E00001210022214B98470C4BB021C9190868E2
:1025F0009847031C0C1C1E4A101C1A1C231C1D4946
:102600008847BCE2BBE2C046000000000000244056
:10261000D9C701008DC50100250E0200812B0200E3
:10262000192B0200E1A60100C5150200252C0200AD
:102630000D02020034070020E837020009C3010040
:10264000B4FEFFFF703D0200A4FEFFFF4009002022
:10265000E80800200038020018380200600300205B
:102660003438020050380200740C0020BD02000013
:102670006C3802009DC001000023A022D219136013
:102680003B1C9F3300221A703B1C0C33181C00218A
:102690000A22C14B9847031CAE204000C0190268B3
:1026A00053439821C9190B603B1D181C00210A22B5
:1026B000B94B9847031CAE204000C0190268534331
:1026C0009421C9190B603B1D181CB44B9847021C80
:1026D0003B1C9F331A70B24B9822D219106898474E
:1026E0008046AF4B9421C91908689847021CAD4B2E
:1026F000101C9847051C0E1C3B1C9F331A78AA4BD4
:10270000101C9847031C0C1CA24AA149081C111C50
:102710001A1C231CA54CA047031C0C1CA44A94465D
:10272000281C311C1A1C231CE047031C0C1CA14A4A
:10273000181C211C9047021C9F4B4046111C9847B7
:10274000031CA020C01903609C4BA021C919086874
:102750009847031C9AB29A4B1A80994B1B88994A46
:10276000101C191C984B9847984B01221A70984BD3
:10277000934A1A60964B02221A71954B01225A71A4
:10278000FDE100239022D21913603B1C8F330022FD
:102790001A703B1C0C33181C00210A227E4B9847F0
:1027A000031CAE204000C019026853438821C91998
:1027B0000B603B1D181C00210A22774B9847031C15
:1027C000AE204000C019026853438421C9190B6030
:1027D0003B1D181C714B9847021C3B1C8F331A7011
:1027E0006F4B8822D2191068984780466C4B842121
:1027F000C91908689847021C6A4B101C9847051CA9
:102800000E1C3B1C8F331A78674B101C9847031C17
:102810000C1C604A5E49081C111C1A1C231C634CCA
:10282000A047031C0C1C624A9446281C311C1A1C2D
:10283000231CE047031C0C1C5E4A181C211C9047FB
:10284000021C5D4B4046111C9847031C9020C01988
:1028500003605A4B9021C91908689847031C9AB223
:102860005C4B1A805B4B1B885B4A101C191C564B37
:102870009847564B01221A70554B564A1A60544BD2
:1028800002221A71524B01225A7178E100238022F0
:10289000D21913603B1C7F3300221A703B1C0C338F
:1028A000181C00210A223C4B9847031CAE20400014
:1028B000C01902685343BB673B1D181C00210A2244
:1028C000354B9847031CAE214900C9190A68534388
:1028D0007B673B1D181C314B9847021C3B1C7F3308
:1028E0001A702F4BB86F984780462D4B786F9847DA
:1028F000021C2C4B101C9847051C0E1C3B1C7F33E4
:102900001A78294B101C9847031C0C1C214A20499B
:10291000081C111C1A1C231C244CA047031C0C1C53
:10292000234A9446281C311C1A1C231CE047031C14
:102930000C1C204A181C211C9047021C1E4B4046B0
:10294000111C9847031C8020C0190360234B1B787F
:10295000002B18D0194B8021C91908689847031C0F
:10296000DBB21F4A101C191C1E4B9847134B8022C8
:10297000D21910689847031CDBB21B4A101C191CA3
:10298000114B9847FBE0194B181C194B9847F6E080
:102990000000000000002440D9C701008DC50100DF
:1029A000250E0200812B0200192B0200E1A6010076
:1029B000C5150200252C02000D0202002D010200A7
:1029C000780100208C3802009DC00100DC0200204C
:1029D000B80800207A010020B0380200600300200F
:1029E000340D00207D690000D4380200F438020064
:1029F00009C3010000233B673B1C6F3300221A70A0
:102A00003B1C0C33181C00210A22E94B9847031C7D
:102A1000AE204000C01902685343BB663B1D181C22
:102A200000210A22E24B9847031CAE214900C91934
:102A30000A6853437B663B1D181CDE4B9847021CFB
:102A40003B1C6F331A70DC4BB86E98478046DA4BEC
:102A5000786E9847021CD94B101C9847051C0E1C19
:102A60003B1C6F331A78D64B101C9847031C0C1C68
:102A7000CE4ACD49081C111C1A1C231CD14CA0475E
:102A8000031C0C1CD04A9446281C311C1A1C231C05
:102A9000E047031C0C1CCD4A181C211C9047021C4B
:102AA000CB4B4046111C9847031C3B67C94B1B7816
:102AB000002B14D0C84B386F9847031CDBB2C74AB1
:102AC000101C191CC64B9847C34B386F9847031C02
:102AD000DBB2C44A101C191CC34B98474FE0C34BD0
:102AE000181CC34B98474AE0C24BB4204000C019A1
:102AF000C3181A78A22149007B18303A511E8A4126
:102B00001A70A2225200BB181B78002B07D0BA4BB8
:102B100001221A70B94B181CB54B98472FE0B64BE1
:102B200000221A70B64B181CB14B984727E0B14BE6
:102B3000B4204000C019C3181A78A22149007B189C
:102B4000303A511E8A411A70A2225200BB181B78DB
:102B5000002B07D0AB4B01221A70AB4B181CA44BB7
:102B600098470CE0A74B00221A70A84B181CA04BEA
:102B7000984704E09D4B181C9D4B9847C04600F0B9
:102B800031FFA34BB4204000C019C3181B78303B61
:102B9000092B00D902E29A009E4BD3181B689F466E
:102BA000944BB4214900C919CB181A78A2204000CF
:102BB0003B18303A511E8A411A70A22149007B18F5
:102BC0001B78002B06D0944B181C894B9847934BCD
:102BD0009847E9E1924B181C854B9847E4E1854BF7
:102BE000B4225200D219D3181A78A22040003B1800
:102BF000303A511E8A411A70A22149007B181B7875
:102C0000002B07D0874B01221A70874B181C784B7A
:102C10009847C9E1834B00221A70844B181C744BEF
:102C20009847C1E1734BB4225200D219D3181A78D5
:102C3000A22040003B18303A511E8A411A707C4B4A
:102C4000A22149007A1812781A70794B1B78002B50
:102C500004D0784B181C664B9847A5E1764B181C9E
:102C6000634B9847A0E1754B1A68544B101C98476A
:102C7000031C0C1C724A101C1A1C231C5A4988473E
:102C800092E1704B1B78704A101C191C564B9847E8
:102C90008AE16E4A6E4B101C191C534B984783E116
:102CA00000233B666B4BB4225200D219D31800228A
:102CB0001A703B1C0C33181C00210A223C4B98470D
:102CC000031CAE204000C01902685343BB653B1D86
:102CD000181C00210A22364B9847031CAE214900DC
:102CE000C9190A6853437B653B1D181C314B984733
:102CF000021C584BB4204000C019C3181A702E4B48
:102D0000B86D984780462C4B786D9847021C2B4B2A
:102D1000101C9847051C0E1C4E4BB4214900C919C4
:102D2000CB181A78264B101C9847031C0C1C1F4A02
:102D30001D49081C111C1A1C231C224CA047031CF3
:102D40000C1C214A9446281C311C1A1C231CE047E9
:102D5000031C0C1C1D4A181C211C9047021C1C4BF8
:102D60004046111C9847031C3B663B4B3A6EDA62A7
:102D7000394BDA6A114B101C9847031C0C1C374A5C
:102D8000101C1A1C231C18498847354B01221A7045
:102D9000344B354A1A60334B04221A71314B0122ED
:102DA0005A7101E1C046C046000000000000244006
:102DB000D9C701008DC50100250E0200812B02003C
:102DC000192B0200E1A60100C5150200252C020006
:102DD0000D020200600300202D010200A00A002065
:102DE0007D690000003902009DC00100F438020036
:102DF00009C30100A4FEFFFF80000020203902006B
:102E0000403902008D020020603902007C39020046
:102E1000B4FEFFFF983D0200983902004102000015
:102E20007C3702005D0300201436020030360200B9
:102E30005F030020AC390200C43902009003002077
:102E4000E039020028030020003A0200203A020084
:102E500048000020F7FEFFFF0C0A0020403A020065
:102E6000DC020020B8080020380A002000233B655F
:102E7000CD4BB4204000C019C31800221A703B1C6F
:102E80000C33181C00210A22C84B9847031CAE21A2
:102E90004900C9190A685343BB643B1D181C002133
:102EA0000A22C24B9847031CAE204000C01902689A
:102EB00053437B643B1D181CBD4B9847021CBA4B07
:102EC000B4214900C919CB181A70BA4BB86C98478D
:102ED0008046B84B786C9847021CB74B101C98473B
:102EE000051C0E1CB04BB4225200D219D3181A780C
:102EF000B24B101C9847031C0C1CAA4AA849081C7A
:102F0000111C1A1C231CAE4CA047031C0C1CAD4802
:102F10008446281C311C1A1C231CE047031C0C1C73
:102F2000A94A181C211C9047021CA84B4046111CA2
:102F30009847031C3B65A64B3A6DDA62A44BDA6AEC
:102F40009D4B101C9847031C0C1CA24A101C1A1CF9
:102F5000231CA1498847A14B01221A70A04BA14A0A
:102F60001A609F4B04221A719D4B01225A711BE07B
:102F70009D4BB4214900C919CB189C4A12781A708C
:102F80009A4B01221A709A4B9847984B964AB42054
:102F90004000C019821812781A7005E0954B181C71
:102FA000954B984700E0C04600F01CFD3B1C0C33DD
:102FB000181C00210A227D4B9847031CFB638F4B92
:102FC000B4214900C919CB181B78303B092B01D912
:102FD00000F0E1FB9A008A4BD3181B689F46002340
:102FE000BB63884BB4225200D219D31800221A7046
:102FF0003B1C0C33181C00210A226C4B9847031C05
:10300000AE204000C01902685343FB633B1D181CEF
:1030100000210A22654B9847031CAE214900C919BB
:103020000A6853433B633B1D181C614B9847021CC5
:10303000744BB4204000C019C3181A705D4BF86B74
:10304000984780465B4B386B9847021C5A4B101CC4
:103050009847051C0E1C6B4BB4214900C919CB18AD
:103060001A78564B101C9847031C0C1C4D4A4C49AF
:10307000081C111C1A1C231C514CA047031C0C1CBF
:10308000504A9446281C311C1A1C231CE047031C80
:103090000C1C4D4A181C211C9047021C4B4B4046EF
:1030A000111C9847031CBB63574BB86B9847031C14
:1030B000DAB2564B1A70554B1B78554A101C191C26
:1030C000454B9847454B01221A70454B4F4A1A60B1
:1030D000434B01221A71424B01225A7160E348208E
:1030E000FF303B1800221A70FBE04821FF317B18AB
:1030F0001B785B00474AB4204000C0198218D35C9B
:103100002F2B0CD94821FF317B181B785B00414ADB
:10311000B4204000C0198218D35C392B19D948213A
:10312000FF317B181B785B003A4AB4204000C0197D
:103130008218D35C402B2CD94821FF317B181B7897
:103140005B00344AB4204000C0198218D35C462B7F
:103150001FD84821FF317B181B785B002D4AB42013
:103160004000C0198218D25C2B4BB4214900C91908
:10317000CB181A704822FF32BB181B785B00013352
:10318000244AB4204000C0198218D35C2F2B47D8A2
:1031900054E0224B181C184B984700F025FCC04601
:1031A0000000000000002440E7FEFFFFD9C7010037
:1031B0008DC50100250E0200812B0200192B020093
:1031C000E1A60100C5150200252C02000D02020037
:1031D000240C00206C3A02009DC00100DC0200209B
:1031E000B8080020500C0020DBFEFFFF8D020020FD
:1031F000553B00007C37020009C30100B4FEFFFF0D
:10320000C03D0200CFFEFFFF2D0102003C00002068
:10321000983A0200A4FEFFFF98FEFFFFB83A0200B2
:103220004821FF317B181B785B000133BD4AB42075
:103230004000C0198218D35C392B1BD94821FF31BB
:103240007B181B785B000133B64AB4204000C019DC
:103250008218D35C402B3ED94821FF317B181B7864
:103260005B000133AF4AB4204000C0198218D35C20
:10327000462B30D84821FF317B181B785B00013387
:10328000A84AB4204000C0198218D25CA64BB421D1
:103290004900C919CB185A70A34BB4225200D21955
:1032A000D31800229A704820FF303B181C783B1C32
:1032B000181C002110229D4B9847031CDAB29C4B2E
:1032C0001A554821FF317B181A784820FF303B18E7
:1032D00001321A7005E0974B181C974B9847C0466F
:1032E00082E34821FF317B181B78052B00D8FCE6D0
:1032F000924B0020191C924B98478D4B1A788F4B9C
:103300001A738B4B5A788D4B5A73894B9A788B4B27
:103310009A73874BDA78894BDA73854B1A79874B26
:103320001A74834B5A79854B5A74844B0020191CAC
:10333000844B9847844B9847844B181C7E4B984786
:10334000834B1B6820221A43814B1A607B4B002061
:10335000191C7B4B98477E4B1B68DBB2DB43DAB210
:10336000764BDA747A4B1B68DA43FF231B02134057
:103370001B0ADAB2714B1A75754B1B68DA43FF23CF
:103380001B0413401B0CDAB26C4B5A756B4B0020BC
:10339000191C6C4B98476C4B984701E2674B022015
:1033A000191C674B98475F4BB4225200D219D318AF
:1033B0001A78624B1A705B4BB4204000C019C318D6
:1033C0005A785E4B5A70574BB4214900C919CB1833
:1033D0009A785A4B9A70534BB4225200D219D31890
:1033E000DA78564BDA704F4BB4204000C019C3183E
:1033F0001A79524B1A714B4BB4214900C919CB1899
:103400005A794E4B5A71474BB4225200D219D318F5
:103410009A794A4B9A71434BB4204000C019C318A3
:10342000DA79464BDA713F4BB4214900C919CB1800
:103430001A7A424B1A723B4BB4225200D219D3185B
:103440005A7A3E4B5A72374BB4204000C019C31809
:103450009A7A3A4B9A72334BB4214900C919CB1866
:10346000DA7A364BDA722F4BB4225200D219D318C3
:103470001A7B324B1A732B4BB4204000C019C3186F
:103480005A7B2E4B5A73274BB4214900C919CB18CC
:103490009A7B2A4B9A73294B0022DA732D4A274BC9
:1034A000111C1A1C0F23081C111C1A1C2A4B9847AC
:1034B000224B0220191C234B9847234B9847274B3C
:1034C000181C1D4B9847224B1B6840221A43204B67
:1034D0001A601A4B0020191C194B98471C4B1B688B
:1034E000DBB2DB43DAB2154BDA74194B1B68DA43F3
:1034F000FF231B0213401B0ADAB2104B1A75144B40
:103500001B68DA43FF231B0413401B0CDAB20B4B7E
:103510005A750A4B0020191C0A4B98470A4B9847CA
:103520003EE1C046A4FEFFFF98FEFFFFD9C70100A1
:10353000E0080020B83A020009C301006408002036
:1035400045A2010025A10100EDA20100C83A020038
:10355000E0020020D0080020E5BD0100E43A0200AE
:10356000D44B0120191CD44B9847D44BB4225200A1
:10357000D219D3181A78CF4B1A70D04BB420400010
:10358000C019C3185A78CB4B5A70CC4BB4214900A0
:10359000C919CB189A78C74B9A70C84BB4225200FD
:1035A000D219D318DA78C34BDA70C44BB420400078
:1035B000C019C3181A79BF4B1A71C04BB421490006
:1035C000C919CB185A79BB4B5A71BC4BB422520063
:1035D000D219D3189A79B74B9A71B84BB4204000DE
:1035E000C019C318DA79B34BDA71B44BB42149006E
:1035F000C919CB181A7AAF4B1A72B04BB4225200C9
:10360000D219D3185A7AAB4B5A72AC4BB420400043
:10361000C019C3189A7AA74B9A72A84BB4214900D3
:10362000C919CB18DA7AA34BDA72A24B00221A73AB
:10363000A34AA04B111C1A1C0D23081C111C1A1C98
:10364000A04B98479B4B0120191C9F4B98479F4BC1
:1036500098479F4B181C9F4B98479F4B1B68802295
:103660001A439D4B1A60934B0020191C924B9847AC
:10367000994B1B68DBB2DB43DAB28E4BDA74964BA4
:103680001B68DA43FF231B0213401B0ADAB2894B83
:103690001A75914B1B68DA43FF231B0413401B0C64
:1036A000DAB2844B5A75834B0020191C864B98471D
:1036B000864B984774E0894B1B78191C874B5B78C5
:1036C0001A1C864B9B788548C078061C8348007975
:1036D000051C82484079041C81480096019502949B
:1036E000804CA0475CE0804A804B101C191C7D4B2D
:1036F000984755E07E4A724B101C191C794B98472D
:103700004EE000207B4B98474AE0FB6BDAB2012386
:103710001340DAB2784B1A70664B0020191C664BC6
:103720009847754B1A78634BDA756B4B1B68802290
:1037300092001A43684B1A60674B1B68DBB2DB438D
:10374000DAB25C4BDA74644B1B68DA43FF231B026A
:1037500013401B0ADAB2574B1A755F4B1B68DA43EA
:10376000FF231B0413401B0CDAB2524B5A75514B0A
:103770000020191C544B9847544B98475F4B181C1A
:10378000544B98470CE05C4B1B785D4A101C191C8D
:10379000544B984704E05B4B181C4E4B9847C0466F
:1037A00021E13B1C0C33181C00210A22564B984780
:1037B000031CFB62554BB4225200D219D3181B785C
:1037C000303B092B00D907E19A00514BD3181B68F5
:1037D0009F46FB6A9AB24F4B1A804E4B1B884E4A4B
:1037E000101C191C3F4B98474C4B01221A704C4B34
:1037F000484A1A604A4B02221A71494B01225A71F7
:10380000EFE0444B1B88474A101C191C354B984766
:10381000E7E0FB6ADAB2444B1A70434B1B78434A29
:10382000101C191C2F4B98473C4B01221A703C4B23
:103830003D4A1A603A4B01221A71394B01225A71E2
:10384000CFE0394B1B783A4A101C191C254B98477E
:10385000C7E0FB6ADAB2374B1A70364B1B78364A30
:10386000101C191C1F4B98472C4B01221A702C4B13
:10387000304A1A602A4B01221A71294B01225A71CF
:10388000AFE02C4B1B782D4A101C191C154B984788
:10389000A7E02B4B00221A802A4B181C0D4B98478F
:1038A0009FE00D4B1B68284A101C191C0D4B9847B4
:1038B00097E0C0466408002045A20100A4FEFFFF77
:1038C000A0080020E5BD010025A10100EDA2010036
:1038D000043B020009C30100E0020020E0080020D0
:1038E000243B02009DC00100483B0200D00800209C
:1038F000603B02003D4A000079000020783B020056
:103900009C3B02007C370200D9C70100B4FEFFFFD8
:10391000E83D0200700C0020B83B0200DC020020F1
:10392000B8080020D83B0200E6080020F43B020063
:10393000143C0200B4080020303C0200543C020059
:1039400026030020743C0200903C0200FB6ADAB2BD
:1039500001231340DAB2274B1A70274B0020191CA1
:10396000264B9847234B1A78234B9A75244B1B6898
:10397000802252001A43224B1A60214B1B68DBB293
:10398000DB43DAB21C4BDA741D4B1B68DA43FF23AE
:103990001B0213401B0ADAB2174B1A75184B1B682F
:1039A000DA43FF231B0413401B0CDAB2124B5A7587
:1039B000114B0020191C134B9847134B9847134B7E
:1039C000181C134B98470CE00A4B1B78114A101C2B
:1039D000191C114B984704E0104B181C0C4B9847CE
:1039E000C046C046C046C046BD465AB004BC90461C
:1039F000F0BDC046780000206408002045A2010008
:103A0000E002002025A10100EDA20100A83C020077
:103A100009C30100CC3C02009DC001007C370200BC
:103A200080B500AF024B1B68181CBD4680BDC04668
:103A3000F803002090B587B002AF021CFB1D1A707E
:103A40003B1C0F33FA1D1278D2091A703B1C0E333F
:103A5000FA1D127852091A701B4BBB603B1C0F33C6
:103A60001B78002B0ED13B1C0F331B789B001022C0
:103A7000D219D318083B1A683B1C0E331B78DB01A4
:103A8000D3181CE0114B9847031C002B0FD00F4B91
:103A90009847011C0E4A6823FF330E4800900E48D9
:103AA0000190081C01210D4CA047002307E00C48A1
:103AB0000949074A6823FF330A4CA047FEE7181C50
:103AC000BD4605B090BDC04600440041213A00000B
:103AD000D4410200044202001C42020061080100BD
:103AE000244202009DC0010080B582B000AF021CDC
:103AF000FB1D1A70FB1D1B78181C034B9847031CF9
:103B0000181CBD4602B080BD353A000080B584B0B7
:103B100000AF021CFB1D1A70FB1D1B78181C0C4B00
:103B20009847031CFB60FB1D1A781F2313400122DA
:103B3000111C99400B1CBB60FB681B69BA681340E1
:103B40005A1E9341DBB2181CBD4604B080BDC0466E
:103B5000E93A0000F0B55F4656464D464446F0B49B
:103B6000BDB010AF234B181C234B9847234B1B7839
:103B700001225340DBB2002B03D0214B181C214BF8
:103B800098471C4BDB8898461A4B1B791E1C194B17
:103B90009B781D1C174B5B781C1C164B1B78AC20AC
:103BA000C0190360184B9847031C18495918A822DC
:103BB000D2191160164B1B88A420C0190360154B45
:103BC0001B789B46144B1B789A46144B1B781A1C87
:103BD000134B9200D1588946124B1A68124B101C95
:103BE00098470A1C011C114B1B78002B22D010484F
:103BF00021E0C046B40D0020E53401008D02002014
:103C00000843020009C30100BDD6000080AEFEFFDC
:103C100026030020300D0020720C002040090020F7
:103C20000000002090030020812B020035030020BB
:103C30000C430200EE48EF4B0094AC24E4192468D6
:103C40000194A824E41924680294A424E4192468A3
:103C500003945C460494544605944C46069408919B
:103C600009920A90181C4146321C2B1CE24CA047BA
:103C7000E24B1B7801225340DBB2002B02D00A201A
:103C8000DF4B9847DF4B1A6CDF4B101C9847041C26
:103C90000D1CDE4B1A6CDC4B101C98479822D21975
:103CA00010605160D74B5A6DD74B101C984790232A
:103CB000DB1918605960D34B5A6BD34B101C9847D3
:103CC0008822D21910605160CE4B9A6BCE4B101CDB
:103CD000984738617961CE499823DB191A685B6887
:103CE000009201939023DB191A685B680292039398
:103CF0008823DB191A685B68049205933A697B692B
:103D000006920793081C221C2B1CBB498847BB4BFF
:103D10001B7801225340DBB2002B02D00A20B84BA3
:103D20009847B84B9A69B84B101C9847041C0D1C57
:103D3000B84B1A68B44B101C9847021C0B1CB649B0
:103D400000920193081C221C2B1CAB498847AD4BE9
:103D50005A68AD4B101C9847031C0C1CAF4A101C32
:103D60001A1C231CA4498847A84B5A68A64B101C50
:103D70009847041C0D1CA34B1A6DA34B101C9847AD
:103D80008023DB19186059609E4BDA689E4B101C2B
:103D90009847B867F9679D4BDA689B4B101C9847AA
:103DA000386779679E4B1A68974B101C98473861A3
:103DB00079619C498023DB191A685B680092019342
:103DC000BA6FFB6F029203933A6F7B6F0492059375
:103DD0003A697B6906920793081C221C2B1C8649B2
:103DE0008847864B1B7801225340DBB2002B02D060
:103DF0000A20834B98478C4B9A6B834B101C984737
:103E0000041C0D1C884B1A6C7F4B101C9847B8661D
:103E1000F966854BDA6B7C4B101C984738667966DF
:103E2000814B5A6C784B101C9847B865F9657E4BEE
:103E30005A69754B101C9847386179617B49BA6E95
:103E4000FB6E009201933A6E7B6E02920393BA6D01
:103E5000FB6D049205933A697B6906920793081CEF
:103E6000221C2B1C644988476F4BDA69664B101C77
:103E70009847041C0D1C6C4B5A6A634B101C9847E6
:103E800038657965684B1A6A5F4B101C9847386132
:103E9000796167493A6D7B6D009201933A697B695C
:103EA00002920393081C221C2B1C53498847614B28
:103EB000DA69554B101C9847041C0D1C5D4B5A6A5F
:103EC000514B101C9847B864F9645A4B1A6A4E4B10
:103ED000101C9847386179615749BA6CFB6C0092A5
:103EE00001933A697B6902920393081C221C2B1CE4
:103EF00041498847414B1B7801225340DBB2002BDC
:103F000002D00A203E4B98474C4B5B7C191C4B4B14
:103F10005A694A482C23C35C1C1C484BDE68474B3B
:103F20009B7E1D1C454BDB7E181C454B0096019566
:103F30000290181C231C304CA047404B9A6B414BFD
:103F4000101C9847031C9BB21C1C3C4B1A6C3D4B2D
:103F5000101C9847031C9BB23B4A101C211C1A1CC6
:103F6000254B9847254B1B7801225340DBB2002B91
:103F700002D00A20224B9847344B5B7C191C334BF0
:103F80005A6932482C23C35C1C1C304BDE682F4B13
:103F90009B7E1D1C2D4BDB7E181C2D4B0096019526
:103FA0000290181C231C144CA047284B9A6B254BDD
:103FB000101C9847031C9BB21C1C244B1A6C214BF1
:103FC000101C9847031C9BB2224A101C211C1A1C6F
:103FD000094B9847094B1B7801225340DBB2002B59
:103FE00002D00A20064B98471B4B5B7C191C35E01E
:103FF000144302001C4302009DC001008D020020FA
:10400000F5C0010040090020812B0200E8080020D3
:104010007443020074010020C0430200D843020030
:1040200040030020E84302000C0A0020284402005C
:1040300060440200240C002080440200E80C0020B0
:10404000A04402002D010200E0440200200B0020E9
:10405000FC4402003C450200DC0B0020DD4B5A69A9
:10406000DC482C23C35CDB48807E051CD948C07E1D
:10407000041CD94800950194D84CA047D84B1B7814
:1040800001225340DBB2002B02D00A20D54B9847C7
:10409000D54B5B7C9846D44B5E69D34A2C23D35CCA
:1040A0001D1CD14BDC68A346CF4B9B7E9A46CE4B62
:1040B000DB7E9946CD4B1A6ACD4B101C9847B860F1
:1040C000F960CC4A1068CC4A1168CC4A5B46009330
:1040D000544601944B460293BB68FC6804930594D4
:1040E00006900791101C4146321C2B1CBB4CA0476C
:1040F000BD4B9A6BC24B101C9847031C9BB21C1CF7
:10410000B94B1A6CBE4B101C9847031C9BB2BD4A9E
:10411000101C211C1A1CB14B9847B14B1B78012273
:104120005340DBB2002B02D00A20AE4B9847B64B6F
:104130009B781A1CB54B9200D658B34B9B78012B39
:1041400004D9B14A2823D35C1D1C04E02E20B04BB7
:104150009847031C1D1CAC4BDA6AA54B101C9847F2
:10416000031C0C1CAB4A00930194101C311C2A1C2C
:104170009A4B9847A84B9B781A1CA44B9200D65890
:10418000A54B9B78012B04D9A34A2823D35C1D1C83
:1041900004E03F209E4B9847031C1D1C9E4BDA6A8F
:1041A000934B101C9847031C0C1C9C4A00930194D1
:1041B000101C311C2A1C894B9847894B1B78012203
:1041C0005340DBB2002B02D00A20864B9847944B19
:1041D0001B7A191C924B5A68924B1B781C1C914BF2
:1041E0005868914B0090181C231C7C4CA0477C4BBA
:1041F0001B7801225340DBB2002B02D00A20794BFE
:1042000098478A4B1A6B7A4B101C9847386479642C
:10421000864B5A6B764B101C9847B863F963834BF7
:104220009A6B734B101C984738637963804B1A6AFA
:104230006F4B101C9847B862F9627C4B1A6D6C4B3F
:10424000101C984738627962784B5A6D684B101C85
:104250009847B861F961754B9A6E654B101C984789
:10426000041C0D1C714BDA6E614B101C98473860B2
:104270007960704B1B78181C6F4BB96BFA6B00910F
:104280000192396B7A6B02910392B96AFA6A0491CE
:104290000592396A7A6A06910792B969FA690891B2
:1042A00009920A940B9539687A680C910D920E90D8
:1042B000181C3A6C7B6C49498847494B1B78012292
:1042C0005340DBB2002B02D00A20464B98475B4B91
:1042D0001B885B4A101C191C404B9847404B1B78AD
:1042E00001225340DBB2002B02D00A203D4B9847FD
:1042F000544B1B7B191C534B1A69524B9B68002B68
:1043000004D0504B9B68504C1B1901E04D4B9B68EF
:104310004C48407B041C4D480094304CA047304B27
:104320001B7801225340DBB2002B02D00A202D4B18
:104330009847474B1B7B191C454B1A69444B9B689C
:10434000002B04D0424B9B683F481B1801E0404BB8
:104350009B683F48407B041C3E4800941F4CA0478C
:104360001F4B1B7801225340DBB2002B02D00A20E6
:104370001C4B9847384B1B7B191C374B1A69364B23
:104380009B68002B04D0344B9B682F4C1B1901E019
:10439000314B9B683048407B041C304800940F4CE4
:1043A000A0470F4B1B7801225340DBB2002B02D0F9
:1043B0000A200C4B98472A4B1B7B191C284B1A6967
:1043C000274B9B68002B4DD0254B9B681E481B1824
:1043D0004AE0C046DC0B0020584502009DC00100A9
:1043E0008D020020F5C00100580A0020AC0A002010
:1043F000812B0200380300203C0300209845020076
:104400002D010200F84502000C0A00201C000020CB
:104410000D3B000014460200240C00204046020020
:10442000340D0020A00A00206C460200740C00200D
:104430004009002050030020B04602008E020020F8
:1044400018470200B407002080AEFEFF2847020094
:10445000000800205C470200EC0700208C470200A7
:10446000D4070020414B9B684048407B041C4048D7
:104470000094404CA047404B1B7801225340DBB2D4
:10448000002B02D00A203D4B98473D4B19683D4B0D
:104490001B881A1C3C4B1C683C4B1E683C4B1D681F
:1044A0003C4B18683C4B009601950290181C231C4D
:1044B000304CA047394B1B78002B01D1384B984723
:1044C0002D4B1B7801225340DBB2002B02D00A2077
:1044D0002A4B9847334A3D23D35C002B03D0324B01
:1044E000181C244B9847314B1B78002B03D0304BC2
:1044F000181C204B98472F4B1B78002B03D02E4BBA
:10450000181C1C4B98472D4B1B78002B03D02C4BB1
:10451000181C184B98472B4B1B78002B03D02A4BA9
:10452000181C144B9847294B1B7801225340DBB2CF
:10453000002B03D0264B181C0E4B9847254B1B789D
:10454000002B03D0244B181C0A4B98470A4B1B78AE
:10455000002B02D00A20094B9847BD462DB03CBC29
:1045600090469946A246AB46F0BDC046D40700200F
:10457000C04702009DC001008D020020F5C001006F
:10458000E802002070000020F0020020EC02002071
:10459000F8020020F4020020EC470200780000201E
:1045A000DD45000040090020384802005C0300207F
:1045B000484802005D0300205848020068010020BE
:1045C000684802005F0300207C4802008000002051
:1045D0008C48020060030020A4480200F0B587B0B8
:1045E00004AF324B1B7801225340DBB2002B02D0C8
:1045F0000A202F4B98472F4B1B88191C2E4B1B88CA
:104600001A1C2E4B1B882E480088051C2D4800883C
:10461000041C2D48009501942C4CA047234B1B787B
:1046200001225340DBB2002B02D00A20204B9847D6
:10463000274B1B88191C274B1B881A1C264B1B88D1
:104640007B6026480088844625480088061C25484B
:104650000088051C24480088041C244863460093F5
:104660000196029503947B68184CA0470F4B1B786A
:1046700001225340DBB2002B02D00A200C4B98479A
:104680001B4B1B881A1C1B4B1B881B49081C111C2D
:104690001A1C0E4B9847194B1B88194A101C191CE1
:1046A0000A4B9847BD4603B0F0BDC0468D020020BE
:1046B000F5C00100540100204403002046030020FF
:1046C000480300204A030020B84802009DC00100B2
:1046D0002A000020AA020020A4020020AC02002030
:1046E000A6020020AE020020A80200200849020015
:1046F00054000020E402002088490200E602002065
:10470000AC490200F0B585B004AF6D4B181C6D4B81
:1047100098476D4A4823D35C1A1C6C4B9200D358BF
:104720006B4A101C191C674B98476A4B1B686A4AF6
:10473000101C191C634B9847684B1B78684A101C67
:10474000191C604B9847674B1B78674A101C191C53
:104750005C4B9847654B1B78654A101C191C594BDC
:104760009847644B1A6C644B101C9847031C0C1C34
:10477000624A101C1A1C231C524988475D4B5A6D13
:104780005D4B101C9847031C0C1C5D4A101C1A1C26
:10479000231C4C4988475B4B1A6C574B101C98479D
:1047A000031C0C1C584A101C1A1C231C4549884722
:1047B000564B1B88564A101C191C424B9847554BA8
:1047C0001B88554A101C191C3E4B98473E4BDA6A11
:1047D000494B101C9847031C0C1C504A101C1A1CF7
:1047E000231C384988474E4BDA6A434B101C9847C4
:1047F000031C0C1C4B4A101C1A1C231C31498847F3
:10480000494B1B78494A101C191C2E4B9847484BA2
:104810001B78484A101C191C2A4B9847464B1A68AB
:10482000354B101C9847031C0C1C444A101C1A1CC6
:10483000231C24498847424B1A682F4B101C984769
:10484000031C0C1C3F4A101C1A1C231C1D498847C2
:104850003D4A3E4B101C191C1A4B98473C4A3D4B95
:10486000101C191C174B98473B4A3C4B101C191C39
:10487000144B98473A4B1B78191C394B5B781A1C20
:10488000374B9B783648C078061C35480079051CA4
:1048900033484079041C3348009601950294094C32
:1048A000A047314B1B781A1C304B1B783049081C31
:1048B000111C1A1C034B9847BD4601B0F0BDC04601
:1048C000C04902009DC001000C0A00205C010020CC
:1048D000E0490200E0020020EC49020078000020DC
:1048E000044A0200790000201C4A02003C0000201B
:1048F000344A020040090020812B02004C4A020089
:10490000644A0200E80800207C4A02007801002086
:10491000944A02007A010020B04A0200CC4A020008
:10492000240C0020EC4A0200E60800200C4B020098
:10493000B4080020244B02006C010020404B020010
:1049400070010020604B0200804B0200A008002094
:10495000944B0200D0080020A84B02004800002021
:10496000E0080020B84B0200300D0020720C00203F
:10497000E04B020080B500AF1E4B181C1E4B984741
:104980001E4B181C1C4B98471D4B1B783C22534355
:104990009BB21C4A101C191C1B4B9847184B182221
:1049A0001A701A4B0C221A70194B00221A80194BDC
:1049B00000221A70184B01221A70184B9847021CDB
:1049C000174B1A60154B9847021C164B1A60164B72
:1049D00000221A60154B00221A60154B1A68154BFD
:1049E000101CFE2189059847031C1A1C124B1A60E3
:1049F000BD4680BD000800203DF50000D407002022
:104A0000E6080020B407002099F40000B408002054
:104A10008E0200209002002028000020BDD6000059
:104A20009C020020A0020020940200209802002096
:104A30006C010020F90A0200E807002090B583B05D
:104A400000AF021CFB1D1A70FB1D1B78002B38D118
:104A50003E4B01221A703E4B181C3E4B98473E4B72
:104A60001B783B4A101C191C3C4B98473C4A3D2381
:104A70000121D1543B4B00225A613B4A4C23002177
:104A8000D1543A4B1B8801339AB2384B1A80384BB9
:104A9000181C384B9847364B9B78191C344B5B7865
:104AA0001A1C334B1B783448344CA047344A304BE3
:104AB000111C1A1C0A23081C111C1A1C314B984784
:104AC00040E0FB1D1B78012B25D1204B00221A70E2
:104AD0001F4B181C1F4B9847214A3D230021D154DE
:104AE000214A4C230121D154214B181C214B9847BA
:104AF0001F4B9B78191C1E4B5B781A1C1C4B1B7898
:104B000021481E4CA047194B1B88204A101C191C19
:104B10001A4B984716E0FB1D1B78022B12D10B4B4A
:104B200000221A700E4A3D230021D1540E4A4C2314
:104B30000121D154064B181C064B9847144B181CE6
:104B40000E4B9847BD4603B090BDC0469002002072
:104B5000000800203DF50000B408002099F4000092
:104B6000400900200C0A0020740C00208E02002056
:104B7000B40D0020E5340100A84C02009DC00100E6
:104B8000C8070020E5BD0100C84C0200E84C020047
:104B9000F84C020080B500AF224B1B78002B3FD0B1
:104BA000214B5B7B002B06D00020204B98471E4BEF
:104BB000181C1F4B98471F4B5B7B002B0CD0012010
:104BC0001A4B98471C4B1B783C2253439BB2164A06
:104BD000101C191C194B9847194B1968194B1A6866
:104BE000194B081C111C9847031C002B10D0114BAB
:104BF0001B7B002B0CD002200C4B98470E4B1B78D4
:104C00003C2253439BB2084A101C191C0B4B98477B
:104C1000054B181C0D4B9847064B181C0B4B98471F
:104C2000BD4680BD28000020B40700203D4A00009A
:104C30003DF5000000080020E608002099F400007F
:104C400074010020E8070020C5000200F1F4000014
:104C500080B500AF024B1B68181CBD4680BDC04626
:104C6000F803002090B585B002AF7860184B9847E4
:104C7000031C002B11D07B68002B19D1144B9847D3
:104C8000011C144AB423FF331348009013480190C9
:104C9000081C0121124CA0470AE07B68002B07D1B9
:104CA00010480E490B4AB423FF330F4CA047FEE7D0
:104CB0007B6800221A707B6802225A707B6800228F
:104CC0009A707B680022DA70BD4603B090BDC04682
:104CD000514C0000104D0200384D0200504D0200B2
:104CE00061080100584D02009DC0010080B582B0EE
:104CF00000AF084B98473B1D181C074B98473B1DBE
:104D000012229A703B1D0020191C044B9847BD4687
:104D100002B080BDB9180100654C0000E91801001F
:104D200080B500AF024B1B68181CBD4680BDC04655
:104D3000F803002090B587B002AF021CFB1D1A706B
:104D40003B1C0F33FA1D1278D2091A703B1C0E332C
:104D5000FA1D127852091A701B4BBB603B1C0F33B3
:104D60001B78002B0ED13B1C0F331B789B001022AD
:104D7000D219D318083B1A683B1C0E331B78DB0191
:104D8000D3181CE0114B9847031C002B0FD00F4B7E
:104D90009847011C0E4A6823FF330E4800900E48C6
:104DA0000190081C01210D4CA047002307E00C488E
:104DB0000949074A6823FF330A4CA047FEE7181C3D
:104DC000BD4605B090BDC04600440041214D0000E5
:104DD000F04D0200204E0200384E02006108010032
:104DE000404E02009DC0010090B585B002AF7860D2
:104DF0001B4B9847031C002B11D07B68002B19D14B
:104E0000174B9847011C174AE8235B00164800908F
:104E100016480190081C0121154CA0470AE07B6848
:104E2000002B07D1134811490E4AE8235B00124CAE
:104E3000A047FEE77B6800221A607B6800225A6068
:104E40007B6801221A727B6801225A727B680022F9
:104E50009A727B680222DA72BD4603B090BDC046EA
:104E6000214D0000644E0200204E02008C4E0200D4
:104E700061080100404E02009DC0010080B582B073
:104E800000AF021CFB1D1A70FB1D1B78181C034B86
:104E90009847031C181CBD4602B080BD354D00006C
:104EA00080B584B000AF021CFB1D1A70FB1D1B787F
:104EB000181C0C4B9847031CFB60FB1D1A781F2322
:104EC00013400122111C99400B1CBB60FB681B6A3C
:104ED000BA6813405A1E9341DBB2181CBD4604B099
:104EE00080BDC0467D4E000080B582B000AF7860C6
:104EF00001200A4B98471B20094B9847031C0122AD
:104F00005340DBB2002B01D0064B9847064B802262
:104F100012021A60BD4602B080BDC046FD06010007
:104F2000A14E00001DF400001018004080B58CB0A8
:104F300000AF3B1C2433181C164B98473B1C2433F2
:104F40001B221A603B1C243300225A603B1C243372
:104F500000229A723B1C24330222DA723B1C243357
:104F600001225A723B1C24330F20191C0A4B98470C
:104F70000A4B98470A4B0B4A1A603B1D01229A7153
:104F80003B1D0122DA713B1D181C074B9847BD469B
:104F90000CB080BDE94D0000851D0100B11C010071
:104FA00010180040FFFF0000E91E010080B500AFAF
:104FB000054B181C0021054B98470F200021044B7E
:104FC0009847BD4680BDC046E94E00000121010062
:104FD0004D22010080B500AF024B1B68181CBD4676
:104FE00080BDC046F803002090B587B002AF021C18
:104FF000FB1D1A703B1C0F33FA1D1278D2091A7070
:105000003B1C0E33FA1D127852091A701B4BBB6001
:105010003B1C0F331B78002B0ED13B1C0F331B782E
:105020009B001022D219D318083B1A683B1C0E3380
:105030001B78DB01D3181CE0114B9847031C002B95
:105040000FD00F4B9847011C0E4A6823FF330E48C0
:1050500000900E480190081C01210D4CA047002330
:1050600007E00C480949074A6823FF330A4CA04768
:10507000FEE7181CBD4605B090BDC0460044004187
:10508000D54F0000084F0200384F0200504F020079
:1050900061080100584F02009DC0010080B582B038
:1050A00000AF021CFB1D1A70FB1D1B78181C034B64
:1050B0009847031C181CBD4602B080BDE94F000094
:1050C00080B584B000AF0A1CFB1D011C1970BB1D0C
:1050D0001A70FB1D1B78181C0D4B9847031CFB60B6
:1050E000FB1D1A781F2313400122111C99400B1C31
:1050F000BB60BB1D1B78002B03D0FB68BA689A61AC
:1051000002E0FB68BA685A61BD4604B080BDC04683
:105110009D50000080B584B000AF3960FB1D011CBC
:105120001970BB1D1A70BB1D1B7801225340DBB2E6
:10513000002B0ED03B1C0F333A68511E8A411A7067
:10514000FB1D1A783B1C0F331B78101C191C034BDA
:1051500098470123181CBD4604B080BDC150000013
:1051600080B586B000AF021CFB1D1A703B1C1733C4
:1051700000221A703B1C143300221A803B1C0C3393
:105180002C221A70FB1D1B789AB23B1C0C335A80E0
:105190003B1C0C33104A5A600DE03B1C14331B8837
:1051A0003A1C1432591C11800A2B04D13B1C1733B2
:1051B00001221A7009E0094A3B1C0C33101C191C0F
:1051C000074B9847031C002BE7D13B1C17331B7878
:1051D000181CBD4606B080BD300000201C08002011
:1051E000B548010080B586B000AF021CFB1D1A70E7
:1051F0003B1C173300221A703B1C143300221A8008
:105200003B1C0C332C221A70FB1D1B789AB23B1CE2
:105210000C335A803B1C0C33214A5A600DE03B1C76
:1052200014331B883A1C1432591C11800A2B04D1E8
:105230003B1C173301221A7009E01A4A3B1C0C333D
:10524000101C191C184B9847031C002BE7D13B1C62
:1052500017331B78002B1CD13B1C143300221A80FF
:105260003B1C0C33114A5A6009E03B1C14331B8869
:105270003A1C1432591C11800A2B00D109E0094A4A
:105280003B1C0C33101C191C094B9847031C002BAA
:10529000EBD13B1C17331B78181CBD4606B080BDF4
:1052A000300000201C080020B5480100D00200207A
:1052B0007546010080B500AF524B00221A700120E4
:1052C000514B98470120504B9847031C002B01D0AD
:1052D000202394E04D4B181C4D4B9847031C002B8A
:1052E00001D020238BE04B4B181C494B9847031CE3
:1052F000002B01D0202382E0474B181C444B9847D9
:10530000031C002B01D0202379E0444B181C404B98
:105310009847031C002B01D0202370E0394B2A2230
:105320001A70384B0B225A700220374B9847031CD7
:10533000002B01D0202362E0324B2B221A70314B1C
:105340000F225A700220304B9847031C002B01D0CB
:10535000202354E02B4B51221A702A4B80225A7082
:105360000220294B9847031C002B01D0202346E044
:10537000244B52221A70234B0B225A700220224BCC
:105380009847031C002B01D0202338E01D4B6222DC
:105390001A701C4B1B225A7002201B4B9847031C8F
:1053A000002B01D020232AE0164B33221A70154B14
:1053B00068225A700220144B9847031C002B01D01E
:1053C00020231CE00F4B43221A700E4B68225A70A8
:1053D00002200D4B9847031C002B01D020230EE028
:1053E000084B63221A70074B68225A700220064B42
:1053F0009847031C002B01D0202300E00023181C39
:10540000BD4680BD3000002061510000E80C002046
:1054100055570000200B0020DC0B0020580A00200C
:1054200080B584B000AF78600A1CFB1C1A703B1C6E
:105430000F3302221A707A681A4B9A4203D11A4B20
:1054400030221A7016E07A68184B9A4203D1164B34
:1054500040221A700EE07A68154B9A4203D1124B23
:1054600050221A7006E07A68124B9A4202D10E4B13
:1054700060221A70FB1C1A78131C1B029A1A0E4B1E
:10548000101C64219847031CDAB2074B5A703B1C6E
:105490000F331B78181C094B9847031C181CBD467A
:1054A00004B080BDE80C002030000020200B00205C
:1054B000DC0B0020580A002039FF01006151000078
:1054C00080B582B000AF78607A681E4B9A4207D1EF
:1054D0001D4B1B78152001211A1C1C4B984722E0FC
:1054E0007A681B4B9A4207D1174B1B781420012175
:1054F0001A1C164B984716E07A68164B9A4207D149
:10550000114B1B78132001211A1C104B98470AE0FD
:105510007A68114B9A4206D10B4B1B782C20012143
:105520001A1C0A4B98477B685B69DBB27A68101CCF
:10553000191C0A4B98477B6801225A74BD4602B079
:1055400080BDC046E80C00205C030020155100001F
:10555000200B0020DC0B0020580A00202154000002
:1055600080B582B000AF78607A681C4B9A4207D150
:105570001B4B1B78152000211A1C1A4B984722E060
:105580007A68194B9A4207D1154B1B7814200021D9
:105590001A1C144B984716E07A68144B9A4207D1AC
:1055A0000F4B1B78132000211A1C0E4B98470AE062
:1055B0007A680F4B9A4206D1094B1B782C200021A8
:1055C0001A1C084B98477B68181C0021094B984708
:1055D0007B6800225A74BD4602B080BDE80C0020F2
:1055E0005C03002015510000200B0020DC0B002084
:1055F000580A00202154000090B585B000AF7860B3
:105600003B1C0F3300221A703B1C0E3300221A7011
:105610003B1C0D3300221A703B1C0A3300221A80F7
:105620007A68424B9A4203D1414B3E221A7016E0EF
:105630007A68404B9A4203D13D4B4E221A700EE0DD
:105640007A683D4B9A4203D1394B5E221A7006E0CC
:105650007A683A4B9A4202D1354B6E221A703C1C42
:105660000F340120364B9847031C23703B1C0F332B
:105670001B78002B03D03B1C0F331B7851E03B1CE5
:105680000E33304A12781A70294B1B780133DAB284
:10569000274B1A703C1C0F340120294B9847031CE0
:1056A00023703B1C0F331B78002B03D03B1C0F33A4
:1056B0001B7836E03B1C0D33224A12781A703B1CD3
:1056C0000E331B789BB25B0199B23B1C0D331B78E8
:1056D000DB08DBB21A1C3B1C0A338A181A807B6871
:1056E0001B7C1A1C131C1B019B1A5B041A1C164BF7
:1056F000101C9847041C3B1C0A331A88124B101CC0
:105700009847021C114B201C111C9847031C1A1CA3
:105710000F4B101C9847021C7B68DA603B1C0F3350
:105720001B78181CBD4605B090BDC046E80C002093
:1057300030000020200B0020DC0B0020580A002045
:10574000E5510000D0020020250E0200E504020011
:105750002D01020090B585B000AF78603B1C0F337F
:1057600000221A707A681C4B9A4203D11B4B3222DA
:105770001A7016E07A681A4B9A4203D1174B4222EC
:105780001A700EE07A68174B9A4203D1134B5222DB
:105790001A7006E07A68144B9A4202D10F4B6222CB
:1057A0001A703C1C0F340120104B9847031C2370C7
:1057B0003B1C0F331B78002B03D03B1C0F331B7893
:1057C00006E00B4B1A787B681A763B1C0F331B786C
:1057D000181CBD4605B090BDE80C0020300000202C
:1057E000200B0020DC0B0020580A0020E5510000AF
:1057F000D002002090B583B000AFFB1D00221A70CC
:10580000BB1D00221A702F4B24221A70FC1D012090
:105810002D4B9847031C2370FB1D1B78002B02D0D7
:10582000FB1D1B7849E0294B1978BB1D01220A405A
:105830001A70BB1D1B78002B3DD0224B25221A70FD
:10584000FC1D0120204B9847031C2370FB1D1B7877
:10585000002B02D0FB1D1B782FE01C4B1B781A1C61
:10586000012313405A1E9341DAB2194B9A76174B13
:105870001B785B08DBB21A1C012313405A1E9341AC
:10588000DAB2144B9A76114B1B789B08DBB21A1CC8
:10589000012313405A1E9341DAB20F4B9A760B4BF9
:1058A0001B78DB08DBB21A1C012313405A1E9341FC
:1058B000DAB20A4B9A76FB1D1B78181CBD4603B062
:1058C00090BDC04630000020E5510000D00200200D
:1058D000E80C0020200B0020DC0B0020580A0020E0
:1058E00080B582B000AF786039603D4B1B780122F3
:1058F0005340DBB2002B0CD07A683B68101C191C9B
:10590000384B9847021C384B101C9847021C7B6888
:105910005A617A68354B9A4235D1354B1B78012252
:105920005340DBB2002B03D12D4B1B78002B2AD028
:105930002E4B5B69002B0BD02C4B5B7C0122534020
:10594000DBB2002B04D0294B181C2A4B98470BE0E4
:10595000264B5B69002B07D1244B5B7C002B03D0CB
:10596000224B181C244B9847204B5B69D9B21F4A25
:105970002C23D1541D4A2C23D35C1C4A101C191C07
:105980001E4B98471BE07B685B69002B0BD07B6844
:105990005B7C01225340DBB2002B04D07B68181CD7
:1059A000144B98470BE07B685B69002B07D17B6841
:1059B0005B7C002B03D07B68181C0F4B98477B68DF
:1059C0005B69D9B27A682C23D1547A682C23D35CD2
:1059D0007A68101C191C094B9847BD4602B080BD5F
:1059E0005F030020295C00002D010200580A0020FE
:1059F00037030020C154000061550000215400000D
:105A000080B584B000AF7860834B5B69BB607B6816
:105A1000DB7E012B16D17B681B7F1A1C7F4B101C71
:105A20009847021C7E4B101CB9689847031C002B3A
:105A300002D07B680222DA763B1C0F337A68927FB1
:105A40001A70E2E07B68DB7E022B29D17B685B7FEA
:105A50001A1C724B101C9847021C724B101CB96820
:105A60009847031C002B03D07B680122DA7610E0F4
:105A70007B68DB7F1A1C694B101C9847021C684B23
:105A8000101CB9689847031C002B02D07B680322C6
:105A9000DA763B1C0F33796821228A5C1A70B4E0F5
:105AA0007B68DB7E032B2BD17A682023D35C1A1C06
:105AB0005A4B101C9847021C5A4B101CB968984747
:105AC000031C002B03D07B680222DA7611E07A688F
:105AD0002223D35C1A1C514B101C9847021C504BBC
