:100000006030002021AA0100A5AA0100599001003A
:1000100000000000000000000000000000000000E0
:10002000000000000000000000000000A5AA010080
:100030000000000000000000A5AA0100A5AA010020
:10004000A5AA0100A5AA0100A5AA0100E93D010099
:10005000BD290100A5AA0100A5AA01005D65010056
:10006000716501008565010099650100AD650100BC
:10007000C1650100299D01003D9D0100519D0100C8
:10008000659D0100799D01008D9D0100A19D0100EC
:10009000B59D0100411E0100A5AA0100A5AA01000D
:1000A00008B5064B064803331B1A062B00D808BDBB
:1000B000044B002BFBD09847F9E7C04600860200AE
:1000C000008602000000000008B50748074B1B1A15
:1000D0009B10DA0FD318591000D108BD044A002A2A
:1000E000FBD09047F9E7C046008602000086020078
:1000F0000000000010B5074C2378002B09D1FFF752
:10010000CFFF054B002B02D0044800E000BF0123C5
:10011000237010BD70020020000000000086020065
:1001200008B5094B002B03D00848094900E000BF7F
:1001300008480368002B03D0074B002B00D09847DA
:10014000FFF7C2FF08BDC0460000000000860200A5
:1001500074020020008602000000000080B500AF9D
:10016000BFF34F8F024B034ADA60BFF34F8FFEE7B6
:1001700000ED00E00400FA0580B500AF024B1B68FB
:10018000181CBD4680BDC046F803002090B587B05E
:1001900002AF021CFB1D1A703B1C0F33FA1D1278B4
:1001A000D2091A703B1C0E33FA1D127852091A70CC
:1001B0001B4BBB603B1C0F331B78002B0ED13B1C31
:1001C0000F331B789B001022D219D318083B1A68F2
:1001D0003B1C0E331B78DB01D3181CE0114B9847F6
:1001E000031C002B0FD00F4B9847011C0E4A6823AD
:1001F000FF330E4800900E480190081C01210D4C61
:10020000A047002307E00C480949074A6823FF3349
:100210000A4CA047FEE7181CBD4605B090BDC0467D
:100220000044004179010000C43B0200F43B02009D
:100230000C3C0200390F0100143C020075C701009C
:1002400080B500AF014B9847BD4680BD5D01000001
:1002500080B582B000AF021CFB1D1A70FB1D1B781D
:10026000181C034B9847031C181CBD4602B080BDE8
:100270008D01000080B584B000AF021CFB1D1A7018
:10028000FB1D1B78181C0C4B9847031CFB60FB1DC7
:100290001A781F2313400122111C99400B1CBB60CC
:1002A000FB681B69BA6813405A1E9341DBB2181CE5
:1002B000BD4604B080BDC0465102000080B584B088
:1002C00000AFF8607A603B1C0B330A1C1A703B1CB1
:1002D0000B331B78002B08D07B68002B02D1064B18
:1002E000FA685A61054B01221A70FE239B05181CFF
:1002F000BD4604B080BDC046C00900208C0200206D
:1003000080B584B000AFF8607A603B1C0B330A1CE8
:100310001A707B68002B0AD13B1C0B331B78002B17
:1003200002D00A4BFA689A61084B9B6909E03B1CB2
:100330000B331B78002B02D0054BFA689A61044BF3
:100340009B69181CBD4604B080BDC046F008002063
:100350009808002080B584B000AFF8607A603B1C3C
:100360000B330A1C1A707B68002B0AD13B1C0B3321
:100370001B78002B02D00A4BFA689A62084B9B6AE2
:1003800009E03B1C0B331B78002B02D0054BFA68AD
:100390009A62044B9B6A181CBD4604B080BDC046DF
:1003A000F00800209808002080B584B000AFF86005
:1003B0007A603B1C0B330A1C1A707B68002B0AD135
:1003C0003B1C0B331B78002B02D00A4BFA68DA6215
:1003D000084BDB6A09E03B1C0B331B78002B02D077
:1003E000054BFA68DA62044BDB6A181CBD4604B0A0
:1003F00080BDC046F00800209808002080B584B079
:1004000000AFF8607A603B1C0B330A1C1A707B68E3
:10041000002B0AD13B1C0B331B78002B02D00A4B5C
:10042000FA681A63084B1B6B09E03B1C0B331B7803
:10043000002B02D0054BFA681A63044B1B6B181C87
:10044000BD4604B080BDC046F008002098080020DA
:1004500080B584B000AFF8607A603B1C0B330A1C97
:100460001A707B68002B0AD13B1C0B331B78002BC6
:1004700002D00A4BFA685A63084B5B6B09E03B1CDD
:100480000B331B78002B02D0054BFA685A63044BE0
:100490005B6B181CBD4604B080BDC046F008002050
:1004A0009808002080B584B000AFF8607A603B1CEB
:1004B0000B330A1C1A707B68002B0AD13B1C0B33D0
:1004C0001B78002B02D00A4BFA689A63084B9B6B8F
:1004D00009E03B1C0B331B78002B02D0054BFA685C
:1004E0009A63044B9B6B181CBD4604B080BDC0468C
:1004F000F00800209808002080B584B000AFF860B4
:100500007A603B1C0B330A1C1A707B68002B16D1D7
:100510003B1C0B331B78002B0ED0164BFA681A6469
:10052000154B164A1A60144B04221A71124B012201
:100530005A71134B01221A700E4B1B6C15E03B1CB9
:100540000B331B78002B0ED00E4BFA681A640A4B43
:100550000D4A1A60084B04221A71074B01225A7186
:10056000074B01221A70074B1B6C181CBD4604B0C8
:1005700080BDC046F0080020680800203009002037
:10058000DC02002098080020D808002080B582B046
:1005900000AF78600A1CFB1C1A70FB1C1B78002B38
:1005A00005D0054B78689847021C044B5A617B685C
:1005B000181CBD4602B080BD050802009C0C00203E
:1005C00080B582B000AF78600A1CFB1C1A70FB1C5F
:1005D0001B78002B05D0054B78689847021C044B0C
:1005E0005A617B68181CBD4602B080BD0508020038
:1005F000D40A002080B582B000AF78600A1CFB1CD2
:100600001A70FB1C1B78002B05D0084B78689847A4
:10061000021C074B5A61064BDA68064B101C9847C0
:10062000031C181CBD4602B080BDC0460508020070
:10063000900B0020B515020080B582B000AF786045
:100640000A1CFB1C1A70FB1C1B78002B05D0084BE6
:1006500078689847021C074B5A61064BDA68064BCC
:10066000101C9847031C181CBD4602B080BDC04634
:10067000050802000C0A0020B515020080B584B000
:1006800000AFF8607A603B1C0B330A1C1A707B6861
:10069000002B0AD13B1C0B331B78002B02D00A4BDA
:1006A000FA685A60084B5B6809E03B1C0B331B7807
:1006B000002B02D0054BFA685A60044B5B68181C8B
:1006C000BD4604B080BDC0469C0C0020D40A00206A
:1006D00080B584B000AFF8607A603B1C0B330A1C15
:1006E0001A707B68002B0AD13B1C0B331B78002B44
:1006F00002D00A4BFA689A60084B9B6809E03B1CE1
:100700000B331B78002B02D0054BFA689A60044B20
:100710009B68181CBD4604B080BDC0469C0C0020E0
:10072000D40A002080B582B000AF78600A1CFB1CA0
:100730001A70054BDA68054B101C9847031C181CEF
:10074000BD4602B080BDC0469C0C0020B51502001D
:1007500080B582B000AF78600A1CFB1C1A70054B94
:10076000DA68054B101C9847031C181CBD4602B0E4
:1007700080BDC046D40A0020B515020080B584B003
:1007800000AFF8607A603B1C0B330A1C1A707B6860
:10079000002B0AD13B1C0B331B78002B02D00A4BD9
:1007A000FA685A62084B5B6A09E03B1C0B331B7802
:1007B000002B02D0054BFA685A62044B5B6A181C86
:1007C000BD4604B080BDC046F00800209808002057
:1007D00080B584B000AFF8607A603B1C0B330A1C14
:1007E0001A707B68002B0AD13B1C0B331B78002B43
:1007F00002D00A4BFA681A62084B1B6A09E03B1CDC
:100800000B331B78002B02D0054BFA681A62044B9D
:100810001B6A181CBD4604B080BDC046F00800200D
:100820009808002080B584B000AFF8607A603B1C67
:100830000B330A1C1A707B68002B06D1054B5A7CBF
:10084000054B101C9847031C00E00023181CBD46F4
:1008500004B080BD9C0C0020B515020080B584B0AA
:1008600000AFF8607A603B1C0B330A1C1A703B1C0B
:100870000B331B78002B09D0074BF8689847021CF4
:10088000064B101C9847021C054B1A60044B1B6852
:10089000181CBD4604B080BD05080200B515020055
:1008A0007400002080B584B000AFF8607A603B1C13
:1008B0000B330A1C1A70034BDB69181CBD4604B0CD
:1008C00080BDC046C009002080B584B000AFF8608C
:1008D0007A603B1C0B330A1C1A70034B5B6A181CB2
:1008E000BD4604B080BDC046C009002080B584B0BC
:1008F00000AFF8607A603B1C0B330A1C1A70034B84
:100900009B6B181CBD4604B080BDC046C0090020CA
:1009100080B584B000AFF8607A603B1C0B330A1CD2
:100920001A70034BDB6B181CBD4604B080BDC0467B
:10093000C009002080B584B000AFF8607A603B1C2D
:100940000B330A1C1A70034B1B6C181CBD4604B0F9
:1009500080BDC046C009002080B584B000AFF860FB
:100960007A603B1C0B330A1C1A70034B5B6C181C1F
:10097000BD4604B080BDC046C009002080B584B02B
:1009800000AFF8607A603B1C0B330A1C1A70034BF3
:10099000DB69181CBD4604B080BDC046D80B0020E2
:1009A00080B584B000AFF8607A603B1C0B330A1C42
:1009B0001A70034B5B6A181CBD4604B080BDC0466C
:1009C000D80B002090B585B000AFF8607A603B1C72
:1009D0000B330A1C1A707B68002B17D13B1C0B339E
:1009E0001B78002B0FD0174BFA681A65164B1B7833
:1009F000022B08D1134B196D124B5A6D114B9B6D85
:100A00001048124CA0470F4B1B6D16E03B1C0B33DC
:100A10001B78002B0FD00E4BFA681A650D4B1B7814
:100A2000022B08D10A4B196D094B5A6D084B9B6D6F
:100A30000748064CA047064B1B6D181CBD4605B069
:100A400090BDC046280C0020F0080020699D0000E1
:100A50001C0B00209808002090B585B000AFF8600E
:100A60007A603B1C0B330A1C1A707B68002B17D171
:100A70003B1C0B331B78002B0FD0174BFA685A65C1
:100A8000164B1B78022B08D1134B196D124B5A6D64
:100A9000114B9B6D1048124CA0470F4B5B6D16E03D
:100AA0003B1C0B331B78002B0FD00E4BFA685A659A
:100AB0000D4B1B78022B08D10A4B196D094B5A6D4F
:100AC000084B9B6D0748064CA047064B5B6D181CF6
:100AD000BD4605B090BDC046280C0020F00800209F
:100AE000699D00001C0B00209808002090B585B07F
:100AF00000AFF8607A603B1C0B330A1C1A707B68ED
:100B0000002B17D13B1C0B331B78002B0FD0174B3E
:100B1000FA689A65164B1B78022B08D1134B196D96
:100B2000124B5A6D114B9B6D1048124CA0470F4B46
:100B30009B6D16E03B1C0B331B78002B0FD00E4B2C
:100B4000FA689A650D4B1B78022B08D10A4B196D78
:100B5000094B5A6D084B9B6D0748064CA047064B46
:100B60009B6D181CBD4605B090BDC046280C0020EA
:100B7000F0080020699D00001C0B00209808002050
:100B800090B585B000AFF8607A603B1C0B330A1C4F
:100B90001A707B68002B17D13B1C0B331B78002B82
:100BA0000FD0174BFA68DA65164B1B78032B08D168
:100BB000134BD96D124B1A6E114B5B6E1048124CD1
:100BC000A0470F4BDB6D16E03B1C0B331B78002B53
:100BD0000FD00E4BFA68DA650D4B1B78032B08D14A
:100BE0000A4BD96D094B1A6E084B5B6E0748064CD1
:100BF000A047064BDB6D181CBD4605B090BDC04636
:100C0000280C0020F0080020699D00001C0B00202B
:100C10009808002090B585B000AFF8607A603B1C62
:100C20000B330A1C1A707B68002B17D13B1C0B334B
:100C30001B78002B0FD0174BFA681A66164B1B78DF
:100C4000032B08D1134BD96D124B1A6E114B5B6EEF
:100C50001048124CA0470F4B1B6E16E03B1C0B3389
:100C60001B78002B0FD00E4BFA681A660D4B1B78C1
:100C7000032B08D10A4BD96D094B1A6E084B5B6EDA
:100C80000748064CA047064B1B6E181CBD4605B016
:100C900090BDC046280C0020F0080020699D00008F
:100CA0001C0B00209808002090B585B000AFF860BC
:100CB0007A603B1C0B330A1C1A707B68002B17D11F
:100CC0003B1C0B331B78002B0FD0174BFA685A666E
:100CD000164B1B78032B08D1134BD96D124B1A6E90
:100CE000114B5B6E1048124CA0470F4B5B6E16E029
:100CF0003B1C0B331B78002B0FD00E4BFA685A6647
:100D00000D4B1B78032B08D10A4BD96D094B1A6E7A
:100D1000084B5B6E0748064CA047064B5B6E181CE1
:100D2000BD4605B090BDC046280C0020F00800204C
:100D3000699D00001C0B00209808002090B585B02C
:100D400000AFF8607A603B1C0B330A1C1A707B689A
:100D5000002B17D13B1C0B331B78002B0FD0174BEC
:100D6000FA689A66164B1B78042B08D1134B996EC0
:100D7000124BDA6E114B1B6F1048124CA0470F4BF1
:100D80009B6E16E03B1C0B331B78002B0FD00E4BD9
:100D9000FA689A660D4B1B78042B08D10A4B996EA2
:100DA000094BDA6E084B1B6F0748064CA047064BF1
:100DB0009B6E181CBD4605B090BDC046280C002097
:100DC000F0080020699D00001C0B002098080020FE
:100DD00090B585B000AFF8607A603B1C0B330A1CFD
:100DE0001A707B68002B17D13B1C0B331B78002B30
:100DF0000FD0174BFA68DA66164B1B78042B08D114
:100E0000134B996E124BDA6E114B1B6F1048124C3C
:100E1000A0470F4BDB6E16E03B1C0B331B78002BFF
:100E20000FD00E4BFA68DA660D4B1B78042B08D1F5
:100E30000A4B996E094BDA6E084B1B6F0748064C3C
:100E4000A047064BDB6E181CBD4605B090BDC046E2
:100E5000280C0020F0080020699D00001C0B0020D9
:100E60009808002090B585B000AFF8607A603B1C10
:100E70000B330A1C1A707B68002B17D13B1C0B33F9
:100E80001B78002B0FD0174BFA681A67164B1B788C
:100E9000042B08D1134B996E124BDA6E114B1B6F5A
:100EA0001048124CA0470F4B1B6F16E03B1C0B3336
:100EB0001B78002B0FD00E4BFA681A670D4B1B786E
:100EC000042B08D10A4B996E094BDA6E084B1B6F45
:100ED0000748064CA047064B1B6F181CBD4605B0C3
:100EE00090BDC046280C0020F0080020699D00003D
:100EF0001C0B00209808002080B584B000AFF8607B
:100F00007A603B1C0B330A1C1A707B68002B0DD1D6
:100F10003B1C0B331B78002B05D00D4BFA685A6035
:100F20000B4BFA689A600A4B5B680CE03B1C0B3376
:100F30001B78002B05D0074BFA685A60054BFA68FE
:100F40009A60044B5B68181CBD4604B080BDC04667
:100F5000F00800209808002080B584B000AFF86049
:100F60007A603B1C0B330A1C1A707B68002B0AD179
:100F70003B1C0B331B78002B02D00A4BFA68DA605B
:100F8000084BDB6809E03B1C0B331B78002B02D0BD
:100F9000054BFA68DA60044BDB68181CBD4604B0E8
:100FA00080BDC046F00800209808002080B584B0BD
:100FB00000AFF8607A603B1C0B330A1C1A703B1CB4
:100FC0000B331B78002B0ED00A4BFA685A650A4B7C
:100FD0000A4A1A60084B04221A71074B01225A71FF
:100FE000074B01221A70034B5B6D181CBD4604B001
:100FF00080BDC046F0080020680800204409002099
:10100000DC02002080B584B000AFF8607A603B1C41
:101010000B330A1C1A707B68002B12D13B1C0B335C
:101020001B78002B06D0124BF8689847031CDAB2E5
:10103000104B1A700F4B1A780F4B101C9847031C5B
:1010400011E03B1C0B331B78002B06D0084BF868D3
:101050009847031CDAB2094B1A70084B1A78064BF2
:10106000101C9847031C181CBD4604B080BDC04628
:1010700005080200F0080020B515020098080020BD
:1010800080B584B000AFF8607A603B1C0B330A1C5B
:101090001A703B1C0B331B78002B02D0044BFA68F0
:1010A0005A61034B5B69181CBD4604B080BDC04645
:1010B000C009002080B584B000AFF8607A603B1CA6
:1010C0000B330A1C1A703B1C0B331B78002B02D00D
:1010D000044BFA681A65034B1B6D181CBD4604B01F
:1010E00080BDC046F008002080B584B000AFF86035
:1010F0007A603B1C0B330A1C1A703B1C0B331B78A9
:10110000002B06D0084BF8689847031C9AB2074B8F
:101110001A80064B1A88064B101C9847031C181C93
:10112000BD4604B080BDC046050802005401002041
:10113000B515020080B584B000AFF8607A603B1C42
:101140000B330A1C1A703B1C0B331B78002B06D088
:10115000084BF8689847031C9AB2074B1A80064B55
:101160001A88064B101C9847031C181CBD4604B077
:1011700080BDC046050802002A000020B515020007
:1011800080B584B000AFF8607A603B1C0B330A1C5A
:101190001A703B1C0B331B78002B06D0084BF868E9
:1011A0009847031C9AB2074B1A80064B1A88064BC5
:1011B000101C9847031C181CBD4604B080BDC046D7
:1011C0000508020054000020B515020080B584B067
:1011D00000AFF8607A603B1C0B330A1C1A703B1C92
:1011E0000B331B78002B0ED00A4BFA681A600A4B9F
:1011F000084A1A60084B04221A71074B01225A71DF
:10120000064B01221A70034B1B68181CBD4604B024
:1012100080BDC0466C01002068080020DC02002070
:1012200080B584B000AFF8607A603B1C0B330A1CB9
:101230001A703B1C0B331B78002B0ED00A4BFA683C
:101240001A600A4B084A1A60084B04221A71074BAD
:1012500001225A71064B01221A70034B1B68181C9D
:10126000BD4604B080BDC046700100206808002063
:10127000DC02002080B584B000AFF8607A603B1CCF
:101280000B330A1C1A700023181CBD4604B080BD25
:1012900080B584B000AFF8607A603B1C0B330A1C49
:1012A0001A70054B1A88054B101C9847031C181C14
:1012B000BD4604B080BDC04678010020B5150200CF
:1012C00080B584B000AFF8607A603B1C0B330A1C19
:1012D0001A70054B1A88054B101C9847031C181CE4
:1012E000BD4604B080BDC0467A010020B51502009D
:1012F00080B584B000AFF8607A603B1C0B330A1CE9
:101300001A70034BDB6A181CBD4604B080BDC04692
:10131000C009002080B584B000AFF8607A603B1C43
:101320000B330A1C1A70034BDB6A181CBD4604B051
:1013300080BDC046D80B0020F0B5474680B4DEB073
:1013400004AFA32040003B1800221A704621FF3151
:101350007B1800221A700023B2225200D2191360A7
:101360006420FF303B1800221A70B12149007B181D
:1013700000221A70A2225200BB1800221A70012308
:10138000AE204000C01903600023A0214900C91904
:101390000B604622FF32BB18E44A12781A70E44A06
:1013A000E44B101C191CE44B9847031CB22040006E
:1013B000C01903600DE1B2214900C9190B68181C5E
:1013C000DE4B9847031CD9B2B1225200BB18B120A2
:1013D00040003A1812788A181A706421FF317B187D
:1013E0001B78002B22D1B2225200D2191368181C8C
:1013F000D24B9847031C391C2831B2204000C01939
:101400000268081C111C1A1CCD4B9847B2214900D8
:10141000C9190B68181CC94B9847031CC94AB4204A
:101420004000C01982180021D154A5E06421FF3189
:101430007B181B78012B22D1B2225200D2191368DB
:10144000181CBE4B9847031C391C2031B2204000A9
:10145000C0190268081C111C1A1CB94B9847B2210C
:101460004900C9190B68181CB44B9847031CB64AAD
:10147000B4204000C01982180021D1547CE06421BE
:10148000FF317B181B78022B4ED1B2225200D219A9
:1014900013681B782B2B0ED10123AE204000C019FE
:1014A0000360B2214900C9190B680133B22252000E
:1014B000D219136015E0B2204000C01903681B78F0
:1014C0002D2B0ED101235B42AE214900C9190B60BF
:1014D000B2225200D21913680133B2204000C01961
:1014E0000360B2214900C9190B68181C934B984737
:1014F000031C391C1031B2204000C0190268081CBE
:10150000111C1A1C8E4B9847B2214900C9190B684F
:10151000181C8A4B9847031C8C4AB4204000C01901
:1015200082180021D15427E06421FF317B181B78F9
:10153000032B21D1B2225200D2191368181C7F4B01
:101540009847031C391C0831B2204000C0190268BA
:10155000081C111C1A1C7A4B9847B2214900C91962
:101560000B68181C754B9847031C794AB42040003F
:10157000C01982180021D154B12149007B181B7871
:101580005A1C4620FF303B181B789A420ADA694BF6
:101590000020191C684B9847031CB2214900C91947
:1015A0000B6004E00023B2225200D21913606420C1
:1015B000FF303B186421FF317A18127801321A701B
:1015C000B1225200BB18B12040003A181278013203
:1015D0001A70B2214900C9190B68002B00D0EAE645
:1015E0003B1C2833181C00210A225A4B9847031C25
:1015F000092B01D902F0F9F99A00574BD3181B684F
:101600009F46514BB4225200D219D3181B78303B5D
:10161000092B00D987E39A00504BD3181B689F46CB
:101620004A4BB4204000C019C3181A78A2214900BF
:101630007B18303A511E8A411A70494BA220400053
:101640003A1812781A70464B1B78002B0CD0454A7A
:101650003D230121D154444A3D230121D154434B20
:10166000181C434B984764E33E4A3D230021D15464
:101670003D4A3D230021D1543E4B181C3E4B984718
:1016800057E3324BB4214900C919CB181A78A2206C
:1016900040003B18303A511E8A411A70374BA22144
:1016A00049007A1812781A70A2225200BB181B78CF
:1016B000002B04D0324B181C2D4B984739E3314B8B
:1016C000181C2B4B984734E33B1C1033181C00218B
:1016D0000A22204B9847031C9E204000C01903603B
:1016E0003B1C0833181C00210A221A4B9847031C84
:1016F000AC214900C9190B6000239C225200D21969
:1017000013600023AA204000C01903609E214900F5
:10171000C9190B68092B00D90AE39E225200D2197D
:1017200013689A00184BD3181B689F46940E00202C
:10173000950E0020AC3C020075CC010065CC010088
:10174000BDC40100C0FEFFFFB8FEFFFFA8FEFFFF03
:10175000A0FEFFFFB1CE0100D8430200004402000A
:101760005C030020F008002098080020B43C020030
:10177000E1C90100D03C020075C701005D030020F3
:10178000EC3C0200083D020028440200BB4BAC20A8
:101790004000C01902689200D358DBB2181CB84B45
:1017A0009847031C9C214900C9190B60B54A9C202D
:1017B0004000C0190368101C191CB34B9847F7E090
:1017C000AC214900C9190B68172B36DCAC2252003A
:1017D000D21913680B2B0DDD0123AA204000C0197C
:1017E0000360AC214900C9190B680C3BAC225200C4
:1017F000D2191360A54BAC204000C01902689200BA
:10180000D3580021AA204000C0190268081C0021FA
:101810009847031CA0214900C9190B609C4BA022CA
:101820005200D21910689847031C0C1C994A101CCE
:101830001A1C231C94498847BAE0B9E0AC20400048
:10184000C01903680B2B22DC934BAC214900C9194A
:101850000A689200D3580021AA204000C0190268EB
:10186000081C00219847031CA0214900C9190B60DE
:10187000874BA0225200D21910689847031C0C1CF9
:10188000864A101C1A1C231C7F49884790E08FE071
:10189000AC204000C0190368082B22DC804BAC212F
:1018A0004900C9190A689200D3580021AA204000B3
:1018B000C0190268081C00219847031CA021490098
:1018C000C9190B60724BA0225200D21910689847B8
:1018D000031C0C1C734A101C1A1C231C6A498847E1
:1018E00066E065E0AC204000C01903680F2B2DDCDA
:1018F000AC214900C9190B68062B04DD0123AA227B
:101900005200D2191360684BAC204000C019026825
:101910009200D3580021AA204000C0190268081C78
:1019200000219847031CA0214900C9190B60584B9E
:10193000A0225200D21910689847031C0C1C5B4A65
:10194000101C1A1C231C5049884731E030E0AC20A1
:101950004000C01903680B2B22DC554BAC21490019
:10196000C9190A689200D3580021AA204000C01962
:101970000268081C00219847031CA0214900C919CE
:101980000B60434BA0225200D21910689847031CE9
:101990000C1C484A101C1A1C231C3B49884707E0B2
:1019A00006E0454B181C454B9847454B9847C046A9
:1019B000BEE1444BB4204000C019C3181A78A221DC
:1019C00049007B18303A511E8A411A70A2225200F7
:1019D000BB181B78002B07D03B4B01221A703B4BE6
:1019E000181C364B9847A4E1374B00221A70384B2D
:1019F000181C324B98479CE1324BB4204000C01970
:101A0000C3181A78A22149007B18303A511E8A4126
:101A10001A70304B98478CE12A4BB4225200D219ED
:101A2000D3181A78A22040003B18303A511E8A4140
:101A30001A70294BA22149007A1812781A70264B85
:101A40001B78002B0CD0254A3D230121D154244A78
:101A50003D230121D154234B181C184B984768E1B2
:101A60001E4A3D230021D1541D4A3D230021D1545B
:101A70001D4B181C114B98475BE1C046C843020040
:101A800075020000243D020075C70100B406002065
:101A900059320200383D020090050020503D0200FE
:101AA00010060020643D020034070020783D02004B
:101AB000100500208C3D02009C3D0200E1C90100A0
:101AC00081450000A8FEFFFF5B030020A03D02004F
:101AD000B83D0200F1B600005C030020F0080020D1
:101AE00098080020D03D0200E83D020000239A2221
:101AF0005200D21913603420FF303B1800221A70B4
:101B00003B1C1033181C00210A22E34B9847031C8E
:101B1000AE214900C9190A68534396225200D219CE
:101B200013603B1C0833181C00210A22DA4B98472B
:101B3000031CAE204000C0190268534394214900A1
:101B4000C9190B603B1C0833181CD44B9847021C66
:101B50003420FF303B181A70D14B96214900C91927
:101B6000086898478046CE4B94225200D2191068DC
:101B70009847021CCB4B101C9847051C0E1C3420A8
:101B8000FF303B181A78C84B101C9847031C0C1CDC
:101B9000BC4ABB49081C111C1A1C231CC34CA0477F
:101BA000031C0C1CC2498C46281C311C1A1C231C0B
:101BB000E047031C0C1CBF4A181C211C9047021C48
:101BC000BD4B4046111C9847031C9A225200D21963
:101BD0001360BA4A4C23D35C01225340DBB2002B82
:101BE0001DD0B64B9A204000C01902681A629A2193
:101BF0004900C9190B68181C01210022B04B9847F5
:101C0000A84B9A225200D21910689847031C0C1C4A
:101C1000AC4A101C1A1C231CAB49884789E088E099
:101C2000AA4B181C0021AA4B9847AA4B181CAA4B78
:101C30009847FA239B00181CA84B984779E03B1C57
:101C40001033181C00210A22934B9847031CA8202C
:101C50004000C0190360924BA8214900C9190868C7
:101C60009847011C9E4B1A689E4B081C111C9847F4
:101C7000031C002B0AD09A4B1A689B4B101C9847E8
:101C8000031CA8225200D21913600EE0974B1B7858
:101C90001A1CA8204000C01903689A4205DB934B28
:101CA0001B78A8214900C9190B60914BA82252004A
:101CB000D21910689847031C0C1C8E4D181C211C4F
:101CC000714A724BA847031C0C1C8B4D704871491C
:101CD0001A1C231CA847031C0C1C764A181C211C28
:101CE0009047031C92204000C0190360774B181CDA
:101CF0000021824B9847824B92214900C9190868FC
:101D00009847031C714A101C191C7E4B98470A20E7
:101D1000724B98470DE07C4B1B787C4A101C191CB9
:101D2000694B984705E07A4B181C6B4B984700E0CD
:101D3000C04601F059FE002390225200D2191360D0
:101D40002020FF303B1800221A703B1C2033181C47
:101D500000210A22504B9847031C8C214900C919C5
:101D60000B603B1C1033181C00210A224A4B984779
:101D7000031CAE204000C019026853438A21490069
:101D8000C9190B603B1C0833181C00210A22424B66
:101D90009847031CAE204000C019026853438821B5
:101DA0004900C9190B60002386225200D219136022
:101DB0003B1C0833181C394B9847021C2020FF306D
:101DC0003B181A70364B8A214900C9190868984790
:101DD0008046334B88225200D21910689847021C63
:101DE000304B101C9847051C0E1C2020FF303B1860
:101DF0001A782D4B101C9847031C0C1C214A2049B3
:101E0000081C111C1A1C231C284CA047031C0C1C6A
:101E100027498C46281C311C1A1C231CE047031C34
:101E20000C1C244A181C211C9047021C224B4046C3
:101E3000111C9847031C90225200D21913608C2069
:101E40004000C01903680B2B17DC324B8C21490072
:101E5000C9190A689200D35890225200D219116809
:101E600086204000C0190268081C012198472A4BAF
:101E7000181C194B984701F0B7FD01F0B5FDC0469D
:101E80000000000000002440EC51B81E05DAA74015
:101E900066666666AEAAF840B1CE010065CC010068
:101EA000FD14020059320200F1310200B9AD010007
:101EB0009D1C0200FD320200E5080200280C0020F3
:101EC000BD020000043E020075C70100C0090020E9
:101ED00045F60000203E0200E1C90100010E0100AC
:101EE00074000020B1070200BD140200560100205A
:101EF000753102007D250200A12A020065F500006F
:101F000005080200ADF50000E40C0020383E020098
:101F1000543E020010050020643E0200002384218C
:101F20004900C9190B600822FF32BB1800221A7041
:101F30003B1C2033181C00210A22E94B9847031C44
:101F4000A6204000C01903603B1C1033181C002160
:101F50000A22E34B9847031CAE214900C9190A68BD
:101F600053437A1CFF3213603B1C0833181C0021BA
:101F70000A22DB4B9847031CAE204000C0190268C0
:101F80005343FC21C9190B600023A4225200D2192B
:101F900013603B1C0833181CD24B9847021C0820C6
:101FA000FF303B181A70D04B791CFF3108689847F6
:101FB0008046CD4BFC22D21910689847021CCB4BAF
:101FC000101C9847051C0E1C0820FF303B181A787F
:101FD000C74B101C9847031C0C1CC04ABE49081C68
:101FE000111C1A1C231CC34CA047031C0C1CC24907
:101FF0008C46281C311C1A1C231CE047031C0C1C9B
:10200000BE4A181C211C9047021CBD4B4046111CA7
:102010009847031C84225200D2191360A620400066
:10202000C0190368172B2BDCA6214900C9190B68BE
:102030000B2B0DDD0123A4225200D2191360A62020
:102040004000C01903680C3BA6214900C9190B6068
:10205000AC4BA6204000C01902689200D3588422DD
:102060005200D2191168A4204000C0190268081C4F
:1020700001219847A44B181CA44B984701F0B4FCCD
:1020800001F0B2FC0023F821C9190B603B1CF733A7
:1020900000221A703B1C2033181C00210A22904B8E
:1020A0009847031CF022D21913603B1C1033181CF4
:1020B00000210A228A4B9847031CAE204000C01919
:1020C00002685343EC21C9190B603B1C0833181CF0
:1020D00000210A22824B9847031CAE204000C01901
:1020E00002685343E821C9190B600023E422D21986
:1020F00013603B1C0833181C7A4B9847021C3B1C8E
:10210000F7331A70784BEC21C91908689847804654
:10211000754BE822D21910689847021C734B101CAB
:102120009847051C0E1C3B1CF7331A78704B101C8B
:102130009847031C0C1C694A6749081C111C1A1C8F
:10214000231C6C4CA047031C0C1C6B488446281CA9
:10215000311C1A1C231CE047031C0C1C674A181C6A
:10216000211C9047021C664B4046111C9847031CDB
:10217000F821C9190B60F022D21913680B2B14DC5B
:10218000634BF020C01902689200D358F822D2198C
:102190001168E420C0190268081C012198475D4BB2
:1021A000181C5A4B984701F01FFC01F01DFC00233E
:1021B000E021C9190B603B1CDF3300221A703B1C65
:1021C0002033181C00210A22454B9847031CD822B3
:1021D000D21913603B1C1033181C00210A22404BFB
:1021E0009847031CAE204000C01902685343D42115
:1021F000C9190B603B1C0833181C00210A22384BFC
:102200009847031CAE204000C01902685343D021F8
:10221000C9190B600023CC22D21913603B1C083370
:10222000181C304B9847021C3B1CDF331A702E4B96
:10223000D421C9190868984780462B4BD022D2195F
:1022400010689847021C294B101C9847051C0E1C4F
:102250003B1CDF331A78264B101C9847031C0C1CC0
:102260001E4A1D49081C111C1A1C231C214CA04786
:10227000031C0C1C20488446281C311C1A1C231CDF
:10228000E047031C0C1C1D4A181C211C9047021C13
:102290001B4B4046111C9847031CE021C9190B60D9
:1022A000D822D2191368082B14DC1B4BD820C01974
:1022B00002689200D358E022D2191168CC20C019CC
:1022C0000268081C01219847144B181C0F4B9847B3
:1022D00001F08AFB01F088FB0000000000002440B0
:1022E000B1CE010065CC0100FD140200593202009C
:1022F000F1310200B9AD01009D1C0200FD32020067
:10230000E5080200B4060020783E0200E1C90100A1
:1023100090050020943E020010060020A83E020016
:102320000023C821C9190B603B1CC73300221A7057
:102330003B1C2033181C00210A22BB4B9847031C6E
:10234000C022D21913603B1C1033181C00210A2232
:10235000B54B9847031CAE204000C0190268534398
:10236000BC21C9190B603B1C0833181C00210A2230
:10237000AD4B9847031CAE204000C0190268534380
:10238000B821C9190B600023B422D21913603B1C79
:102390000833181CA54B9847021C3B1CC7331A7006
:1023A000A34BBC21C919086898478046A04BB822A6
:1023B000D21910689847021C9E4B101C9847051CA8
:1023C0000E1C3B1CC7331A789B4B101C9847031CF0
:1023D0000C1C944A9249081C111C1A1C231C974C73
:1023E000A047031C0C1C96488446281C311C1A1C50
:1023F000231CE047031C0C1C924A181C211C90470C
:10240000021C914B4046111C9847031CC821C91956
:102410000B60C022D21913680F2B14DC8B4BC02029
:10242000C01902689200D358C822D2191168B4208A
:10243000C0190268081C01219847854B181C854B60
:10244000984701F0D1FA01F0CFFA834BB42149004B
:10245000C919CB181B78303B092B00D9A0E39A008F
:102460007E4BD3181B689F467D4BB4225200D21975
:10247000D3181A78A22040003B18303A511E8A41E6
:102480001A70A22149007B181B78002B0CD0754ACA
:102490003D230121D154744A3D230121D154734B72
:1024A000181C6C4B984780E36E4A3D230021D154A1
:1024B0006D4A3D230021D1546D4B181C654B984744
:1024C00073E3674BB4225200D219D3181A78A220B2
:1024D00040003B18303A511E8A411A70A22149002F
:1024E0007B181B78002B07D0624B01221A70624BBD
:1024F000181C584B984758E35E4B00221A705F4BEC
:10250000181C544B984750E30023B022D219136093
:102510003B1CAF3300221A703B1C1033181C0021E7
:102520000A22414B9847031CAE204000C0190268A4
:102530005343A821C9190B603B1C0833181C002108
:102540000A22394B9847031CAE204000C01902688C
:102550005343A421C9190B603B1C0833181C334B8F
:102560009847021C3B1CAF331A70314BA822D2197A
:102570001068984780462E4BA421C91908689847CF
:10258000021C2C4B101C9847051C0E1C3B1CAF3327
:102590001A78294B101C9847031C0C1C214A20490F
:1025A000081C111C1A1C231C244CA047031C0C1CC7
:1025B000234A9446281C311C1A1C231CE047031C88
:1025C0000C1C204A181C211C9047021C1E4B404624
:1025D000111C9847031CB020C0190360214A3D23F9
:1025E000D35C002B1AD0264BB021C9190A681A6295
:1025F000B022D2191368181C01210022214B9847E0
:102600000C4BB021C91908689847031C0C1C1E4AC2
:10261000101C1A1C231C1D498847C6E2C5E2C0468F
:102620000000000000002440B1CE010065CC010094
:10263000FD14020059320200F1310200B9AD01006F
:102640009D1C0200FD320200E50802003407002054
:10265000C03E0200E1C90100B8FEFFFF5044020085
:10266000A8FEFFFFF008002098080020D83E0200D6
:10267000F03E0200600300200C3F0200283F0200F1
:10268000280C0020BD020000443F020075C7010075
:102690000023A022D21913603B1C9F3300221A7022
:1026A0003B1C1033181C00210A22C54B9847031C01
:1026B000AE204000C019026853439821C9190B602D
:1026C0003B1C0833181C00210A22BD4B9847031CF1
:1026D000AE204000C019026853439421C9190B6011
:1026E0003B1C0833181CB74B9847021C3B1C9F33FC
:1026F0001A70B54B9822D219106898478046B24B91
:102700009421C91908689847021CB04B101C9847BF
:10271000051C0E1C3B1C9F331A78AD4B101C9847B0
:10272000031C0C1CA54AA449081C111C1A1C231CC0
:10273000A84CA047031C0C1CA74A9446281C311C1B
:102740001A1C231CE047031C0C1CA44A181C211C47
:102750009047021CA24B4046111C9847031CA02026
:10276000C01903609F4BA021C91908689847031C32
:102770009AB29D4B1A809C4B1B889C4A101C191CBA
:102780009B4B98479B4B01221A709B4B964A1A60B1
:10279000994B02221A71984B01225A7105E20023CB
:1027A0009022D21913603B1C8F3300221A703B1CFD
:1027B0001033181C00210A22814B9847031CAE20BD
:1027C0004000C019026853438821C9190B603B1CA3
:1027D0000833181C00210A22794B9847031CAE20AD
:1027E0004000C019026853438421C9190B603B1C87
:1027F0000833181C734B9847021C3B1C8F331A700C
:10280000714B8822D2191068984780466E4B8421FC
:10281000C91908689847021C6C4B101C9847051C86
:102820000E1C3B1C8F331A78694B101C9847031CF5
:102830000C1C624A6049081C111C1A1C231C654CA4
:10284000A047031C0C1C644A9446281C311C1A1C0B
:10285000231CE047031C0C1C604A181C211C9047D9
:10286000021C5F4B4046111C9847031C9020C01966
:1028700003605C4B9021C91908689847031C9AB201
:102880005E4B1A805D4B1B885D4A101C191C584B0F
:102890009847584B01221A70574B584A1A60564BAA
:1028A00002221A71544B01225A717EE100238022C8
:1028B000D21913603B1C7F3300221A703B1C10336B
:1028C000181C00210A223E4B9847031CAE204000F2
:1028D000C01902685343BB673B1C0833181C002116
:1028E0000A22374B9847031CAE214900C9190A68D0
:1028F00053437B673B1C0833181C324B9847021C20
:102900003B1C7F331A70304BB86F984780462E4B74
:10291000786F9847021C2D4B101C9847051C0E1C05
:102920003B1C7F331A782A4B101C9847031C0C1C45
:10293000224A2149081C111C1A1C231C254CA047A3
:10294000031C0C1C244A9446281C311C1A1C231CF2
:10295000E047031C0C1C214A181C211C9047021C38
:102960001F4B4046111C9847031C8020C019036070
:10297000244B1B78002B18D01A4B8021C9190868EA
:102980009847031CDBB2204A101C191C1F4B9847A8
:10299000144B8022D21910689847031CDBB21C4AE2
:1029A000101C191C124B9847FFE01A4B181C1A4BAD
:1029B0009847FAE0C046C0460000000000002440EE
:1029C000B1CE010065CC0100FD14020059320200B5
:1029D000F1310200B9AD01009D1C0200FD32020080
:1029E000E50802000508020078010020643F0200AB
:1029F00075C70100DC020020680800207A01002071
:102A0000883F020060030020E80C0020CD67000032
:102A1000AC3F0200CC3F0200E1C9010000233B674C
:102A20003B1C6F3300221A703B1C1033181C002112
:102A30000A22EB4B9847031CAE204000C0190268E5
:102A40005343BB663B1C0833181C00210A22E44B8D
:102A50009847031CAE214900C9190A6853437B6695
:102A60003B1C0833181CDF4B9847021C3B1C6F3380
:102A70001A70DD4BB86E98478046DB4B786E9847EE
:102A8000021CDA4B101C9847051C0E1C3B1C6F33B4
:102A90001A78D74B101C9847031C0C1CCF4ACE4900
:102AA000081C111C1A1C231CD24CA047031C0C1C14
:102AB000D14A9446281C311C1A1C231CE047031CD5
:102AC0000C1CCE4A181C211C9047021CCC4B4046C3
:102AD000111C9847031C3B67CA4B1B78002B14D072
:102AE000C94B386F9847031CDBB2C84A101C191C2D
:102AF000C74B9847C44B386F9847031CDBB2C54A95
:102B0000101C191CC44B98474FE0C44B181CC44BF5
:102B100098474AE0C34BB4204000C019C3181A7844
:102B2000A22149007B18303A511E8A411A70A22214
:102B30005200BB181B78002B07D0BB4B01221A7028
:102B4000BA4B181CB64B98472FE0B74B00221A70AF
:102B5000B74B181CB24B984727E0B24BB42040004B
:102B6000C019C3181A78A22149007B18303A511EA7
:102B70008A411A70A2225200BB181B78002B07D082
:102B8000AC4B01221A70AC4B181CA54B98470CE0BB
:102B9000A84B00221A70A94B181CA14B984704E0BF
:102BA0009E4B181C9E4B9847C04600F01DFFA44B3F
:102BB000B4204000C019C3181B78303B082B00D943
:102BC000F0E19A009F4BD3181B689F46954BB421A8
:102BD0004900C919CB181A78A22040003B18303A96
:102BE000511E8A411A70A22149007B181B78002BC4
:102BF00006D0954B181C8A4B9847944B9847D7E1C1
:102C0000934B181C864B9847D2E1864BB422520056
:102C1000D219D3181A78A22040003B18303A511E1E
:102C20008A411A70A22149007B181B78002B07D01B
:102C3000884B01221A70884B181C794B9847B7E1D2
:102C4000844B00221A70854B181C754B9847AFE1D6
:102C5000744BB4225200D219D3181A78A220400023
:102C60003B18303A511E8A411A707D4BA22149000F
:102C70007A1812781A707A4B1B78002B04D0794B93
:102C8000181C674B984793E1774B181C644B984787
:102C90008EE1764B1A68554B101C9847031C0C1C90
:102CA000734A101C1A1C231C5B49884780E1714B36
:102CB0001B78714A101C191C574B984778E16F4AD2
:102CC0006F4B101C191C544B984771E100233B6655
:102CD0006C4BB4225200D219D31800221A703B1C3C
:102CE0001033181C00210A223D4B9847031CAE20CC
:102CF0004000C01902685343BB653B1C0833181CD5
:102D000000210A22364B9847031CAE214900C919FD
:102D10000A6853437B653B1C0833181C314B9847AA
:102D2000021C584BB4204000C019C3181A702E4B17
:102D3000B86D984780462C4B786D9847021C2B4BFA
:102D4000101C9847051C0E1C4E4BB4214900C91994
:102D5000CB181A78264B101C9847031C0C1C1F4AD2
:102D60001D49081C111C1A1C231C224CA047031CC3
:102D70000C1C214A9446281C311C1A1C231CE047B9
:102D8000031C0C1C1D4A181C211C9047021C1C4BC8
:102D90004046111C9847031C3B663B4B3A6EDA6277
:102DA000394BDA6A114B101C9847031C0C1C374A2C
:102DB000101C1A1C231C18498847354B01221A7015
:102DC000344B354A1A60334B04221A71314B0122BD
:102DD0005A71EDE0C046C0460000000000002440EB
:102DE000B1CE010065CC0100FD1402005932020091
:102DF000F1310200B9AD01009D1C0200FD3202005C
:102E0000E50802006003002005080200540A0020C3
:102E1000CD670000D83F020075C70100CC3F02001B
:102E2000E1C90100A8FEFFFF80000020F83F02007A
:102E3000184002008D020020384002005440020079
:102E4000B8FEFFFF7844020070400200410200001B
:102E5000543E02005D030020EC3C0200083D0200ED
:102E60005F030020844002009C4002009003002089
:102E7000B840020028030020D8400200F8400200B9
:102E800048000020F7FEFFFFC009002018410200A3
:102E9000DC02002068080020EC09002000233B65CC
:102EA000C54BB4204000C019C31800221A703B1C47
:102EB0001033181C00210A22C04B9847031CAE2176
:102EC0004900C9190A685343BB643B1C0833181CEA
:102ED00000210A22B94B9847031CAE204000C019BC
:102EE000026853437B643B1C0833181CB44B98475F
:102EF000021CB14BB4214900C919CB181A70B14B4F
:102F0000B86C98478046AF4B786C9847021CAE4B24
:102F1000101C9847051C0E1CA74BB4225200D21956
:102F2000D3181A78A94B101C9847031C0C1CA14AF3
:102F30009F49081C111C1A1C231CA54CA047031CEC
:102F40000C1CA4488446281C311C1A1C231CE04776
:102F5000031C0C1CA04A181C211C9047021C9F4BF0
:102F60004046111C9847031C3B659D4B3A6DDA6245
:102F70009B4BDA6A944B101C9847031C0C1C994A13
:102F8000101C1A1C231C98498847984B01221A7060
:102F9000974B984A1A60964B04221A71944B01225F
:102FA0005A7105E0944B181C944B984700E0C046BA
:102FB00000F01AFD3B1C1033181C00210A227F4B25
:102FC0009847031C3B648E4BB4214900C919CB18A8
:102FD0001B78303B092B01D900F0DFFB9A00894BAD
:102FE000D3181B689F460023FB63874BB422520013
:102FF000D219D31800221A703B1C1033181C002160
:103000000A226E4B9847031CAE204000C01902688C
:1030100053433B643B1C0833181C00210A22674BB6
:103020009847031CAE214900C9190A6853437B63C2
:103030003B1C0833181C624B9847021C724BB4208F
:103040004000C019C3181A705E4B386C9847804610
:103050005C4B786B9847021C5B4B101C9847051C17
:103060000E1C694BB4214900C919CB181A78574B6B
:10307000101C9847031C0C1C4E4A4D49081C111C7F
:103080001A1C231C524CA047031C0C1C514A94468A
:10309000281C311C1A1C231CE047031C0C1C4E4A24
:1030A000181C211C9047021C4C4B4046111C984791
:1030B000031CFB63554BF86B9847031CDAB2544B67
:1030C0001A70534B1B78534A101C191C464B9847D7
:1030D000464B01221A70464B4D4A1A60444B01225E
:1030E0001A71434B01225A715CE34820FF303B18B0
:1030F00000221A70F7E04821FF317B181B785B0033
:10310000454AB4204000C0198218D35C2F2B0CD93B
:103110004821FF317B181B785B003F4AB4204000F8
:10312000C0198218D35C392B19D94821FF317B187B
:103130001B785B00384AB4204000C0198218D35C69
:10314000402B2CD94821FF317B181B785B00324A79
:10315000B4204000C0198218D35C462B1FD84821E8
:10316000FF317B181B785B002B4AB4204000C0194C
:103170008218D25C294BB4214900C919CB181A70A6
:103180004822FF32BB181B785B000133224AB4206F
:103190004000C0198218D35C2F2B43D850E0204B3D
:1031A000181C164B984700F021FCC046C046C0468C
:1031B0000000000000002440E7FEFFFFB1CE010048
:1031C00065CC0100FD14020059320200F131020009
:1031D000B9AD01009D1C0200FD320200E5080200AD
:1031E000D80B00204441020075C70100DC0200201A
:1031F00068080020040C0020543E0200E1C90100D0
:10320000B8FEFFFF9C440200D3FEFFFF050802004A
:103210003C00002070410200A8FEFFFF9CFEFFFF63
:10322000904102004821FF317B181B785B0001337D
:10323000BD4AB4204000C0198218D35C392B1BD979
:103240004821FF317B181B785B000133B64AB4205C
:103250004000C0198218D35C402B3ED94821FF3171
:103260007B181B785B000133AF4AB4204000C019C3
:103270008218D35C462B30D84821FF317B181B784D
:103280005B000133A84AB4204000C0198218D25C08
:10329000A64BB4214900C919CB185A70A34BB422CC
:1032A0005200D219D31800229A704820FF303B18E0
:1032B0001C783B1D181C002110229D4B9847031CB5
:1032C000DAB29C4B1A554821FF317B181A784820F6
:1032D000FF303B1801321A7005E0974B181C974BD2
:1032E0009847C04682E34821FF317B181B78052BA5
:1032F00000D800E7924B0020191C924B98478D4B49
:103300001A788F4B1A738B4B5A788D4B5A73894BA3
:103310009A788B4B9A73874BDA78894BDA73854BA3
:103320001A79874B1A74834B5A79854B5A74844B9C
:103330000020191C844B9847844B9847844B181CD9
:103340007E4B9847834B1B6820221A43814B1A609F
:103350007B4B0020191C7B4B98477E4B1B68DBB2D4
:10336000DB43DAB2764BDA747A4B1B68DA43FF231D
:103370001B0213401B0ADAB2714B1A75754B1B689E
:10338000DA43FF231B0413401B0CDAB26C4B5A7553
:103390006B4B0020191C6C4B98476C4B984701E213
:1033A000674B0220191C674B98475F4BB4225200B1
:1033B000D219D3181A78624B1A705B4BB4204000B4
:1033C000C019C3185A785E4B5A70574BB421490044
:1033D000C919CB189A785A4B9A70534BB4225200A1
:1033E000D219D318DA78564BDA704F4BB42040001C
:1033F000C019C3181A79524B1A714B4BB4214900AA
:10340000C919CB185A794E4B5A71474BB422520006
:10341000D219D3189A794A4B9A71434BB420400081
:10342000C019C318DA79464BDA713F4BB421490011
:10343000C919CB181A7A424B1A723B4BB42252006C
:10344000D219D3185A7A3E4B5A72374BB4204000E7
:10345000C019C3189A7A3A4B9A72334BB421490077
:10346000C919CB18DA7A364BDA722F4BB4225200D4
:10347000D219D3181A7B324B1A732B4BB42040004D
:10348000C019C3185A7B2E4B5A73274BB4214900DD
:10349000C919CB189A7B2A4B9A73294B0022DA73ED
:1034A0002D4A274B111C1A1C0F23081C111C1A1C17
:1034B0002A4B9847224B0220191C234B9847234B39
:1034C0009847274B181C1D4B9847224B1B684022DE
:1034D0001A43204B1A601A4B0020191C194B9847AD
:1034E0001C4B1B68DBB2DB43DAB2154BDA74194BA9
:1034F0001B68DA43FF231B0213401B0ADAB2104B8E
:103500001A75144B1B68DA43FF231B0413401B0C72
:10351000DAB20B4B5A750A4B0020191C0A4B98471C
:103520000A4B98473EE1C046A8FEFFFF9CFEFFFF06
:10353000B1CE01009008002090410200E1C90100D5
:10354000140800201DA90100FDA70100C5A9010064
:10355000A0410200E002002080080020BDC401005C
:10356000BC410200D44B0120191CD44B9847D44BCA
:10357000B4225200D219D3181A78CF4B1A70D04BFC
:10358000B4204000C019C3185A78CB4B5A70CC4BAA
:10359000B4214900C919CB189A78C74B9A70C84B07
:1035A000B4225200D219D318DA78C34BDA70C44B64
:1035B000B4204000C019C3181A79BF4B1A71C04B10
:1035C000B4214900C919CB185A79BB4B5A71BC4B6D
:1035D000B4225200D219D3189A79B74B9A71B84BCA
:1035E000B4204000C019C318DA79B34BDA71B44B78
:1035F000B4214900C919CB181A7AAF4B1A72B04BD3
:10360000B4225200D219D3185A7AAB4B5A72AC4B2F
:10361000B4204000C019C3189A7AA74B9A72A84BDD
:10362000B4214900C919CB18DA7AA34BDA72A24B3C
:1036300000221A73A34AA04B111C1A1C0D23081C4C
:10364000111C1A1CA04B98479B4B0120191C9F4B27
:1036500098479F4B98479F4B181C9F4B98479F4BF1
:103660001B6880221A439D4B1A60934B0020191C43
:10367000924B9847994B1B68DBB2DB43DAB28E4B17
:10368000DA74964B1B68DA43FF231B0213401B0AB4
:10369000DAB2894B1A75914B1B68DA43FF231B047E
:1036A00013401B0CDAB2844B5A75834B0020191C53
:1036B000864B9847864B984774E0894B1B78191CBA
:1036C000874B5B781A1C864B9B788548C078061C14
:1036D00083480079051C82484079041C8148009683
:1036E00001950294804CA0475CE0804A804B101CFE
:1036F000191C7D4B984755E07E4A724B101C191CD3
:10370000794B98474EE000207B4B98474AE03B6C52
:10371000DAB201231340DAB2784B1A70664B0020FC
:10372000191C664B9847754B1A78634BDA756B4BCF
:103730001B68802292001A43684B1A60674B1B6813
:10374000DBB2DB43DAB25C4BDA74644B1B68DA43FE
:10375000FF231B0213401B0ADAB2574B1A755F4B4B
:103760001B68DA43FF231B0413401B0CDAB2524BD5
:103770005A75514B0020191C544B9847544B98478D
:103780005F4B181C544B98470CE05C4B1B785D4A10
:10379000101C191C544B984704E05B4B181C4E4BF3
:1037A0009847C04621E13B1C1033181C00210A2217
:1037B000564B9847031C3B63554BB4225200D21919
:1037C000D3181B78303B092B00D907E19A00514BE5
:1037D000D3181B689F463B6B9AB24F4B1A804E4BD7
:1037E0001B884E4A101C191C3F4B98474C4B01221A
:1037F0001A704C4B484A1A604A4B02221A71494BC4
:1038000001225A71EFE0444B1B88474A101C191CD7
:10381000354B9847E7E03B6BDAB2444B1A70434BA9
:103820001B78434A101C191C2F4B98473C4B012214
:103830001A703C4B3D4A1A603A4B01221A71394BBF
:1038400001225A71CFE0394B1B783A4A101C191CDF
:10385000254B9847C7E03B6BDAB2374B1A70364BB3
:103860001B78364A101C191C1F4B98472C4B012201
:103870001A702C4B304A1A602A4B01221A71294BBC
:1038800001225A71AFE02C4B1B782D4A101C191CD9
:10389000154B9847A7E02B4B00221A802A4B181C87
:1038A0000D4B98479FE00D4B1B68284A101C191CB4
:1038B0000D4B984797E0C046140800201DA9010051
:1038C000A8FEFFFF50080020BDC40100FDA70100B5
:1038D000C5A90100DC410200E1C90100E0020020AD
:1038E00090080020FC41020075C701002042020040
:1038F000800800203842020045480000790000207E
:103900005042020074420200543E0200B1CE010057
:10391000B8FEFFFFC44402004809002090420200A4
:10392000DC02002068080020B44202009608002053
:10393000D4420200F4420200640800201043020056
:103940003443020026030020544302007043020067
:103950003B6BDAB201231340DAB2274B1A70274BC4
:103960000020191C264B9847234B1A78234B9A7535
:10397000244B1B68802252001A43224B1A60214BB1
:103980001B68DBB2DB43DAB21C4BDA741D4B1B68DD
:10399000DA43FF231B0213401B0ADAB2174B1A75D6
:1039A000184B1B68DA43FF231B0413401B0CDAB2CD
:1039B000124B5A75114B0020191C134B9847134B8F
:1039C0009847134B181C134B98470CE00A4B1B7875
:1039D000114A101C191C114B984704E0104B181C7D
:1039E0000C4B9847C046C046C046C046BD465AB07C
:1039F00004BC9046F0BDC0467800002014080020AA
:103A00001DA90100E0020020FDA70100C5A90100D9
:103A100088430200E1C90100AC43020075C7010000
:103A2000543E0200C046C04680B500AF024B1B6842
:103A3000181CBD4680BDC046F803002090B587B075
:103A400002AF021CFB1D1A703B1C0F33FA1D1278CB
:103A5000D2091A703B1C0E33FA1D127852091A70E3
:103A60001B4BBB603B1C0F331B78002B0ED13B1C48
:103A70000F331B789B001022D219D318083B1A6809
:103A80003B1C0E331B78DB01D3181CE0114B98470D
:103A9000031C002B0FD00F4B9847011C0E4A6823C4
:103AA000FF330E4800900E480190081C01210D4C78
:103AB000A047002307E00C480949074A6823FF3361
:103AC0000A4CA047FEE7181CBD4605B090BDC04695
:103AD00000440041293A0000F8470200284802004B
:103AE00040480200390F01004848020075C7010034
:103AF00080B582B000AF021CFB1D1A70FB1D1B7845
:103B0000181C034B9847031C181CBD4602B080BD0F
:103B10003D3A000080B584B000AF021CFB1D1A7056
:103B2000FB1D1B78181C0C4B9847031CFB60FB1DEE
:103B30001A781F2313400122111C99400B1CBB60F3
:103B4000FB681B69BA6813405A1E9341DBB2181C0C
:103B5000BD4604B080BDC046F13A0000F0B55F46F6
:103B600056464D464446F0B4BBB010AF264B1B78CA
:103B7000002B01D100F00AFC244B181C244B984761
:103B8000244B1B7801225340DBB2002B03D0224B85
:103B9000181C224B98471D4BDB8898461B4B1B7902
:103BA0001E1C1A4B9B781D1C184B5B781C1C174B5A
:103BB0001B78A421C9190B60194B9847031C194A9B
:103BC0009A18A021C9190A60174B1B889C22D21988
:103BD0001360164B1B789B46154B1B789A46154B6A
:103BE0001B781A1C144B9200D1588946134B1A6843
:103BF000134B101C98470A1C011C124B1B78002BFE
:103C000024D0114823E0C0465B030020680D00204B
:103C1000BD3B01008D0200202C490200E1C90100DA
:103C200025D5000080AEFEFF26030020E40C002016
:103C3000240C0020F0080020000000209003002049
:103C4000593202003503002030490200EF48F04BA2
:103C50000094A424E41924680194A024E41924689D
:103C600002949C24E419246803945C46049454460A
:103C700005944C460694089109920A90181C4146F6
:103C8000321C2B1CE34CA047E34B1B780122534012
:103C9000DBB2002B02D00A20E04B9847E04B1A6CB5
:103CA000E04B101C9847041C0D1CDF4B1A6CDD4BBD
:103CB000101C98479022D21910605160D84B5A6D51
:103CC000D84B101C98478823DB1918605960D44BD7
:103CD0005A6BD44B101C98478022D2191060516047
:103CE000CF4B9A6BCF4B101C984738617961CF4905
:103CF0009023DB191A685B68009201938823DB1913
:103D00001A685B68029203938023DB191A685B6868
:103D1000049205933A697B6906920793081C221C5A
:103D20002B1CBC498847BC4B1B7801225340DBB29B
:103D3000002B02D00A20B94B9847B94B9A69B94B6E
:103D4000101C9847041C0D1CB94B1A68B54B101C6D
:103D50009847021C0B1CB74900920193081C221CB7
:103D60002B1CAC498847B44B1A68AE4B101C9847C3
:103D7000031C0C1CB14A101C1A1C231CA5498847A3
:103D8000A94B5A68A74B101C9847041C0D1CA44B48
:103D90001A6DA44B101C9847B867F967A04BDA68F6
:103DA000A04B101C9847386779679F4BDA689D4B8A
:103DB000101C9847B866F966A14B1A68994B101CFD
:103DC0009847386179619F49BA6FFB6F0092019300
:103DD0003A6F7B6F02920393BA6EFB6E0492059367
:103DE0003A697B6906920793081C221C2B1C89499F
:103DF0008847894B1B7801225340DBB2002B02D04D
:103E00000A20864B9847904B9A6B864B101C98471C
:103E1000041C0D1C8C4B1A6C824B101C9847386686
:103E20007966894BDA6B7F4B101C9847B865F9654A
:103E3000854B5A6C7B4B101C984738657965824BD3
:103E40005A69784B101C9847386179617F493A6EFE
:103E50007B6E00920193BA6DFB6D029203933A6DF3
:103E60007B6D049205933A697B6906920793081C5F
:103E7000221C2B1C67498847734BDA69694B101C5D
:103E80009847041C0D1C704B5A6A664B101C9847CF
:103E9000B864F9646C4B1A6A624B101C984738611D
:103EA00079616B49BA6CFB6C009201933A697B694A
:103EB00002920393081C221C2B1C56498847564B20
:103EC0001B7801225340DBB2002B02D00A20534B57
:103ED0009847604B5B7C191C5E4B5A695D482C23EC
:103EE000C35C1C1C5B4BDE685A4B9B7E1D1C594BF4
:103EF000DB7E181C584B009601950290181C231C61
:103F0000444CA047534B9A6B544B101C9847031CCE
:103F10009BB21C1C4F4B1A6C504B101C9847031C37
:103F20009BB24F4A101C211C1A1C3A4B98473A4B23
:103F30001B7801225340DBB2002B02D00A20374B02
:103F40009847484B5B7C191C464B5A6945482C23C3
:103F5000C35C1C1C434BDE68424B9B7E1D1C414BCB
:103F6000DB7E181C404B009601950290181C231C08
:103F7000284CA0473B4B9A6B384B101C9847031CAE
:103F80009BB21C1C374B1A6C344B101C9847031CFB
:103F90009BB2364A101C211C1A1C1E4B98471E4B04
:103FA0001B7801225340DBB2002B02D00A201B4BAE
:103FB00098472F4B5B7C191C2D4B5A692C482C239E
:103FC000C35C2B48807E051C2948C07E041C294800
:103FD000009501940F4CA0470F4B1B7801225340D2
:103FE000DBB2002B02D00A200C4B9847224B5B7CA3
:103FF0009846214B5E69204A2C23D35C1D1C1E4B26
:10400000DC68A3461C4B9B7E9A4637E03849020089
:104010004049020075C701008D020020CDC7010094
:10402000F008002059320200980800209849020048
:1040300074010020E449020054030020FC490200FE
:10404000400300200C4A0200C00900204C4A020034
:10405000844A02009C0C0020A44A020005080200C9
:10406000E44A0200D40A0020004B0200404B020048
:10407000900B00205C4B02000C0A0020C74BDB7E3B
:104080009946C74B1A6AC74B101C9847B860F9602D
:10409000C54A1068C54A1168C54A5B460093544634
:1040A00001944B460293BB68FC6804930594069008
:1040B0000791101C4146321C2B1CBE4CA047B74B2D
:1040C0009A6BBD4B101C9847031C9BB21C1CB34B36
:1040D0001A6CB94B101C9847031C9BB2B74A101CB2
:1040E000211C1A1CB34B9847B54B1B780122534037
:1040F000DBB2002B02D00A20B24B9847B24B9B7820
:104100001A1CB24B9200D658AF4B9B78012B04D9A6
:10411000AD4A2823D35C1D1C04E02E20AC4B9847ED
:10412000031C1D1CA84BDA6A9E4B101C9847031CED
:104130000C1CA84A00930194101C311C2A1C9D4B96
:1041400098479F4B1B7801225340DBB2002B02D0D3
:104150000A209C4B9847A04B1B7A191C9E4B5A680F
:104160009E4B1B781C1C9D4B58689D4B0090181C47
:10417000231C904CA047924B1B7801225340DBB28A
:10418000002B02D00A208F4B9847964B1A6B854B19
:10419000101C984738647964924B5A6B814B101C01
:1041A0009847B863F9638F4B9A6B7E4B101C984706
:1041B000386379638C4B1A6A7A4B101C9847B86243
:1041C000F962884B1A6D774B101C984738627962F8
:1041D000844B5A6D734B101C9847B861F961814B41
:1041E0009A6E704B101C9847041C0D1C7D4BDA6EA8
:1041F0006C4B101C9847386079607C4B1B78181CFE
:104200007B4BB96BFA6B00910192396B7A6B02911F
:104210000392B96AFA6A04910592396A7A6A069138
:104220000792B969FA69089109920A940B9539685D
:104230007A680C910D920E90181C3A6C7B6C5D495B
:1042400088475F4B1B7801225340DBB2002B02D022
:104250000A205C4B9847674B1A689046664B1B6870
:10426000664C1E19664B1B781D1C664B1B789B46C3
:10427000654B1B789A46654B1B789946644B1A68C8
:10428000484B101C9847031C0C1C624A594600916D
:10429000514601914946029104930594101C4146F0
:1042A000321C2B1C434CA047454B1B78012253402A
:1042B000DBB2002B02D00A20424B9847564B1968BC
:1042C000564B1B881A1C564B1C68564B1E68564B87
:1042D0001D68564B1868564B009601950290181CA5
:1042E000231C344CA047534B1B78002B01D1524B5D
:1042F0009847334B1B7801225340DBB2002B02D08E
:104300000A20304B9847384A3D23D35C002B03D01A
:104310004A4B181C274B9847494B1B78002B03D05E
:10432000484B181C234B9847474B1B78002B03D056
:10433000464B181C1F4B9847454B1B78002B03D04E
:10434000444B181C1B4B9847434B1B78002B03D046
:10435000424B181C174B9847414B1B780122534086
:10436000DBB2002B03D03F4B181C124B98473E4B3F
:104370001B78002B03D03D4B181C0E4B9847104B5D
:104380001B78002B02D00A200E4B9847BD462BB05D
:104390003CBC90469946A246AB46F0BD0C0A0020B4
:1043A000600A002059320200380300203C0300203C
:1043B0009C4B020075C7010005080200FC4B02007F
:1043C0008D020020CDC70100C00900201C00002084
:1043D000153B0000184C0200E80C0020540A002095
:1043E000444C0200280C0020F00800204C03002060
:1043F000884C0200940200209C02002080AEFEFF48
:104400009608002064080020900200202800002068
:10441000C0070020F04C0200E802002070000020DD
:10442000F0020020EC020020F8020020F40200203C
:104430003C4D02007800002071440000884D0200CD
:104440005C030020984D02005D030020A84D02008F
:1044500068010020B84D02005F030020CC4D02002F
:1044600080000020DC4D020060030020F44D0200BB
:10447000F0B587B004AF2E4B1B7801225340DBB25E
:10448000002B02D00A202B4B98472B4B1B88191C62
:104490002A4B1B881A1C2A4B1B882A480088051C9B
:1044A00029480088041C294800950194284CA047FD
:1044B0001F4B1B7801225340DBB2002B02D00A2095
:1044C0001C4B9847234B1B88191C234B1B881A1C19
:1044D000224B1B887B602248008884462148008844
:1044E000061C21480088051C20480088041C204820
:1044F000634600930196029503947B68144CA04791
:104500000B4B1B7801225340DBB2002B02D00A2058
:10451000084B9847174B1B881A1C174B1B881749C9
:10452000081C111C1A1C0A4B9847BD4603B0F0BD6D
:104530008D020020CDC7010054010020440300205B
:1045400046030020480300204A030020084E0200D2
:1045500075C701002A000020AA020020A402002042
:10456000AC020020A6020020AE020020A80200201B
:10457000584E020054000020E4020020D84E0200F1
:10458000F0B585B004AF654B1B68654A101C191C5B
:10459000644B9847644B1B78644A101C191C614B90
:1045A0009847634B1B78634A101C191C5D4B984756
:1045B000614B1B78614A101C191C5A4B9847604B81
:1045C0001A6C604B101C9847031C0C1C5E4A101C94
:1045D0001A1C231C53498847594B5A6D594B101CC0
:1045E0009847031C0C1C594A101C1A1C231C4D49CB
:1045F0008847574B1A6C534B101C9847031C0C1CD4
:10460000544A101C1A1C231C46498847524B1B88CD
:10461000524A101C191C434B9847514B1B88514A56
:10462000101C191C3F4B98474F4BDA6A454B101C26
:104630009847031C0C1C4D4A101C1A1C231C39499A
:1046400088474B4BDA6A3F4B101C9847031C0C1CE5
:10465000484A101C1A1C231C32498847464B1B78B9
:10466000464A101C191C2F4B9847454B1B78454A4E
:10467000101C191C2B4B9847434B1A68314B101CCC
:104680009847031C0C1C414A101C1A1C231C25496A
:1046900088473F4B1A682B4B101C9847031C0C1C77
:1046A0003C4A101C1A1C231C1E4988473A4A3B4BA3
:1046B000101C191C1B4B9847394A3A4B101C191CEB
:1046C000184B9847384A394B101C191C154B984702
:1046D000374B1B78191C364B5B781A1C344B9B7874
:1046E0003348C078061C32480079051C30484079B0
:1046F000041C30480096019502940A4CA0472E4BAA
:104700001B781A1C2D4B1B782D49081C111C1A1CD8
:10471000044B9847BD4601B0F0BDC046E002002002
:10472000FC4E020075C7010078000020144F020003
:10473000790000202C4F02003C000020444F020072
:10474000F0080020593202005C4F0200744F020052
:10475000980800208C4F020078010020A44F02002E
:104760007A010020C04F0200C0090020DC4F020087
:10477000D80B0020FC4F0200960800201C500200BD
:1047800064080020345002006C01002050500200E8
:10479000700100207050020090500200500800206C
:1047A000A450020080080020B850020048000020F9
:1047B00090080020C8500200E40C0020240C0020C7
:1047C000F050020080B500AF124B18221A70124B45
:1047D0000C221A70114B00221A80114B00221A7001
:1047E000104B01221A70104B9847021C0F4B1A6095
:1047F0000D4B9847021C0E4B1A600E4B00221A609C
:104800000D4B00221A600D4B1A680D4B1A60BD4605
:1048100080BDC04696080020640800208E0200205B
:10482000900200202800002025D500009C020020D6
:10483000A002002094020020980200206C010020B9
:10484000C007002090B583B000AF021CFB1D1A709A
:10485000FB1D1B78002B2ED13A4B01221A703A4BCC
:104860009847021C394B1A60394A3D230121D15423
:10487000384B00225A61384B1B8801339AB2364BB1
:104880001A80364B181C364B9847344B9B78191CB2
:10489000324B5B781A1C314B1B783248324CA047A4
:1048A000324A2E4B111C1A1C0A23081C111C1A1CFC
:1048B0002F4B984743E0FB1D1B78012B20D1214B48
:1048C00000221A702B4B00221A60214A3D2300213E
:1048D000D154224B181C224B9847204B9B78191C13
:1048E0001E4B5B781A1C1D4B1B7823481E4CA0479F
:1048F000194B1B88214A101C191C1B4B98471EE0A2
:10490000FB1D1B78022B1AD10E4B00221A70104A85
:104910003D230021D1541A4B00221A600A4B9847BC
:10492000021C184B1A60134B00221A60064B984762
:10493000021C064B1A60144B181C0B4B9847BD46C3
:1049400003B090BD9002002025D50000A0020020F9
:10495000F0080020C00900208E020020680D002011
:10496000BD3B0100B851020075C70100B40700202B
:10497000BDC4010098020020D8510200F851020085
:10498000940200209C0200200852020080B500AF73
:104990003B4B1B78002B1AD03A4B1B78002B16D0C0
:1049A000394B1968394B1A68394B081C111C984748
:1049B000031C002B08D1374B1A68354B101C3649A5
:1049C0009847031C002B02D00220344B9847344BED
:1049D0001B78E12212015A43324B1B689A4219D2CA
:1049E000274B1B78002B15D02A4B1A682E4B101C16
:1049F0002E499847031C002B04D12A4B1A682C4BD4
:104A00009A4207D92B4B9847021C2B4B1A60002067
:104A1000224B9847294B1B781A1C131C1B019B1A0D
:104A20009B001A1C264B1B689A420FD2154B1B7811
:104A3000002B0BD0124B1B78002B07D01D4B984737
:104A4000021C204B1A600120144B98471A4B1B681C
:104A5000181C1D4B9847021C124B1A60094B1B78FF
:104A6000002B0BD0064B1B78002B07D0154B1B6877
:104A7000181C154B9847021C114B1A60BD4680BD8F
:104A8000280000209002002074010020C0070020B0
:104A90009D070200540300200000A040454800008C
:104AA0009608002094020020750702000000A0C0B4
:104AB000803A090025D500009C02002064080020EF
:104AC00098020020A002002085D5000080B500AF2C
:104AD000024B1B68181CBD4680BDC046F803002071
:104AE00090B585B002AF7860184B9847031C002B37
:104AF00011D07B68002B19D1144B9847011C144A24
:104B0000B423FF331348009013480190081C01217F
:104B1000124CA0470AE07B68002B07D110480E49D1
:104B20000B4AB423FF330F4CA047FEE77B680022FB
:104B30001A707B6802225A707B6800229A707B6828
:104B40000022DA70BD4603B090BDC046CD4A0000D9
:104B5000205202004852020060520200390F010048
:104B60006852020075C7010080B582B000AF084BE3
:104B700098473B1D181C074B98473B1D12229A7003
:104B80003B1D0020191C044B9847BD4602B080BD58
:104B9000911F0100E14A0000C11F010080B500AF74
:104BA000024B1B68181CBD4680BDC046F8030020A0
:104BB00090B587B002AF021CFB1D1A703B1C0F336F
:104BC000FA1D1278D2091A703B1C0E33FA1D1278A6
:104BD00052091A701B4BBB603B1C0F331B78002B18
:104BE0000ED13B1C0F331B789B001022D219D31817
:104BF000083B1A683B1C0E331B78DB01D3181CE002
:104C0000114B9847031C002B0FD00F4B9847011CEA
:104C10000E4A6823FF330E4800900E480190081C8E
:104C200001210D4CA047002307E00C480949074A21
:104C30006823FF330A4CA047FEE7181CBD4605B0A9
:104C400090BDC046004400419D4B0000005302004F
:104C50003053020048530200390F01005053020044
:104C600075C7010090B585B002AF78601B4B9847BF
:104C7000031C002B11D07B68002B19D1174B9847D0
:104C8000011C174AE8235B00164800901648019063
:104C9000081C0121154CA0470AE07B68002B07D1B6
:104CA000134811490E4AE8235B00124CA047FEE767
:104CB0007B6800221A607B6800225A607B680122B0
:104CC0001A727B6801225A727B6800229A727B6892
:104CD0000222DA72BD4603B090BDC0469D4B000073
:104CE00074530200305302009C530200390F01003C
:104CF0005053020075C7010080B582B000AF021C9E
:104D0000FB1D1A70FB1D1B78181C034B9847031CD6
:104D1000181CBD4602B080BDB14B000080B584B008
:104D200000AF021CFB1D1A70FB1D1B78181C0C4BDE
:104D30009847031CFB60FB1D1A781F2313400122B8
:104D4000111C99400B1CBB60FB681B6ABA681340BE
:104D50005A1E9341DBB2181CBD4604B080BDC0464C
:104D6000F94C000080B582B000AF786001200A4B9A
:104D700098471B20094B9847031C01225340DBB284
:104D8000002B01D0064B9847064B802212021A6076
:104D9000BD4602B080BDC046D50D01001D4D0000CE
:104DA000C5FB00001018004080B58CB000AF3B1C64
:104DB0002433181C164B98473B1C24331B221A60C3
:104DC0003B1C243300225A603B1C243300229A727D
:104DD0003B1C24330222DA723B1C243301225A7218
:104DE0003B1C24330F20191C0A4B98470A4B984749
:104DF0000A4B0B4A1A603B1D01229A713B1D01228E
:104E0000DA713B1D181C074B9847BD460CB080BD9E
:104E1000654C00005D24010089230100101800404A
:104E2000FFFF0000C125010080B500AF054B181C35
:104E30000021054B98470F200021044B9847BD46A1
:104E400080BDC046654D0000D9270100252901001D
:104E500080B500AF024B1B68181CBD4680BDC04624
:104E6000F803002090B587B002AF021CFB1D1A703A
:104E70003B1C0F33FA1D1278D2091A703B1C0E33FB
:104E8000FA1D127852091A701B4BBB603B1C0F3382
:104E90001B78002B0ED13B1C0F331B789B0010227C
:104EA000D219D318083B1A683B1C0E331B78DB0160
:104EB000D3181CE0114B9847031C002B0FD00F4B4D
:104EC0009847011C0E4A6823FF330E4800900E4895
:104ED0000190081C01210D4CA047002307E00C485D
:104EE0000949074A6823FF330A4CA047FEE7181C0C
:104EF000BD4605B090BDC04600440041514E000083
:104F0000185402004854020060540200390F010096
:104F10006854020075C7010080B582B000AF021C62
:104F2000FB1D1A70FB1D1B78181C034B9847031CB4
:104F3000181CBD4602B080BD654E000080B584B02F
:104F400000AF0A1CFB1D011C1970BB1D1A70FB1D54
:104F50001B78181C0D4B9847031CFB60FB1D1A782F
:104F60001F2313400122111C99400B1CBB60BB1D69
:104F70001B78002B03D0FB68BA689A6102E0FB68DB
:104F8000BA685A61BD4604B080BDC046194F0000E2
:104F900080B584B000AF3960FB1D011C1970BB1DCA
:104FA0001A70BB1D1B7801225340DBB2002B0ED0C0
:104FB0003B1C0F333A68511E8A411A70FB1D1A7848
:104FC0003B1C0F331B78101C191C034B9847012303
:104FD000181CBD4604B080BD3D4F000080B586B0B2
:104FE00000AF021CFB1D1A703B1C173300221A7005
:104FF0003B1C143300221A803B1C0C332C221A70E9
:10500000FB1D1B789AB23B1C0C335A803B1C0C33A3
:10501000104A5A600DE03B1C14331B883A1C1432B2
:10502000591C11800A2B04D13B1C173301221A7022
:1050300009E0094A3B1C0C33101C191C074B98470C
:10504000031C002BE7D13B1C17331B78181CBD46F3
:1050500006B080BD30000020CC0700208D4F01003D
:1050600080B586B000AF021CFB1D1A703B1C1733C5
:1050700000221A703B1C143300221A803B1C0C3394
:105080002C221A70FB1D1B789AB23B1C0C335A80E1
:105090003B1C0C33214A5A600DE03B1C14331B8827
:1050A0003A1C1432591C11800A2B04D13B1C1733B3
:1050B00001221A7009E01A4A3B1C0C33101C191CFF
:1050C000184B9847031C002BE7D13B1C17331B7868
:1050D000002B1CD13B1C143300221A803B1C0C33C8
:1050E000114A5A6009E03B1C14331B883A1C1432E5
:1050F000591C11800A2B00D109E0094A3B1C0C33D2
:10510000101C191C094B9847031C002BEBD13B1CAE
:1051100017331B78181CBD4606B080BD3000002038
:10512000CC0700208D4F0100D00200204D4D010022
:1051300080B500AF524B00221A700120514B9847A6
:105140000120504B9847031C002B01D0202394E0F2
:105150004D4B181C4D4B9847031C002B01D02023AE
:105160008BE04B4B181C494B9847031C002B01D07C
:10517000202382E0474B181C444B9847031C002B0C
:1051800001D0202379E0444B181C404B9847031C66
:10519000002B01D0202370E0394B2A221A70384BA3
:1051A0000B225A700220374B9847031C002B01D06A
:1051B000202362E0324B2B221A70314B0F225A709F
:1051C0000220304B9847031C002B01D0202354E0D1
:1051D0002B4B51221A702A4B80225A700220294BE5
:1051E0009847031C002B01D0202346E0244B522279
:1051F0001A70234B0B225A700220224B9847031C33
:10520000002B01D0202338E01D4B62221A701C4B6A
:105210001B225A7002201B4B9847031C002B01D005
:1052200020232AE0164B33221A70154B68225A703D
:105230000220144B9847031C002B01D020231CE0B4
:105240000F4B43221A700E4B68225A7002200D4BEE
:105250009847031C002B01D020230EE0084B63224B
:105260001A70074B68225A700220064B9847031C9D
:10527000002B01D0202300E00023181CBD4680BD78
:1052800030000020DD4F00009C0C0020D1550000B4
:10529000D40A0020900B00200C0A002080B584B0B6
:1052A00000AF78600A1CFB1C1A703B1C0F330222F3
:1052B0001A707A681A4B9A4203D11A4B30221A702C
:1052C00016E07A68184B9A4203D1164B40221A70A6
:1052D0000EE07A68154B9A4203D1124B50221A7095
:1052E00006E07A68124B9A4202D10E4B60221A7085
:1052F000FB1C1A78131C1B029A1A0E4B101C6421FB
:105300009847031CDAB2074B5A703B1C0F331B78CB
:10531000181C094B9847031C181CBD4604B080BDDF
:105320009C0C002030000020D40A0020900B0020AC
:105330000C0A002011060200DD4F000080B582B08B
:1053400000AF78607A681E4B9A4207D11D4B1B78DC
:10535000152001211A1C1C4B984722E07A681B4B30
:105360009A4207D1174B1B78142001211A1C164BA7
:10537000984716E07A68164B9A4207D1114B1B7872
:10538000132001211A1C104B98470AE07A68114B30
:105390009A4206D10B4B1B782C2001211A1C0A4B78
:1053A00098477B685B69DBB27A68101C191C0A4B52
:1053B00098477B6801225A74BD4602B080BDC04642
:1053C0009C0C00205C030020914F0000D40A0020B8
:1053D000900B00200C0A00209D52000080B582B086
:1053E00000AF78607A681C4B9A4207D11B4B1B7840
:1053F000152000211A1C1A4B984722E07A68194B95
:105400009A4207D1154B1B78142000211A1C144B0B
:10541000984716E07A68144B9A4207D10F4B1B78D5
:10542000132000211A1C0E4B98470AE07A680F4B94
:105430009A4206D1094B1B782C2000211A1C084BDC
:1054400098477B68181C0021094B98477B6800220D
:105450005A74BD4602B080BD9C0C00205C03002045
:10546000914F0000D40A0020900B00200C0A00206D
:105470009D52000090B585B000AF78603B1C0F33A3
:1054800000221A703B1C0E3300221A703B1C0D3395
:1054900000221A703B1C0A3300221A807A68424BA1
:1054A0009A4203D1414B3E221A7016E07A68404B73
:1054B0009A4203D13D4B4E221A700EE07A683D4B62
:1054C0009A4203D1394B5E221A7006E07A683A4B51
:1054D0009A4202D1354B6E221A703C1C0F340120C7
:1054E000364B9847031C23703B1C0F331B78002B53
:1054F00003D03B1C0F331B7851E03B1C0E33304A6A
:1055000012781A70294B1B780133DAB2274B1A70C4
:105510003C1C0F340120294B9847031C23703B1C73
:105520000F331B78002B03D03B1C0F331B7836E066
:105530003B1C0D33224A12781A703B1C0E331B7829
:105540009BB25B0199B23B1C0D331B78DB08DBB2CD
:105550001A1C3B1C0A338A181A807B681B7C1A1C95
:10556000131C1B019B1A5B041A1C164B101C98473A
:10557000041C3B1C0A331A88124B101C9847021C4F
:10558000114B201C111C9847031C1A1C0F4B101C9C
:105590009847021C7B68DA603B1C0F331B78181C91
:1055A000BD4605B090BDC0469C0C002030000020D8
:1055B000D40A0020900B00200C0A0020615000004B
:1055C000D0020020FD140200BD0B020005080200FD
:1055D00090B585B000AF78603B1C0F3300221A7085
:1055E0007A681C4B9A4203D11B4B32221A7016E088
:1055F0007A681A4B9A4203D1174B42221A700EE076
:105600007A68174B9A4203D1134B52221A7006E064
:105610007A68144B9A4202D10F4B62221A703C1CDA
:105620000F340120104B9847031C23703B1C0F3391
:105630001B78002B03D03B1C0F331B7806E00B4B71
:105640001A787B681A763B1C0F331B78181CBD46F2
:1056500005B090BD9C0C002030000020D40A002032
:10566000900B00200C0A002061500000D0020020A6
:1056700090B583B000AFFB1D00221A70BB1D002245
:105680001A702F4B24221A70FC1D01202D4B9847B5
:10569000031C2370FB1D1B78002B02D0FB1D1B7805
:1056A00049E0294B1978BB1D01220A401A70BB1D25
:1056B0001B78002B3DD0224B25221A70FC1D0120A7
:1056C000204B9847031C2370FB1D1B78002B02D036
:1056D000FB1D1B782FE01C4B1B781A1C0123134069
:1056E0005A1E9341DAB2194B9A76174B1B785B0816
:1056F000DBB21A1C012313405A1E9341DAB2144B39
:105700009A76114B1B789B08DBB21A1C01231340BD
:105710005A1E9341DAB20F4B9A760B4B1B78DB087B
:10572000DBB21A1C012313405A1E9341DAB20A4B12
:105730009A76FB1D1B78181CBD4603B090BDC04671
:105740003000002061500000D00200209C0C00209E
:10575000D40A0020900B00200C0A002080B582B0F3
:1057600000AF786039603D4B1B7801225340DBB2BB
:10577000002B0CD07A683B68101C191C384B9847DA
:10578000021C384B101C9847021C7B685A617A68CF
:10579000354B9A4235D1354B1B7801225340DBB251
:1057A000002B03D12D4B1B78002B2AD02E4B5B698D
:1057B000002B0BD02C4B5B7C01225340DBB2002B27
:1057C00004D0294B181C2A4B98470BE0264B5B69E9
:1057D000002B07D1244B5B7C002B03D0224B181CE1
:1057E000244B9847204B5B69D9B21F4A2C23D154D4
:1057F0001D4A2C23D35C1C4A101C191C1E4B9847B5
:105800001BE07B685B69002B0BD07B685B7C012213
:105810005340DBB2002B04D07B68181C144B984714
:105820000BE07B685B69002B07D17B685B7C002BFE
:1058300003D07B68181C0F4B98477B685B69D9B213
:105840007A682C23D1547A682C23D35C7A68101C94
:10585000191C094B9847BD4602B080BD5F0300206C
:10586000A55A0000050802000C0A0020370300209A
:105870003D530000DD5300009D52000080B584B010
:1058800000AF7860834B5B69BB607B68DB7E012B7C
:1058900016D17B681B7F1A1C7F4B101C9847021C7B
:1058A0007E4B101CB9689847031C002B02D07B6804
:1058B0000222DA763B1C0F337A68927F1A70E2E09C
:1058C0007B68DB7E022B29D17B685B7F1A1C724BC5
:1058D000101C9847021C724B101CB9689847031C97
:1058E000002B03D07B680122DA7610E07B68DB7F37
:1058F0001A1C694B101C9847021C684B101CB96895
:105900009847031C002B02D07B680322DA763B1CED
:105910000F33796821228A5C1A70B4E07B68DB7EE1
:10592000032B2BD17A682023D35C1A1C5A4B101CF2
:105930009847021C5A4B101CB9689847031C002B4F
:1059400003D07B680222DA7611E07A682223D35CE6
:105950001A1C514B101C9847021C504B101CB96864
:105960009847031C002B02D07B680422DA763B1C8C
:105970000F33796824228A5C1A7084E07B68DB7EAE
:10598000042B2BD17A682323D35C1A1C424B101CA6
:105990009847021C424B101CB9689847031C002B07
:1059A00003D07B680322DA7611E07A682523D35C82
:1059B0001A1C394B101C9847021C384B101CB96834
:1059C0009847031C002B02D07B680522DA763B1C2B
:1059D0000F33796827228A5C1A7054E07B68DB7E7B
:1059E000052B2BD17A682623D35C1A1C2A4B101C5A
:1059F0009847021C2A4B101CB9689847031C002BBF
:105A000003D07B680422DA7611E07A682823D35C1D
:105A10001A1C214B101C9847021C204B101CB96803
:105A20009847031C002B02D07B680622DA763B1CC9
:105A30000F3379682A228A5C1A7024E07B68DB7E47
:105A4000062B18D17A682923D35C1A1C124B101C20
:105A50009847021C124B101CB9689847031C002B76
:105A600002D07B680522DA763B1C0F3379682B2243
:105A70008A5C1A7007E07B680122DA763B1C0F33E0
:105A80007A68927F1A703B1C0F331B78181CBD4636
:105A900004B080BDC0090020FD1402009D07020073
:105AA00089070200F0B585B000AF78603960874B98
:105AB000FB60874B386800219847031C002B02D0FD
:105AC00000233B600BE0834B1A68834B3868111C42
:105AD0009847031C002B02D07E4B1B683B607F4B1A
