:10000000C030002049AC0100CDAC0100819201005C
:1000100000000000000000000000000000000000E0
:10002000000000000000000000000000CDAC010056
:100030000000000000000000CDAC0100CDAC0100CC
:10004000CDAC0100CDAC0100CDAC010011400100F0
:10005000E52B0100CDAC0100CDAC010085670100AE
:1000600099670100AD670100C1670100D567010014
:10007000E9670100519F0100659F0100799F010020
:100080008D9F0100A19F0100B59F0100C99F010044
:10009000DD9F010069200100CDAC0100CDAC010065
:1000A00008B5064B064803331B1A062B00D808BDBB
:1000B000044B002BFBD09847F9E7C0469889020013
:1000C000988902000000000008B50748074B1B1A7A
:1000D0009B10DA0FD318591000D108BD044A002A2A
:1000E000FBD09047F9E7C046988902009889020042
:1000F0000000000010B5074C2378002B09D1FFF752
:10010000CFFF054B002B02D0044800E000BF0123C5
:10011000237010BD780200200000000098890200C2
:1001200008B5094B002B03D00848094900E000BF7F
:1001300008480368002B03D0074B002B00D09847DA
:10014000FFF7C2FF08BDC04600000000988902000A
:100150007C020020988902000000000080B500AFFA
:10016000BFF34F8F024B034ADA60BFF34F8FFEE7B6
:1001700000ED00E00400FA0580B500AF024B1B68FB
:10018000181CBD4680BDC0460804002090B587B04D
:1001900002AF021CFB1D1A703B1C0F33FA1D1278B4
:1001A000D2091A703B1C0E33FA1D127852091A70CC
:1001B0001B4BBB603B1C0F331B78002B0ED13B1C31
:1001C0000F331B789B001022D219D318083B1A68F2
:1001D0003B1C0E331B78DB01D3181CE0114B9847F6
:1001E000031C002B0FD00F4B9847011C0E4A6823AD
:1001F000FF330E4800900E480190081C01210D4C61
:10020000A047002307E00C480949074A6823FF3349
:100210000A4CA047FEE7181CBD4605B090BDC0467D
:100220000044004179010000EC3D02001C3E020048
:10023000343E0200611101003C3E02009DC90100F4
:1002400080B500AF014B9847BD4680BD5D01000001
:1002500080B582B000AF021CFB1D1A70FB1D1B781D
:10026000181C034B9847031C181CBD4602B080BDE8
:100270008D01000080B584B000AF021CFB1D1A7018
:10028000FB1D1B78181C0C4B9847031CFB60FB1DC7
:100290001A781F2313400122111C99400B1CBB60CC
:1002A000FB681B69BA6813405A1E9341DBB2181CE5
:1002B000BD4604B080BDC0465102000080B584B088
:1002C00000AFF8607A603B1C0B330A1C1A703B1CB1
:1002D0000B331B78002B08D07B68002B02D1064B18
:1002E000FA685A61054B01221A70FE239B05181CFF
:1002F000BD4604B080BDC0461C0A00209402002008
:1003000080B584B000AFF8607A603B1C0B330A1CE8
:100310001A707B68002B0AD13B1C0B331B78002B17
:1003200002D00A4BFA689A61084B9B6909E03B1CB2
:100330000B331B78002B02D0054BFA689A61044BF3
:100340009B69181CBD4604B080BDC0465009002002
:10035000F808002080B584B000AFF8607A603B1CDC
:100360000B330A1C1A707B68002B0AD13B1C0B3321
:100370001B78002B02D00A4BFA689A62084B9B6AE2
:1003800009E03B1C0B331B78002B02D0054BFA68AD
:100390009A62044B9B6A181CBD4604B080BDC046DF
:1003A00050090020F808002080B584B000AFF86044
:1003B0007A603B1C0B330A1C1A707B68002B0AD135
:1003C0003B1C0B331B78002B02D00A4BFA68DA6215
:1003D000084BDB6A09E03B1C0B331B78002B02D077
:1003E000054BFA68DA62044BDB6A181CBD4604B0A0
:1003F00080BDC04650090020F808002080B584B0B8
:1004000000AFF8607A603B1C0B330A1C1A707B68E3
:10041000002B0AD13B1C0B331B78002B02D00A4B5C
:10042000FA681A63084B1B6B09E03B1C0B331B7803
:10043000002B02D0054BFA681A63044B1B6B181C87
:10044000BD4604B080BDC04650090020F808002019
:1004500080B584B000AFF8607A603B1C0B330A1C97
:100460001A707B68002B0AD13B1C0B331B78002BC6
:1004700002D00A4BFA685A63084B5B6B09E03B1CDD
:100480000B331B78002B02D0054BFA685A63044BE0
:100490005B6B181CBD4604B080BDC04650090020EF
:1004A000F808002080B584B000AFF8607A603B1C8B
:1004B0000B330A1C1A707B68002B0AD13B1C0B33D0
:1004C0001B78002B02D00A4BFA689A63084B9B6B8F
:1004D00009E03B1C0B331B78002B02D0054BFA685C
:1004E0009A63044B9B6B181CBD4604B080BDC0468C
:1004F00050090020F808002080B584B000AFF860F3
:100500007A603B1C0B330A1C1A707B68002B16D1D7
:100510003B1C0B331B78002B0ED0164BFA681A6469
:10052000154B164A1A60144B04221A71124B012201
:100530005A71134B01221A700E4B1B6C15E03B1CB9
:100540000B331B78002B0ED00E4BFA681A640A4B43
:100550000D4A1A60084B04221A71074B01225A7186
:10056000074B01221A70074B1B6C181CBD4604B0C8
:1005700080BDC04650090020C80800209009002016
:10058000E8020020F80800203809002080B582B079
:1005900000AF78600A1CFB1C1A70FB1C1B78002B38
:1005A00005D0054B78689847021C044B5A617B685C
:1005B000181CBD4602B080BD2D0A0200000D0020AF
:1005C00080B582B000AF78600A1CFB1C1A70FB1C5F
:1005D0001B78002B05D0054B78689847021C044B0C
:1005E0005A617B68181CBD4602B080BD2D0A02000E
:1005F000340B002080B582B000AF78600A1CFB1C71
:100600001A70FB1C1B78002B05D0084B78689847A4
:10061000021C074B5A61064BDA68064B101C9847C0
:10062000031C181CBD4602B080BDC0462D0A020046
:10063000F00B0020DD17020080B582B000AF7860BB
:100640000A1CFB1C1A70FB1C1B78002B05D0084BE6
:1006500078689847021C074B5A61064BDA68064BCC
:10066000101C9847031C181CBD4602B080BDC04634
:100670002D0A02006C0A0020DD17020080B584B04C
:1006800000AFF8607A603B1C0B330A1C1A707B6861
:10069000002B0AD13B1C0B331B78002B02D00A4BDA
:1006A000FA685A60084B5B6809E03B1C0B331B7807
:1006B000002B02D0054BFA685A60044B5B68181C8B
:1006C000BD4604B080BDC046000D0020340B0020A4
:1006D00080B584B000AFF8607A603B1C0B330A1C15
:1006E0001A707B68002B0AD13B1C0B331B78002B44
:1006F00002D00A4BFA689A60084B9B6809E03B1CE1
:100700000B331B78002B02D0054BFA689A60044B20
:100710009B68181CBD4604B080BDC046000D00207B
:10072000340B002080B582B000AF78600A1CFB1C3F
:100730001A70054BDA68054B101C9847031C181CEF
:10074000BD4602B080BDC046000D0020DD1702008E
:1007500080B582B000AF78600A1CFB1C1A70054B94
:10076000DA68054B101C9847031C181CBD4602B0E4
:1007700080BDC046340B0020DD17020080B584B078
:1007800000AFF8607A603B1C0B330A1C1A707B6860
:10079000002B0AD13B1C0B331B78002B02D00A4BD9
:1007A000FA685A62084B5B6A09E03B1C0B331B7802
:1007B000002B02D0054BFA685A62044B5B6A181C86
:1007C000BD4604B080BDC04650090020F808002096
:1007D00080B584B000AFF8607A603B1C0B330A1C14
:1007E0001A707B68002B0AD13B1C0B331B78002B43
:1007F00002D00A4BFA681A62084B1B6A09E03B1CDC
:100800000B331B78002B02D0054BFA681A62044B9D
:100810001B6A181CBD4604B080BDC04650090020AC
:10082000F808002080B584B000AFF8607A603B1C07
:100830000B330A1C1A707B68002B06D1054B5A7CBF
:10084000054B101C9847031C00E00023181CBD46F4
:1008500004B080BD000D0020DD17020080B584B01B
:1008600000AFF8607A603B1C0B330A1C1A703B1C0B
:100870000B331B78002B09D0074BF8689847021CF4
:10088000064B101C9847021C054B1A60044B1B6852
:10089000181CBD4604B080BD2D0A0200DD17020001
:1008A0007C00002080B584B000AFF8607A603B1C0B
:1008B0000B330A1C1A70034BDB69181CBD4604B0CD
:1008C00080BDC0461C0A002080B584B000AFF8602F
:1008D0007A603B1C0B330A1C1A70034B5B6A181CB2
:1008E000BD4604B080BDC0461C0A002080B584B05F
:1008F00000AFF8607A603B1C0B330A1C1A70034B84
:10090000DB6B181CBD4604B080BDC0461C0A00202D
:1009100080B584B000AFF8607A603B1C0B330A1CD2
:100920001A70034B1B6C181CBD4604B080BDC0463A
:100930001C0A002080B584B000AFF8607A603B1CD0
:100940000B330A1C1A70034B5B6C181CBD4604B0B9
:1009500080BDC0461C0A002080B584B000AFF8609E
:100960007A603B1C0B330A1C1A70034B9B6C181CDF
:10097000BD4604B080BDC0461C0A002080B584B0CE
:1009800000AFF8607A603B1C0B330A1C1A70034BF3
:10099000DB69181CBD4604B080BDC046380C002081
:1009A00080B584B000AFF8607A603B1C0B330A1C42
:1009B0001A70034B5B6A181CBD4604B080BDC0466C
:1009C000380C002090B585B000AFF8607A603B1C11
:1009D0000B330A1C1A707B68002B17D13B1C0B339E
:1009E0001B78002B0FD0174BFA681A65164B1B7833
:1009F000022B08D1134B196D124B5A6D114B9B6D85
:100A00001048124CA0470F4B1B6D16E03B1C0B33DC
:100A10001B78002B0FD00E4BFA681A650D4B1B7814
:100A2000022B08D10A4B196D094B5A6D084B9B6D6F
:100A30000748064CA047064B1B6D181CBD4605B069
:100A400090BDC0468C0C00205009002069A0000019
:100A50007C0B0020F808002090B585B000AFF8604E
:100A60007A603B1C0B330A1C1A707B68002B17D171
:100A70003B1C0B331B78002B0FD0174BFA685A65C1
:100A8000164B1B78022B08D1134B196D124B5A6D64
:100A9000114B9B6D1048124CA0470F4B5B6D16E03D
:100AA0003B1C0B331B78002B0FD00E4BFA685A659A
:100AB0000D4B1B78022B08D10A4B196D094B5A6D4F
:100AC000084B9B6D0748064CA047064B5B6D181CF6
:100AD000BD4605B090BDC0468C0C002050090020DA
:100AE00069A000007C0B0020F808002090B585B0BC
:100AF00000AFF8607A603B1C0B330A1C1A707B68ED
:100B0000002B17D13B1C0B331B78002B0FD0174B3E
:100B1000FA689A65164B1B78022B08D1134B196D96
:100B2000124B5A6D114B9B6D1048124CA0470F4B46
:100B30009B6D16E03B1C0B331B78002B0FD00E4B2C
:100B4000FA689A650D4B1B78022B08D10A4B196D78
:100B5000094B5A6D084B9B6D0748064CA047064B46
:100B60009B6D181CBD4605B090BDC0468C0C002086
:100B70005009002069A000007C0B0020F80800202C
:100B800090B585B000AFF8607A603B1C0B330A1C4F
:100B90001A707B68002B17D13B1C0B331B78002B82
:100BA0000FD0174BFA68DA65164B1B78032B08D168
:100BB000134BD96D124B1A6E114B5B6E1048124CD1
:100BC000A0470F4BDB6D16E03B1C0B331B78002B53
:100BD0000FD00E4BFA68DA650D4B1B78032B08D14A
:100BE0000A4BD96D094B1A6E084B5B6E0748064CD1
:100BF000A047064BDB6D181CBD4605B090BDC04636
:100C00008C0C00205009002069A000007C0B002003
:100C1000F808002090B585B000AFF8607A603B1C02
:100C20000B330A1C1A707B68002B17D13B1C0B334B
:100C30001B78002B0FD0174BFA681A66164B1B78DF
:100C4000032B08D1134BD96D124B1A6E114B5B6EEF
:100C50001048124CA0470F4B1B6E16E03B1C0B3389
:100C60001B78002B0FD00E4BFA681A660D4B1B78C1
:100C7000032B08D10A4BD96D094B1A6E084B5B6EDA
:100C80000748064CA047064B1B6E181CBD4605B016
:100C900090BDC0468C0C00205009002069A00000C7
:100CA0007C0B0020F808002090B585B000AFF860FC
:100CB0007A603B1C0B330A1C1A707B68002B17D11F
:100CC0003B1C0B331B78002B0FD0174BFA685A666E
:100CD000164B1B78032B08D1134BD96D124B1A6E90
:100CE000114B5B6E1048124CA0470F4B5B6E16E029
:100CF0003B1C0B331B78002B0FD00E4BFA685A6647
:100D00000D4B1B78032B08D10A4BD96D094B1A6E7A
:100D1000084B5B6E0748064CA047064B5B6E181CE1
:100D2000BD4605B090BDC0468C0C00205009002087
:100D300069A000007C0B0020F808002090B585B069
:100D400000AFF8607A603B1C0B330A1C1A707B689A
:100D5000002B17D13B1C0B331B78002B0FD0174BEC
:100D6000FA689A66164B1B78042B08D1134B996EC0
:100D7000124BDA6E114B1B6F1048124CA0470F4BF1
:100D80009B6E16E03B1C0B331B78002B0FD00E4BD9
:100D9000FA689A660D4B1B78042B08D10A4B996EA2
:100DA000094BDA6E084B1B6F0748064CA047064BF1
:100DB0009B6E181CBD4605B090BDC0468C0C002033
:100DC0005009002069A000007C0B0020F8080020DA
:100DD00090B585B000AFF8607A603B1C0B330A1CFD
:100DE0001A707B68002B17D13B1C0B331B78002B30
:100DF0000FD0174BFA68DA66164B1B78042B08D114
:100E0000134B996E124BDA6E114B1B6F1048124C3C
:100E1000A0470F4BDB6E16E03B1C0B331B78002BFF
:100E20000FD00E4BFA68DA660D4B1B78042B08D1F5
:100E30000A4B996E094BDA6E084B1B6F0748064C3C
:100E4000A047064BDB6E181CBD4605B090BDC046E2
:100E50008C0C00205009002069A000007C0B0020B1
:100E6000F808002090B585B000AFF8607A603B1CB0
:100E70000B330A1C1A707B68002B17D13B1C0B33F9
:100E80001B78002B0FD0174BFA681A67164B1B788C
:100E9000042B08D1134B996E124BDA6E114B1B6F5A
:100EA0001048124CA0470F4B1B6F16E03B1C0B3336
:100EB0001B78002B0FD00E4BFA681A670D4B1B786E
:100EC000042B08D10A4B996E094BDA6E084B1B6F45
:100ED0000748064CA047064B1B6F181CBD4605B0C3
:100EE00090BDC0468C0C00205009002069A0000075
:100EF0007C0B0020F808002080B584B000AFF860BB
:100F00007A603B1C0B330A1C1A707B68002B0DD1D6
:100F10003B1C0B331B78002B05D00D4BFA685A6035
:100F20000B4BFA689A600A4B5B680CE03B1C0B3376
:100F30001B78002B05D0074BFA685A60054BFA68FE
:100F40009A60044B5B68181CBD4604B080BDC04667
:100F500050090020F808002080B584B000AFF86088
:100F60007A603B1C0B330A1C1A707B68002B0AD179
:100F70003B1C0B331B78002B02D00A4BFA68DA605B
:100F8000084BDB6809E03B1C0B331B78002B02D0BD
:100F9000054BFA68DA60044BDB68181CBD4604B0E8
:100FA00080BDC04650090020F808002080B584B0FC
:100FB00000AFF8607A603B1C0B330A1C1A703B1CB4
:100FC0000B331B78002B0ED00A4BFA685A650A4B7C
:100FD0000A4A1A60084B04221A71074B01225A71FF
:100FE000074B01221A70034B5B6D181CBD4604B001
:100FF00080BDC04650090020C8080020A409002078
:10100000E802002080B584B000AFF8607A603B1C35
:101010000B330A1C1A707B68002B12D13B1C0B335C
:101020001B78002B06D0124BF8689847031CDAB2E5
:10103000104B1A700F4B1A780F4B101C9847031C5B
:1010400011E03B1C0B331B78002B06D0084BF868D3
:101050009847031CDAB2094B1A70084B1A78064BF2
:10106000101C9847031C181CBD4604B080BDC04628
:101070002D0A020050090020DD170200F8080020A8
:1010800080B584B000AFF8607A603B1C0B330A1C5B
:101090001A703B1C0B331B78002B02D0044BFA68F0
:1010A0005A61034B5B69181CBD4604B080BDC04645
:1010B0001C0A002080B584B000AFF8607A603B1C49
:1010C0000B330A1C1A703B1C0B331B78002B02D00D
:1010D000044BFA681A65034B1B6D181CBD4604B01F
:1010E00080BDC0465009002080B584B000AFF860D4
:1010F0007A603B1C0B330A1C1A703B1C0B331B78A9
:10110000002B06D0084BF8689847031C9AB2074B8F
:101110001A80064B1A88064B101C9847031C181C93
:10112000BD4604B080BDC0462D0A02005C0100200F
:10113000DD17020080B584B000AFF8607A603B1C18
:101140000B330A1C1A703B1C0B331B78002B06D088
:10115000084BF8689847031C9AB2074B1A80064B55
:101160001A88064B101C9847031C181CBD4604B077
:1011700080BDC0462D0A02002A000020DD170200B3
:1011800080B584B000AFF8607A603B1C0B330A1C5A
:101190001A703B1C0B331B78002B06D0084BF868E9
:1011A0009847031C9AB2074B1A80064B1A88064BC5
:1011B000101C9847031C181CBD4604B080BDC046D7
:1011C0002D0A020054000020DD17020080B584B013
:1011D00000AFF8607A603B1C0B330A1C1A703B1C92
:1011E0000B331B78002B0ED00A4BFA681A600A4B9F
:1011F000084A1A60084B04221A71074B01225A71DF
:10120000064B01221A70034B1B68181CBD4604B024
:1012100080BDC04674010020C8080020E8020020FC
:1012200080B584B000AFF8607A603B1C0B330A1CB9
:101230001A703B1C0B331B78002B0ED00A4BFA683C
:101240001A600A4B084A1A60084B04221A71074BAD
:1012500001225A71064B01221A70034B1B68181C9D
:10126000BD4604B080BDC04678010020C8080020FB
:10127000E802002080B584B000AFF8607A603B1CC3
:101280000B330A1C1A700023181CBD4604B080BD25
:1012900080B584B000AFF8607A603B1C0B330A1C49
:1012A0001A70054B1A88054B101C9847031C181C14
:1012B000BD4604B080BDC04680010020DD1702009D
:1012C00080B584B000AFF8607A603B1C0B330A1C19
:1012D0001A70054B1A88054B101C9847031C181CE4
:1012E000BD4604B080BDC04682010020DD1702006B
:1012F00080B584B000AFF8607A603B1C0B330A1CE9
:101300001A70034B1B6B181CBD4604B080BDC04651
:101310001C0A002080B584B000AFF8607A603B1CE6
:101320000B330A1C1A70034B1B6B181CBD4604B010
:1013300080BDC046380C0020F0B5474680B4DEB012
:1013400004AFA32040003B1800221A704621FF3151
:101350007B1800221A700023B2225200D2191360A7
:101360006420FF303B1800221A70B12149007B181D
:1013700000221A70A2225200BB1800221A70012308
:10138000AE204000C01903600023A0214900C91904
:101390000B604622FF32BB18E34A12781A70E34A08
:1013A000E34B101C191CE34B9847031CB220400070
:1013B000C01903600CE1B2214900C9190B68181C5F
:1013C000DD4B9847031CD9B2B1225200BB18B120A3
:1013D00040003A1812788A181A706421FF317B187D
:1013E0001B78002B22D1B2225200D2191368181C8C
:1013F000D14B9847031C391C2431B2204000C0193E
:101400000268081C111C1A1CCC4B9847B2214900D9
:10141000C9190B68181CC84B9847031CC84AB4204C
:101420004000C01982180021D154A4E06421FF318A
:101430007B181B78012B22D1B2225200D2191368DB
:10144000181CBD4B9847031C391C1C31B2204000AE
:10145000C0190268081C111C1A1CB84B9847B2210D
:101460004900C9190B68181CB34B9847031CB54AAF
:10147000B4204000C01982180021D1547BE06421BF
:10148000FF317B181B78022B4ED1B2225200D219A9
:1014900013681B782B2B0ED10123AE204000C019FE
:1014A0000360B2214900C9190B680133B22252000E
:1014B000D219136015E0B2204000C01903681B78F0
:1014C0002D2B0ED101235B42AE214900C9190B60BF
:1014D000B2225200D21913680133B2204000C01961
:1014E0000360B2214900C9190B68181C924B984738
:1014F000031C391C0C31B2204000C0190268081CC2
:10150000111C1A1C8D4B9847B2214900C9190B6850
:10151000181C894B9847031C8B4AB4204000C01903
:1015200082180021D15426E06421FF317B181B78FA
:10153000032B20D1B2225200D2191368181C7E4B03
:101540009847031C391DB2204000C0190268081CCE
:10155000111C1A1C794B9847B2214900C9190B6814
:10156000181C754B9847031C784AB4204000C019DA
:1015700082180021D154B12149007B181B785A1CD4
:101580004620FF303B181B789A420ADA684B00204D
:10159000191C684B9847031CB2214900C9190B60FC
:1015A00004E00023B2225200D21913606420FF30FD
:1015B0003B186421FF317A18127801321A70B12277
:1015C0005200BB18B12040003A18127801321A704C
:1015D000B2214900C9190B68002B00D0EBE63B1C77
:1015E0002433181C00210A22594B9847031C092B4D
:1015F00001D902F0FCF99A00564BD3181B689F469C
:10160000504BB4225200D219D3181B78303B092B0F
:1016100000D988E39A00504BD3181B689F464A4B69
:10162000B4204000C019C3181A78A22149007B18C1
:10163000303A511E8A411A70484BA22040003A1895
:1016400012781A70454B1B78002B0CD0444A3D236E
:101650000121D154434A3D230121D154424B181C4E
:10166000424B984765E33E4A3D230021D1543D4A11
:101670003D230021D1543E4B181C3E4B984758E364
:10168000314BB4214900C919CB181A78A220400067
:101690003B18303A511E8A411A70374BA22149003B
:1016A0007A1812781A70A2225200BB181B78002BED
:1016B00004D0324B181C2D4B98473AE3304B181C82
:1016C0002A4B984735E33B1C0C33181C00210A2297
:1016D0001F4B9847031C9E204000C01903603B1D10
:1016E000181C00210A221A4B9847031CAC21490000
:1016F000C9190B6000239C225200D21913600023E9
:10170000AA204000C01903609E214900C9190B6836
:10171000092B00D90CE39E225200D21913689A00BB
:10172000184BD3181B689F46F80E0020F90E0020B6
:10173000D43E02009DCE01008DCE0100E5C6010021
:10174000BCFEFFFFB4FEFFFFA4FEFFFF9CFEFFFFF9
:10175000D9D0010000460200284602006C03002098
:1017600050090020F8080020DC3E020009CC0100EE
:10177000F83E02009DC901006D030020143F0200E5
:10178000303F020050460200BB4BAC204000C01965
:1017900002689200D358DBB2181CB84B9847031C60
:1017A0009C214900C9190B60B54A9C204000C01912
:1017B0000368101C191CB34B9847F7E0AC21490093
:1017C000C9190B68172B36DCAC225200D2191368EA
:1017D0000B2B0DDD0123AA204000C0190360AC21B2
:1017E0004900C9190B680C3BAC225200D219136096
:1017F000A54BAC204000C01902689200D3580021CC
:10180000AA204000C0190268081C00219847031C48
:10181000A0214900C9190B609C4BA0225200D2198B
:1018200010689847031C0C1C994A101C1A1C231C96
:1018300094498847BAE0B9E0AC204000C019036879
:101840000B2B22DC934BAC214900C9190A6892008A
:10185000D3580021AA204000C0190268081C0021AA
:101860009847031CA0214900C9190B60874BA0228F
:101870005200D21910689847031C0C1C864A101C91
:101880001A1C231C7F49884790E08FE0AC20400061
:10189000C0190368082B22DC804BAC214900C91910
:1018A0000A689200D3580021AA204000C01902689B
:1018B000081C00219847031CA0214900C9190B608E
:1018C000724BA0225200D21910689847031C0C1CBE
:1018D000734A101C1A1C231C6A49884766E065E09D
:1018E000AC204000C01903680F2B2DDCAC2149004F
:1018F000C9190B68062B04DD0123AA225200D21954
:101900001360684BAC204000C01902689200D358A5
:101910000021AA204000C0190268081C0021984735
:10192000031CA0214900C9190B60584BA02252008A
:10193000D21910689847031C0C1C5B4A101C1A1C17
:10194000231C5049884731E030E0AC204000C019EA
:1019500003680B2B22DC554BAC214900C9190A68DE
:101960009200D3580021AA204000C0190268081C28
:1019700000219847031CA0214900C9190B60434B63
:10198000A0225200D21910689847031C0C1C484A28
:10199000101C1A1C231C3B49884707E006E0454BF6
:1019A000181C454B9847454B9847C046C0E1444BEF
:1019B000B4204000C019C3181A78A22149007B182E
:1019C000303A511E8A411A70A2225200BB181B786D
:1019D000002B07D03B4B01221A703B4B181C364B97
:1019E0009847A6E1374B00221A70384B181C324B2F
:1019F00098479EE1324BB4204000C019C3181A78B2
:101A0000A22149007B18303A511E8A411A70304B8E
:101A100098478EE12A4BB4225200D219D3181A7873
:101A2000A22040003B18303A511E8A411A70294BBF
:101A3000A22149007A1812781A70264B1B78002BC5
:101A40000CD0254A3D230121D154244A3D230121B4
:101A5000D154234B181C184B98476AE11E4A3D236A
:101A60000021D1541D4A3D230021D1541D4B181C87
:101A7000114B98475DE1C046F04502007502000039
:101A80004C3F02009DC90100C406002081340200C1
:101A9000603F0200A0050020783F020020060020E1
:101AA0008C3F020044070020A03F020020050020D8
:101AB000B43F0200C43F020009CC010015460000FB
:101AC000A4FEFFFF6B030020C83F0200E03F0200BE
:101AD00019BA00006C03002050090020F80800200B
:101AE000F83F02001040020000239A225200D2194F
:101AF00013603420FF303B1800221A703B1C0C335B
:101B0000181C00210A22E44B9847031CAE2149000F
:101B1000C9190A68534396225200D21913603B1D1B
:101B2000181C00210A22DC4B9847031CAE20400001
:101B3000C0190268534394214900C9190B603B1D29
:101B4000181CD64B9847021C3420FF303B181A70E3
:101B5000D34B96214900C919086898478046D04B55
:101B600094225200D21910689847021CCD4B101CC9
:101B70009847051C0E1C3420FF303B181A78CA4BBE
:101B8000101C9847031C0C1CBE4ABD49081C111CA4
:101B90001A1C231CC54CA047031C0C1CC4498C46B2
:101BA000281C311C1A1C231CE047031C0C1CC14AB6
:101BB000181C211C9047021CBF4B4046111C984723
:101BC000031C9A225200D2191360BC4A4C23D35CE6
:101BD00001225340DBB2002B1DD0B84B9A204000AD
:101BE000C01902681A629A214900C9190B68181CA9
:101BF00001210022B24B9847AA4B9A225200D219D7
:101C000010689847031C0C1CAE4A101C1A1C231C9D
:101C1000AD4988478DE08CE0AC4B181C0021AC4BE3
:101C20009847AC4B181CAC4B9847FA239B00181CE8
:101C3000AA4B98477DE03B1C0C33181C00210A225C
:101C4000954B9847031CA8204000C0190360944B93
:101C5000A8214900C91908689847011CA04B1A68B7
:101C6000A04B081C111C9847031C002B0AD09C4B4E
:101C70001A689D4B101C9847031CA8225200D219C9
:101C800013600EE0994B1B781A1CA8204000C01965
:101C900003689A4205DB954B1B78A8214900C919B6
:101CA0000B60934BA8225200D21910689847031C6E
:101CB0000C1C904D181C211C734A744BA847031C24
:101CC0000C1C8D4D724873491A1C231CA847031C19
:101CD0000C1C784A181C211C9047031C92204000C1
:101CE000C0190360794B181C0021844B9847844B22
:101CF00092214900C91908689847031C734A101CAF
:101D0000191C804B98470A20744B984711E07E4B72
:101D10001B781A1C7D4B1B787D49081C111C1A1C52
:101D2000694B984705E07B4B181C6B4B984700E0CC
:101D3000C04601F05BFE002390225200D2191360CE
:101D40002020FF303B1800221A703B1C1C33181C4B
:101D500000210A22504B9847031C8C214900C919C5
:101D60000B603B1C0C33181C00210A224A4B98477D
:101D7000031CAE204000C019026853438A21490069
:101D8000C9190B603B1D181C00210A22424B9847C1
:101D9000031CAE204000C01902685343882149004B
:101DA000C9190B60002386225200D21913603B1D13
:101DB000181C3A4B9847021C2020FF303B181A7021
:101DC000374B8A214900C919086898478046344B27
:101DD00088225200D21910689847021C314B101CFF
:101DE0009847051C0E1C2020FF303B181A782E4BFC
:101DF000101C9847031C0C1C224A2149081C111C6A
:101E00001A1C231C294CA047031C0C1C28498C4677
:101E1000281C311C1A1C231CE047031C0C1C254ADF
:101E2000181C211C9047021C234B4046111C98474C
:101E3000031C90225200D21913608C204000C0195C
:101E400003680B2B17DC344B8C214900C9190A6835
:101E50009200D35890225200D21911688620400077
:101E6000C0190268081C012198472C4B181C1A4BFA
:101E7000984701F0BBFD01F0B9FDC046C046C04621
:101E80000000000000002440EC51B81E05DAA74015
:101E900066666666AEAAF840D9D001008DCE010014
:101EA000251702008134020019340200E1AF01005D
:101EB000C51E0200253502000D0B02008C0C00200F
:101EC000BD0200002C4002009DC901001C0A002038
:101ED000B1F700004840020009CC010029100100C0
:101EE0007C000020D9090200E51602005E010020F6
:101EF0009D330200A5270200C92C0200D1F6000084
:101F00002D0A020019F70000480D00208A0C00205D
:101F1000604002008440020020050020944002003E
:101F2000002384214900C9190B600822FF32BB1825
:101F300000221A703B1C1C33181C00210A22E64B9D
:101F40009847031CA6204000C01903603B1C0C33BB
:101F5000181C00210A22E04B9847031CAE214900BF
:101F6000C9190A6853437A1CFF3213603B1D181CC1
:101F700000210A22D84B9847031CAE204000C0190C
:101F800002685343FC21C9190B600023A4225200AC
:101F9000D21913603B1D181CD04B9847021C082017
:101FA000FF303B181A70CE4B791CFF3108689847F8
:101FB0008046CB4BFC22D21910689847021CC94BB3
:101FC000101C9847051C0E1C0820FF303B181A787F
:101FD000C54B101C9847031C0C1CBE4ABC49081C6E
:101FE000111C1A1C231CC14CA047031C0C1CC0490B
:101FF0008C46281C311C1A1C231CE047031C0C1C9B
:10200000BC4A181C211C9047021CBB4B4046111CAB
:102010009847031C84225200D2191360A620400066
:10202000C0190368172B2BDCA6214900C9190B68BE
:102030000B2B0DDD0123A4225200D2191360A62020
:102040004000C01903680C3BA6214900C9190B6068
:10205000AA4BA6204000C01902689200D3588422DF
:102060005200D2191168A4204000C0190268081C4F
:1020700001219847A24B181CA24B984701F0B6FCCF
:1020800001F0B4FC0023F821C9190B603B1CF733A5
:1020900000221A703B1C1C33181C00210A228E4B94
:1020A0009847031CF022D21913603B1C0C33181CF8
:1020B00000210A22884B9847031CAE204000C0191B
:1020C00002685343EC21C9190B603B1D181C002109
:1020D0000A22814B9847031CAE204000C0190268B9
:1020E0005343E821C9190B600023E422D21913607D
:1020F0003B1D181C794B9847021C3B1CF7331A7088
:10210000774BEC21C919086898478046744BE82240
:10211000D21910689847021C724B101C9847051C76
:102120000E1C3B1CF7331A786F4B101C9847031C8E
:102130000C1C684A6649081C111C1A1C231C6B4C99
:10214000A047031C0C1C6A488446281C311C1A1C1E
:10215000231CE047031C0C1C664A181C211C9047DA
:10216000021C654B4046111C9847031CF821C919F5
:102170000B60F022D21913680B2B14DC624BF02099
:10218000C01902689200D358F822D2191168E420CD
:10219000C0190268081C012198475C4B181C594B58
:1021A000984701F023FC01F021FC0023E021C9192C
:1021B0000B603B1CDF3300221A703B1C1C33181CC5
:1021C00000210A22444B9847031CD822D2191360DD
:1021D0003B1C0C33181C00210A223F4B9847031C60
:1021E000AE204000C01902685343D421C9190B60C6
:1021F0003B1D181C00210A22374B9847031CAE20B8
:102200004000C01902685343D021C9190B60002354
:10221000CC22D21913603B1D181C304B9847021C6E
:102220003B1CDF331A702E4BD421C919086898471C
:1022300080462B4BD022D21910689847021C294B9C
:10224000101C9847051C0E1C3B1CDF331A78264BCC
:10225000101C9847031C0C1C1E4A1D49081C111C0D
:102260001A1C231C214CA047031C0C1C204884462C
:10227000281C311C1A1C231CE047031C0C1C1D4A83
:10228000181C211C9047021C1B4B4046111C9847F0
:10229000031CE021C9190B60D822D2191368082B3E
:1022A00014DC1B4BD820C01902689200D358E022DE
:1022B000D2191168CC20C0190268081C0121984766
:1022C000144B181C0F4B984701F090FB01F08EFB4C
:1022D0000000000000002440D9D001008DCE010094
:1022E000251702008134020019340200E1AF010019
:1022F000C51E0200253502000D0B0200C406002099
:10230000A840020009CC0100A0050020C440020042
:1023100020060020D84002000023C821C9190B6004
:102320003B1CC73300221A703B1C1C33181C0021B5
:102330000A22B94B9847031CC022D21913603B1CD8
:102340000C33181C00210A22B34B9847031CAE2003
:102350004000C01902685343BC21C9190B603B1DE2
:10236000181C00210A22AC4B9847031CAE204000E9
:10237000C01902685343B821C9190B600023B42265
:10238000D21913603B1D181CA44B9847021C3B1C20
:10239000C7331A70A24BBC21C919086898478046F8
:1023A0009F4BB822D21910689847021C9D4B101CF5
:1023B0009847051C0E1C3B1CC7331A789A4B101CFF
:1023C0009847031C0C1C934A9149081C111C1A1CA9
:1023D000231C964CA047031C0C1C95488446281CC3
:1023E000311C1A1C231CE047031C0C1C914A181CAE
:1023F000211C9047021C904B4046111C9847031C1F
:10240000C821C9190B60C022D21913680F2B14DC24
:102410008A4BC020C01902689200D358C822D21932
:102420001168B420C0190268081C01219847844B28
:10243000181C844B984701F0D9FA01F0D7FA824B67
:10244000B4214900C919CB181B78303B092B00D99E
:1024500094E39A007D4BD3181B689F467C4BB422B3
:102460005200D219D3181A78A22040003B18303AF3
:10247000511E8A411A70A22149007B181B78002B3B
:102480000CD0744A3D230121D154734A3D230121CC
:10249000D154724B181C6B4B984774E36D4A3D2323
:1024A0000021D1546C4A3D230021D1546C4B181C9F
:1024B000644B984767E3664BB4225200D219D31895
:1024C0001A78A22040003B18303A511E8A411A70F7
:1024D000A22149007B181B78002B07D0614B0122F9
:1024E0001A70614B181C574B98474CE35D4B002208
:1024F0001A705E4B181C534B984744E30023B022DC
:10250000D21913603B1CAF3300221A703B1C0C33F2
:10251000181C00210A22404B9847031CAE204000A3
:10252000C01902685343A821C9190B603B1D181C30
:1025300000210A22384B9847031CAE204000C019E6
:1025400002685343A421C9190B603B1D181C334B6F
:102550009847021C3B1CAF331A70314BA822D2198A
:102560001068984780462E4BA421C91908689847DF
:10257000021C2C4B101C9847051C0E1C3B1CAF3337
:102580001A78294B101C9847031C0C1C214A20491F
:10259000081C111C1A1C231C244CA047031C0C1CD7
:1025A000234A9446281C311C1A1C231CE047031C98
:1025B0000C1C204A181C211C9047021C1E4B404634
:1025C000111C9847031CB020C0190360214A3D2309
:1025D000D35C002B1AD0264BB021C9190A681A62A5
:1025E000B022D2191368181C01210022214B9847F0
:1025F0000C4BB021C91908689847031C0C1C1E4AD3
:10260000101C1A1C231C1D498847BCE2BBE2C046B3
:102610000000000000002440D9D001008DCE010050
:10262000251702008134020019340200E1AF0100D5
:10263000C51E0200253502000D0B020044070020D4
:10264000F040020009CC0100B4FEFFFF7846020012
:10265000A4FEFFFF50090020F808002008410200F6
:1026600020410200700300203C410200584102005A
:102670008C0C0020BD020000744102009DC90100C5
:102680000023A022D21913603B1C9F3300221A7032
:102690003B1C0C33181C00210A22C14B9847031C19
:1026A000AE204000C019026853439821C9190B603D
:1026B0003B1D181C00210A22B94B9847031CAE2071
:1026C0004000C019026853439421C9190B603B1D97
:1026D000181CB44B9847021C3B1C9F331A70B24B1A
:1026E0009822D219106898478046AF4B9421C91997
:1026F00008689847021CAD4B101C9847051C0E1C1F
:102700003B1C9F331A78AA4B101C9847031C0C1CC7
:10271000A24AA149081C111C1A1C231CA54CA04745
:10272000031C0C1CA44A9446281C311C1A1C231C94
:10273000E047031C0C1CA14A181C211C9047021CDA
:102740009F4B4046111C9847031CA020C0190360F2
:102750009C4BA021C91908689847031C9AB29A4B50
:102760001A80994B1B88994A101C191C984B984742
:10277000984B01221A70984B934A1A60964B02228A
:102780001A71954B01225A71FDE100239022D21952
:1027900013603B1C8F3300221A703B1C0C33181C37
:1027A00000210A227E4B9847031CAE204000C0192E
:1027B000026853438821C9190B603B1D181C002176
:1027C0000A22774B9847031CAE204000C0190268CC
:1027D00053438421C9190B603B1D181C714B98474A
:1027E000021C3B1C8F331A706F4B8822D219106861
:1027F000984780466C4B8421C91908689847021C89
:102800006A4B101C9847051C0E1C3B1C8F331A7812
:10281000674B101C9847031C0C1C604A5E49081C3F
:10282000111C1A1C231C634CA047031C0C1C624A7D
:102830009446281C311C1A1C231CE047031C0C1C4A
:102840005E4A181C211C9047021C5D4B4046111C1F
:102850009847031C9020C01903605A4B9021C91956
:1028600008689847031C9AB25C4B1A805B4B1B8824
:102870005B4A101C191C564B9847564B01221A7084
:10288000554B564A1A60544B02221A71524B012280
:102890005A7178E100238022D21913603B1C7F33E8
:1028A00000221A703B1C0C33181C00210A223C4BDE
:1028B0009847031CAE204000C01902685343BB6711
:1028C0003B1D181C00210A22354B9847031CAE21E2
:1028D0004900C9190A6853437B673B1D181C314BDB
:1028E0009847021C3B1C7F331A702F4BB86F9847D8
:1028F00080462D4B786F9847021C2C4B101C984734
:10290000051C0E1C3B1C7F331A78294B101C984762
:10291000031C0C1C214A2049081C111C1A1C231CD6
:10292000244CA047031C0C1C234A9446281C311C31
:102930001A1C231CE047031C0C1C204A181C211CD9
:102940009047021C1E4B4046111C9847031C8020D8
:10295000C0190360234B1B78002B18D0194B802122
:10296000C91908689847031CDBB21F4A101C191CC0
:102970001E4B9847134B8022D21910689847031CAE
:10298000DBB21B4A101C191C114B9847FBE0194B7A
:10299000181C194B9847F6E0000000000000244086
:1029A000D9D001008DCE010025170200813402002C
:1029B00019340200E1AF0100C51E020025350200F6
:1029C0000D0B02002D0A020080010020944102003C
:1029D0009DC90100E8020020C808002082010020F3
:1029E000B8410200700300204C0D0020B5690000C2
:1029F000DC410200FC41020009CC010000233B67DE
:102A00003B1C6F3300221A703B1C0C33181C002136
:102A10000A22E94B9847031CAE204000C019026807
:102A20005343BB663B1D181C00210A22E24B98470A
:102A3000031CAE214900C9190A6853437B663B1D3C
:102A4000181CDE4B9847021C3B1C6F331A70DC4B82
:102A5000B86E98478046DA4B786E9847021CD94B7F
:102A6000101C9847051C0E1C3B1C6F331A78D64B64
:102A7000101C9847031C0C1CCE4ACD49081C111C85
:102A80001A1C231CD14CA047031C0C1CD04A944692
:102A9000281C311C1A1C231CE047031C0C1CCD4AAB
:102AA000181C211C9047021CCB4B4046111C984718
:102AB000031C3B67C94B1B78002B14D0C84B386FE5
:102AC0009847031CDBB2C74A101C191CC64B984719
:102AD000C34B386F9847031CDBB2C44A101C191C47
:102AE000C34B98474FE0C34B181CC34B98474AE071
:102AF000C24BB4204000C019C3181A78A221490063
:102B00007B18303A511E8A411A70A2225200BB181B
:102B10001B78002B07D0BA4B01221A70B94B181C36
:102B2000B54B98472FE0B64B00221A70B64B181CD5
:102B3000B14B984727E0B14BB4204000C019C318EF
:102B40001A78A22149007B18303A511E8A411A7026
:102B5000A2225200BB181B78002B07D0AB4B0122DE
:102B60001A70AB4B181CA44B98470CE0A74B0022E3
:102B70001A70A84B181CA04B984704E09D4B181CDA
:102B80009D4B9847C04600F031FFA34BB420400056
:102B9000C019C3181B78303B092B00D902E29A00F8
:102BA0009E4BD3181B689F46944BB4214900C9190A
:102BB000CB181A78A22040003B18303A511E8A41A7
:102BC0001A70A22149007B181B78002B06D0944B69
:102BD000181C894B9847934B9847E9E1924B181C76
:102BE000854B9847E4E1854BB4225200D219D318A3
:102BF0001A78A22040003B18303A511E8A411A70C0
:102C0000A22149007B181B78002B07D0874B01229B
:102C10001A70874B181C784B9847C9E1834B0022E8
:102C20001A70844B181C744B9847C1E1734BB42243
:102C30005200D219D3181A78A22040003B18303A1B
:102C4000511E8A411A707C4BA22149007A181278D1
:102C50001A70794B1B78002B04D0784B181C664BEC
:102C60009847A5E1764B181C634B9847A0E1754B3C
:102C70001A68544B101C9847031C0C1C724A101CF9
:102C80001A1C231C5A49884792E1704B1B78704AE2
:102C9000101C191C564B98478AE16E4A6E4B101C4B
:102CA000191C534B984783E100233B666B4BB422BE
:102CB0005200D219D31800221A703B1C0C33181C76
:102CC00000210A223C4B9847031CAE204000C0194B
:102CD00002685343BB653B1D181C00210A22364B7A
:102CE0009847031CAE214900C9190A6853437B6504
:102CF0003B1D181C314B9847021C584BB420400018
:102D0000C019C3181A702E4BB86D984780462C4BCB
:102D1000786D9847021C2B4B101C9847051C0E1C05
:102D20004E4BB4214900C919CB181A78264B101CF8
:102D30009847031C0C1C1F4A1D49081C111C1A1C17
:102D4000231C224CA047031C0C1C214A9446281C1F
:102D5000311C1A1C231CE047031C0C1C1D4A181CA8
:102D6000211C9047021C1C4B4046111C9847031C19
:102D70003B663B4B3A6E1A63394B1A6B114B101C76
:102D80009847031C0C1C374A101C1A1C231C18499A
:102D90008847354B01221A70344B354A1A60334B41
:102DA00004221A71314B01225A7101E1C046C0461A
:102DB0000000000000002440D9D001008DCE0100A9
:102DC000251702008134020019340200E1AF01002E
:102DD000C51E0200253502000D0B02007003002005
:102DE0002D0A0200B40A0020B56900000842020062
:102DF0009DC90100FC41020009CC0100A4FEFFFFB7
:102E0000880000202842020048420200950200206B
:102E10006842020084420200B4FEFFFFA0460200A6
:102E2000A042020041020000844002006D03002025
:102E3000143F0200303F02006F030020B442020042
:102E4000CC420200A0030020E8420200340300202C
:102E5000084302002843020048000020F7FEFFFF5D
:102E60001C0A002048430200E8020020C808002095
:102E70004C0A002000233B65CD4BB4204000C01914
:102E8000C31800221A703B1C0C33181C00210A22A4
:102E9000C84B9847031CAE214900C9190A6853431F
:102EA000BB643B1D181C00210A22C24B9847031C1F
:102EB000AE204000C019026853437B643B1D181CC0
:102EC000BD4B9847021CBA4BB4214900C919CB1815
:102ED0001A70BA4BB86C98478046B84B786C9847D4
:102EE000021CB74B101C9847051C0E1CB04BB4229B
:102EF0005200D219D3181A78B24B101C9847031CF1
:102F00000C1CAA4AA849081C111C1A1C231CAE4CF4
:102F1000A047031C0C1CAD488446281C311C1A1CFD
:102F2000231CE047031C0C1CA94A181C211C9047B9
:102F3000021CA84B4046111C9847031C3B65A64B3E
:102F40003A6D1A63A44B1A6B9D4B101C9847031CD7
:102F50000C1CA24A101C1A1C231CA1498847A14B17
:102F600001221A70A04BA14A1A609F4B04221A71C9
:102F70009D4B01225A711BE09D4BB4214900C91998
:102F8000CB189C4A12781A709A4B01221A709A4BED
:102F90009847984B964AB4204000C019821812787E
:102FA0001A7005E0954B181C954B984700E0C046F9
:102FB00000F01CFD3B1C0C33181C00210A227D4B29
:102FC0009847031CFB638F4BB4214900C919CB18E8
:102FD0001B78303B092B01D900F0E1FB9A008A4BAA
:102FE000D3181B689F460023BB63884BB422520052
:102FF000D219D31800221A703B1C0C33181C002164
:103000000A226C4B9847031CAE204000C01902688E
:103010005343FB633B1D181C00210A22654B984754
:10302000031CAE214900C9190A6853433B633B1D89
:10303000181C614B9847021C744BB4204000C01907
:10304000C3181A705D4BF86B984780465B4B386B22
:103050009847021C5A4B101C9847051C0E1C6B4BC2
:10306000B4214900C919CB181A78564B101C98473F
:10307000031C0C1C4D4A4C49081C111C1A1C231C17
:10308000514CA047031C0C1C504A9446281C311C70
:103090001A1C231CE047031C0C1C4D4A181C211C45
:1030A0009047021C4B4B4046111C9847031CBB63C6
:1030B000574BB86B9847031CDAB2564B1A70554BF6
:1030C0001B78554A101C191C454B9847454B01224B
:1030D0001A70454B4F4A1A60434B01221A71424BFA
:1030E00001225A7160E34820FF303B1800221A7019
:1030F000FBE04821FF317B181B785B00474AB42076
:103100004000C0198218D35C2F2B0CD94821FF3105
:103110007B181B785B00414AB4204000C01982181C
:10312000D35C392B19D94821FF317B181B785B0000
:103130003A4AB4204000C0198218D35C402B2CD9E5
:103140004821FF317B181B785B00344AB4204000D3
:10315000C0198218D35C462B1FD84821FF317B1839
:103160001B785B002D4AB4204000C0198218D25C45
:103170002B4BB4214900C919CB181A704822FF32D1
:10318000BB181B785B000133244AB4204000C019EF
:103190008218D35C2F2B47D854E0224B181C184BB5
:1031A000984700F025FCC0460000000000002440C5
:1031B000E7FEFFFFD9D001008DCE010025170200E8
:1031C0008134020019340200E1AF0100C51E020083
:1031D000253502000D0B0200380C0020744302005C
:1031E0009DC90100E8020020C8080020680C0020EA
:1031F000DBFEFFFF950200205D3B000084400200E3
:1032000009CC0100B4FEFFFFC8460200CFFEFFFF5D
:103210002D0A02003C000020A0430200A4FEFFFF94
:1032200098FEFFFFC04302004821FF317B181B7846
:103230005B000133BD4AB4204000C0198218D35C42
:10324000392B1BD94821FF317B181B785B000133D8
:10325000B64AB4204000C0198218D35C402B3ED936
:103260004821FF317B181B785B000133AF4AB42043
:103270004000C0198218D35C462B30D84821FF315A
:103280007B181B785B000133A84AB4204000C019AA
:103290008218D25CA64BB4214900C919CB185A70C8
:1032A000A34BB4225200D219D31800229A7048209E
:1032B000FF303B181C783B1C181C002110229D4B32
:1032C0009847031CDAB29C4B1A554821FF317B18F2
:1032D0001A784820FF303B1801321A7005E0974BEE
:1032E000181C974B9847C04682E34821FF317B1852
:1032F0001B78052B00D8FCE6924B0020191C924B42
:1033000098478D4B1A788F4B1A738B4B5A788D4B8D
:103310005A73894B9A788B4B9A73874BDA78894B1F
:10332000DA73854B1A79874B1A74834B5A79854B1C
:103330005A74844B0020191C844B9847844B98473F
:10334000844B181C7E4B9847834B1B6820221A43E2
:10335000814B1A607B4B0020191C7B4B98477E4B9E
:103360001B68DBB2DB43DAB2764BDA747A4B1B684C
:10337000DA43FF231B0213401B0ADAB2714B1A75A2
:10338000754B1B68DA43FF231B0413401B0CDAB296
:103390006C4B5A756B4B0020191C6C4B98476C4B4F
:1033A000984701E2674B0220191C674B98475F4B17
:1033B000B4225200D219D3181A78624B1A705B4BA0
:1033C000B4204000C019C3185A785E4B5A70574B4E
:1033D000B4214900C919CB189A785A4B9A70534BAB
:1033E000B4225200D219D318DA78564BDA704F4B08
:1033F000B4204000C019C3181A79524B1A714B4BB4
:10340000B4214900C919CB185A794E4B5A71474B10
:10341000B4225200D219D3189A794A4B9A71434B6D
:10342000B4204000C019C318DA79464BDA713F4B1B
:10343000B4214900C919CB181A7A424B1A723B4B76
:10344000B4225200D219D3185A7A3E4B5A72374BD3
:10345000B4204000C019C3189A7A3A4B9A72334B81
:10346000B4214900C919CB18DA7A364BDA722F4BDE
:10347000B4225200D219D3181A7B324B1A732B4B39
:10348000B4204000C019C3185A7B2E4B5A73274BE7
:10349000B4214900C919CB189A7B2A4B9A73294B3E
:1034A0000022DA732D4A274B111C1A1C0F23081C0B
:1034B000111C1A1C2A4B9847224B0220191C234B23
:1034C0009847234B9847274B181C1D4B9847224B76
:1034D0001B6840221A43204B1A601A4B0020191C0B
:1034E000194B98471C4B1B68DBB2DB43DAB2154B18
:1034F000DA74194B1B68DA43FF231B0213401B0AC3
:10350000DAB2104B1A75144B1B68DA43FF231B0405
:1035100013401B0CDAB20B4B5A750A4B0020191CD6
:103520000A4B98470A4B98473EE1C046A4FEFFFF6E
:1035300098FEFFFFD9D00100F0080020C043020030
:1035400009CC01007408002045AB010025AA010048
:10355000EDAB0100D0430200EC020020E0080020A7
:10356000E5C60100EC430200D44B0120191CD44BEA
:103570009847D44BB4225200D219D3181A78CF4BA3
:103580001A70D04BB4204000C019C3185A78CB4BE6
:103590005A70CC4BB4214900C919CB189A78C74B43
:1035A0009A70C84BB4225200D219D318DA78C34BA0
:1035B000DA70C44BB4204000C019C3181A79BF4B4D
:1035C0001A71C04BB4214900C919CB185A79BB4BA9
:1035D0005A71BC4BB4225200D219D3189A79B74B06
:1035E0009A71B84BB4204000C019C318DA79B34BB4
:1035F000DA71B44BB4214900C919CB181A7AAF4B10
:103600001A72B04BB4225200D219D3185A7AAB4B6B
:103610005A72AC4BB4204000C019C3189A7AA74B19
:103620009A72A84BB4214900C919CB18DA7AA34B76
:10363000DA72A24B00221A73A34AA04B111C1A1C67
:103640000D23081C111C1A1CA04B98479B4B0120F2
:10365000191C9F4B98479F4B98479F4B181C9F4B9B
:1036600098479F4B1B6880221A439D4B1A60934BCF
:103670000020191C924B9847994B1B68DBB2DB4327
:10368000DAB28E4BDA74964B1B68DA43FF231B02C7
:1036900013401B0ADAB2894B1A75914B1B68DA4347
:1036A000FF231B0413401B0CDAB2844B5A75834B67
:1036B0000020191C864B9847864B984774E0894B2D
:1036C0001B78191C874B5B781A1C864B9B788548A6
:1036D000C078061C83480079051C82484079041C88
:1036E0008148009601950294804CA0475CE0804A96
:1036F000804B101C191C7D4B984755E07E4A724B3D
:10370000101C191C794B98474EE000207B4B9847C2
:103710004AE0FB6BDAB201231340DAB2784B1A703D
:10372000664B0020191C664B9847754B1A78634B03
:10373000DA756B4B1B68802292001A43684B1A6043
:10374000674B1B68DBB2DB43DAB25C4BDA74644B69
:103750001B68DA43FF231B0213401B0ADAB2574BE4
:103760001A755F4B1B68DA43FF231B0413401B0CC5
:10377000DAB2524B5A75514B0020191C544B9847E2
:10378000544B98475F4B181C544B98470CE05C4BCC
:103790001B785D4A101C191C544B984704E05B4B86
:1037A000181C4E4B9847C04621E13B1C0C33181C9B
:1037B00000210A22564B9847031CFB62554BB4224A
:1037C0005200D219D3181B78303B092B00D907E1DE
:1037D0009A00514BD3181B689F46FB6A9AB24F4B15
:1037E0001A804E4B1B884E4A101C191C3F4B9847A1
:1037F0004C4B01221A704C4B484A1A604A4B022229
:103800001A71494B01225A71EFE0444B1B88474A19
:10381000101C191C354B9847E7E0FB6ADAB2444BA1
:103820001A70434B1B78434A101C191C2F4B9847A6
:103830003C4B01221A703C4B3D4A1A603A4B012224
:103840001A71394B01225A71CFE0394B1B783A4A31
:10385000101C191C254B9847C7E0FB6ADAB2374B9E
:103860001A70364B1B78364A101C191C1F4B984790
:103870002C4B01221A702C4B304A1A602A4B012221
:103880001A71294B01225A71AFE02C4B1B782D4A3B
:10389000101C191C154B9847A7E02B4B00221A80CF
:1038A0002A4B181C0D4B98479FE00D4B1B68284A6C
:1038B000101C191C0D4B984797E0C0467408002057
:1038C00045AB0100A4FEFFFFB0080020E5C60100E3
:1038D00025AA0100EDAB01000C44020009CC010057
:1038E000EC020020F00800202C4402009DC90100D9
:1038F00050440200E00800206844020061490000D2
:103900008100002080440200A444020084400200A0
:10391000D9D00100B4FEFFFFF0460200880C002061
:10392000C0440200E8020020C8080020E044020071
:10393000F6080020FC4402001C450200C4080020D8
:10394000384502005C450200320300207C4502003D
:1039500098450200FB6ADAB201231340DAB2274B22
:103960001A70274B0020191C264B9847234B1A78B6
:10397000234B9A75244B1B68802252001A43224B1A
:103980001A60214B1B68DBB2DB43DAB21C4BDA74E2
:103990001D4B1B68DA43FF231B0213401B0ADAB2DC
:1039A000174B1A75184B1B68DA43FF231B0413408F
:1039B0001B0CDAB2124B5A75114B0020191C134B19
:1039C0009847134B9847134B181C134B98470CE020
:1039D0000A4B1B78114A101C191C114B984704E024
:1039E000104B181C0C4B9847C046C046C046C046FA
:1039F000BD465AB004BC9046F0BDC04680000020D1
:103A00007408002045AB0100EC02002025AA01004B
:103A1000EDAB0100B045020009CC0100D445020025
:103A20009DC901008440020080B500AF024B1B68B5
:103A3000181CBD4680BDC0460804002090B587B064
:103A400002AF021CFB1D1A703B1C0F33FA1D1278CB
:103A5000D2091A703B1C0E33FA1D127852091A70E3
:103A60001B4BBB603B1C0F331B78002B0ED13B1C48
:103A70000F331B789B001022D219D318083B1A6809
:103A80003B1C0E331B78DB01D3181CE0114B98470D
:103A9000031C002B0FD00F4B9847011C0E4A6823C4
:103AA000FF330E4800900E480190081C01210D4C78
:103AB000A047002307E00C480949074A6823FF3361
:103AC0000A4CA047FEE7181CBD4605B090BDC04695
:103AD00000440041293A0000F04A0200204B020055
:103AE000384B020061110100404B02009DC90100EA
:103AF00080B582B000AF021CFB1D1A70FB1D1B7845
:103B0000181C034B9847031C181CBD4602B080BD0F
:103B10003D3A000080B584B000AF021CFB1D1A7056
:103B2000FB1D1B78181C0C4B9847031CFB60FB1DEE
:103B30001A781F2313400122111C99400B1CBB60F3
:103B4000FB681B69BA6813405A1E9341DBB2181C0C
:103B5000BD4604B080BDC046F13A0000F0B55F46F6
:103B600056464D464446F0B4B7B010AF234B181C30
:103B7000234B9847234B1B7801225340DBB2002B89
:103B800003D0214B181C214B98471C4BDB889846CF
:103B90001A4B1B791E1C194B9B781D1C174B5B780D
:103BA0001C1C164B1B789420C0190360184B9847B7
:103BB000031C184959189022D2191160164B1B8802
:103BC0008C20C0190360154B1B789B46144B1B7847
:103BD0009A46144B1B781A1C134B9200D1588946F5
:103BE000124B1A68124B101C98470A1C011C114BEF
:103BF0001B78002B22D0104821E0C046CC0D0020BD
:103C0000E53D010095020020244C020009CC010092
:103C1000DDD6000080AEFEFF32030020480D0020FC
:103C20008A0C00205009002000000020A003002082
:103C30008134020041030020284C0200F048F14B7F
:103C400000949424E419246801949024E4192468CD
:103C500002948C24E419246803945C46049454462A
:103C600005944C460694089109920A90181C414606
:103C7000321C2B1CE44CA047E44B1B780122534020
:103C8000DBB2002B02D00A20E14B9847E14B1A6CC3
:103C9000E14B101C9847041C0D1CE04B1A6CDE4BCA
:103CA000101C98478022D21910605160D94B5A6D70
:103CB000D94B101C9847B867F967D64B5A6BD64B4F
:103CC000101C984738677967D24B9A6BD24B101CFF
:103CD000984738617961D2498023DB191A685B689B
:103CE00000920193BA6FFB6F029203933A6F7B6F5E
:103CF000049205933A697B6906920793081C221C7B
:103D00002B1CC1498847C14B1B7801225340DBB2B1
:103D1000002B02D00A20BE4B9847BE4B9A69BE4B7F
:103D2000101C9847041C0D1CBE4B1A68BA4B101C83
:103D30009847021C0B1CBC4900920193081C221CD2
:103D40002B1CB1498847B94B1A68B34B101C9847D4
:103D5000031C0C1CB64A101C1A1C231CAA498847B9
:103D6000AE4B5A68AC4B101C9847041C0D1CA94B59
:103D70001A6DA94B101C9847B866F966A54BDA680E
:103D8000A54B101C984738617961AA49BA6EFB6E41
:103D9000009201933A697B6902920393081C221CEA
:103DA0002B1C99498847994B1B7801225340DBB261
:103DB000002B02D00A20964B98479F4BDA6B964B0C
:103DC000101C9847041C0D1C9B4B5A6C924B101CEA
:103DD000984738667966984B1A6C8F4B101C984739
:103DE000B865F965944B9A6C8B4B101C98473865F5
:103DF0007965914B5A69884B101C984738617961F5
:103E00008E493A6E7B6E00920193BA6DFB6D029201
:103E100003933A6D7B6D049205933A697B69069230
:103E20000793081C221C2B1C77498847824BDA69B0
:103E3000794B101C9847041C0D1C7F4B5A6A764B1B
:103E4000101C9847B864F9647B4B1A6A724B101CBB
:103E50009847386179617A49BA6CFB6C009201939A
:103E60003A697B6902920393081C221C2B1C664949
:103E70008847664B1B7801225340DBB2002B02D0EF
:103E80000A20634B98476F4B5B7C191C6D4B5A693A
:103E90006C482C23C35C1C1C6A4BDE68694B9B7E00
:103EA0001D1C684BDB7E181C674B00960195029029
:103EB000181C231C544CA047624B9A6B634B101C7C
:103EC0009847031C9BB21C1C5E4B1A6C5F4B101C6A
:103ED0009847031C9BB25E4A101C211C1A1C4A4BBB
:103EE00098474A4B1B7801225340DBB2002B02D08B
:103EF0000A20474B9847574B5B7C191C554B5A6916
:103F000054482C23C35C1C1C524BDE68514B9B7ED7
:103F10001D1C504BDB7E181C4F4B009601950290E8
:103F2000181C231C384CA0474A4B9A6B474B101C5B
:103F30009847031C9BB21C1C464B1A6C434B101C2D
:103F40009847031C9BB2454A101C211C1A1C2E4B7F
:103F500098472E4B1B7801225340DBB2002B02D036
:103F60000A202B4B98473E4B5B7C191C3C4B5A69F3
:103F70003B482C23C35C3A48807E051C3848C07EF1
:103F8000041C3848009501941F4CA0471F4B1B7818
:103F900001225340DBB2002B02D00A201C4B984771
:103FA000314B5B7C9846304B5E692F4A2C23D35CA7
:103FB0001D1C2D4BDC68A3462B4B9B7E9A462A4B3F
:103FC000DB7E9946294B1A6A134B101C9847B86040
:103FD000F960274A1068274A1168274A5B46009310
:103FE000544601944B460293BB68FC6804930594C5
:103FF00006900791101C4146321C2B1C3EE0C04627
:10400000304C0200384C02009DC90100950200208E
:10401000F5C901005009002081340200F808002091
:10402000904C02007C010020DC4C02006403002064
:10403000F44C0200044D02001C0A00202C4D02002A
:10404000644D0200000D0020844D02002D0A020084
:10405000C44D0200340B0020E04D0200204E02004F
:10406000F00B00203C4E02006C0A0020C00A002029
:1040700044030020480300207C4E0200A74CA047C8
:10408000A74B9A6BA74B101C9847031C9BB21C1C98
:10409000A34B1A6CA34B101C9847031C9BB2A24A5B
:1040A000101C211C1A1C9D4B9847A04B1B78012209
:1040B0005340DBB2002B02D00A209D4B98479D4B0A
:1040C0009B781A1C9C4B9200D6589A4B9B78012BDC
:1040D00004D9984A2C23D35C1D1C04E02E20974B56
:1040E0009847031C1D1C934B1A6B954B101C98474B
:1040F000031C0C1C934A00930194101C311C2A1CB5
:10410000864B9847894B1B7801225340DBB2002B2A
:1041100002D00A20864B98478B4B1B7A191C8A4B7E
:104120005A688A4B1B781C1C884B5868884B009037
:10413000181C231C794CA0477C4B1B780122534050
:10414000DBB2002B02D00A20794B9847814B1A6BC7
:104150007B4B101C9847386479647E4B5A6B784BC4
:10416000101C9847B863F9637A4B9A6B744B101C18
:10417000984738637963784B1A6A714B101C9847DB
:10418000B862F962734B1A6D6D4B101C9847386218
:104190007962704B5A6D6A4B101C9847B861F9618F
:1041A0006C4B9A6E664B101C9847041C0D1C694B97
:1041B000DA6E634B101C984738607960674B1B7848
:1041C000181C674BB96BFA6B00910192396B7A6BD3
:1041D00002910392B96AFA6A04910592396A7A6A7D
:1041E00006910792B969FA69089109920A940B95A8
:1041F00039687A680C910D920E90181C3A6C7B6CA1
:1042000046498847494B1B7801225340DBB2002BBB
:1042100002D00A20464B9847524B1B88524A101C2A
:10422000191C3E4B9847414B1B7801225340DBB28F
:10423000002B02D00A203E4B98474C4B1B7B191C8D
:104240004A4B1A69494B9B68002B04D0474B9B682B
:10425000474C1B1901E0454B9B684448407B041CBC
:10426000444800942D4CA047304B1B78012253400A
:10427000DBB2002B02D00A202D4B98473E4B1B7B14
:10428000191C3D4B1A693C4B9B68002B04D03A4BE0
:104290009B6837481B1801E0374B9B683648407BCA
:1042A000041C364800941D4CA047204B1B7801226B
:1042B0005340DBB2002B02D00A201D4B9847304BF5
:1042C0001B7B191C2E4B1A692D4B9B68002B04D0AD
:1042D0002B4B9B68264C1B1901E0294B9B682848F7
:1042E000407B041C274800940C4CA0470F4B1B78C4
:1042F00001225340DBB2002B02D00A200C4B98471E
:10430000214B1B7B191C204B1A691F4B9B68002BF0
:104310003CD01D4B9B6816481B1839E09DC9010015
:104320006C0A00202D0A0200DC4E020095020020DB
:10433000F5C901001C0A00201C000020153B0000EC
:1043400081340200F84E02004C0D0020B40A002017
:10435000244F02008C0C0020500900205C03002038
:10436000684F020096020020D04F0200C4070020D0
:1043700080AEFEFFE04F0200100800201450020043
:10438000FC07002044500200E4070020414B9B68DA
:104390004048407B041C40480094404CA047404BA0
:1043A0001B7801225340DBB2002B02D00A203D4B88
:1043B00098473D4B19683D4B1B881A1C3C4B1C68A9
:1043C0003C4B1E683C4B1D683C4B18683C4B0096B0
:1043D00001950290181C231C304CA047394B1B78C8
:1043E000002B01D1384B98472D4B1B7801225340AD
:1043F000DBB2002B02D00A202A4B9847334A3D23D8
:10440000D35C002B03D0324B181C244B9847314B04
:104410001B78002B03D0304B181C204B98472F4B98
:104420001B78002B03D02E4B181C1C4B98472D4B90
:104430001B78002B03D02C4B181C184B98472B4B88
:104440001B78002B03D02A4B181C144B9847294B80
:104450001B7801225340DBB2002B03D0264B181CE3
:104460000E4B9847254B1B78002B03D0244B181C70
:104470000A4B98470A4B1B78002B02D00A20094BA5
:104480009847BD4627B03CBC90469946A246AB46ED
:10449000F0BDC046E4070020785002009DC901002D
:1044A00095020020F5C90100F402002078000020E8
:1044B000FC020020F802002004030020000300207A
:1044C000A450020080000020054500005009002093
:1044D000F05002006C030020005102006D03002028
:1044E0001051020070010020205102006F030020D3
:1044F0003451020088000020445102007003002063
:104500005C510200F0B587B004AF2E4B1B7801223E
:104510005340DBB2002B02D00A202B4B98472B4B89
:104520001B88191C2A4B1B881A1C2A4B1B882A48DB
:104530000088051C29480088041C2948009501941E
:10454000284CA0471F4B1B7801225340DBB2002BA5
:1045500002D00A201C4B9847234B1B88191C234B65
:104560001B881A1C224B1B887B60224800888446CB
:1045700021480088061C21480088051C2048008826
:10458000041C2048634600930196029503947B68BF
:10459000144CA0470B4B1B7801225340DBB2002B7D
:1045A00002D00A20084B9847174B1B881A1C174B40
:1045B0001B881749081C111C1A1C0A4B9847BD463A
:1045C00003B0F0BD95020020F5C901005C01002098
:1045D0005003002052030020540300205603002003
:1045E000705102009DC901002A000020B402002081
:1045F000AE020020B6020020B0020020B802002067
:10460000B2020020C051020054000020F00200203D
:1046100040520200F0B585B004AF6D4B181C6D4BD5
:1046200098476D4A4C23D35C1A1C6C4B9200D358AC
:104630006B4A101C191C674B98476A4B1B686A4AE7
:10464000101C191C634B9847684B1B78684A101C58
:10465000191C604B9847674B1B78674A101C191C44
:104660005C4B9847654B1B78654A101C191C594BCD
:104670009847644B1A6C644B101C9847031C0C1C25
:10468000624A101C1A1C231C524988475D4B5A6D04
:104690005D4B101C9847031C0C1C5D4A101C1A1C17
:1046A000231C4C4988475B4B1A6C574B101C98478E
:1046B000031C0C1C584A101C1A1C231C4549884713
:1046C000564B1B88564A101C191C424B9847554B99
:1046D0001B88554A101C191C3E4B98473E4B1A6BC1
:1046E000494B101C9847031C0C1C504A101C1A1CE8
:1046F000231C384988474E4B1A6B434B101C984774
:10470000031C0C1C4B4A101C1A1C231C31498847E3
:10471000494B1B78494A101C191C2E4B9847484B93
:104720001B78484A101C191C2A4B9847464B1A689C
:10473000354B101C9847031C0C1C444A101C1A1CB7
:10474000231C24498847424B1A682F4B101C98475A
:10475000031C0C1C3F4A101C1A1C231C1D498847B3
:104760003D4A3E4B101C191C1A4B98473C4A3D4B86
:10477000101C191C174B98473B4A3C4B101C191C2A
:10478000144B98473A4B1B78191C394B5B781A1C11
:10479000374B9B783648C078061C35480079051C95
:1047A00033484079041C3348009601950294094C23
:1047B000A047314B1B781A1C304B1B783049081C22
:1047C000111C1A1C034B9847BD4601B0F0BDC046F2
:1047D000645202009DC901001C0A002064010020EF
:1047E00080520200EC0200208C5202008000002067
:1047F000A452020081000020BC5202003C000020B4
:10480000D45202005009002081340200EC52020010
:1048100004530200F80800201C530200800100200D
:104820003453020082010020505302006C530200F6
:10483000380C00208C530200F6080020AC53020014
:10484000C4080020C453020074010020E053020099
:10485000780100200054020020540200B00800201B
:1048600034540200E00800204854020048000020B0
:10487000F008002058540200480D00208A0C002047
:104880008054020080B500AF214B181C214B984783
:10489000214B181C1F4B9847204B1B783C2253433D
:1048A0009BB21F4A101C191C1E4B98471E4A1F4BD7
:1048B000101C191C1B4B9847184B0A221A701C4BD2
:1048C0000C221A701B4B00221A801B4B00221A70FC
:1048D0001A4B01221A701A4B9847021C194B1A6086
:1048E000174B9847021C184B1A60184B00221A608D
:1048F000174B00221A60174B1A68174B101CFE2129
:1049000089059847031C1A1C144B1A60BD4680BDCC
:10491000100800203DFE0000E4070020F6080020FB
:10492000C407002099FD0000FC070020602700005C
:10493000C4080020960200209802002028000020D1
:10494000DDD60000A4020020A80200209C02002066
:10495000A002002074010020F9130200F8070020D3
:1049600090B583B000AF021CFB1D1A70FB1D1B78B5
:10497000002B38D13E4B01221A703E4B181C3E4B87
:1049800098473E4B1B783B4A101C191C3C4B9847E0
:104990003C4A3D230121D1543B4B00225A613B4A02
:1049A0004C230021D1543A4B1B8801339AB2384B27
:1049B0001A80384B181C384B9847364B9B78191C7B
:1049C000344B5B781A1C334B1B783448344CA0476B
:1049D000344A304B111C1A1C0A23081C111C1A1CC7
:1049E000314B984740E0FB1D1B78012B25D1204B14
:1049F00000221A701F4B181C1F4B9847214A3D2359
:104A00000021D154214A4C230121D154214B181C9F
:104A1000214B98471F4B9B78191C1E4B5B781A1C27
:104A20001C4B1B7821481E4CA047194B1B88204A61
:104A3000101C191C1A4B984716E0FB1D1B78022B03
:104A400012D10B4B00221A700E4A3D230021D15483
:104A50000E4A4C230121D154064B181C064B984793
:104A6000144B181C0E4B9847BD4603B090BDC04672
:104A700098020020100800203DFE0000C40800201D
:104A800099FD0000500900201C0A00208C0C002019
:104A900096020020CC0D0020E53D01004C5502009F
:104AA0009DC90100D8070020E5C601006C55020031
:104AB0008C5502009C55020080B500AF5E4B1B7800
:104AC000002B00D1B5E05D4B5B7B002B16D05C4B1F
:104AD0005B7B002B03D15B4B5B7B002B0ED000205C
:104AE000594B9847554B181C584B9847554B181C19
:104AF000564B9847524B181C544B9847544B1A68C6
:104B0000544B101C54499847031C002B1ED04C4B8F
:104B10001B7B01225340DBB2002B14D04F4B1B7880
:104B20000133DAB24D4B1A704C4B1B78052B0DD963
:104B30004A4B00221A70424AB423DB00101C191C95
:104B4000474B984702E0454B00221A70454B5B7B70
:104B5000002B16D001203C4B9847434B1B783C223E
:104B600053439BB2354A101C191C3D4B98473F4B91
:104B70001B883C2253439BB2324A101C191C384BF1
:104B80009847334B1A683A4B101C3A499847031C14
:104B9000002B18D02A4B1B7B002B11D0364B1B78D7
:104BA0000133DAB2344B1A70334B1B78052B0AD918
:104BB000314B00221A70224B181C244B984702E0FC
:104BC0002D4B00221A702D4B19682D4B1A68284B5B
:104BD000081C111C9847031C002B1AD0214B1B7B6F
:104BE000002B16D00220184B98471F4B1B783C22F5
:104BF00053439BB2114A101C191C194B98471B4B6D
:104C00001B883C2253439BB20E4A101C191C144BA8
:104C100098470B4B181C1B4B9847084B181C194BFB
:104C20009847084B181C174B98470E4B181C154BF0
:104C30009847BD4680BDC04628000020C40700201C
:104C4000E4070020FC070020614900003DFE000051
:104C5000640300209D0902000000A0C0AC020020F7
:104C600099FD000010080020F6080020880C0020A4
:104C7000C50902000000A040AD0200207C01002018
:104C8000F8070020F1FD000080B500AF024B1B6863
:104C9000181CBD4680BDC0460804002090B585B0F4
:104CA00002AF7860184B9847031C002B11D07B682B
:104CB000002B19D1144B9847011C144AB423FF331D
:104CC0001348009013480190081C0121124CA04782
:104CD0000AE07B68002B07D110480E490B4AB42329
:104CE000FF330F4CA047FEE77B6800221A707B68F9
:104CF00002225A707B6800229A707B680022DA7068
:104D0000BD4603B090BDC046894C0000B4550200BA
:104D1000DC550200F455020061110100FC5502004F
:104D20009DC9010080B582B000AF084B98473B1D7C
:104D3000181C074B98473B1D12229A703B1D002000
:104D4000191C044B9847BD4602B080BDB921010033
:104D50009D4C0000E921010080B500AF024B1B68AB
:104D6000181CBD4680BDC0460804002090B587B021
:104D700002AF021CFB1D1A703B1C0F33FA1D127888
:104D8000D2091A703B1C0E33FA1D127852091A70A0
:104D90001B4BBB603B1C0F331B78002B0ED13B1C05
:104DA0000F331B789B001022D219D318083B1A68C6
:104DB0003B1C0E331B78DB01D3181CE0114B9847CA
:104DC000031C002B0FD00F4B9847011C0E4A682381
:104DD000FF330E4800900E480190081C01210D4C35
:104DE000A047002307E00C480949074A6823FF331E
:104DF0000A4CA047FEE7181CBD4605B090BDC04652
:104E000000440041594D000094560200C45602006F
:104E1000DC56020061110100E45602009DC9010048
:104E200090B585B002AF78601B4B9847031C002BF0
:104E300011D07B68002B19D1174B9847011C174ADA
:104E4000E8235B001648009016480190081C0121D9
:104E5000154CA0470AE07B68002B07D11348114985
:104E60000E4AE8235B00124CA047FEE77B68002255
:104E70001A607B6800225A607B6801221A727B6884
:104E800001225A727B6800229A727B680222DA72CF
:104E9000BD4603B090BDC046594D00000857020002
:104EA000C45602003057020061110100E4560200AE
:104EB0009DC9010080B582B000AF021CFB1D1A70B5
:104EC000FB1D1B78181C034B9847031C181CBD4680
:104ED00002B080BD6D4D000080B584B000AF021CF3
:104EE000FB1D1A70FB1D1B78181C0C4B9847031CEC
:104EF000FB60FB1D1A781F2313400122111C9940EF
:104F00000B1CBB60FB681B6ABA6813405A1E9341B6
:104F1000DBB2181CBD4604B080BDC046B54E0000D3
:104F200080B582B000AF786001200A4B98471B2003
:104F3000094B9847031C01225340DBB2002B01D0E0
:104F4000064B9847064B802212021A60BD4602B0FB
:104F500080BDC046FD0F0100D94E00001DFD0000C0
:104F60001018004080B58CB000AF3B1C2433181CD7
:104F7000164B98473B1C24331B221A603B1C2433DE
:104F800000225A603B1C243300229A723B1C2433BB
:104F90000222DA723B1C243301225A723B1C243356
:104FA0000F20191C0A4B98470A4B98470A4B0B4A8B
:104FB0001A603B1D01229A713B1D0122DA713B1DD3
:104FC000181C074B9847BD460CB080BD214E000011
:104FD00085260100B125010010180040FFFF0000E8
:104FE000E927010080B500AF054B181C0021054BD7
:104FF00098470F200021044B9847BD4680BDC0460E
:10500000214F0000012A01004D2B010080B500AFA7
:10501000024B1B68181CBD4680BDC046080400201A
:1050200090B587B002AF021CFB1D1A703B1C0F33FA
:10503000FA1D1278D2091A703B1C0E33FA1D127831
:1050400052091A701B4BBB603B1C0F331B78002BA3
:105050000ED13B1C0F331B789B001022D219D318A2
:10506000083B1A683B1C0E331B78DB01D3181CE08D
:10507000114B9847031C002B0FD00F4B9847011C76
:105080000E4A6823FF330E4800900E480190081C1A
:1050900001210D4CA047002307E00C480949074AAD
:1050A0006823FF330A4CA047FEE7181CBD4605B035
:1050B00090BDC046004400410D500000AC570200B6
:1050C000DC570200F457020061110100FC57020096
:1050D0009DC9010080B582B000AF021CFB1D1A7093
:1050E000FB1D1B78181C034B9847031C181CBD465E
:1050F00002B080BD2150000080B584B000AF0A1C12
:10510000FB1D011C1970BB1D1A70FB1D1B78181CA0
:105110000D4B9847031CFB60FB1D1A781F2313409F
:105120000122111C99400B1CBB60BB1D1B78002B7E
:1051300003D0FB68BA689A6102E0FB68BA685A61FA
:10514000BD4604B080BDC046D550000080B584B0D7
:1051500000AF3960FB1D011C1970BB1D1A70BB1D0F
:105160001B7801225340DBB2002B0ED03B1C0F33C7
:105170003A68511E8A411A70FB1D1A783B1C0F3386
:105180001B78101C191C034B98470123181CBD46A3
:1051900004B080BDF950000080B586B000AF021C9D
:1051A000FB1D1A703B1C173300221A703B1C143372
:1051B00000221A803B1C0C332C221A70FB1D1B781A
:1051C0009AB23B1C0C335A803B1C0C33104A5A6079
:1051D0000DE03B1C14331B883A1C1432591C1180FF
:1051E0000A2B04D13B1C173301221A7009E0094A2B
:1051F0003B1C0C33101C191C074B9847031C002B3D
:10520000E7D13B1C17331B78181CBD4606B080BD88
:10521000300000202C080020B551010080B586B078
:1052200000AF021CFB1D1A703B1C173300221A70C2
:105230003B1C143300221A803B1C0C332C221A70A6
:10524000FB1D1B789AB23B1C0C335A803B1C0C3361
:10525000214A5A600DE03B1C14331B883A1C14325F
:10526000591C11800A2B04D13B1C173301221A70E0
:1052700009E01A4A3B1C0C33101C191C184B9847A8
:10528000031C002BE7D13B1C17331B78002B1CD1D0
:105290003B1C143300221A803B1C0C33114A5A6009
:1052A00009E03B1C14331B883A1C1432591C118032
:1052B0000A2B00D109E0094A3B1C0C33101C191CB5
:1052C000094B9847031C002BEBD13B1C17331B7871
:1052D000181CBD4606B080BD300000202C08002000
:1052E000B5510100DC020020754F010080B500AF10
:1052F000524B00221A700120514B98470120504B0D
:105300009847031C002B01D0202394E04D4B181C20
:105310004D4B9847031C002B01D020238BE04B4BB7
:10532000181C494B9847031C002B01D0202382E016
:10533000474B181C444B9847031C002B01D02023DB
:1053400079E0444B181C404B9847031C002B01D0BC
:10535000202370E0394B2A221A70384B0B225A70E6
:105360000220374B9847031C002B01D0202362E01A
:10537000324B2B221A70314B0F225A700220304BC5
:105380009847031C002B01D0202354E02B4B5122C3
:105390001A702A4B80225A700220294B9847031C0E
:1053A000002B01D0202346E0244B52221A70234BBD
:1053B0000B225A700220224B9847031C002B01D06D
:1053C000202338E01D4B62221A701C4B1B225A709E
:1053D00002201B4B9847031C002B01D020232AE0FE
:1053E000164B33221A70154B68225A700220144B48
:1053F0009847031C002B01D020231CE00F4B4322B5
:105400001A700E4B68225A7002200D4B9847031CED
:10541000002B01D020230EE0084B63221A70074BAB
:1054200068225A700220064B9847031C002B01D0BB
:10543000202300E00023181CBD4680BD3000002062
:1054400099510000000D00208D570000340B002002
:10545000F00B00206C0A002080B584B000AF7860AB
:105460000A1CFB1C1A703B1C0F3302221A707A684C
:105470001A4B9A4203D11A4B30221A7016E07A68FE
:10548000184B9A4203D1164B40221A700EE07A68EC
:10549000154B9A4203D1124B50221A7006E07A68DB
:1054A000124B9A4202D10E4B60221A70FB1C1A78E2
:1054B000131C1B029A1A0E4B101C64219847031CE4
:1054C000DAB2074B5A703B1C0F331B78181C094B80
:1054D0009847031C181CBD4604B080BD000D002079
:1054E00030000020340B0020F00B00206C0A00205C
:1054F000390802009951000080B582B000AF786091
:105500007A681E4B9A4207D11D4B1B78152001214A
:105510001A1C1C4B984722E07A681B4B9A4207D111
:10552000174B1B78142001211A1C164B984716E0C4
:105530007A68164B9A4207D1114B1B781320012130
:105540001A1C104B98470AE07A68114B9A4206D110
:105550000B4B1B782C2001211A1C0A4B98477B68A7
:105560005B69DBB27A68101C191C0A4B98477B6890
:1055700001225A74BD4602B080BDC046000D002015
:105580006C0300204D510000340B0020F00B002074
:105590006C0A00205954000080B582B000AF7860DA
:1055A0007A681C4B9A4207D11B4B1B7815200021AF
:1055B0001A1C1A4B984722E07A68194B9A4207D175
:1055C000154B1B78142000211A1C144B984716E029
:1055D0007A68144B9A4207D10F4B1B781320002195
:1055E0001A1C0E4B98470AE07A680F4B9A4206D174
:1055F000094B1B782C2000211A1C084B98477B680C
:10560000181C0021094B98477B6800225A74BD463C
:1056100002B080BD000D00206C0300204D51000041
:10562000340B0020F00B00206C0A002059540000BD
:1056300090B585B000AF78603B1C0F3300221A7024
:105640003B1C0E3300221A703B1C0D3300221A70D3
:105650003B1C0A3300221A807A68424B9A4203D1DB
:10566000414B3E221A7016E07A68404B9A4203D1B1
:105670003D4B4E221A700EE07A683D4B9A4203D1A0
:10568000394B5E221A7006E07A683A4B9A4202D190
:10569000354B6E221A703C1C0F340120364B984754
:1056A000031C23703B1C0F331B78002B03D03B1CC7
:1056B0000F331B7851E03B1C0E33304A12781A70BE
:1056C000294B1B780133DAB2274B1A703C1C0F347C
:1056D0000120294B9847031C23703B1C0F331B7878
:1056E000002B03D03B1C0F331B7836E03B1C0D33E3
:1056F000224A12781A703B1C0E331B789BB25B0156
:1057000099B23B1C0D331B78DB08DBB21A1C3B1C27
:105710000A338A181A807B681B7C1A1C131C1B0115
:105720009B1A5B041A1C164B101C9847041C3B1C4C
:105730000A331A88124B101C9847021C114B201C6C
:10574000111C9847031C1A1C0F4B101C9847021C75
:105750007B68DA603B1C0F331B78181CBD4605B014
:1057600090BDC046000D002030000020340B00200A
:10577000F00B00206C0A00201D520000DC0200200B
:1057800025170200E50D02002D0A020090B585B034
:1057900000AF78603B1C0F3300221A707A681C4BF4
:1057A0009A4203D11B4B32221A7016E07A681A4BC8
:1057B0009A4203D1174B42221A700EE07A68174BB7
:1057C0009A4203D1134B52221A7006E07A68144BA6
:1057D0009A4202D10F4B62221A703C1C0F340120F6
:1057E000104B9847031C23703B1C0F331B78002B76
:1057F00003D03B1C0F331B7806E00B4B1A787B68F9
:105800001A763B1C0F331B78181CBD4605B090BDA3
:10581000000D002030000020340B0020F00B002091
:105820006C0A00201D520000DC02002090B583B0FD
:1058300000AFFB1D00221A70BB1D00221A702F4BF7
:1058400024221A70FC1D01202D4B9847031C237045
:10585000FB1D1B78002B02D0FB1D1B7849E0294B58
:105860001978BB1D01220A401A70BB1D1B78002B42
:105870003DD0224B25221A70FC1D0120204B984759
:10588000031C2370FB1D1B78002B02D0FB1D1B7813
:105890002FE01C4B1B781A1C012313405A1E934106
:1058A000DAB2194B9A76174B1B785B08DBB21A1CDD
:1058B000012313405A1E9341DAB2144B9A76114BCE
:1058C0001B789B08DBB21A1C012313405A1E93411C
:1058D000DAB20F4B9A760B4B1B78DB08DBB21A1C43
:1058E000012313405A1E9341DAB20A4B9A76FB1DEC
:1058F0001B78181CBD4603B090BDC0463000002088
:105900001D520000DC020020000D0020340B00209E
:10591000F00B00206C0A002080B582B000AF7860E8
:1059200039603D4B1B7801225340DBB2002B0CD079
:105930007A683B68101C191C384B9847021C384B7E
:10594000101C9847021C7B685A617A68354B9A4252
:1059500035D1354B1B7801225340DBB2002B03D1EC
:105960002D4B1B78002B2AD02E4B5B69002B0BD0C4
:105970002C4B5B7C01225340DBB2002B04D0294B23
:10598000181C2A4B98470BE0264B5B69002B07D16C
:10599000244B5B7C002B03D0224B181C244B9847D4
:1059A000204B5B69D9B21F4A2C23D1541D4A2C23AA
:1059B000D35C1C4A101C191C1E4B98471BE07B68CB
:1059C0005B69002B0BD07B685B7C01225340DBB210
:1059D000002B04D07B68181C144B98470BE07B68A5
:1059E0005B69002B07D17B685B7C002B03D07B6855
:1059F000181C0F4B98477B685B69D9B27A682C23D7
:105A0000D1547A682C23D35C7A68101C191C094B7A
:105A10009847BD4602B080BD6F030020615C000066
:105A20002D0A02006C0A002043030020F9540000F4
:105A3000995500005954000080B584B000AF7860DB
:105A4000834B5B69BB607B68DB7E012B16D17B6877
:105A50001B7F1A1C7F4B101C9847021C7E4B101C8E
:105A6000B9689847031C002B02D07B680222DA76C3
:105A70003B1C0F337A68927F1A70E2E07B68DB7E12
:105A8000022B29D17B685B7F1A1C724B101C984734
:105A9000021C724B101CB9689847031C002B03D0E2
:105AA0007B680122DA7610E07B68DB7F1A1C694B89
:105AB000101C9847021C684B101CB9689847031CBF
:105AC000002B02D07B680322DA763B1C0F33796807
:105AD00021228A5C1A70B4E07B68DB7E032B2BD119
